{
  "contractName": "DepositContractMock",
  "abi": [
    {
      "constant": true,
      "inputs": [
        {
          "name": "",
          "type": "uint256"
        }
      ],
      "name": "tokenIdToMinter",
      "outputs": [
        {
          "name": "",
          "type": "address"
        }
      ],
      "payable": false,
      "stateMutability": "view",
      "type": "function"
    },
    {
      "constant": false,
      "inputs": [],
      "name": "finalizeStake",
      "outputs": [],
      "payable": false,
      "stateMutability": "nonpayable",
      "type": "function"
    },
    {
      "constant": false,
      "inputs": [
        {
          "name": "_to",
          "type": "address"
        },
        {
          "name": "_tokenId",
          "type": "uint256"
        },
        {
          "name": "_rawTxBundle",
          "type": "bytes32[]"
        },
        {
          "name": "_txLengths",
          "type": "uint256[]"
        },
        {
          "name": "_txMsgHashes",
          "type": "bytes32[]"
        }
      ],
      "name": "challengeWithPastCustody",
      "outputs": [],
      "payable": false,
      "stateMutability": "nonpayable",
      "type": "function"
    },
    {
      "constant": false,
      "inputs": [
        {
          "name": "_tokenId",
          "type": "uint256"
        }
      ],
      "name": "claim",
      "outputs": [],
      "payable": false,
      "stateMutability": "nonpayable",
      "type": "function"
    },
    {
      "constant": false,
      "inputs": [
        {
          "name": "hash",
          "type": "bytes32"
        },
        {
          "name": "sig",
          "type": "bytes"
        },
        {
          "name": "signer",
          "type": "address"
        }
      ],
      "name": "ecverify",
      "outputs": [
        {
          "name": "",
          "type": "bool"
        }
      ],
      "payable": false,
      "stateMutability": "nonpayable",
      "type": "function"
    },
    {
      "constant": false,
      "inputs": [
        {
          "name": "_to",
          "type": "address"
        },
        {
          "name": "_tokenId",
          "type": "uint256"
        },
        {
          "name": "_rawTxBundle",
          "type": "bytes32[]"
        },
        {
          "name": "_txLengths",
          "type": "uint256[]"
        },
        {
          "name": "_txMsgHashes",
          "type": "bytes32[]"
        },
        {
          "name": "_declaredNonce",
          "type": "uint256"
        }
      ],
      "name": "withdraw",
      "outputs": [],
      "payable": true,
      "stateMutability": "payable",
      "type": "function"
    },
    {
      "constant": true,
      "inputs": [
        {
          "name": "",
          "type": "uint256"
        }
      ],
      "name": "tokenIdToAmount",
      "outputs": [
        {
          "name": "",
          "type": "uint256"
        }
      ],
      "payable": false,
      "stateMutability": "view",
      "type": "function"
    },
    {
      "constant": false,
      "inputs": [
        {
          "name": "_to",
          "type": "address"
        },
        {
          "name": "_tokenId",
          "type": "uint256"
        },
        {
          "name": "_rawTxBundle",
          "type": "bytes32[]"
        },
        {
          "name": "_txLengths",
          "type": "uint256[]"
        },
        {
          "name": "_txMsgHashes",
          "type": "bytes32[]"
        }
      ],
      "name": "initiateChallengeWithPastCustody",
      "outputs": [],
      "payable": true,
      "stateMutability": "payable",
      "type": "function"
    },
    {
      "constant": false,
      "inputs": [
        {
          "name": "_tokenId",
          "type": "uint256"
        },
        {
          "name": "_minter",
          "type": "address"
        }
      ],
      "name": "deposit",
      "outputs": [],
      "payable": true,
      "stateMutability": "payable",
      "type": "function"
    },
    {
      "constant": false,
      "inputs": [
        {
          "name": "hash",
          "type": "bytes32"
        },
        {
          "name": "sig",
          "type": "bytes"
        }
      ],
      "name": "ecrecovery",
      "outputs": [
        {
          "name": "",
          "type": "address"
        }
      ],
      "payable": false,
      "stateMutability": "nonpayable",
      "type": "function"
    },
    {
      "constant": false,
      "inputs": [
        {
          "name": "_to",
          "type": "address"
        },
        {
          "name": "_tokenId",
          "type": "uint256"
        },
        {
          "name": "_rawTxBundle",
          "type": "bytes32[]"
        },
        {
          "name": "_txLengths",
          "type": "uint256[]"
        },
        {
          "name": "_txMsgHashes",
          "type": "bytes32[]"
        }
      ],
      "name": "submitCustodianDoubleSign",
      "outputs": [],
      "payable": false,
      "stateMutability": "nonpayable",
      "type": "function"
    },
    {
      "constant": false,
      "inputs": [
        {
          "name": "_tokenContract",
          "type": "address"
        }
      ],
      "name": "setTokenContract",
      "outputs": [],
      "payable": false,
      "stateMutability": "nonpayable",
      "type": "function"
    },
    {
      "constant": false,
      "inputs": [
        {
          "name": "_to",
          "type": "address"
        },
        {
          "name": "_tokenId",
          "type": "uint256"
        },
        {
          "name": "_rawTxBundle",
          "type": "bytes32[]"
        },
        {
          "name": "_txLengths",
          "type": "uint256[]"
        },
        {
          "name": "_txMsgHashes",
          "type": "bytes32[]"
        }
      ],
      "name": "challengeWithFutureCustody",
      "outputs": [],
      "payable": false,
      "stateMutability": "nonpayable",
      "type": "function"
    },
    {
      "constant": false,
      "inputs": [
        {
          "name": "_custodianForeign",
          "type": "address"
        }
      ],
      "name": "setCustodianForeign",
      "outputs": [],
      "payable": false,
      "stateMutability": "nonpayable",
      "type": "function"
    },
    {
      "inputs": [
        {
          "name": "_custodian",
          "type": "address"
        }
      ],
      "payable": false,
      "stateMutability": "nonpayable",
      "type": "constructor"
    },
    {
      "payable": true,
      "stateMutability": "payable",
      "type": "fallback"
    },
    {
      "anonymous": false,
      "inputs": [
        {
          "indexed": true,
          "name": "depositer",
          "type": "address"
        },
        {
          "indexed": false,
          "name": "amount",
          "type": "uint256"
        },
        {
          "indexed": false,
          "name": "tokenId",
          "type": "uint256"
        },
        {
          "indexed": false,
          "name": "minter",
          "type": "address"
        }
      ],
      "name": "Deposit",
      "type": "event"
    },
    {
      "anonymous": false,
      "inputs": [
        {
          "indexed": true,
          "name": "challenger",
          "type": "address"
        },
        {
          "indexed": true,
          "name": "depositedTo",
          "type": "address"
        },
        {
          "indexed": false,
          "name": "tokenId",
          "type": "uint256"
        }
      ],
      "name": "ChallengeInitiated",
      "type": "event"
    },
    {
      "anonymous": false,
      "inputs": [
        {
          "indexed": true,
          "name": "rechallenger",
          "type": "address"
        },
        {
          "indexed": true,
          "name": "depositedTo",
          "type": "address"
        },
        {
          "indexed": false,
          "name": "tokenId",
          "type": "uint256"
        },
        {
          "indexed": false,
          "name": "finalChallengeNonce",
          "type": "uint256"
        }
      ],
      "name": "Challenge",
      "type": "event"
    },
    {
      "anonymous": false,
      "inputs": [
        {
          "indexed": false,
          "name": "tokenId",
          "type": "uint256"
        }
      ],
      "name": "ChallengeResolved",
      "type": "event"
    },
    {
      "anonymous": false,
      "inputs": [
        {
          "indexed": true,
          "name": "withdrawer",
          "type": "address"
        },
        {
          "indexed": true,
          "name": "tokenId",
          "type": "uint256"
        },
        {
          "indexed": false,
          "name": "stakedAmount",
          "type": "uint256"
        }
      ],
      "name": "Withdrawal",
      "type": "event"
    },
    {
      "anonymous": false,
      "inputs": [
        {
          "indexed": false,
          "name": "tx1",
          "type": "bytes"
        },
        {
          "indexed": false,
          "name": "tx2",
          "type": "bytes"
        },
        {
          "indexed": false,
          "name": "tx3",
          "type": "bytes"
        }
      ],
      "name": "Test",
      "type": "event"
    },
    {
      "anonymous": false,
      "inputs": [
        {
          "indexed": false,
          "name": "out",
          "type": "bytes"
        }
      ],
      "name": "Trace",
      "type": "event"
    },
    {
      "anonymous": false,
      "inputs": [
        {
          "indexed": false,
          "name": "out",
          "type": "address"
        }
      ],
      "name": "TraceAddress",
      "type": "event"
    },
    {
      "anonymous": false,
      "inputs": [
        {
          "indexed": false,
          "name": "out",
          "type": "bytes32"
        }
      ],
      "name": "Trace32",
      "type": "event"
    },
    {
      "anonymous": false,
      "inputs": [
        {
          "indexed": false,
          "name": "out",
          "type": "uint256"
        }
      ],
      "name": "TraceUint256",
      "type": "event"
    },
    {
      "constant": false,
      "inputs": [
        {
          "name": "_data",
          "type": "bytes"
        },
        {
          "name": "_i",
          "type": "uint256"
        }
      ],
      "name": "_parseData",
      "outputs": [],
      "payable": false,
      "stateMutability": "nonpayable",
      "type": "function"
    }
  ],
  "bytecode": "0x60806040526040805190810160405280600981526020017f7072655374616b6564000000000000000000000000000000000000000000000081525060009080519060200190620000519291906200026e565b506394bf804d7c010000000000000000000000000000000000000000000000000000000002600960006101000a81548163ffffffff02191690837c010000000000000000000000000000000000000000000000000000000090040217905550632e1a7d4d7c010000000000000000000000000000000000000000000000000000000002600960046101000a81548163ffffffff02191690837c01000000000000000000000000000000000000000000000000000000009004021790555063fe99049a7c010000000000000000000000000000000000000000000000000000000002600960086101000a81548163ffffffff02191690837c010000000000000000000000000000000000000000000000000000000090040217905550636e3c045e7c0100000000000000000000000000000000000000000000000000000000026009600c6101000a81548163ffffffff02191690837c010000000000000000000000000000000000000000000000000000000090040217905550620325aa600a55348015620001de57600080fd5b5060405160208062004a9783398101806040528101908080519060200190929190505050600260009054906101000a900473ffffffffffffffffffffffffffffffffffffffff1680600260006101000a81548173ffffffffffffffffffffffffffffffffffffffff021916908373ffffffffffffffffffffffffffffffffffffffff16021790555050506200031d565b828054600181600116156101000203166002900490600052602060002090601f016020900481019282601f10620002b157805160ff1916838001178555620002e2565b82800160010185558215620002e2579182015b82811115620002e1578251825591602001919060010190620002c4565b5b509050620002f19190620002f5565b5090565b6200031a91905b8082111562000316576000816000905550600101620002fc565b5090565b90565b61476a806200032d6000396000f3006080604052600436106100db576000357c0100000000000000000000000000000000000000000000000000000000900463ffffffff1680632218f119146100dd5780632310b3841461014a57806324241ebc14610161578063379607f51461027757806339cdde32146102a457806359c8969e146103535780635d8d5887146104665780636d08e8f9146104a75780636e553f65146105b057806377d32e94146105f05780638fef56cc146106a757806396b6af5a1461071a578063bbcd5bbe14610830578063d7de57c614610873578063fb9efcf014610989575b005b3480156100e957600080fd5b50610108600480360381019080803590602001909291905050506109cc565b604051808273ffffffffffffffffffffffffffffffffffffffff1673ffffffffffffffffffffffffffffffffffffffff16815260200191505060405180910390f35b34801561015657600080fd5b5061015f6109ff565b005b34801561016d57600080fd5b50610275600480360381019080803573ffffffffffffffffffffffffffffffffffffffff16906020019092919080359060200190929190803590602001908201803590602001908080602002602001604051908101604052809392919081815260200183836020028082843782019150505050505091929192908035906020019082018035906020019080806020026020016040519081016040528093929190818152602001838360200280828437820191505050505050919291929080359060200190820180359060200190808060200260200160405190810160405280939291908181526020018383602002808284378201915050505050509192919290505050610ba1565b005b34801561028357600080fd5b506102a2600480360381019080803590602001909291905050506111fd565b005b3480156102b057600080fd5b506103396004803603810190808035600019169060200190929190803590602001908201803590602001908080601f0160208091040260200160405190810160405280939291908181526020018383808284378201915050505050509192919290803573ffffffffffffffffffffffffffffffffffffffff16906020019092919050505061151c565b604051808215151515815260200191505060405180910390f35b610464600480360381019080803573ffffffffffffffffffffffffffffffffffffffff169060200190929190803590602001909291908035906020019082018035906020019080806020026020016040519081016040528093929190818152602001838360200280828437820191505050505050919291929080359060200190820180359060200190808060200260200160405190810160405280939291908181526020018383602002808284378201915050505050509192919290803590602001908201803590602001908080602002602001604051908101604052809392919081815260200183836020028082843782019150505050505091929192908035906020019092919050505061155f565b005b34801561047257600080fd5b5061049160048036038101908080359060200190929190505050611cb9565b6040518082815260200191505060405180910390f35b6105ae600480360381019080803573ffffffffffffffffffffffffffffffffffffffff16906020019092919080359060200190929190803590602001908201803590602001908080602002602001604051908101604052809392919081815260200183836020028082843782019150505050505091929192908035906020019082018035906020019080806020026020016040519081016040528093929190818152602001838360200280828437820191505050505050919291929080359060200190820180359060200190808060200260200160405190810160405280939291908181526020018383602002808284378201915050505050509192919290505050611cd1565b005b6105ee60048036038101908080359060200190929190803573ffffffffffffffffffffffffffffffffffffffff1690602001909291905050506122c8565b005b3480156105fc57600080fd5b506106656004803603810190808035600019169060200190929190803590602001908201803590602001908080601f01602080910402602001604051908101604052809392919081815260200183838082843782019150505050505091929192905050506123f5565b604051808273ffffffffffffffffffffffffffffffffffffffff1673ffffffffffffffffffffffffffffffffffffffff16815260200191505060405180910390f35b3480156106b357600080fd5b50610718600480360381019080803590602001908201803590602001908080601f0160208091040260200160405190810160405280939291908181526020018383808284378201915050505050509192919290803590602001909291905050506124ed565b005b34801561072657600080fd5b5061082e600480360381019080803573ffffffffffffffffffffffffffffffffffffffff169060200190929190803590602001909291908035906020019082018035906020019080806020026020016040519081016040528093929190818152602001838360200280828437820191505050505050919291929080359060200190820180359060200190808060200260200160405190810160405280939291908181526020018383602002808284378201915050505050509192919290803590602001908201803590602001908080602002602001604051908101604052809392919081815260200183836020028082843782019150505050505091929192905050506124fc565b005b34801561083c57600080fd5b50610871600480360381019080803573ffffffffffffffffffffffffffffffffffffffff169060200190929190505050612b26565b005b34801561087f57600080fd5b50610987600480360381019080803573ffffffffffffffffffffffffffffffffffffffff16906020019092919080359060200190929190803590602001908201803590602001908080602002602001604051908101604052809392919081815260200183836020028082843782019150505050505091929192908035906020019082018035906020019080806020026020016040519081016040528093929190818152602001838360200280828437820191505050505050919291929080359060200190820180359060200190808060200260200160405190810160405280939291908181526020018383602002808284378201915050505050509192919290505050612c7a565b005b34801561099557600080fd5b506109ca600480360381019080803573ffffffffffffffffffffffffffffffffffffffff1690602001909291905050506130e8565b005b60086020528060005260406000206000915054906101000a900473ffffffffffffffffffffffffffffffffffffffff1681565b3373ffffffffffffffffffffffffffffffffffffffff16600260009054906101000a900473ffffffffffffffffffffffffffffffffffffffff1673ffffffffffffffffffffffffffffffffffffffff16141515610a5b57600080fd5b60405180807f7072655374616b65640000000000000000000000000000000000000000000000815250600901905060405180910390206000191660006040518082805460018160011615610100020316600290048015610af25780601f10610ad0576101008083540402835291820191610af2565b820191906000526020600020905b815481529060010190602001808311610ade575b5050915050604051809103902060001916141515610b0f57600080fd5b3073ffffffffffffffffffffffffffffffffffffffff16316004819055503073ffffffffffffffffffffffffffffffffffffffff163160058190555060006006819055506040805190810160405280600681526020017f7374616b6564000000000000000000000000000000000000000000000000000081525060009080519060200190610b9e9291906145c4565b50565b60006060806000600b60008981526020019081526020016000205414151515610bc957600080fd5b42600b600089815260200190815260200160002054111515610bea57600080fd5b60006010600089815260200190815260200160002054111515610c0c57600080fd5b610c1786868561323c565b610cd9610cd4846000815481101515610c2c57fe5b906000526020600020018054600181600116156101000203166002900480601f016020809104026020016040519081016040528092919081815260200182805460018160011615610100020316600290048015610cca5780601f10610c9f57610100808354040283529160200191610cca565b820191906000526020600020905b815481529060010190602001808311610cad57829003601f168201915b50505050506132f3565b61334e565b9150610d9d610d98846001815481101515610cf057fe5b906000526020600020018054600181600116156101000203166002900480601f016020809104026020016040519081016040528092919081815260200182805460018160011615610100020316600290048015610d8e5780601f10610d6357610100808354040283529160200191610d8e565b820191906000526020600020905b815481529060010190602001808311610d7157829003601f168201915b50505050506132f3565b61334e565b9050610dc28282866001815181101515610db357fe5b9060200190602002015161340b565b610e00600c610df2610deb856005815181101515610ddc57fe5b90602001906020020151613afd565b6001613b6b565b613bbc90919063ffffffff16565b73ffffffffffffffffffffffffffffffffffffffff166008600089815260200190815260200160002060009054906101000a900473ffffffffffffffffffffffffffffffffffffffff1673ffffffffffffffffffffffffffffffffffffffff16141515610efb576040517f08c379a00000000000000000000000000000000000000000000000000000000081526004018080602001828103825260358152602001807f746f6b656e206e6565647320746f206265207472616e7366657265642066726f81526020017f6d206c6173742070726f76656e20637573746f6479000000000000000000000081525060400191505060405180910390fd5b610f396000610f2b610f24856005815181101515610f1557fe5b90602001906020020151613afd565b6003613b6b565b613bf490919063ffffffff16565b87141515610fd5576040517f08c379a00000000000000000000000000000000000000000000000000000000081526004018080602001828103825260228152602001807f6e6565647320746f20726566657220746f207468652073616d6520746f6b656e81526020017f496400000000000000000000000000000000000000000000000000000000000081525060400191505060405180910390fd5b6010600088815260200190815260200160002054611027600061101961101286600581518110151561100357fe5b90602001906020020151613afd565b6004613b6b565b613bf490919063ffffffff16565b1415156110c2576040517f08c379a000000000000000000000000000000000000000000000000000000000815260040180806020018281038252602c8152602001807f6e6f6e6365206e6565647320746f20657175616c20726571756972656420636881526020017f616c6c656e67654e6f6e6365000000000000000000000000000000000000000081525060400191505060405180910390fd5b611100600c6110f26110eb8560058151811015156110dc57fe5b90602001906020020151613afd565b6002613b6b565b613bbc90919063ffffffff16565b6008600089815260200190815260200160002060006101000a81548173ffffffffffffffffffffffffffffffffffffffff021916908373ffffffffffffffffffffffffffffffffffffffff160217905550600160106000898152602001908152602001600020600082825401925050819055508773ffffffffffffffffffffffffffffffffffffffff163373ffffffffffffffffffffffffffffffffffffffff167f8088a25426f6cf86aeb3c86607e9f059cdcf86a1ca4cb1be8514c1e6f82fa09189601060008c815260200190815260200160002054604051808381526020018281526020019250505060405180910390a35050505050505050565b6000600b600083815260200190815260200160002054141515156112af576040517f08c379a00000000000000000000000000000000000000000000000000000000081526004018080602001828103825260288152602001807f746865206368616c6c656e676520706572696f6420686173206e6f742073746181526020017f727465642079657400000000000000000000000000000000000000000000000081525060400191505060405180910390fd5b42600b60008381526020019081526020016000205410151561135f576040517f08c379a00000000000000000000000000000000000000000000000000000000081526004018080602001828103825260268152602001807f746865206368616c6c656e676520706572696f6420686173206e6f7420656e6481526020017f656420796574000000000000000000000000000000000000000000000000000081525060400191505060405180910390fd5b600f600082815260200190815260200160002054601060008381526020019081526020016000205414806113a6575060006010600083815260200190815260200160002054145b1515611466576040517f08c379a00000000000000000000000000000000000000000000000000000000081526004018080602001828103825260528152602001807f61206368616c6c656e676520686173207374617274656420616e64207468652081526020017f6368616c6c656e676520726573706f6e736520686173206e6f74206265656e2081526020017f70726f76656e20746f20656e644e6f6e6365000000000000000000000000000081525060600191505060405180910390fd5b600d600082815260200190815260200160002060009054906101000a900473ffffffffffffffffffffffffffffffffffffffff1673ffffffffffffffffffffffffffffffffffffffff166108fc600e6000848152602001908152602001600020546007600085815260200190815260200160002054019081150290604051600060405180830381858888f19350505050506000600760008381526020019081526020016000208190555061151981613c1d565b50565b600061152884846123f5565b73ffffffffffffffffffffffffffffffffffffffff168273ffffffffffffffffffffffffffffffffffffffff161490509392505050565b60006060806060600061158f866115813a600a54613d6190919063ffffffff16565b613d6190919063ffffffff16565b341015151561159d57600080fd5b6115a889898761323c565b61166a6116658660008154811015156115bd57fe5b906000526020600020018054600181600116156101000203166002900480601f01602080910402602001604051908101604052809291908181526020018280546001816001161561010002031660029004801561165b5780601f106116305761010080835404028352916020019161165b565b820191906000526020600020905b81548152906001019060200180831161163e57829003601f168201915b50505050506132f3565b61334e565b935061172e61172986600181548110151561168157fe5b906000526020600020018054600181600116156101000203166002900480601f01602080910402602001604051908101604052809291908181526020018280546001816001161561010002031660029004801561171f5780601f106116f45761010080835404028352916020019161171f565b820191906000526020600020905b81548152906001019060200180831161170257829003601f168201915b50505050506132f3565b61334e565b92506117f26117ed86600281548110151561174557fe5b906000526020600020018054600181600116156101000203166002900480601f0160208091040260200160405190810160405280929190818152602001828054600181600116156101000203166002900480156117e35780601f106117b8576101008083540402835291602001916117e3565b820191906000526020600020905b8154815290600101906020018083116117c657829003601f168201915b50505050506132f3565b61334e565b9150611817838389600281518110151561180857fe5b9060200190602002015161340b565b611855600c61184761184086600581518110151561183157fe5b90602001906020020151613afd565b6002613b6b565b613bbc90919063ffffffff16565b9050600160009054906101000a900473ffffffffffffffffffffffffffffffffffffffff1673ffffffffffffffffffffffffffffffffffffffff166118b18560038151811015156118a257fe5b90602001906020020151613d94565b73ffffffffffffffffffffffffffffffffffffffff161415156118d357600080fd5b60018760008151811015156118e457fe5b9060200190602002015161190f86600681518110151561190057fe5b90602001906020020151613ddb565b61193087600781518110151561192157fe5b90602001906020020151613e2e565b61195188600881518110151561194257fe5b90602001906020020151613e2e565b604051600081526020016040526040518085600019166000191681526020018460ff1660ff1681526020018360001916600019168152602001826000191660001916815260200194505050505060206040516020810390808403906000865af11580156119c2573d6000803e3d6000fd5b5050506020604051035173ffffffffffffffffffffffffffffffffffffffff168173ffffffffffffffffffffffffffffffffffffffff16141515611a94576040517f08c379a000000000000000000000000000000000000000000000000000000000815260040180806020018281038252602c8152602001807f5769746864726177616c5478206e6f74207369676e6564206279206c6173745481526020017f782072656365697069656e74000000000000000000000000000000000000000081525060400191505060405180910390fd5b856001611ad56000611ac7611ac0886005815181101515611ab157fe5b90602001906020020151613afd565b6004613b6b565b613bf490919063ffffffff16565b01141515611b4b576040517f08c379a00000000000000000000000000000000000000000000000000000000081526004018080602001828103825260138152602001807f6e6f6e63657320646f206e6f74206d617463680000000000000000000000000081525060200191505060405180910390fd5b6000600b60008c815260200190815260200160002054141515611b6d57600080fd5b6102584201600b60008c81526020019081526020016000208190555085600f60008c81526020019081526020016000208190555080600c60008c815260200190815260200160002060006101000a81548173ffffffffffffffffffffffffffffffffffffffff021916908373ffffffffffffffffffffffffffffffffffffffff1602179055508a600d60008c815260200190815260200160002060006101000a81548173ffffffffffffffffffffffffffffffffffffffff021916908373ffffffffffffffffffffffffffffffffffffffff16021790555034600e60008c815260200190815260200160002081905550898b73ffffffffffffffffffffffffffffffffffffffff167fdf273cb619d95419a9cd0ec88123a0538c85064229baa6363788f743fff90deb346040518082815260200191505060405180910390a35050505050505050505050565b60076020528060005260406000206000915090505481565b60006060806000600b60008981526020019081526020016000205414151515611cf957600080fd5b42600b600089815260200190815260200160002054111515611d1a57600080fd5b611d676005611d59600f60008b815260200190815260200160002054611d4b3a600a54613d6190919063ffffffff16565b613d6190919063ffffffff16565b613e4390919063ffffffff16565b3410151515611d7557600080fd5b611d8086868561323c565b611e42611e3d846000815481101515611d9557fe5b906000526020600020018054600181600116156101000203166002900480601f016020809104026020016040519081016040528092919081815260200182805460018160011615610100020316600290048015611e335780601f10611e0857610100808354040283529160200191611e33565b820191906000526020600020905b815481529060010190602001808311611e1657829003601f168201915b50505050506132f3565b61334e565b9150611f06611f01846001815481101515611e5957fe5b906000526020600020018054600181600116156101000203166002900480601f016020809104026020016040519081016040528092919081815260200182805460018160011615610100020316600290048015611ef75780601f10611ecc57610100808354040283529160200191611ef7565b820191906000526020600020905b815481529060010190602001808311611eda57829003601f168201915b50505050506132f3565b61334e565b9050611f2b8282866001815181101515611f1c57fe5b9060200190602002015161340b565b611f696000611f5b611f54856005815181101515611f4557fe5b90602001906020020151613afd565b6003613b6b565b613bf490919063ffffffff16565b87141515612005576040517f08c379a00000000000000000000000000000000000000000000000000000000081526004018080602001828103825260228152602001807f6e6565647320746f20726566657220746f207468652073616d6520746f6b656e81526020017f496400000000000000000000000000000000000000000000000000000000000081525060400191505060405180910390fd5b612043600c61203561202e85600581518110151561201f57fe5b90602001906020020151613afd565b6001613b6b565b613bbc90919063ffffffff16565b73ffffffffffffffffffffffffffffffffffffffff166008600089815260200190815260200160002060009054906101000a900473ffffffffffffffffffffffffffffffffffffffff1673ffffffffffffffffffffffffffffffffffffffff1614151561213e576040517f08c379a00000000000000000000000000000000000000000000000000000000081526004018080602001828103825260358152602001807f746f6b656e206e6565647320746f206265207472616e7366657265642066726f81526020017f6d206c6173742070726f76656e20637573746f6479000000000000000000000081525060400191505060405180910390fd5b61217c600c61216e61216785600581518110151561215857fe5b90602001906020020151613afd565b6002613b6b565b613bbc90919063ffffffff16565b6008600089815260200190815260200160002060006101000a81548173ffffffffffffffffffffffffffffffffffffffff021916908373ffffffffffffffffffffffffffffffffffffffff16021790555034600e600089815260200190815260200160002060008282540192505081905550876011600089815260200190815260200160002060006101000a81548173ffffffffffffffffffffffffffffffffffffffff021916908373ffffffffffffffffffffffffffffffffffffffff160217905550600160106000898152602001908152602001600020819055508773ffffffffffffffffffffffffffffffffffffffff163373ffffffffffffffffffffffffffffffffffffffff167f5331871e026683c9fc9f966209853fdbd75ee7b21e9b4880849a76970c60f1d4896040518082815260200191505060405180910390a35050505050505050565b346006600082825401925050819055506122fe346007600085815260200190815260200160002054613e5e90919063ffffffff16565b6007600084815260200190815260200160002081905550806008600084815260200190815260200160002060006101000a81548173ffffffffffffffffffffffffffffffffffffffff021916908373ffffffffffffffffffffffffffffffffffffffff1602179055503373ffffffffffffffffffffffffffffffffffffffff167f02d7e648dd130fc184d383e55bb126ac4c9c60e8f94bf05acdf557ba2d540b47348484604051808481526020018381526020018273ffffffffffffffffffffffffffffffffffffffff1673ffffffffffffffffffffffffffffffffffffffff168152602001935050505060405180910390a25050565b6000806000806041855114151561240f57600093506124e4565b602085015192506040850151915060ff6041860151169050601b8160ff16101561243a57601b810190505b601b8160ff16141580156124525750601c8160ff1614155b1561246057600093506124e4565b600186828585604051600081526020016040526040518085600019166000191681526020018460ff1660ff1681526020018360001916600019168152602001826000191660001916815260200194505050505060206040516020810390808403906000865af11580156124d7573d6000803e3d6000fd5b5050506020604051035193505b50505092915050565b6124f78282613b6b565b505050565b600060608060608061250f88888761323c565b6125d16125cc86600081548110151561252457fe5b906000526020600020018054600181600116156101000203166002900480601f0160208091040260200160405190810160405280929190818152602001828054600181600116156101000203166002900480156125c25780601f10612597576101008083540402835291602001916125c2565b820191906000526020600020905b8154815290600101906020018083116125a557829003601f168201915b50505050506132f3565b61334e565b93506126956126908660018154811015156125e857fe5b906000526020600020018054600181600116156101000203166002900480601f0160208091040260200160405190810160405280929190818152602001828054600181600116156101000203166002900480156126865780601f1061265b57610100808354040283529160200191612686565b820191906000526020600020905b81548152906001019060200180831161266957829003601f168201915b50505050506132f3565b61334e565b92506127596127548660028154811015156126ac57fe5b906000526020600020018054600181600116156101000203166002900480601f01602080910402602001604051908101604052809291908181526020018280546001816001161561010002031660029004801561274a5780601f1061271f5761010080835404028352916020019161274a565b820191906000526020600020905b81548152906001019060200180831161272d57829003601f168201915b50505050506132f3565b61334e565b915061281d61281886600381548110151561277057fe5b906000526020600020018054600181600116156101000203166002900480601f01602080910402602001604051908101604052809291908181526020018280546001816001161561010002031660029004801561280e5780601f106127e35761010080835404028352916020019161280e565b820191906000526020600020905b8154815290600101906020018083116127f157829003601f168201915b50505050506132f3565b61334e565b9050612842848488600181518110151561283357fe5b9060200190602002015161340b565b612865828288600381518110151561285657fe5b9060200190602002015161340b565b6128a3600061289561288e87600581518110151561287f57fe5b90602001906020020151613afd565b6003613b6b565b613bf490919063ffffffff16565b8914151561293f576040517f08c379a00000000000000000000000000000000000000000000000000000000081526004018080602001828103825260228152602001807f6e6565647320746f20726566657220746f207468652073616d6520746f6b656e81526020017f496400000000000000000000000000000000000000000000000000000000000081525060400191505060405180910390fd5b61297d600061296f61296885600581518110151561295957fe5b90602001906020020151613afd565b6003613b6b565b613bf490919063ffffffff16565b89141515612a19576040517f08c379a00000000000000000000000000000000000000000000000000000000081526004018080602001828103825260228152602001807f6e6565647320746f20726566657220746f207468652073616d6520746f6b656e81526020017f496400000000000000000000000000000000000000000000000000000000000081525060400191505060405180910390fd5b612a576000612a49612a42876005815181101515612a3357fe5b90602001906020020151613afd565b6004613b6b565b613bf490919063ffffffff16565b612a956000612a87612a80866005815181101515612a7157fe5b90602001906020020151613afd565b6004613b6b565b613bf490919063ffffffff16565b141515612b0a576040517f08c379a00000000000000000000000000000000000000000000000000000000081526004018080602001828103825260208152602001807f6e6565647320746f20726566657220746f207468652073616d65206e6f6e636581525060200191505060405180910390fd5b6000600481905550600060058190555050505050505050505050565b3373ffffffffffffffffffffffffffffffffffffffff16600260009054906101000a900473ffffffffffffffffffffffffffffffffffffffff1673ffffffffffffffffffffffffffffffffffffffff16141515612b8257600080fd5b60405180807f7072655374616b65640000000000000000000000000000000000000000000000815250600901905060405180910390206000191660006040518082805460018160011615610100020316600290048015612c195780601f10612bf7576101008083540402835291820191612c19565b820191906000526020600020905b815481529060010190602001808311612c05575b5050915050604051809103902060001916141515612c3657600080fd5b80600160006101000a81548173ffffffffffffffffffffffffffffffffffffffff021916908373ffffffffffffffffffffffffffffffffffffffff16021790555050565b60006060806000600b60008981526020019081526020016000205414151515612ca257600080fd5b42600b600089815260200190815260200160002054111515612cc357600080fd5b612cce86868561323c565b612d90612d8b846000815481101515612ce357fe5b906000526020600020018054600181600116156101000203166002900480601f016020809104026020016040519081016040528092919081815260200182805460018160011615610100020316600290048015612d815780601f10612d5657610100808354040283529160200191612d81565b820191906000526020600020905b815481529060010190602001808311612d6457829003601f168201915b50505050506132f3565b61334e565b9150612e54612e4f846001815481101515612da757fe5b906000526020600020018054600181600116156101000203166002900480601f016020809104026020016040519081016040528092919081815260200182805460018160011615610100020316600290048015612e455780601f10612e1a57610100808354040283529160200191612e45565b820191906000526020600020905b815481529060010190602001808311612e2857829003601f168201915b50505050506132f3565b61334e565b9050612e798282866001815181101515612e6a57fe5b9060200190602002015161340b565b612eb7600c612ea9612ea2856005815181101515612e9357fe5b90602001906020020151613afd565b6001613b6b565b613bbc90919063ffffffff16565b73ffffffffffffffffffffffffffffffffffffffff16600c600089815260200190815260200160002060009054906101000a900473ffffffffffffffffffffffffffffffffffffffff1673ffffffffffffffffffffffffffffffffffffffff16141515612fb2576040517f08c379a00000000000000000000000000000000000000000000000000000000081526004018080602001828103825260358152602001807f746f6b656e206e6565647320746f206265207472616e7366657265642066726f81526020017f6d206c6173742070726f76656e20637573746f6479000000000000000000000081525060400191505060405180910390fd5b612ff06000612fe2612fdb856005815181101515612fcc57fe5b90602001906020020151613afd565b6003613b6b565b613bf490919063ffffffff16565b8714151561308c576040517f08c379a00000000000000000000000000000000000000000000000000000000081526004018080602001828103825260228152602001807f6e6565647320746f20726566657220746f207468652073616d6520746f6b656e81526020017f496400000000000000000000000000000000000000000000000000000000000081525060400191505060405180910390fd5b8773ffffffffffffffffffffffffffffffffffffffff166108fc600e60008a8152602001908152602001600020549081150290604051600060405180830381858888f19350505050506130de87613c1d565b5050505050505050565b3373ffffffffffffffffffffffffffffffffffffffff16600260009054906101000a900473ffffffffffffffffffffffffffffffffffffffff1673ffffffffffffffffffffffffffffffffffffffff1614151561314457600080fd5b60405180807f7072655374616b656400000000000000000000000000000000000000000000008152506009019050604051809103902060001916600060405180828054600181600116156101000203166002900480156131db5780601f106131b95761010080835404028352918201916131db565b820191906000526020600020905b8154815290600101906020018083116131c7575b50509150506040518091039020600019161415156131f857600080fd5b80600360006101000a81548173ffffffffffffffffffffffffffffffffffffffff021916908373ffffffffffffffffffffffffffffffffffffffff16021790555050565b60008060009150600090505b83518110156132ec576132738583868481518110151561326457fe5b90602001906020020151613e7c565b838281548110151561328157fe5b90600052602060002001908051906020019061329e929190614644565b506132c984828151811015156132b057fe5b9060200190602002015183613e5e90919063ffffffff16565b91506040828115156132d757fe5b06604003820191508080600101915050613248565b5050505050565b6132fb6146c4565b6000808351915060008214156133295760408051908101604052806000815260200160008152509250613347565b60208401905060408051908101604052808281526020018381525092505b5050919050565b6060600061335a6146de565b600061336585613f81565b151561337057600080fd5b61337985613fb3565b9250826040519080825280602002602001820160405280156133b557816020015b6133a26146ff565b81526020019060019003908161339a5790505b5093506133c18561402d565b91505b6133cd82614075565b15613403576133db8261409f565b84828151811015156133e957fe5b9060200190602002018190525080806001019150506133c4565b505050919050565b600160009054906101000a900473ffffffffffffffffffffffffffffffffffffffff1673ffffffffffffffffffffffffffffffffffffffff1661346584600381518110151561345657fe5b90602001906020020151613d94565b73ffffffffffffffffffffffffffffffffffffffff1614151561348757600080fd5b600160009054906101000a900473ffffffffffffffffffffffffffffffffffffffff1673ffffffffffffffffffffffffffffffffffffffff166134e18360038151811015156134d257fe5b90602001906020020151613d94565b73ffffffffffffffffffffffffffffffffffffffff1614151561350357600080fd5b600960089054906101000a90047c0100000000000000000000000000000000000000000000000000000000027bffffffffffffffffffffffffffffffffffffffffffffffffffffffff191661358361357c61357586600581518110151561356657fe5b90602001906020020151613afd565b6000613b6b565b60006140fb565b7bffffffffffffffffffffffffffffffffffffffffffffffffffffffff191614151561363d576040517f08c379a00000000000000000000000000000000000000000000000000000000081526004018080602001828103825260288152602001807f5f7472616e736665725478206973206e6f74207472616e7366657246726f6d2081526020017f66756e6374696f6e00000000000000000000000000000000000000000000000081525060400191505060405180910390fd5b6009600c9054906101000a90047c0100000000000000000000000000000000000000000000000000000000027bffffffffffffffffffffffffffffffffffffffffffffffffffffffff19166136bd6136b66136af8560058151811015156136a057fe5b90602001906020020151613afd565b6000613b6b565b60006140fb565b7bffffffffffffffffffffffffffffffffffffffffffffffffffffffff1916141515613777576040517f08c379a00000000000000000000000000000000000000000000000000000000081526004018080602001828103825260258152602001807f5f637573746f6469616e5478206973206e6f7420637573746f6469616e41707081526020017f726f76616c00000000000000000000000000000000000000000000000000000081525060400191505060405180910390fd5b60018161379b84600681518110151561378c57fe5b90602001906020020151613ddb565b6137bc8560078151811015156137ad57fe5b90602001906020020151613e2e565b6137dd8660088151811015156137ce57fe5b90602001906020020151613e2e565b604051600081526020016040526040518085600019166000191681526020018460ff1660ff1681526020018360001916600019168152602001826000191660001916815260200194505050505060206040516020810390808403906000865af115801561384e573d6000803e3d6000fd5b5050506020604051035173ffffffffffffffffffffffffffffffffffffffff16600360009054906101000a900473ffffffffffffffffffffffffffffffffffffffff1673ffffffffffffffffffffffffffffffffffffffff16141515613942576040517f08c379a000000000000000000000000000000000000000000000000000000000815260040180806020018281038252602a8152602001807f5f637573746f6469616e54782073686f756c64206265207369676e656420627981526020017f20637573746f6469616e0000000000000000000000000000000000000000000081525060400191505060405180910390fd5b6139a961397061396984600581518110151561395a57fe5b90602001906020020151613afd565b6001613b6b565b61399b61399486600581518110151561398557fe5b90602001906020020151613afd565b6003613b6b565b6141f490919063ffffffff16565b1515613a1d576040517f08c379a00000000000000000000000000000000000000000000000000000000081526004018080602001828103825260168152602001807f746f6b656e5f69647320646f206e6f74206d617463680000000000000000000081525060200191505060405180910390fd5b613a84613a4b613a44846005815181101515613a3557fe5b90602001906020020151613afd565b6002613b6b565b613a76613a6f866005815181101515613a6057fe5b90602001906020020151613afd565b6004613b6b565b6141f490919063ffffffff16565b1515613af8576040517f08c379a00000000000000000000000000000000000000000000000000000000081526004018080602001828103825260138152602001807f6e6f6e63657320646f206e6f74206d617463680000000000000000000000000081525060200191505060405180910390fd5b505050565b6060600080613b0b84614263565b1515613b1657600080fd5b613b1f84614294565b91509150806040519080825280601f01601f191660200182016040528015613b565781602001602082028038833980820191505090505b509250613b64828483614315565b5050919050565b60606000821415613b9457613b8d60006005856143569092919063ffffffff16565b9050613bb6565b613bb3602060018403026004016020856143569092919063ffffffff16565b90505b92915050565b60008060148301845110151515613bd257600080fd5b6c01000000000000000000000000836020860101510490508091505092915050565b60008060208301845110151515613c0a57600080fd5b8260208501015190508091505092915050565b6000600e6000838152602001908152602001600020819055506000600d600083815260200190815260200160002060006101000a81548173ffffffffffffffffffffffffffffffffffffffff021916908373ffffffffffffffffffffffffffffffffffffffff1602179055506000600c600083815260200190815260200160002060006101000a81548173ffffffffffffffffffffffffffffffffffffffff021916908373ffffffffffffffffffffffffffffffffffffffff1602179055506000600f6000838152602001908152602001600020819055506000600b600083815260200190815260200160002081905550600060106000838152602001908152602001600020819055507f7874ca11ed47a2bbe287f114874e02e047a1261400f57712590c8f364b126501816040518082815260200191505060405180910390a150565b60008082840290506000841480613d825750828482811515613d7f57fe5b04145b1515613d8a57fe5b8091505092915050565b6000806000613da284614263565b1515613dad57600080fd5b613db684614294565b91509150601481141515613dc957600080fd5b600c6101000a82510492505050919050565b6000806000613de984614263565b1515613df457600080fd5b613dfd84614294565b915091506020811180613e105750600081145b15613e1a57600080fd5b806020036101000a82510492505050919050565b6000613e3982613ddb565b6001029050919050565b6000808284811515613e5157fe5b0490508091505092915050565b6000808284019050838110151515613e7257fe5b8091505092915050565b6060806000806000613e98604088613e4390919063ffffffff16565b9250613ead8688613e5e90919063ffffffff16565b9150613ec3604083613e4390919063ffffffff16565b90505b80831015613f0f57613f00613ef18985815181101515613ee257fe5b906020019060200201516143e3565b8561441490919063ffffffff16565b93508280600101935050613ec6565b613f71613f62600060016002604087811515613f2757fe5b06811515613f3157fe5b0403613f538c86815181101515613f4457fe5b906020019060200201516143e3565b6143569092919063ffffffff16565b8561441490919063ffffffff16565b9350839450505050509392505050565b600080600083602001511415613f9a5760009150613fad565b8260000151905060c0815160001a101591505b50919050565b600080600080600080613fc587613f81565b1515613fd45760009550614023565b86600001519350835160001a9450613feb8761449e565b840192506001876020015185010391505b818311151561401f5761400e8361452a565b830192508080600101915050613ffc565b8095505b5050505050919050565b6140356146de565b600061404083613f81565b151561404b57600080fd5b6140548361449e565b83600001510190508282600001819052508082602001818152505050919050565b600061407f6146c4565b826000015190508060200151816000015101836020015110915050919050565b6140a76146c4565b6000806140b384614075565b156140ef57836020015191506140c88261452a565b905081836000018181525050808360200181815250508082018460200181815250506140f4565b600080fd5b5050919050565b60008060008090505b60048110156141e9576008810260ff7f0100000000000000000000000000000000000000000000000000000000000000028683870181518110151561414557fe5b9060200101517f010000000000000000000000000000000000000000000000000000000000000090047f010000000000000000000000000000000000000000000000000000000000000002167effffffffffffffffffffffffffffffffffffffffffffffffffffffffffffff19167bffffffffffffffffffffffffffffffffffffffffffffffffffffffff19169060020a9004821791508080600101915050614104565b819250505092915050565b60008060019050835183518114600181146142125760009250614257565b600160208701838101602088015b60028483851001141561425257805183511415156142415760009650600093505b602083019250602081019050614220565b505050505b50508091505092915050565b60008060008360200151141561427c576000915061428e565b8260000151905060c0815160001a1091505b50919050565b60008060008060006142a586614263565b15156142b057600080fd5b85600001519150815160001a925060808310156142d3578194506001935061430d565b60b88310156142f1576001866020015103935060018201945061430c565b60b78303905080600187602001510303935060018183010194505b5b505050915091565b60006020601f83010484602085015b8284146143435760208402808301518183015260018501945050614324565b6000865160200187015250505050505050565b60608082840185511015151561436b57600080fd5b821560008114614386576040519150602082016040526143d7565b6040519150601f8416801560200281840101858101878315602002848b0101015b818310156143c457805183526020830192506020810190506143a7565b50868552601f19601f8301166040525050505b50809150509392505050565b6060816040516020018082600019166000191681526020019150506040516020818303038152906040529050919050565b6060806040519050835180825260208201818101602087015b8183101561444a578051835260208301925060208101905061442d565b50855192508351830184528091508282019050602086015b8183101561447f5780518352602083019250602081019050614462565b50601f19601f8851850115830101166040525050508091505092915050565b600080600080846020015114156144b85760009250614523565b83600001519050805160001a915060808210156144d85760009250614523565b60b88210806144f4575060c082101580156144f3575060f882105b5b156145025760019250614523565b60c082101561451957600160b78303019250614523565b600160f783030192505b5050919050565b600080825160001a9050608081101561454657600191506145be565b60b881101561455d576001608082030191506145bd565b60c08110156145875760b78103806020036101000a600185015104808201600101935050506145bc565b60f881101561459e57600160c082030191506145bb565b60f78103806020036101000a600185015104808201600101935050505b5b5b5b50919050565b828054600181600116156101000203166002900490600052602060002090601f016020900481019282601f1061460557805160ff1916838001178555614633565b82800160010185558215614633579182015b82811115614632578251825591602001919060010190614617565b5b5090506146409190614719565b5090565b828054600181600116156101000203166002900490600052602060002090601f016020900481019282601f1061468557805160ff19168380011785556146b3565b828001600101855582156146b3579182015b828111156146b2578251825591602001919060010190614697565b5b5090506146c09190614719565b5090565b604080519081016040528060008152602001600081525090565b6060604051908101604052806146f26146ff565b8152602001600081525090565b604080519081016040528060008152602001600081525090565b61473b91905b8082111561473757600081600090555060010161471f565b5090565b905600a165627a7a7230582073d1a287eae2508bcbe332b4ee35150ac400923204051a0ed7718ab8fff5b31d0029",
  "source": "pragma solidity ^0.4.24;\n\nimport \"../DepositContract.sol\";\n\ncontract DepositContractMock is DepositContract {\n  constructor(address _custodian) public\n    DepositContract(custodian)\n  { }\n\n  function _parseData(bytes _data, uint256 _i) public {\n    super.parseData(_data, _i);\n  }\n\n  // function _splitTxBundle(bytes _rawTxBundle, uint256[] _txLengths, bytes[] storage _rawTxList) public {\n  //   super.splitTxBundle(_data, _i);\n  // }\n\n\n}",
  "sourcePath": "/home/yingtong/peacebridge/contracts/mocks/DepositContractMock.sol",
  "compiler": {
    "name": "solc",
    "version": "0.4.24+commit.e67f0147.Emscripten.clang"
  },
  "schemaVersion": "2.0.1",
  "updatedAt": "2019-04-05T05:22:07.187Z"
}