{
  "contractName": "DepositContract",
  "abi": [
    {
      "constant": true,
      "inputs": [
        {
          "name": "",
          "type": "uint256"
        }
      ],
      "name": "tokenIdToMinter",
      "outputs": [
        {
          "name": "",
          "type": "address"
        }
      ],
      "payable": false,
      "stateMutability": "view",
      "type": "function"
    },
    {
      "constant": true,
      "inputs": [
        {
          "name": "",
          "type": "uint256"
        }
      ],
      "name": "tokenIdToAmount",
      "outputs": [
        {
          "name": "",
          "type": "uint256"
        }
      ],
      "payable": false,
      "stateMutability": "view",
      "type": "function"
    },
    {
      "inputs": [
        {
          "name": "_custodian",
          "type": "address"
        }
      ],
      "payable": false,
      "stateMutability": "nonpayable",
      "type": "constructor"
    },
    {
      "payable": true,
      "stateMutability": "payable",
      "type": "fallback"
    },
    {
      "anonymous": false,
      "inputs": [
        {
          "indexed": true,
          "name": "depositer",
          "type": "address"
        },
        {
          "indexed": false,
          "name": "amount",
          "type": "uint256"
        },
        {
          "indexed": false,
          "name": "tokenId",
          "type": "uint256"
        },
        {
          "indexed": false,
          "name": "minter",
          "type": "address"
        }
      ],
      "name": "Deposit",
      "type": "event"
    },
    {
      "anonymous": false,
      "inputs": [
        {
          "indexed": true,
          "name": "challenger",
          "type": "address"
        },
        {
          "indexed": true,
          "name": "depositedTo",
          "type": "address"
        },
        {
          "indexed": false,
          "name": "tokenId",
          "type": "uint256"
        }
      ],
      "name": "ChallengeInitiated",
      "type": "event"
    },
    {
      "anonymous": false,
      "inputs": [
        {
          "indexed": true,
          "name": "rechallenger",
          "type": "address"
        },
        {
          "indexed": true,
          "name": "depositedTo",
          "type": "address"
        },
        {
          "indexed": false,
          "name": "tokenId",
          "type": "uint256"
        },
        {
          "indexed": false,
          "name": "finalChallengeNonce",
          "type": "uint256"
        }
      ],
      "name": "Challenge",
      "type": "event"
    },
    {
      "anonymous": false,
      "inputs": [
        {
          "indexed": false,
          "name": "tokenId",
          "type": "uint256"
        }
      ],
      "name": "ChallengeResolved",
      "type": "event"
    },
    {
      "anonymous": false,
      "inputs": [
        {
          "indexed": true,
          "name": "withdrawer",
          "type": "address"
        },
        {
          "indexed": true,
          "name": "tokenId",
          "type": "uint256"
        },
        {
          "indexed": false,
          "name": "stakedAmount",
          "type": "uint256"
        }
      ],
      "name": "Withdrawal",
      "type": "event"
    },
    {
      "anonymous": false,
      "inputs": [
        {
          "indexed": false,
          "name": "tx1",
          "type": "bytes"
        },
        {
          "indexed": false,
          "name": "tx2",
          "type": "bytes"
        },
        {
          "indexed": false,
          "name": "tx3",
          "type": "bytes"
        }
      ],
      "name": "Test",
      "type": "event"
    },
    {
      "anonymous": false,
      "inputs": [
        {
          "indexed": false,
          "name": "out",
          "type": "bytes"
        }
      ],
      "name": "Trace",
      "type": "event"
    },
    {
      "anonymous": false,
      "inputs": [
        {
          "indexed": false,
          "name": "out",
          "type": "address"
        }
      ],
      "name": "TraceAddress",
      "type": "event"
    },
    {
      "anonymous": false,
      "inputs": [
        {
          "indexed": false,
          "name": "out",
          "type": "bytes32"
        }
      ],
      "name": "Trace32",
      "type": "event"
    },
    {
      "anonymous": false,
      "inputs": [
        {
          "indexed": false,
          "name": "out",
          "type": "uint256"
        }
      ],
      "name": "TraceUint256",
      "type": "event"
    },
    {
      "constant": false,
      "inputs": [
        {
          "name": "_tokenContract",
          "type": "address"
        }
      ],
      "name": "setTokenContract",
      "outputs": [],
      "payable": false,
      "stateMutability": "nonpayable",
      "type": "function"
    },
    {
      "constant": false,
      "inputs": [
        {
          "name": "_custodianForeign",
          "type": "address"
        }
      ],
      "name": "setCustodianForeign",
      "outputs": [],
      "payable": false,
      "stateMutability": "nonpayable",
      "type": "function"
    },
    {
      "constant": false,
      "inputs": [],
      "name": "finalizeStake",
      "outputs": [],
      "payable": false,
      "stateMutability": "nonpayable",
      "type": "function"
    },
    {
      "constant": false,
      "inputs": [
        {
          "name": "_tokenId",
          "type": "uint256"
        },
        {
          "name": "_minter",
          "type": "address"
        }
      ],
      "name": "deposit",
      "outputs": [],
      "payable": true,
      "stateMutability": "payable",
      "type": "function"
    },
    {
      "constant": false,
      "inputs": [
        {
          "name": "_to",
          "type": "address"
        },
        {
          "name": "_tokenId",
          "type": "uint256"
        },
        {
          "name": "_rawTxBundle",
          "type": "bytes32[]"
        },
        {
          "name": "_txLengths",
          "type": "uint256[]"
        },
        {
          "name": "_txMsgHashes",
          "type": "bytes32[]"
        },
        {
          "name": "_declaredNonce",
          "type": "uint256"
        }
      ],
      "name": "withdraw",
      "outputs": [],
      "payable": true,
      "stateMutability": "payable",
      "type": "function"
    },
    {
      "constant": false,
      "inputs": [
        {
          "name": "_tokenId",
          "type": "uint256"
        }
      ],
      "name": "claim",
      "outputs": [],
      "payable": false,
      "stateMutability": "nonpayable",
      "type": "function"
    },
    {
      "constant": false,
      "inputs": [
        {
          "name": "_tokenId",
          "type": "uint256"
        }
      ],
      "name": "claimStake",
      "outputs": [],
      "payable": false,
      "stateMutability": "nonpayable",
      "type": "function"
    },
    {
      "constant": false,
      "inputs": [
        {
          "name": "_to",
          "type": "address"
        },
        {
          "name": "_tokenId",
          "type": "uint256"
        },
        {
          "name": "_rawTxBundle",
          "type": "bytes32[]"
        },
        {
          "name": "_txLengths",
          "type": "uint256[]"
        },
        {
          "name": "_txMsgHashes",
          "type": "bytes32[]"
        }
      ],
      "name": "challengeWithFutureCustody",
      "outputs": [],
      "payable": false,
      "stateMutability": "nonpayable",
      "type": "function"
    },
    {
      "constant": false,
      "inputs": [
        {
          "name": "_to",
          "type": "address"
        },
        {
          "name": "_tokenId",
          "type": "uint256"
        },
        {
          "name": "_rawTxBundle",
          "type": "bytes32[]"
        },
        {
          "name": "_txLengths",
          "type": "uint256[]"
        },
        {
          "name": "_txMsgHashes",
          "type": "bytes32[]"
        }
      ],
      "name": "initiateChallengeWithPastCustody",
      "outputs": [],
      "payable": true,
      "stateMutability": "payable",
      "type": "function"
    },
    {
      "constant": false,
      "inputs": [
        {
          "name": "_to",
          "type": "address"
        },
        {
          "name": "_tokenId",
          "type": "uint256"
        },
        {
          "name": "_rawTxBundle",
          "type": "bytes32[]"
        },
        {
          "name": "_txLengths",
          "type": "uint256[]"
        },
        {
          "name": "_txMsgHashes",
          "type": "bytes32[]"
        }
      ],
      "name": "challengeWithPastCustody",
      "outputs": [],
      "payable": false,
      "stateMutability": "nonpayable",
      "type": "function"
    },
    {
      "constant": false,
      "inputs": [
        {
          "name": "_to",
          "type": "address"
        },
        {
          "name": "_tokenId",
          "type": "uint256"
        },
        {
          "name": "_rawTxBundle",
          "type": "bytes32[]"
        },
        {
          "name": "_txLengths",
          "type": "uint256[]"
        },
        {
          "name": "_txMsgHashes",
          "type": "bytes32[]"
        }
      ],
      "name": "submitCustodianDoubleSign",
      "outputs": [],
      "payable": false,
      "stateMutability": "nonpayable",
      "type": "function"
    },
    {
      "constant": false,
      "inputs": [
        {
          "name": "hash",
          "type": "bytes32"
        },
        {
          "name": "sig",
          "type": "bytes"
        }
      ],
      "name": "ecrecovery",
      "outputs": [
        {
          "name": "",
          "type": "address"
        }
      ],
      "payable": false,
      "stateMutability": "nonpayable",
      "type": "function"
    },
    {
      "constant": false,
      "inputs": [
        {
          "name": "hash",
          "type": "bytes32"
        },
        {
          "name": "sig",
          "type": "bytes"
        },
        {
          "name": "signer",
          "type": "address"
        }
      ],
      "name": "ecverify",
      "outputs": [
        {
          "name": "",
          "type": "bool"
        }
      ],
      "payable": false,
      "stateMutability": "nonpayable",
      "type": "function"
    }
  ],
  "bytecode": "0x60806040526040805190810160405280600981526020017f7072655374616b6564000000000000000000000000000000000000000000000081525060009080519060200190620000519291906200024a565b506394bf804d7c010000000000000000000000000000000000000000000000000000000002600960006101000a81548163ffffffff02191690837c010000000000000000000000000000000000000000000000000000000090040217905550632e1a7d4d7c010000000000000000000000000000000000000000000000000000000002600960046101000a81548163ffffffff02191690837c01000000000000000000000000000000000000000000000000000000009004021790555063fe99049a7c010000000000000000000000000000000000000000000000000000000002600960086101000a81548163ffffffff02191690837c010000000000000000000000000000000000000000000000000000000090040217905550636e3c045e7c0100000000000000000000000000000000000000000000000000000000026009600c6101000a81548163ffffffff02191690837c010000000000000000000000000000000000000000000000000000000090040217905550620325aa600a55348015620001de57600080fd5b5060405160208062004bec8339810180604052810190808051906020019092919050505080600260006101000a81548173ffffffffffffffffffffffffffffffffffffffff021916908373ffffffffffffffffffffffffffffffffffffffff16021790555050620002f9565b828054600181600116156101000203166002900490600052602060002090601f016020900481019282601f106200028d57805160ff1916838001178555620002be565b82800160010185558215620002be579182015b82811115620002bd578251825591602001919060010190620002a0565b5b509050620002cd9190620002d1565b5090565b620002f691905b80821115620002f2576000816000905550600101620002d8565b5090565b90565b6148e380620003096000396000f3006080604052600436106100db576000357c0100000000000000000000000000000000000000000000000000000000900463ffffffff1680632218f119146100dd5780632310b3841461014a57806324241ebc14610161578063379607f51461027757806339cdde32146102a457806344c7d6ef1461035357806359c8969e146103805780635d8d5887146104935780636d08e8f9146104d45780636e553f65146105dd57806377d32e941461061d57806396b6af5a146106d4578063bbcd5bbe146107ea578063d7de57c61461082d578063fb9efcf014610943575b005b3480156100e957600080fd5b5061010860048036038101908080359060200190929190505050610986565b604051808273ffffffffffffffffffffffffffffffffffffffff1673ffffffffffffffffffffffffffffffffffffffff16815260200191505060405180910390f35b34801561015657600080fd5b5061015f6109b9565b005b34801561016d57600080fd5b50610275600480360381019080803573ffffffffffffffffffffffffffffffffffffffff16906020019092919080359060200190929190803590602001908201803590602001908080602002602001604051908101604052809392919081815260200183836020028082843782019150505050505091929192908035906020019082018035906020019080806020026020016040519081016040528093929190818152602001838360200280828437820191505050505050919291929080359060200190820180359060200190808060200260200160405190810160405280939291908181526020018383602002808284378201915050505050509192919290505050610b5b565b005b34801561028357600080fd5b506102a2600480360381019080803590602001909291905050506111d5565b005b3480156102b057600080fd5b506103396004803603810190808035600019169060200190929190803590602001908201803590602001908080601f0160208091040260200160405190810160405280939291908181526020018383808284378201915050505050509192919290803573ffffffffffffffffffffffffffffffffffffffff1690602001909291905050506114f4565b604051808215151515815260200191505060405180910390f35b34801561035f57600080fd5b5061037e60048036038101908080359060200190929190505050611537565b005b610491600480360381019080803573ffffffffffffffffffffffffffffffffffffffff16906020019092919080359060200190929190803590602001908201803590602001908080602002602001604051908101604052809392919081815260200183836020028082843782019150505050505091929192908035906020019082018035906020019080806020026020016040519081016040528093929190818152602001838360200280828437820191505050505050919291929080359060200190820180359060200190808060200260200160405190810160405280939291908181526020018383602002808284378201915050505050509192919290803590602001909291905050506116e7565b005b34801561049f57600080fd5b506104be60048036038101908080359060200190929190505050611e41565b6040518082815260200191505060405180910390f35b6105db600480360381019080803573ffffffffffffffffffffffffffffffffffffffff16906020019092919080359060200190929190803590602001908201803590602001908080602002602001604051908101604052809392919081815260200183836020028082843782019150505050505091929192908035906020019082018035906020019080806020026020016040519081016040528093929190818152602001838360200280828437820191505050505050919291929080359060200190820180359060200190808060200260200160405190810160405280939291908181526020018383602002808284378201915050505050509192919290505050611e59565b005b61061b60048036038101908080359060200190929190803573ffffffffffffffffffffffffffffffffffffffff169060200190929190505050612450565b005b34801561062957600080fd5b506106926004803603810190808035600019169060200190929190803590602001908201803590602001908080601f016020809104026020016040519081016040528093929190818152602001838380828437820191505050505050919291929050505061257d565b604051808273ffffffffffffffffffffffffffffffffffffffff1673ffffffffffffffffffffffffffffffffffffffff16815260200191505060405180910390f35b3480156106e057600080fd5b506107e8600480360381019080803573ffffffffffffffffffffffffffffffffffffffff16906020019092919080359060200190929190803590602001908201803590602001908080602002602001604051908101604052809392919081815260200183836020028082843782019150505050505091929192908035906020019082018035906020019080806020026020016040519081016040528093929190818152602001838360200280828437820191505050505050919291929080359060200190820180359060200190808060200260200160405190810160405280939291908181526020018383602002808284378201915050505050509192919290505050612675565b005b3480156107f657600080fd5b5061082b600480360381019080803573ffffffffffffffffffffffffffffffffffffffff169060200190929190505050612c9f565b005b34801561083957600080fd5b50610941600480360381019080803573ffffffffffffffffffffffffffffffffffffffff16906020019092919080359060200190929190803590602001908201803590602001908080602002602001604051908101604052809392919081815260200183836020028082843782019150505050505091929192908035906020019082018035906020019080806020026020016040519081016040528093929190818152602001838360200280828437820191505050505050919291929080359060200190820180359060200190808060200260200160405190810160405280939291908181526020018383602002808284378201915050505050509192919290505050612df3565b005b34801561094f57600080fd5b50610984600480360381019080803573ffffffffffffffffffffffffffffffffffffffff169060200190929190505050613261565b005b60086020528060005260406000206000915054906101000a900473ffffffffffffffffffffffffffffffffffffffff1681565b3373ffffffffffffffffffffffffffffffffffffffff16600260009054906101000a900473ffffffffffffffffffffffffffffffffffffffff1673ffffffffffffffffffffffffffffffffffffffff16141515610a1557600080fd5b60405180807f7072655374616b65640000000000000000000000000000000000000000000000815250600901905060405180910390206000191660006040518082805460018160011615610100020316600290048015610aac5780601f10610a8a576101008083540402835291820191610aac565b820191906000526020600020905b815481529060010190602001808311610a98575b5050915050604051809103902060001916141515610ac957600080fd5b3073ffffffffffffffffffffffffffffffffffffffff16316004819055503073ffffffffffffffffffffffffffffffffffffffff163160058190555060006006819055506040805190810160405280600681526020017f7374616b6564000000000000000000000000000000000000000000000000000081525060009080519060200190610b5892919061473d565b50565b6000806060806000600b60008a81526020019081526020016000205414151515610b8457600080fd5b42600b60008a815260200190815260200160002054111515610ba557600080fd5b6000601060008a815260200190815260200160002054111515610bc757600080fd5b610bd28787866133b5565b600092505b855183101561114a57610ca1610c9c8585815481101515610bf457fe5b906000526020600020018054600181600116156101000203166002900480601f016020809104026020016040519081016040528092919081815260200182805460018160011615610100020316600290048015610c925780601f10610c6757610100808354040283529160200191610c92565b820191906000526020600020905b815481529060010190602001808311610c7557829003601f168201915b505050505061346c565b6134c7565b9150610d67610d628560018601815481101515610cba57fe5b906000526020600020018054600181600116156101000203166002900480601f016020809104026020016040519081016040528092919081815260200182805460018160011615610100020316600290048015610d585780601f10610d2d57610100808354040283529160200191610d58565b820191906000526020600020905b815481529060010190602001808311610d3b57829003601f168201915b505050505061346c565b6134c7565b9050610d8e82828760018701815181101515610d7f57fe5b90602001906020020151613584565b610dcc6000610dbe610db7856005815181101515610da857fe5b90602001906020020151613c76565b6003613ce4565b613d3590919063ffffffff16565b88141515610e68576040517f08c379a00000000000000000000000000000000000000000000000000000000081526004018080602001828103825260228152602001807f6e6565647320746f20726566657220746f207468652073616d6520746f6b656e81526020017f496400000000000000000000000000000000000000000000000000000000000081525060400191505060405180910390fd5b610ea6600c610e98610e91856005815181101515610e8257fe5b90602001906020020151613c76565b6001613ce4565b613d5e90919063ffffffff16565b73ffffffffffffffffffffffffffffffffffffffff16600860008a815260200190815260200160002060009054906101000a900473ffffffffffffffffffffffffffffffffffffffff1673ffffffffffffffffffffffffffffffffffffffff16141515610fa1576040517f08c379a00000000000000000000000000000000000000000000000000000000081526004018080602001828103825260358152602001807f746f6b656e206e6565647320746f206265207472616e7366657265642066726f81526020017f6d206c6173742070726f76656e20637573746f6479000000000000000000000081525060400191505060405180910390fd5b6010600089815260200190815260200160002054610ff36000610fe5610fde866005815181101515610fcf57fe5b90602001906020020151613c76565b6004613ce4565b613d3590919063ffffffff16565b14151561108e576040517f08c379a000000000000000000000000000000000000000000000000000000000815260040180806020018281038252602c8152602001807f6e6f6e6365206e6565647320746f20657175616c20726571756972656420636881526020017f616c6c656e67654e6f6e6365000000000000000000000000000000000000000081525060400191505060405180910390fd5b6110cc600c6110be6110b78560058151811015156110a857fe5b90602001906020020151613c76565b6002613ce4565b613d5e90919063ffffffff16565b600860008a815260200190815260200160002060006101000a81548173ffffffffffffffffffffffffffffffffffffffff021916908373ffffffffffffffffffffffffffffffffffffffff1602179055506001601060008a815260200190815260200160002060008282540192505081905550600283019250610bd7565b8873ffffffffffffffffffffffffffffffffffffffff163373ffffffffffffffffffffffffffffffffffffffff167f8088a25426f6cf86aeb3c86607e9f059cdcf86a1ca4cb1be8514c1e6f82fa0918a601060008d815260200190815260200160002054604051808381526020018281526020019250505060405180910390a3505050505050505050565b6000600b60008381526020019081526020016000205414151515611287576040517f08c379a00000000000000000000000000000000000000000000000000000000081526004018080602001828103825260288152602001807f746865206368616c6c656e676520706572696f6420686173206e6f742073746181526020017f727465642079657400000000000000000000000000000000000000000000000081525060400191505060405180910390fd5b42600b600083815260200190815260200160002054101515611337576040517f08c379a00000000000000000000000000000000000000000000000000000000081526004018080602001828103825260268152602001807f746865206368616c6c656e676520706572696f6420686173206e6f7420656e6481526020017f656420796574000000000000000000000000000000000000000000000000000081525060400191505060405180910390fd5b600f6000828152602001908152602001600020546010600083815260200190815260200160002054148061137e575060006010600083815260200190815260200160002054145b151561143e576040517f08c379a00000000000000000000000000000000000000000000000000000000081526004018080602001828103825260598152602001807f6569746865722061206368616c6c656e67652068617320737461727465642c2081526020017f6f7220746865206368616c6c656e676520726573706f6e736520686173206e6f81526020017f74206265656e2070726f76656e20746f20656e644e6f6e63650000000000000081525060600191505060405180910390fd5b600d600082815260200190815260200160002060009054906101000a900473ffffffffffffffffffffffffffffffffffffffff1673ffffffffffffffffffffffffffffffffffffffff166108fc600e6000848152602001908152602001600020546007600085815260200190815260200160002054019081150290604051600060405180830381858888f1935050505050600060076000838152602001908152602001600020819055506114f181613d96565b50565b6000611500848461257d565b73ffffffffffffffffffffffffffffffffffffffff168273ffffffffffffffffffffffffffffffffffffffff161490509392505050565b6000600b6000838152602001908152602001600020541415151561155a57600080fd5b42600b60008381526020019081526020016000205410151561157b57600080fd5b600f6000828152602001908152602001600020546010600083815260200190815260200160002054141580156115c557506000601060008381526020019081526020016000205414155b151561165f576040517f08c379a000000000000000000000000000000000000000000000000000000000815260040180806020018281038252602b8152602001807f6368616c6c656e6765206e6f7420696e6974617465642f77697468647261776181526020017f6c20697320686f6e65737400000000000000000000000000000000000000000081525060400191505060405180910390fd5b600d600082815260200190815260200160002060009054906101000a900473ffffffffffffffffffffffffffffffffffffffff1673ffffffffffffffffffffffffffffffffffffffff166108fc600e6000848152602001908152602001600020549081150290604051600060405180830381858888f19350505050506116e481613d96565b50565b600060608060606000611717866117093a600a54613eda90919063ffffffff16565b613eda90919063ffffffff16565b341015151561172557600080fd5b6117308989876133b5565b6117f26117ed86600081548110151561174557fe5b906000526020600020018054600181600116156101000203166002900480601f0160208091040260200160405190810160405280929190818152602001828054600181600116156101000203166002900480156117e35780601f106117b8576101008083540402835291602001916117e3565b820191906000526020600020905b8154815290600101906020018083116117c657829003601f168201915b505050505061346c565b6134c7565b93506118b66118b186600181548110151561180957fe5b906000526020600020018054600181600116156101000203166002900480601f0160208091040260200160405190810160405280929190818152602001828054600181600116156101000203166002900480156118a75780601f1061187c576101008083540402835291602001916118a7565b820191906000526020600020905b81548152906001019060200180831161188a57829003601f168201915b505050505061346c565b6134c7565b925061197a6119758660028154811015156118cd57fe5b906000526020600020018054600181600116156101000203166002900480601f01602080910402602001604051908101604052809291908181526020018280546001816001161561010002031660029004801561196b5780601f106119405761010080835404028352916020019161196b565b820191906000526020600020905b81548152906001019060200180831161194e57829003601f168201915b505050505061346c565b6134c7565b915061199f838389600281518110151561199057fe5b90602001906020020151613584565b6119dd600c6119cf6119c88660058151811015156119b957fe5b90602001906020020151613c76565b6002613ce4565b613d5e90919063ffffffff16565b9050600160009054906101000a900473ffffffffffffffffffffffffffffffffffffffff1673ffffffffffffffffffffffffffffffffffffffff16611a39856003815181101515611a2a57fe5b90602001906020020151613f0d565b73ffffffffffffffffffffffffffffffffffffffff16141515611a5b57600080fd5b6001876000815181101515611a6c57fe5b90602001906020020151611a97866006815181101515611a8857fe5b90602001906020020151613f54565b611ab8876007815181101515611aa957fe5b90602001906020020151613fa7565b611ad9886008815181101515611aca57fe5b90602001906020020151613fa7565b604051600081526020016040526040518085600019166000191681526020018460ff1660ff1681526020018360001916600019168152602001826000191660001916815260200194505050505060206040516020810390808403906000865af1158015611b4a573d6000803e3d6000fd5b5050506020604051035173ffffffffffffffffffffffffffffffffffffffff168173ffffffffffffffffffffffffffffffffffffffff16141515611c1c576040517f08c379a000000000000000000000000000000000000000000000000000000000815260040180806020018281038252602c8152602001807f5769746864726177616c5478206e6f74207369676e6564206279206c6173745481526020017f782072656365697069656e74000000000000000000000000000000000000000081525060400191505060405180910390fd5b856001611c5d6000611c4f611c48886005815181101515611c3957fe5b90602001906020020151613c76565b6004613ce4565b613d3590919063ffffffff16565b01141515611cd3576040517f08c379a00000000000000000000000000000000000000000000000000000000081526004018080602001828103825260138152602001807f6e6f6e63657320646f206e6f74206d617463680000000000000000000000000081525060200191505060405180910390fd5b6000600b60008c815260200190815260200160002054141515611cf557600080fd5b6102584201600b60008c81526020019081526020016000208190555085600f60008c81526020019081526020016000208190555080600c60008c815260200190815260200160002060006101000a81548173ffffffffffffffffffffffffffffffffffffffff021916908373ffffffffffffffffffffffffffffffffffffffff1602179055508a600d60008c815260200190815260200160002060006101000a81548173ffffffffffffffffffffffffffffffffffffffff021916908373ffffffffffffffffffffffffffffffffffffffff16021790555034600e60008c815260200190815260200160002081905550898b73ffffffffffffffffffffffffffffffffffffffff167fdf273cb619d95419a9cd0ec88123a0538c85064229baa6363788f743fff90deb346040518082815260200191505060405180910390a35050505050505050505050565b60076020528060005260406000206000915090505481565b60006060806000600b60008981526020019081526020016000205414151515611e8157600080fd5b42600b600089815260200190815260200160002054111515611ea257600080fd5b611eef6005611ee1600f60008b815260200190815260200160002054611ed33a600a54613eda90919063ffffffff16565b613eda90919063ffffffff16565b613fbc90919063ffffffff16565b3410151515611efd57600080fd5b611f088686856133b5565b611fca611fc5846000815481101515611f1d57fe5b906000526020600020018054600181600116156101000203166002900480601f016020809104026020016040519081016040528092919081815260200182805460018160011615610100020316600290048015611fbb5780601f10611f9057610100808354040283529160200191611fbb565b820191906000526020600020905b815481529060010190602001808311611f9e57829003601f168201915b505050505061346c565b6134c7565b915061208e612089846001815481101515611fe157fe5b906000526020600020018054600181600116156101000203166002900480601f01602080910402602001604051908101604052809291908181526020018280546001816001161561010002031660029004801561207f5780601f106120545761010080835404028352916020019161207f565b820191906000526020600020905b81548152906001019060200180831161206257829003601f168201915b505050505061346c565b6134c7565b90506120b382828660018151811015156120a457fe5b90602001906020020151613584565b6120f160006120e36120dc8560058151811015156120cd57fe5b90602001906020020151613c76565b6003613ce4565b613d3590919063ffffffff16565b8714151561218d576040517f08c379a00000000000000000000000000000000000000000000000000000000081526004018080602001828103825260228152602001807f6e6565647320746f20726566657220746f207468652073616d6520746f6b656e81526020017f496400000000000000000000000000000000000000000000000000000000000081525060400191505060405180910390fd5b6121cb600c6121bd6121b68560058151811015156121a757fe5b90602001906020020151613c76565b6001613ce4565b613d5e90919063ffffffff16565b73ffffffffffffffffffffffffffffffffffffffff166008600089815260200190815260200160002060009054906101000a900473ffffffffffffffffffffffffffffffffffffffff1673ffffffffffffffffffffffffffffffffffffffff161415156122c6576040517f08c379a00000000000000000000000000000000000000000000000000000000081526004018080602001828103825260358152602001807f746f6b656e206e6565647320746f206265207472616e7366657265642066726f81526020017f6d206c6173742070726f76656e20637573746f6479000000000000000000000081525060400191505060405180910390fd5b612304600c6122f66122ef8560058151811015156122e057fe5b90602001906020020151613c76565b6002613ce4565b613d5e90919063ffffffff16565b6008600089815260200190815260200160002060006101000a81548173ffffffffffffffffffffffffffffffffffffffff021916908373ffffffffffffffffffffffffffffffffffffffff16021790555034600e600089815260200190815260200160002060008282540192505081905550876011600089815260200190815260200160002060006101000a81548173ffffffffffffffffffffffffffffffffffffffff021916908373ffffffffffffffffffffffffffffffffffffffff160217905550600160106000898152602001908152602001600020819055508773ffffffffffffffffffffffffffffffffffffffff163373ffffffffffffffffffffffffffffffffffffffff167f5331871e026683c9fc9f966209853fdbd75ee7b21e9b4880849a76970c60f1d4896040518082815260200191505060405180910390a35050505050505050565b34600660008282540192505081905550612486346007600085815260200190815260200160002054613fd790919063ffffffff16565b6007600084815260200190815260200160002081905550806008600084815260200190815260200160002060006101000a81548173ffffffffffffffffffffffffffffffffffffffff021916908373ffffffffffffffffffffffffffffffffffffffff1602179055503373ffffffffffffffffffffffffffffffffffffffff167f02d7e648dd130fc184d383e55bb126ac4c9c60e8f94bf05acdf557ba2d540b47348484604051808481526020018381526020018273ffffffffffffffffffffffffffffffffffffffff1673ffffffffffffffffffffffffffffffffffffffff168152602001935050505060405180910390a25050565b60008060008060418551141515612597576000935061266c565b602085015192506040850151915060ff6041860151169050601b8160ff1610156125c257601b810190505b601b8160ff16141580156125da5750601c8160ff1614155b156125e8576000935061266c565b600186828585604051600081526020016040526040518085600019166000191681526020018460ff1660ff1681526020018360001916600019168152602001826000191660001916815260200194505050505060206040516020810390808403906000865af115801561265f573d6000803e3d6000fd5b5050506020604051035193505b50505092915050565b60006060806060806126888888876133b5565b61274a61274586600081548110151561269d57fe5b906000526020600020018054600181600116156101000203166002900480601f01602080910402602001604051908101604052809291908181526020018280546001816001161561010002031660029004801561273b5780601f106127105761010080835404028352916020019161273b565b820191906000526020600020905b81548152906001019060200180831161271e57829003601f168201915b505050505061346c565b6134c7565b935061280e61280986600181548110151561276157fe5b906000526020600020018054600181600116156101000203166002900480601f0160208091040260200160405190810160405280929190818152602001828054600181600116156101000203166002900480156127ff5780601f106127d4576101008083540402835291602001916127ff565b820191906000526020600020905b8154815290600101906020018083116127e257829003601f168201915b505050505061346c565b6134c7565b92506128d26128cd86600281548110151561282557fe5b906000526020600020018054600181600116156101000203166002900480601f0160208091040260200160405190810160405280929190818152602001828054600181600116156101000203166002900480156128c35780601f10612898576101008083540402835291602001916128c3565b820191906000526020600020905b8154815290600101906020018083116128a657829003601f168201915b505050505061346c565b6134c7565b91506129966129918660038154811015156128e957fe5b906000526020600020018054600181600116156101000203166002900480601f0160208091040260200160405190810160405280929190818152602001828054600181600116156101000203166002900480156129875780601f1061295c57610100808354040283529160200191612987565b820191906000526020600020905b81548152906001019060200180831161296a57829003601f168201915b505050505061346c565b6134c7565b90506129bb84848860018151811015156129ac57fe5b90602001906020020151613584565b6129de82828860038151811015156129cf57fe5b90602001906020020151613584565b612a1c6000612a0e612a078760058151811015156129f857fe5b90602001906020020151613c76565b6003613ce4565b613d3590919063ffffffff16565b89141515612ab8576040517f08c379a00000000000000000000000000000000000000000000000000000000081526004018080602001828103825260228152602001807f6e6565647320746f20726566657220746f207468652073616d6520746f6b656e81526020017f496400000000000000000000000000000000000000000000000000000000000081525060400191505060405180910390fd5b612af66000612ae8612ae1856005815181101515612ad257fe5b90602001906020020151613c76565b6003613ce4565b613d3590919063ffffffff16565b89141515612b92576040517f08c379a00000000000000000000000000000000000000000000000000000000081526004018080602001828103825260228152602001807f6e6565647320746f20726566657220746f207468652073616d6520746f6b656e81526020017f496400000000000000000000000000000000000000000000000000000000000081525060400191505060405180910390fd5b612bd06000612bc2612bbb876005815181101515612bac57fe5b90602001906020020151613c76565b6004613ce4565b613d3590919063ffffffff16565b612c0e6000612c00612bf9866005815181101515612bea57fe5b90602001906020020151613c76565b6004613ce4565b613d3590919063ffffffff16565b141515612c83576040517f08c379a00000000000000000000000000000000000000000000000000000000081526004018080602001828103825260208152602001807f6e6565647320746f20726566657220746f207468652073616d65206e6f6e636581525060200191505060405180910390fd5b6000600481905550600060058190555050505050505050505050565b3373ffffffffffffffffffffffffffffffffffffffff16600260009054906101000a900473ffffffffffffffffffffffffffffffffffffffff1673ffffffffffffffffffffffffffffffffffffffff16141515612cfb57600080fd5b60405180807f7072655374616b65640000000000000000000000000000000000000000000000815250600901905060405180910390206000191660006040518082805460018160011615610100020316600290048015612d925780601f10612d70576101008083540402835291820191612d92565b820191906000526020600020905b815481529060010190602001808311612d7e575b5050915050604051809103902060001916141515612daf57600080fd5b80600160006101000a81548173ffffffffffffffffffffffffffffffffffffffff021916908373ffffffffffffffffffffffffffffffffffffffff16021790555050565b60006060806000600b60008981526020019081526020016000205414151515612e1b57600080fd5b42600b600089815260200190815260200160002054111515612e3c57600080fd5b612e478686856133b5565b612f09612f04846000815481101515612e5c57fe5b906000526020600020018054600181600116156101000203166002900480601f016020809104026020016040519081016040528092919081815260200182805460018160011615610100020316600290048015612efa5780601f10612ecf57610100808354040283529160200191612efa565b820191906000526020600020905b815481529060010190602001808311612edd57829003601f168201915b505050505061346c565b6134c7565b9150612fcd612fc8846001815481101515612f2057fe5b906000526020600020018054600181600116156101000203166002900480601f016020809104026020016040519081016040528092919081815260200182805460018160011615610100020316600290048015612fbe5780601f10612f9357610100808354040283529160200191612fbe565b820191906000526020600020905b815481529060010190602001808311612fa157829003601f168201915b505050505061346c565b6134c7565b9050612ff28282866001815181101515612fe357fe5b90602001906020020151613584565b613030600c61302261301b85600581518110151561300c57fe5b90602001906020020151613c76565b6001613ce4565b613d5e90919063ffffffff16565b73ffffffffffffffffffffffffffffffffffffffff16600c600089815260200190815260200160002060009054906101000a900473ffffffffffffffffffffffffffffffffffffffff1673ffffffffffffffffffffffffffffffffffffffff1614151561312b576040517f08c379a00000000000000000000000000000000000000000000000000000000081526004018080602001828103825260358152602001807f746f6b656e206e6565647320746f206265207472616e7366657265642066726f81526020017f6d206c6173742070726f76656e20637573746f6479000000000000000000000081525060400191505060405180910390fd5b613169600061315b61315485600581518110151561314557fe5b90602001906020020151613c76565b6003613ce4565b613d3590919063ffffffff16565b87141515613205576040517f08c379a00000000000000000000000000000000000000000000000000000000081526004018080602001828103825260228152602001807f6e6565647320746f20726566657220746f207468652073616d6520746f6b656e81526020017f496400000000000000000000000000000000000000000000000000000000000081525060400191505060405180910390fd5b8773ffffffffffffffffffffffffffffffffffffffff166108fc600e60008a8152602001908152602001600020549081150290604051600060405180830381858888f193505050505061325787613d96565b5050505050505050565b3373ffffffffffffffffffffffffffffffffffffffff16600260009054906101000a900473ffffffffffffffffffffffffffffffffffffffff1673ffffffffffffffffffffffffffffffffffffffff161415156132bd57600080fd5b60405180807f7072655374616b656400000000000000000000000000000000000000000000008152506009019050604051809103902060001916600060405180828054600181600116156101000203166002900480156133545780601f10613332576101008083540402835291820191613354565b820191906000526020600020905b815481529060010190602001808311613340575b505091505060405180910390206000191614151561337157600080fd5b80600360006101000a81548173ffffffffffffffffffffffffffffffffffffffff021916908373ffffffffffffffffffffffffffffffffffffffff16021790555050565b60008060009150600090505b8351811015613465576133ec858386848151811015156133dd57fe5b90602001906020020151613ff5565b83828154811015156133fa57fe5b9060005260206000200190805190602001906134179291906147bd565b50613442848281518110151561342957fe5b9060200190602002015183613fd790919063ffffffff16565b915060408281151561345057fe5b066040038201915080806001019150506133c1565b5050505050565b61347461483d565b6000808351915060008214156134a257604080519081016040528060008152602001600081525092506134c0565b60208401905060408051908101604052808281526020018381525092505b5050919050565b606060006134d3614857565b60006134de856140fa565b15156134e957600080fd5b6134f28561412c565b92508260405190808252806020026020018201604052801561352e57816020015b61351b614878565b8152602001906001900390816135135790505b50935061353a856141a6565b91505b613546826141ee565b1561357c5761355482614218565b848281518110151561356257fe5b90602001906020020181905250808060010191505061353d565b505050919050565b600160009054906101000a900473ffffffffffffffffffffffffffffffffffffffff1673ffffffffffffffffffffffffffffffffffffffff166135de8460038151811015156135cf57fe5b90602001906020020151613f0d565b73ffffffffffffffffffffffffffffffffffffffff1614151561360057600080fd5b600160009054906101000a900473ffffffffffffffffffffffffffffffffffffffff1673ffffffffffffffffffffffffffffffffffffffff1661365a83600381518110151561364b57fe5b90602001906020020151613f0d565b73ffffffffffffffffffffffffffffffffffffffff1614151561367c57600080fd5b600960089054906101000a90047c0100000000000000000000000000000000000000000000000000000000027bffffffffffffffffffffffffffffffffffffffffffffffffffffffff19166136fc6136f56136ee8660058151811015156136df57fe5b90602001906020020151613c76565b6000613ce4565b6000614274565b7bffffffffffffffffffffffffffffffffffffffffffffffffffffffff19161415156137b6576040517f08c379a00000000000000000000000000000000000000000000000000000000081526004018080602001828103825260288152602001807f5f7472616e736665725478206973206e6f74207472616e7366657246726f6d2081526020017f66756e6374696f6e00000000000000000000000000000000000000000000000081525060400191505060405180910390fd5b6009600c9054906101000a90047c0100000000000000000000000000000000000000000000000000000000027bffffffffffffffffffffffffffffffffffffffffffffffffffffffff191661383661382f61382885600581518110151561381957fe5b90602001906020020151613c76565b6000613ce4565b6000614274565b7bffffffffffffffffffffffffffffffffffffffffffffffffffffffff19161415156138f0576040517f08c379a00000000000000000000000000000000000000000000000000000000081526004018080602001828103825260258152602001807f5f637573746f6469616e5478206973206e6f7420637573746f6469616e41707081526020017f726f76616c00000000000000000000000000000000000000000000000000000081525060400191505060405180910390fd5b60018161391484600681518110151561390557fe5b90602001906020020151613f54565b61393585600781518110151561392657fe5b90602001906020020151613fa7565b61395686600881518110151561394757fe5b90602001906020020151613fa7565b604051600081526020016040526040518085600019166000191681526020018460ff1660ff1681526020018360001916600019168152602001826000191660001916815260200194505050505060206040516020810390808403906000865af11580156139c7573d6000803e3d6000fd5b5050506020604051035173ffffffffffffffffffffffffffffffffffffffff16600360009054906101000a900473ffffffffffffffffffffffffffffffffffffffff1673ffffffffffffffffffffffffffffffffffffffff16141515613abb576040517f08c379a000000000000000000000000000000000000000000000000000000000815260040180806020018281038252602a8152602001807f5f637573746f6469616e54782073686f756c64206265207369676e656420627981526020017f20637573746f6469616e0000000000000000000000000000000000000000000081525060400191505060405180910390fd5b613b22613ae9613ae2846005815181101515613ad357fe5b90602001906020020151613c76565b6001613ce4565b613b14613b0d866005815181101515613afe57fe5b90602001906020020151613c76565b6003613ce4565b61436d90919063ffffffff16565b1515613b96576040517f08c379a00000000000000000000000000000000000000000000000000000000081526004018080602001828103825260168152602001807f746f6b656e5f69647320646f206e6f74206d617463680000000000000000000081525060200191505060405180910390fd5b613bfd613bc4613bbd846005815181101515613bae57fe5b90602001906020020151613c76565b6002613ce4565b613bef613be8866005815181101515613bd957fe5b90602001906020020151613c76565b6004613ce4565b61436d90919063ffffffff16565b1515613c71576040517f08c379a00000000000000000000000000000000000000000000000000000000081526004018080602001828103825260138152602001807f6e6f6e63657320646f206e6f74206d617463680000000000000000000000000081525060200191505060405180910390fd5b505050565b6060600080613c84846143dc565b1515613c8f57600080fd5b613c988461440d565b91509150806040519080825280601f01601f191660200182016040528015613ccf5781602001602082028038833980820191505090505b509250613cdd82848361448e565b5050919050565b60606000821415613d0d57613d0660006005856144cf9092919063ffffffff16565b9050613d2f565b613d2c602060018403026004016020856144cf9092919063ffffffff16565b90505b92915050565b60008060208301845110151515613d4b57600080fd5b8260208501015190508091505092915050565b60008060148301845110151515613d7457600080fd5b6c01000000000000000000000000836020860101510490508091505092915050565b6000600e6000838152602001908152602001600020819055506000600d600083815260200190815260200160002060006101000a81548173ffffffffffffffffffffffffffffffffffffffff021916908373ffffffffffffffffffffffffffffffffffffffff1602179055506000600c600083815260200190815260200160002060006101000a81548173ffffffffffffffffffffffffffffffffffffffff021916908373ffffffffffffffffffffffffffffffffffffffff1602179055506000600f6000838152602001908152602001600020819055506000600b600083815260200190815260200160002081905550600060106000838152602001908152602001600020819055507f7874ca11ed47a2bbe287f114874e02e047a1261400f57712590c8f364b126501816040518082815260200191505060405180910390a150565b60008082840290506000841480613efb5750828482811515613ef857fe5b04145b1515613f0357fe5b8091505092915050565b6000806000613f1b846143dc565b1515613f2657600080fd5b613f2f8461440d565b91509150601481141515613f4257600080fd5b600c6101000a82510492505050919050565b6000806000613f62846143dc565b1515613f6d57600080fd5b613f768461440d565b915091506020811180613f895750600081145b15613f9357600080fd5b806020036101000a82510492505050919050565b6000613fb282613f54565b6001029050919050565b6000808284811515613fca57fe5b0490508091505092915050565b6000808284019050838110151515613feb57fe5b8091505092915050565b6060806000806000614011604088613fbc90919063ffffffff16565b92506140268688613fd790919063ffffffff16565b915061403c604083613fbc90919063ffffffff16565b90505b808310156140885761407961406a898581518110151561405b57fe5b9060200190602002015161455c565b8561458d90919063ffffffff16565b9350828060010193505061403f565b6140ea6140db6000600160026040878115156140a057fe5b068115156140aa57fe5b04036140cc8c868151811015156140bd57fe5b9060200190602002015161455c565b6144cf9092919063ffffffff16565b8561458d90919063ffffffff16565b9350839450505050509392505050565b6000806000836020015114156141135760009150614126565b8260000151905060c0815160001a101591505b50919050565b60008060008060008061413e876140fa565b151561414d576000955061419c565b86600001519350835160001a945061416487614617565b840192506001876020015185010391505b818311151561419857614187836146a3565b830192508080600101915050614175565b8095505b5050505050919050565b6141ae614857565b60006141b9836140fa565b15156141c457600080fd5b6141cd83614617565b83600001510190508282600001819052508082602001818152505050919050565b60006141f861483d565b826000015190508060200151816000015101836020015110915050919050565b61422061483d565b60008061422c846141ee565b156142685783602001519150614241826146a3565b9050818360000181815250508083602001818152505080820184602001818152505061426d565b600080fd5b5050919050565b60008060008090505b6004811015614362576008810260ff7f010000000000000000000000000000000000000000000000000000000000000002868387018151811015156142be57fe5b9060200101517f010000000000000000000000000000000000000000000000000000000000000090047f010000000000000000000000000000000000000000000000000000000000000002167effffffffffffffffffffffffffffffffffffffffffffffffffffffffffffff19167bffffffffffffffffffffffffffffffffffffffffffffffffffffffff19169060020a900482179150808060010191505061427d565b819250505092915050565b600080600190508351835181146001811461438b57600092506143d0565b600160208701838101602088015b6002848385100114156143cb57805183511415156143ba5760009650600093505b602083019250602081019050614399565b505050505b50508091505092915050565b6000806000836020015114156143f55760009150614407565b8260000151905060c0815160001a1091505b50919050565b600080600080600061441e866143dc565b151561442957600080fd5b85600001519150815160001a9250608083101561444c5781945060019350614486565b60b883101561446a5760018660200151039350600182019450614485565b60b78303905080600187602001510303935060018183010194505b5b505050915091565b60006020601f83010484602085015b8284146144bc576020840280830151818301526001850194505061449d565b6000865160200187015250505050505050565b6060808284018551101515156144e457600080fd5b8215600081146144ff57604051915060208201604052614550565b6040519150601f8416801560200281840101858101878315602002848b0101015b8183101561453d5780518352602083019250602081019050614520565b50868552601f19601f8301166040525050505b50809150509392505050565b6060816040516020018082600019166000191681526020019150506040516020818303038152906040529050919050565b6060806040519050835180825260208201818101602087015b818310156145c357805183526020830192506020810190506145a6565b50855192508351830184528091508282019050602086015b818310156145f857805183526020830192506020810190506145db565b50601f19601f8851850115830101166040525050508091505092915050565b60008060008084602001511415614631576000925061469c565b83600001519050805160001a91506080821015614651576000925061469c565b60b882108061466d575060c0821015801561466c575060f882105b5b1561467b576001925061469c565b60c082101561469257600160b7830301925061469c565b600160f783030192505b5050919050565b600080825160001a905060808110156146bf5760019150614737565b60b88110156146d657600160808203019150614736565b60c08110156147005760b78103806020036101000a60018501510480820160010193505050614735565b60f881101561471757600160c08203019150614734565b60f78103806020036101000a600185015104808201600101935050505b5b5b5b50919050565b828054600181600116156101000203166002900490600052602060002090601f016020900481019282601f1061477e57805160ff19168380011785556147ac565b828001600101855582156147ac579182015b828111156147ab578251825591602001919060010190614790565b5b5090506147b99190614892565b5090565b828054600181600116156101000203166002900490600052602060002090601f016020900481019282601f106147fe57805160ff191683800117855561482c565b8280016001018555821561482c579182015b8281111561482b578251825591602001919060010190614810565b5b5090506148399190614892565b5090565b604080519081016040528060008152602001600081525090565b60606040519081016040528061486b614878565b8152602001600081525090565b604080519081016040528060008152602001600081525090565b6148b491905b808211156148b0576000816000905550600101614898565b5090565b905600a165627a7a72305820449b906037f2c038b7cee8ddd0126a83d17f1378054918fb2fd1bee4cdf2d2180029",
  "source": "pragma solidity ^0.4.24;\n// produced by the Solididy File Flattener (c) David Appleton 2018\n// contact : dave@akomba.com\n// released under Apache 2.0 licence\nlibrary SafeMath {\n  function mul(uint256 a, uint256 b) internal pure returns (uint256) {\n    uint256 c = a * b;\n    assert(a == 0 || c / a == b);\n    return c;\n  }\n\n  function div(uint256 a, uint256 b) internal pure returns (uint256) {\n    // assert(b > 0); // Solidity automatically throws when dividing by 0\n    uint256 c = a / b;\n    // assert(a == b * c + a % b); // There is no case in which this doesn't hold\n    return c;\n  }\n\n  function sub(uint256 a, uint256 b) internal pure returns (uint256) {\n    assert(b <= a);\n    return a - b;\n  }\n  \n  function add(uint256 a, uint256 b) internal pure returns (uint256) {\n    uint256 c = a + b;\n    assert(c >= a);\n    return c;\n  }\n}\n\ncontract Ownable {\n  address public owner;\n\n  function Ownable() {\n    owner = msg.sender;\n  }\n\n  modifier onlyOwner() {\n    if (msg.sender == owner)\n      _;\n  }\n\n  function transferOwnership(address newOwner) onlyOwner {\n    if (newOwner != address(0)) owner = newOwner;\n  }\n\n}\nlibrary RLP {\n\n uint constant DATA_SHORT_START = 0x80;\n uint constant DATA_LONG_START = 0xB8;\n uint constant LIST_SHORT_START = 0xC0;\n uint constant LIST_LONG_START = 0xF8;\n\n uint constant DATA_LONG_OFFSET = 0xB7;\n uint constant LIST_LONG_OFFSET = 0xF7;\n\n\n struct RLPItem {\n     uint _unsafe_memPtr;    // Pointer to the RLP-encoded bytes.\n     uint _unsafe_length;    // Number of bytes. This is the full length of the string.\n }\n\n struct Iterator {\n     RLPItem _unsafe_item;   // Item that's being iterated over.\n     uint _unsafe_nextPtr;   // Position of the next item in the list.\n }\n\n /* Iterator */\n\n function next(Iterator memory self) internal constant returns (RLPItem memory subItem) {\n     if(hasNext(self)) {\n         var ptr = self._unsafe_nextPtr;\n         var itemLength = _itemLength(ptr);\n         subItem._unsafe_memPtr = ptr;\n         subItem._unsafe_length = itemLength;\n         self._unsafe_nextPtr = ptr + itemLength;\n     }\n     else\n         revert();\n }\n\n function next(Iterator memory self, bool strict) internal constant returns (RLPItem memory subItem) {\n     subItem = next(self);\n     if(strict && !_validate(subItem))\n         revert();\n     return;\n }\n\n function hasNext(Iterator memory self) internal constant returns (bool) {\n     var item = self._unsafe_item;\n     return self._unsafe_nextPtr < item._unsafe_memPtr + item._unsafe_length;\n }\n\n /* RLPItem */\n\n /// @dev Creates an RLPItem from an array of RLP encoded bytes.\n /// @param self The RLP encoded bytes.\n /// @return An RLPItem\n function toRLPItem(bytes memory self) internal constant returns (RLPItem memory) {\n     uint len = self.length;\n     if (len == 0) {\n         return RLPItem(0, 0);\n     }\n     uint memPtr;\n     assembly {\n         memPtr := add(self, 0x20)\n     }\n     return RLPItem(memPtr, len);\n }\n\n /// @dev Creates an RLPItem from an array of RLP encoded bytes.\n /// @param self The RLP encoded bytes.\n /// @param strict Will revert if the data is not RLP encoded.\n /// @return An RLPItem\n function toRLPItem(bytes memory self, bool strict) internal constant returns (RLPItem memory) {\n     var item = toRLPItem(self);\n     if(strict) {\n         uint len = self.length;\n         if(_payloadOffset(item) > len)\n             revert();\n         if(_itemLength(item._unsafe_memPtr) != len)\n             revert();\n         if(!_validate(item))\n             revert();\n     }\n     return item;\n }\n\n /// @dev Check if the RLP item is null.\n /// @param self The RLP item.\n /// @return 'true' if the item is null.\n function isNull(RLPItem memory self) internal pure returns (bool ret) {\n     return self._unsafe_length == 0;\n }\n\n /// @dev Check if the RLP item is a list.\n /// @param self The RLP item.\n /// @return 'true' if the item is a list.\n function isList(RLPItem memory self) internal pure returns (bool ret) {\n     if (self._unsafe_length == 0)\n         return false;\n     uint memPtr = self._unsafe_memPtr;\n     assembly {\n         ret := iszero(lt(byte(0, mload(memPtr)), 0xC0))\n     }\n }\n\n /// @dev Check if the RLP item is data.\n /// @param self The RLP item.\n /// @return 'true' if the item is data.\n function isData(RLPItem memory self) internal pure returns (bool ret) {\n     if (self._unsafe_length == 0)\n         return false;\n     uint memPtr = self._unsafe_memPtr;\n     assembly {\n         ret := lt(byte(0, mload(memPtr)), 0xC0)\n     }\n }\n\n /// @dev Check if the RLP item is empty (string or list).\n /// @param self The RLP item.\n /// @return 'true' if the item is null.\n function isEmpty(RLPItem memory self) internal pure returns (bool ret) {\n     if (isNull(self)) {\n         return false;\n     }\n     uint b0;\n     uint memPtr = self._unsafe_memPtr;\n     assembly {\n         b0 := byte(0, mload(memPtr))\n     }\n     return (b0 == DATA_SHORT_START || b0 == LIST_SHORT_START);\n }\n\n /// @dev Get the number of items in an RLP encoded list.\n /// @param self The RLP item.\n /// @return The number of items.\n function items(RLPItem memory self) internal constant returns (uint) {\n     if (!isList(self))\n         return 0;\n     uint b0;\n     uint memPtr = self._unsafe_memPtr;\n     assembly {\n         b0 := byte(0, mload(memPtr))\n     }\n     uint pos = memPtr + _payloadOffset(self);\n     uint last = memPtr + self._unsafe_length - 1;\n     uint itms;\n     while (pos <= last) {\n         pos += _itemLength(pos);\n         itms++;\n     }\n     return itms;\n }\n\n /// @dev Create an iterator.\n /// @param self The RLP item.\n /// @return An 'Iterator' over the item.\n function iterator(RLPItem memory self) internal constant returns (Iterator memory it) {\n     if (!isList(self))\n         revert();\n     uint ptr = self._unsafe_memPtr + _payloadOffset(self);\n     it._unsafe_item = self;\n     it._unsafe_nextPtr = ptr;\n }\n\n /// @dev Return the RLP encoded bytes.\n /// @param self The RLPItem.\n /// @return The bytes.\n function toBytes(RLPItem memory self) internal constant returns (bytes memory bts) {\n     var len = self._unsafe_length;\n     if (len == 0)\n         return;\n     bts = new bytes(len);\n     _copyToBytes(self._unsafe_memPtr, bts, len);\n }\n\n /// @dev Decode an RLPItem into bytes. This will not work if the\n /// RLPItem is a list.\n /// @param self The RLPItem.\n /// @return The decoded string.\n function toData(RLPItem memory self) internal constant returns (bytes memory bts) {\n     if(!isData(self))\n         revert();\n     var (rStartPos, len) = _decode(self);\n     bts = new bytes(len);\n     _copyToBytes(rStartPos, bts, len);\n }\n\n /// @dev Get the list of sub-items from an RLP encoded list.\n /// Warning: This is inefficient, as it requires that the list is read twice.\n /// @param self The RLP item.\n /// @return Array of RLPItems.\n function toList(RLPItem memory self) internal constant returns (RLPItem[] memory list) {\n     if(!isList(self))\n         revert();\n     var numItems = items(self);\n     list = new RLPItem[](numItems);\n     var it = iterator(self);\n     uint idx;\n     while(hasNext(it)) {\n         list[idx] = next(it);\n         idx++;\n     }\n }\n\n /// @dev Decode an RLPItem into an ascii string. This will not work if the\n /// RLPItem is a list.\n /// @param self The RLPItem.\n /// @return The decoded string.\n function toAscii(RLPItem memory self) internal constant returns (string memory str) {\n     if(!isData(self))\n         revert();\n     var (rStartPos, len) = _decode(self);\n     bytes memory bts = new bytes(len);\n     _copyToBytes(rStartPos, bts, len);\n     str = string(bts);\n }\n\n /// @dev Decode an RLPItem into a uint. This will not work if the\n /// RLPItem is a list.\n /// @param self The RLPItem.\n /// @return The decoded string.\n function toUint(RLPItem memory self) internal constant returns (uint data) {\n     if(!isData(self))\n         revert();\n     var (rStartPos, len) = _decode(self);\n     if (len > 32 || len == 0)\n         revert();\n     assembly {\n         data := div(mload(rStartPos), exp(256, sub(32, len)))\n     }\n }\n\n /// @dev Decode an RLPItem into a boolean. This will not work if the\n /// RLPItem is a list.\n /// @param self The RLPItem.\n /// @return The decoded string.\n function toBool(RLPItem memory self) internal constant returns (bool data) {\n     if(!isData(self))\n         revert();\n     var (rStartPos, len) = _decode(self);\n     if (len != 1)\n         revert();\n     uint temp;\n     assembly {\n         temp := byte(0, mload(rStartPos))\n     }\n     if (temp > 1)\n         revert();\n     return temp == 1 ? true : false;\n }\n\n /// @dev Decode an RLPItem into a byte. This will not work if the\n /// RLPItem is a list.\n /// @param self The RLPItem.\n /// @return The decoded string.\n function toByte(RLPItem memory self) internal constant returns (byte data) {\n     if(!isData(self))\n         revert();\n     var (rStartPos, len) = _decode(self);\n     if (len != 1)\n         revert();\n     uint temp;\n     assembly {\n         temp := byte(0, mload(rStartPos))\n     }\n     return byte(temp);\n }\n\n /// @dev Decode an RLPItem into an int. This will not work if the\n /// RLPItem is a list.\n /// @param self The RLPItem.\n /// @return The decoded string.\n function toInt(RLPItem memory self) internal constant returns (int data) {\n     return int(toUint(self));\n }\n\n /// @dev Decode an RLPItem into a bytes32. This will not work if the\n /// RLPItem is a list.\n /// @param self The RLPItem.\n /// @return The decoded string.\n function toBytes32(RLPItem memory self) internal constant returns (bytes32 data) {\n     return bytes32(toUint(self));\n }\n\n /// @dev Decode an RLPItem into an address. This will not work if the\n /// RLPItem is a list.\n /// @param self The RLPItem.\n /// @return The decoded string.\n function toAddress(RLPItem memory self) internal constant returns (address data) {\n     if(!isData(self))\n         revert();\n     var (rStartPos, len) = _decode(self);\n     if (len != 20)\n         revert();\n     assembly {\n         data := div(mload(rStartPos), exp(256, 12))\n     }\n }\n\n // Get the payload offset.\n function _payloadOffset(RLPItem memory self) private constant returns (uint) {\n     if(self._unsafe_length == 0)\n         return 0;\n     uint b0;\n     uint memPtr = self._unsafe_memPtr;\n     assembly {\n         b0 := byte(0, mload(memPtr))\n     }\n     if(b0 < DATA_SHORT_START)\n         return 0;\n     if(b0 < DATA_LONG_START || (b0 >= LIST_SHORT_START && b0 < LIST_LONG_START))\n         return 1;\n     if(b0 < LIST_SHORT_START)\n         return b0 - DATA_LONG_OFFSET + 1;\n     return b0 - LIST_LONG_OFFSET + 1;\n }\n\n // Get the full length of an RLP item.\n function _itemLength(uint memPtr) private constant returns (uint len) {\n     uint b0;\n     assembly {\n         b0 := byte(0, mload(memPtr))\n     }\n     if (b0 < DATA_SHORT_START)\n         len = 1;\n     else if (b0 < DATA_LONG_START)\n         len = b0 - DATA_SHORT_START + 1;\n     else if (b0 < LIST_SHORT_START) {\n         assembly {\n             let bLen := sub(b0, 0xB7) // bytes length (DATA_LONG_OFFSET)\n             let dLen := div(mload(add(memPtr, 1)), exp(256, sub(32, bLen))) // data length\n             len := add(1, add(bLen, dLen)) // total length\n         }\n     }\n     else if (b0 < LIST_LONG_START)\n         len = b0 - LIST_SHORT_START + 1;\n     else {\n         assembly {\n             let bLen := sub(b0, 0xF7) // bytes length (LIST_LONG_OFFSET)\n             let dLen := div(mload(add(memPtr, 1)), exp(256, sub(32, bLen))) // data length\n             len := add(1, add(bLen, dLen)) // total length\n         }\n     }\n }\n\n // Get start position and length of the data.\n function _decode(RLPItem memory self) private constant returns (uint memPtr, uint len) {\n     if(!isData(self))\n         revert();\n     uint b0;\n     uint start = self._unsafe_memPtr;\n     assembly {\n         b0 := byte(0, mload(start))\n     }\n     if (b0 < DATA_SHORT_START) {\n         memPtr = start;\n         len = 1;\n         return;\n     }\n     if (b0 < DATA_LONG_START) {\n         len = self._unsafe_length - 1;\n         memPtr = start + 1;\n     } else {\n         uint bLen;\n         assembly {\n             bLen := sub(b0, 0xB7) // DATA_LONG_OFFSET\n         }\n         len = self._unsafe_length - 1 - bLen;\n         memPtr = start + bLen + 1;\n     }\n     return;\n }\n\n // Assumes that enough memory has been allocated to store in target.\n function _copyToBytes(uint btsPtr, bytes memory tgt, uint btsLen) private constant {\n     // Exploiting the fact that 'tgt' was the last thing to be allocated,\n     // we can write entire words, and just overwrite any excess.\n     assembly {\n         {\n                 let i := 0 // Start at arr + 0x20\n                 let words := div(add(btsLen, 31), 32)\n                 let rOffset := btsPtr\n                 let wOffset := add(tgt, 0x20)\n             tag_loop:\n                 jumpi(end, eq(i, words))\n                 {\n                     let offset := mul(i, 0x20)\n                     mstore(add(wOffset, offset), mload(add(rOffset, offset)))\n                     i := add(i, 1)\n                 }\n                 jump(tag_loop)\n             end:\n                 mstore(add(tgt, add(0x20, mload(tgt))), 0)\n         }\n     }\n }\n\n     // Check that an RLP item is valid.\n     function _validate(RLPItem memory self) private constant returns (bool ret) {\n         // Check that RLP is well-formed.\n         uint b0;\n         uint b1;\n         uint memPtr = self._unsafe_memPtr;\n         assembly {\n             b0 := byte(0, mload(memPtr))\n             b1 := byte(1, mload(memPtr))\n         }\n         if(b0 == DATA_SHORT_START + 1 && b1 < DATA_SHORT_START)\n             return false;\n         return true;\n     }\n}\n\nlibrary BytesLib {\n    function concat(bytes memory _preBytes, bytes memory _postBytes) internal pure returns (bytes) {\n        bytes memory tempBytes;\n\n        assembly {\n            // Get a location of some free memory and store it in tempBytes as\n            // Solidity does for memory variables.\n            tempBytes := mload(0x40)\n\n            // Store the length of the first bytes array at the beginning of\n            // the memory for tempBytes.\n            let length := mload(_preBytes)\n            mstore(tempBytes, length)\n\n            // Maintain a memory counter for the current write location in the\n            // temp bytes array by adding the 32 bytes for the array length to\n            // the starting location.\n            let mc := add(tempBytes, 0x20)\n            // Stop copying when the memory counter reaches the length of the\n            // first bytes array.\n            let end := add(mc, length)\n\n            for {\n                // Initialize a copy counter to the start of the _preBytes data,\n                // 32 bytes into its memory.\n                let cc := add(_preBytes, 0x20)\n            } lt(mc, end) {\n                // Increase both counters by 32 bytes each iteration.\n                mc := add(mc, 0x20)\n                cc := add(cc, 0x20)\n            } {\n                // Write the _preBytes data into the tempBytes memory 32 bytes\n                // at a time.\n                mstore(mc, mload(cc))\n            }\n\n            // Add the length of _postBytes to the current length of tempBytes\n            // and store it as the new length in the first 32 bytes of the\n            // tempBytes memory.\n            length := mload(_postBytes)\n            mstore(tempBytes, add(length, mload(tempBytes)))\n\n            // Move the memory counter back from a multiple of 0x20 to the\n            // actual end of the _preBytes data.\n            mc := end\n            // Stop copying when the memory counter reaches the new combined\n            // length of the arrays.\n            end := add(mc, length)\n\n            for {\n                let cc := add(_postBytes, 0x20)\n            } lt(mc, end) {\n                mc := add(mc, 0x20)\n                cc := add(cc, 0x20)\n            } {\n                mstore(mc, mload(cc))\n            }\n\n            // Update the free-memory pointer by padding our last write location\n            // to 32 bytes: add 31 bytes to the end of tempBytes to move to the\n            // next 32 byte block, then round down to the nearest multiple of\n            // 32. If the sum of the length of the two arrays is zero then add \n            // one before rounding down to leave a blank 32 bytes (the length block with 0).\n            mstore(0x40, and(\n              add(add(end, iszero(add(length, mload(_preBytes)))), 31),\n              not(31) // Round down to the nearest 32 bytes.\n            ))\n        }\n\n        return tempBytes;\n    }\n\n    function concatStorage(bytes storage _preBytes, bytes memory _postBytes) internal {\n        assembly {\n            // Read the first 32 bytes of _preBytes storage, which is the length\n            // of the array. (We don't need to use the offset into the slot\n            // because arrays use the entire slot.)\n            let fslot := sload(_preBytes_slot)\n            // Arrays of 31 bytes or less have an even value in their slot,\n            // while longer arrays have an odd value. The actual length is\n            // the slot divided by two for odd values, and the lowest order\n            // byte divided by two for even values.\n            // If the slot is even, bitwise and the slot with 255 and divide by\n            // two to get the length. If the slot is odd, bitwise and the slot\n            // with -1 and divide by two.\n            let slength := div(and(fslot, sub(mul(0x100, iszero(and(fslot, 1))), 1)), 2)\n            let mlength := mload(_postBytes)\n            let newlength := add(slength, mlength)\n            // slength can contain both the length and contents of the array\n            // if length < 32 bytes so let's prepare for that\n            // v. http://solidity.readthedocs.io/en/latest/miscellaneous.html#layout-of-state-variables-in-storage\n            switch add(lt(slength, 32), lt(newlength, 32))\n            case 2 {\n                // Since the new array still fits in the slot, we just need to\n                // update the contents of the slot.\n                // uint256(bytes_storage) = uint256(bytes_storage) + uint256(bytes_memory) + new_length\n                sstore(\n                    _preBytes_slot,\n                    // all the modifications to the slot are inside this\n                    // next block\n                    add(\n                        // we can just add to the slot contents because the\n                        // bytes we want to change are the LSBs\n                        fslot,\n                        add(\n                            mul(\n                                div(\n                                    // load the bytes from memory\n                                    mload(add(_postBytes, 0x20)),\n                                    // zero all bytes to the right\n                                    exp(0x100, sub(32, mlength))\n                                ),\n                                // and now shift left the number of bytes to\n                                // leave space for the length in the slot\n                                exp(0x100, sub(32, newlength))\n                            ),\n                            // increase length by the double of the memory\n                            // bytes length\n                            mul(mlength, 2)\n                        )\n                    )\n                )\n            }\n            case 1 {\n                // The stored value fits in the slot, but the combined value\n                // will exceed it.\n                // get the keccak hash to get the contents of the array\n                mstore(0x0, _preBytes_slot)\n                let sc := add(keccak256(0x0, 0x20), div(slength, 32))\n\n                // save new length\n                sstore(_preBytes_slot, add(mul(newlength, 2), 1))\n\n                // The contents of the _postBytes array start 32 bytes into\n                // the structure. Our first read should obtain the `submod`\n                // bytes that can fit into the unused space in the last word\n                // of the stored array. To get this, we read 32 bytes starting\n                // from `submod`, so the data we read overlaps with the array\n                // contents by `submod` bytes. Masking the lowest-order\n                // `submod` bytes allows us to add that value directly to the\n                // stored value.\n\n                let submod := sub(32, slength)\n                let mc := add(_postBytes, submod)\n                let end := add(_postBytes, mlength)\n                let mask := sub(exp(0x100, submod), 1)\n\n                sstore(\n                    sc,\n                    add(\n                        and(\n                            fslot,\n                            0xffffffffffffffffffffffffffffffffffffffffffffffffffffffffffffff00\n                        ),\n                        and(mload(mc), mask)\n                    )\n                )\n\n                for {\n                    mc := add(mc, 0x20)\n                    sc := add(sc, 1)\n                } lt(mc, end) {\n                    sc := add(sc, 1)\n                    mc := add(mc, 0x20)\n                } {\n                    sstore(sc, mload(mc))\n                }\n\n                mask := exp(0x100, sub(mc, end))\n\n                sstore(sc, mul(div(mload(mc), mask), mask))\n            }\n            default {\n                // get the keccak hash to get the contents of the array\n                mstore(0x0, _preBytes_slot)\n                // Start copying to the last used word of the stored array.\n                let sc := add(keccak256(0x0, 0x20), div(slength, 32))\n\n                // save new length\n                sstore(_preBytes_slot, add(mul(newlength, 2), 1))\n\n                // Copy over the first `submod` bytes of the new data as in\n                // case 1 above.\n                let slengthmod := mod(slength, 32)\n                let mlengthmod := mod(mlength, 32)\n                let submod := sub(32, slengthmod)\n                let mc := add(_postBytes, submod)\n                let end := add(_postBytes, mlength)\n                let mask := sub(exp(0x100, submod), 1)\n\n                sstore(sc, add(sload(sc), and(mload(mc), mask)))\n                \n                for { \n                    sc := add(sc, 1)\n                    mc := add(mc, 0x20)\n                } lt(mc, end) {\n                    sc := add(sc, 1)\n                    mc := add(mc, 0x20)\n                } {\n                    sstore(sc, mload(mc))\n                }\n\n                mask := exp(0x100, sub(mc, end))\n\n                sstore(sc, mul(div(mload(mc), mask), mask))\n            }\n        }\n    }\n\n    function slice(bytes _bytes, uint _start, uint _length) internal  pure returns (bytes) {\n        require(_bytes.length >= (_start + _length));\n\n        bytes memory tempBytes;\n\n        assembly {\n            switch iszero(_length)\n            case 0 {\n                // Get a location of some free memory and store it in tempBytes as\n                // Solidity does for memory variables.\n                tempBytes := mload(0x40)\n\n                // The first word of the slice result is potentially a partial\n                // word read from the original array. To read it, we calculate\n                // the length of that partial word and start copying that many\n                // bytes into the array. The first word we copy will start with\n                // data we don't care about, but the last `lengthmod` bytes will\n                // land at the beginning of the contents of the new array. When\n                // we're done copying, we overwrite the full first word with\n                // the actual length of the slice.\n                let lengthmod := and(_length, 31)\n\n                // The multiplication in the next line is necessary\n                // because when slicing multiples of 32 bytes (lengthmod == 0)\n                // the following copy loop was copying the origin's length\n                // and then ending prematurely not copying everything it should.\n                let mc := add(add(tempBytes, lengthmod), mul(0x20, iszero(lengthmod)))\n                let end := add(mc, _length)\n\n                for {\n                    // The multiplication in the next line has the same exact purpose\n                    // as the one above.\n                    let cc := add(add(add(_bytes, lengthmod), mul(0x20, iszero(lengthmod))), _start)\n                } lt(mc, end) {\n                    mc := add(mc, 0x20)\n                    cc := add(cc, 0x20)\n                } {\n                    mstore(mc, mload(cc))\n                }\n\n                mstore(tempBytes, _length)\n\n                //update free-memory pointer\n                //allocating the array padded to 32 bytes like the compiler does now\n                mstore(0x40, and(add(mc, 31), not(31)))\n            }\n            //if we want a zero-length slice let's just return a zero-length array\n            default {\n                tempBytes := mload(0x40)\n\n                mstore(0x40, add(tempBytes, 0x20))\n            }\n        }\n\n        return tempBytes;\n    }\n\n    function toAddress(bytes _bytes, uint _start) internal  pure returns (address) {\n        require(_bytes.length >= (_start + 20));\n        address tempAddress;\n\n        assembly {\n            tempAddress := div(mload(add(add(_bytes, 0x20), _start)), 0x1000000000000000000000000)\n        }\n\n        return tempAddress;\n    }\n\n    function toUint(bytes _bytes, uint _start) internal  pure returns (uint256) {\n        require(_bytes.length >= (_start + 32));\n        uint256 tempUint;\n\n        assembly {\n            tempUint := mload(add(add(_bytes, 0x20), _start))\n        }\n\n        return tempUint;\n    }\n\n    function equal(bytes memory _preBytes, bytes memory _postBytes) internal pure returns (bool) {\n        bool success = true;\n\n        assembly {\n            let length := mload(_preBytes)\n\n            // if lengths don't match the arrays are not equal\n            switch eq(length, mload(_postBytes))\n            case 1 {\n                // cb is a circuit breaker in the for loop since there's\n                //  no said feature for inline assembly loops\n                // cb = 1 - don't breaker\n                // cb = 0 - break\n                let cb := 1\n\n                let mc := add(_preBytes, 0x20)\n                let end := add(mc, length)\n\n                for {\n                    let cc := add(_postBytes, 0x20)\n                // the next line is the loop condition:\n                // while(uint(mc < end) + cb == 2)\n                } eq(add(lt(mc, end), cb), 2) {\n                    mc := add(mc, 0x20)\n                    cc := add(cc, 0x20)\n                } {\n                    // if any of these checks fails then arrays are not equal\n                    if iszero(eq(mload(mc), mload(cc))) {\n                        // unsuccess:\n                        success := 0\n                        cb := 0\n                    }\n                }\n            }\n            default {\n                // unsuccess:\n                success := 0\n            }\n        }\n\n        return success;\n    }\n\n    function equalStorage(bytes storage _preBytes, bytes memory _postBytes) internal view returns (bool) {\n        bool success = true;\n\n        assembly {\n            // we know _preBytes_offset is 0\n            let fslot := sload(_preBytes_slot)\n            // Decode the length of the stored array like in concatStorage().\n            let slength := div(and(fslot, sub(mul(0x100, iszero(and(fslot, 1))), 1)), 2)\n            let mlength := mload(_postBytes)\n\n            // if lengths don't match the arrays are not equal\n            switch eq(slength, mlength)\n            case 1 {\n                // slength can contain both the length and contents of the array\n                // if length < 32 bytes so let's prepare for that\n                // v. http://solidity.readthedocs.io/en/latest/miscellaneous.html#layout-of-state-variables-in-storage\n                if iszero(iszero(slength)) {\n                    switch lt(slength, 32)\n                    case 1 {\n                        // blank the last byte which is the length\n                        fslot := mul(div(fslot, 0x100), 0x100)\n\n                        if iszero(eq(fslot, mload(add(_postBytes, 0x20)))) {\n                            // unsuccess:\n                            success := 0\n                        }\n                    }\n                    default {\n                        // cb is a circuit breaker in the for loop since there's\n                        //  no said feature for inline assembly loops\n                        // cb = 1 - don't breaker\n                        // cb = 0 - break\n                        let cb := 1\n\n                        // get the keccak hash to get the contents of the array\n                        mstore(0x0, _preBytes_slot)\n                        let sc := keccak256(0x0, 0x20)\n\n                        let mc := add(_postBytes, 0x20)\n                        let end := add(mc, mlength)\n\n                        // the next line is the loop condition:\n                        // while(uint(mc < end) + cb == 2)\n                        for {} eq(add(lt(mc, end), cb), 2) {\n                            sc := add(sc, 1)\n                            mc := add(mc, 0x20)\n                        } {\n                            if iszero(eq(sload(sc), mload(mc))) {\n                                // unsuccess:\n                                success := 0\n                                cb := 0\n                            }\n                        }\n                    }\n                }\n            }\n            default {\n                // unsuccess:\n                success := 0\n            }\n        }\n\n        return success;\n    }\n}\ncontract DepositContract {\n  using SafeMath for uint256;\n  using RLP for RLP.RLPItem;\n  using RLP for RLP.Iterator;\n  using RLP for bytes;\n  using BytesLib for bytes;\n\n  string contractState = \"preStaked\";\n  address tokenContract;\n  address custodian;\n  address custodianForeign;\n  uint256 stakedAmount;\n  uint256 depositCap;\n  uint256 depositedAmount;\n  mapping (uint256 => uint256) public tokenIdToAmount;\n  mapping (uint256 => address) public tokenIdToMinter;\n\n  struct Transaction {\n    uint nonce;\n    uint gasPrice;\n    uint gasLimit;\n    address to;\n    uint value;\n    bytes data;\n    uint8 v;\n    bytes32 r;\n    bytes32 s;\n    address from;\n  }\n\n  function () payable {}\n\n  constructor (address _custodian) {\n    custodian = _custodian;\n  }\n\n  modifier onlyCustodian() {\n    require(custodian == msg.sender);\n    _;\n  }\n\n  modifier statePreStaked () {\n    require(keccak256(contractState) == keccak256(\"preStaked\"));\n    _;\n  }\n\n  modifier stateStaked () {\n    require(keccak256(contractState) == keccak256(\"staked\"));\n    _;\n  }\n\n  event Deposit(address indexed depositer,\n                uint256 amount,\n                uint256 tokenId,\n                address minter);\n  event ChallengeInitiated(address indexed challenger,\n                           address indexed depositedTo,\n                           uint256 tokenId);\n  event Challenge(address indexed rechallenger,\n                  address indexed depositedTo,\n                  uint256 tokenId,\n                  uint256 finalChallengeNonce);\n  event ChallengeResolved(uint256 tokenId);\n  event Withdrawal(address indexed withdrawer,\n                   uint256 indexed tokenId,\n                   uint256 stakedAmount);\n\n  bytes4 mintSignature = 0x94bf804d;\n  bytes4 withdrawSignature = 0x2e1a7d4d;\n  bytes4 transferFromSignature = 0xfe99049a;\n  bytes4 custodianApproveSignature = 0x6e3c045e;\n  uint256 gasPerChallenge = 206250;\n\n  function setTokenContract(address _tokenContract) onlyCustodian statePreStaked\n  public {\n    tokenContract = _tokenContract;\n  }\n\n\n  function setCustodianForeign(address _custodianForeign) onlyCustodian\n  statePreStaked public {\n    custodianForeign = _custodianForeign;\n  }\n\n  function finalizeStake() onlyCustodian statePreStaked public {\n    stakedAmount = address(this).balance;\n    depositCap = address(this).balance;\n    depositedAmount = 0;\n    contractState = \"staked\";\n  }\n\n  function deposit(uint256 _tokenId, address _minter) payable public {\n    depositedAmount += msg.value;\n    tokenIdToAmount[_tokenId] = tokenIdToAmount[_tokenId].add(msg.value);\n    tokenIdToMinter[_tokenId] = _minter;\n    emit Deposit(msg.sender, msg.value, _tokenId, _minter);\n  }\n\n  // tokenIdToTimestamp\n  mapping (uint256 => uint256) challengeTime;\n  // tokenIdToAddress\n  mapping (uint256 => address) challengeAddressClaim;\n  // tokenIdToAddress\n  mapping (uint256 => address) challengeRecipient;\n  //mintToStake\n  mapping (uint256 => uint256) challengeStake;\n  //mintToEndNonce/depth\n  mapping (uint256 => uint256) challengeEndNonce;\n  //tokenIdToNonce\n  mapping (uint256 => uint256) challengeNonce;\n  //tokenIdToChallengerAddress\n  mapping (uint256 => address) challenger;\n\n  //For Debugging purposes\n  event Test(bytes tx1, bytes tx2, bytes tx3);\n  event Trace(bytes out);\n  event TraceAddress(address out);\n  event Trace32(bytes32 out);\n  event TraceUint256(uint256 out);\n  /*\n  /**\n   * @dev Initiates a withdrawal process. Starts the challenge period\n   * Requires the msg sender to stake a payment (payable function)\n   // TODO: check amount to stake, discern challenge time\n   * @param _to address to send withdrawal\n   * @param _tokenId uint256 Id of token on TokenContract\n   * @param _rawTxBundle bytes32[] bundle that takes in concatenation of\n            bytes _withdrawTx, bytes _lastTx, bytes _custodianTx\n   * @param _txLengths lengths of transactions in rawTxBundle, used for\n            efficiency purposes\n   * @param _txMsgHashes msghashes of transactions in bundle\n   + @param _declaredNonce depth of chain of custody from token contract.\n            IMPORTANT TO BE HONEST\n  */\n  function withdraw(address _to,\n    uint256 _tokenId,\n    bytes32[] _rawTxBundle,\n    uint256[] _txLengths,\n    bytes32[] _txMsgHashes,\n    uint256 _declaredNonce) public payable  {\n    // TODO:  discern challenge time,\n    //check amount to stake\n    require(msg.value >= gasPerChallenge.mul(tx.gasprice).mul(_declaredNonce));\n    // splits bundle into individual rawTxs\n    bytes[] rawTxList;\n    splitTxBundle(_rawTxBundle, _txLengths, rawTxList);\n\n    //_withdrawTx withdraw() message sent by withdrawer to TokenContract\n    RLP.RLPItem[] memory withdrawTx = rawTxList[0].toRLPItem().toList();\n    // _lastTx on TokenContract transferring custody of token to withdrawer\n    RLP.RLPItem[] memory lastTx = rawTxList[1].toRLPItem().toList();\n    // _custodianTx signed version of _lastTx\n    RLP.RLPItem[] memory custodianTx = rawTxList[2].toRLPItem().toList();\n\n    checkTransferTxAndCustodianTx(lastTx, custodianTx, _txMsgHashes[2]);\n\n    address lastCustody = parseData(lastTx[5].toData(), 2).toAddress(12);\n    require(withdrawTx[3].toAddress() == tokenContract);\n    require(lastCustody == ecrecover(_txMsgHashes[0], //hash of withdrawTx\n                                     uint8(withdrawTx[6].toUint()), //v\n                                     withdrawTx[7].toBytes32(), //r\n                                     withdrawTx[8].toBytes32()), //s\n                                     \"WithdrawalTx not signed by lastTx receipient\");\n\n    //checks nonce                   \n    require(parseData(lastTx[5].toData(),4).toUint(0) + 1 == _declaredNonce,\n        \"nonces do not match\");\n    //require that a challenge period is not underway\n    require(challengeTime[_tokenId] == 0);\n    //start challenge period\n    challengeTime[_tokenId] = now + 10 minutes;\n    challengeEndNonce[_tokenId] = _declaredNonce;\n    challengeAddressClaim[_tokenId] = lastCustody;\n    challengeRecipient[_tokenId] = _to;\n    challengeStake[_tokenId] = msg.value;\n    emit Withdrawal(_to, _tokenId, msg.value);\n  }\n\n  /*\n  /**\n   * @dev For withdrawer to claims honest withdrawal\n   * @param _tokenId uint256 Id of token on TokenContract\n  */\n  function claim(uint256 _tokenId) public {\n    require(challengeTime[_tokenId] != 0,\n            \"the challenge period has not started yet\");\n    require(challengeTime[_tokenId] < now,\n            \"the challenge period has not ended yet\");\n    // challengeNonce represents the requirement for the next tx\n    require(challengeNonce[_tokenId] == challengeEndNonce[_tokenId] ||\n                                        challengeNonce[_tokenId] == 0,\n            \"either a challenge has started, or the challenge response has not been proven to endNonce\");\n    challengeRecipient[_tokenId].send((tokenIdToAmount[_tokenId] ) +\n                                       challengeStake[_tokenId]);\n    tokenIdToAmount[_tokenId] = 0;\n    resetChallenge(_tokenId);\n  }\n\n  /*\n  /**\n   * @dev For challenger to claim stake on fradulent challenge\n     (challengeWithPastCustody())\n   * @param _tokenId uint256 Id of token on TokenContract\n  */\n  function claimStake(uint256 _tokenId) public {\n    require(challengeTime[_tokenId] != 0);\n    require(challengeTime[_tokenId] < now);\n    require(challengeNonce[_tokenId] != challengeEndNonce[_tokenId] &&\n                                        challengeNonce[_tokenId] != 0,\n            \"challenge not initated/withdrawal is honest\");\n\n    challengeRecipient[_tokenId].send(challengeStake[_tokenId]);\n\n    resetChallenge(_tokenId);\n  }\n  /*\n  /**\n   * @dev Challenges with future custody using a transaction proving transfer\n   * once future custody is proven, it ends pays the challenger\n   * @param _to address to send stake given success\n   * @param _tokenId uint256 Id of token on TokenContract\n   * @param _rawTxBundle bytes32[] bundle that takes in concatenation of\n     bytes _transactionTx, bytes _custodianTx\n   * @param _txLengths lengths of transactions in rawTxBundle, for efficiency\n   * @param _txMsgHashes msghashes of transactions in bundle\n  */\n  function challengeWithFutureCustody(address _to,\n                                      uint256 _tokenId,\n                                      bytes32[] _rawTxBundle,\n                                      uint256[] _txLengths,\n                                      bytes32[] _txMsgHashes) public {\n    require(challengeTime[_tokenId] != 0);\n    require(challengeTime[_tokenId] > now);\n\n    // splits bundle into individual rawTxs\n    bytes[] rawTxList;\n    splitTxBundle(_rawTxBundle, _txLengths, rawTxList);\n\n    RLP.RLPItem[] memory transferTx = rawTxList[0].toRLPItem().toList();\n    RLP.RLPItem[] memory custodianTx = rawTxList[1].toRLPItem().toList();\n\n    //TODO: NEED TO CHECK NONCE\n    checkTransferTxAndCustodianTx(transferTx, custodianTx, _txMsgHashes[1]);\n    require(challengeAddressClaim[_tokenId] ==\n            parseData(transferTx[5].toData(), 1).toAddress(12),\n            \"token needs to be transfered from last proven custody\");\n    require(_tokenId == parseData(transferTx[5].toData(), 3).toUint(0),\n            \"needs to refer to the same tokenId\");\n\n    _to.send(challengeStake[_tokenId]);\n    resetChallenge(_tokenId);\n  }\n\n/*\n  /**\n   * @dev Initiates a challenge with past custody using a chain of custody\n   leading to the declared nonce once challenge period ends.\n   *It should be designed such that it punishes challenging an honest withdrawal\n   and incentivises challenging a fradulent one\n   * requires challenger to stake.\n   // TODO: extend challenge period when called\n   * @param _to address to send stake given success\n   * @param _tokenId uint256 Id of token on TokenContract\n   * @param _rawTxBundle bytes32[] bundle that takes in concatenation of\n      bytes _transactionTx, bytes _custodianTx\n   * @param _txLengths lengths of transactions in rawTxBundle, for efficiency\n   * @param _txMsgHashes msghashes of transactions in bundle\n  */\n  function initiateChallengeWithPastCustody(address _to,\n                                            uint256 _tokenId,\n                                            bytes32[] _rawTxBundle,\n                                            uint256[] _txLengths,\n                                            bytes32[] _txMsgHashes)\n                                            payable public {\n    require(challengeTime[_tokenId] != 0);\n    require(challengeTime[_tokenId] > now);\n    require(msg.value >= gasPerChallenge.mul(tx.gasprice).\n                         mul(challengeEndNonce[_tokenId]).div(5));\n\n    // splits bundle into individual rawTxs\n    bytes[] rawTxList;\n    splitTxBundle(_rawTxBundle, _txLengths, rawTxList);\n\n    RLP.RLPItem[] memory transferTx = rawTxList[0].toRLPItem().toList();\n    RLP.RLPItem[] memory custodianTx = rawTxList[1].toRLPItem().toList();\n\n    checkTransferTxAndCustodianTx(transferTx, custodianTx, _txMsgHashes[1]);\n    //TODO: save on require statement by not including _tokenId in arguments\n    require(_tokenId == parseData(transferTx[5].toData(), 3).toUint(0),\n            \"needs to refer to the same tokenId\");\n    require(tokenIdToMinter[_tokenId] == parseData(transferTx[5].toData(), 1).\n            toAddress(12),\n            \"token needs to be transfered from last proven custody\");\n    //moves up root mint referecce to recipient address\n    tokenIdToMinter[_tokenId] = parseData(transferTx[5].toData(), 2).\n                                toAddress(12);\n    challengeStake[_tokenId] += msg.value;\n    challenger[_tokenId] = _to;\n    challengeNonce[_tokenId] = 1;\n    emit ChallengeInitiated(msg.sender, _to, _tokenId);\n  }\n\n  /*\n  /**\n   * @dev Add to the chain of custody leading to the declared nonce\n   * once challenge period ends claim funds through claimStake()\n   // TODO: remove loops (less efficient then single calls)\n   * @param _to address to send stake given success\n   * @param _tokenId uint256 Id of token on TokenContract\n   * @param _rawTxBundle bytes32[] bundle that takes in concatenation of\n     bytes _transactionTx, bytes _custodianTx\n   * @param _txLengths lengths of transactions in rawTxBundle, for efficiency\n   * @param _txMsgHashes msghashes of transactions in bundle\n  */\n  // TODO: rename challegne\n  function challengeWithPastCustody(address _to,\n                                    uint256 _tokenId,\n                                    bytes32[] _rawTxBundle,\n                                    uint256[] _txLengths,\n                                    bytes32[] _txMsgHashes) public {\n    require(challengeTime[_tokenId] != 0);\n    require(challengeTime[_tokenId] > now); //challenge is still open\n    require(challengeNonce[_tokenId] > 0);\n\n    // splits bundle into individual rawTxs\n    bytes[] rawTxList;\n    splitTxBundle(_rawTxBundle, _txLengths, rawTxList);\n\n    //get rid of loops\n    for (uint i = 0; i < _txLengths.length; i +=2) {\n      RLP.RLPItem[] memory transferTx = rawTxList[i].toRLPItem().toList();\n      RLP.RLPItem[] memory custodianTx = rawTxList[i + 1].toRLPItem().toList();\n\n      checkTransferTxAndCustodianTx(transferTx, custodianTx, _txMsgHashes[i+1]);\n      //TODO: save on require statement by not including _tokenId in arguments\n      require(_tokenId == parseData(transferTx[5].toData(), 3).toUint(0),\n              \"needs to refer to the same tokenId\");\n      require(tokenIdToMinter[_tokenId] == parseData(transferTx[5].toData(), 1)\n              .toAddress(12),\n              \"token needs to be transfered from last proven custody\");\n      require(parseData(transferTx[5].toData(),4).toUint(0) ==\n              challengeNonce[_tokenId],\n              \"nonce needs to equal required challengeNonce\");\n\n      //moves up root mint referecce to recipient address\n      tokenIdToMinter[_tokenId] = parseData(transferTx[5].toData(), 2)\n                                  .toAddress(12);\n      //updates challengeNonce to next step\n      challengeNonce[_tokenId] += 1;\n    }\n    emit Challenge(msg.sender, _to, _tokenId, challengeNonce[_tokenId]);\n  }\n\n  /*\n  /**\n   * @dev The existence of two tokenIds with same nonce indicates presence of\n     double signing on the part of the Custodian => should punish Custodian\n   // TODO: how much to punish custodian???\n   * @param _to address to send stake given success\n   * @param _tokenId uint256 Id of token on TokenContract\n   * @param _rawTxBundle bytes32[] concatenation of bytes _transactionTx,\n     bytes _custodianTx\n   * @param _txLengths lengths of transactions in rawTxBundle, for efficiency\n   * @param _txMsgHashes msghashes of transactions in bundle\n  */\n  function submitCustodianDoubleSign(address _to,\n                                     uint256 _tokenId,\n                                     bytes32[] _rawTxBundle,\n                                     uint256[] _txLengths,\n                                     bytes32[] _txMsgHashes) public {\n\n    bytes[] rawTxList;\n    splitTxBundle(_rawTxBundle, _txLengths, rawTxList);\n\n    RLP.RLPItem[] memory transferTx = rawTxList[0].toRLPItem().toList();\n    RLP.RLPItem[] memory custodianTx = rawTxList[1].toRLPItem().toList();\n    RLP.RLPItem[] memory transferTx2 = rawTxList[2].toRLPItem().toList();\n    RLP.RLPItem[] memory custodianTx2 = rawTxList[3].toRLPItem().toList();\n\n    checkTransferTxAndCustodianTx(transferTx, custodianTx, _txMsgHashes[1]);\n    checkTransferTxAndCustodianTx(transferTx2, custodianTx2, _txMsgHashes[3]);\n    require(_tokenId == parseData(transferTx[5].toData(), 3).toUint(0),\n            \"needs to refer to the same tokenId\");\n    require(_tokenId == parseData(transferTx2[5].toData(), 3).toUint(0),\n            \"needs to refer to the same tokenId\");\n    require(parseData(transferTx2[5].toData(), 4).toUint(0) ==\n            parseData(transferTx[5].toData(), 4).toUint(0),\n            \"needs to refer to the same nonce\");\n\n    //TODO: how much to punish custodian??? can we pay out the stake instead of\n    //just burning it, pause contract??\n    stakedAmount = 0;\n    depositCap = 0;\n  }\n\n  /*\n  /**\n   * @dev Check the validity of the transfer and custodian transaction\n   * @param  _transferTx RLP item array representing transferTx\n   * @param _tokenId RLP item array representing corresponding custodianTx\n   * @param _rawTxBundle bytes32 _custodianTx msgHash\n  */\n  function checkTransferTxAndCustodianTx(RLP.RLPItem[] _transferTx,\n                                         RLP.RLPItem[] _custodianTx,\n                                         bytes32 _custodianTxMsgHash) internal {\n    require(_transferTx[3].toAddress() == tokenContract);\n    require(_custodianTx[3].toAddress() == tokenContract);\n    require(bytesToBytes4(parseData(_transferTx[5].toData(), 0), 0) ==\n            transferFromSignature, \"_transferTx is not transferFrom function\");\n    require(bytesToBytes4(parseData(_custodianTx[5].toData(), 0), 0) ==\n            custodianApproveSignature, \"_custodianTx is not custodianApproval\");\n    require(custodianForeign == ecrecover(_custodianTxMsgHash,\n                                          uint8(_custodianTx[6].toUint()),\n                                          _custodianTx[7].toBytes32(),\n                                          _custodianTx[8].toBytes32()),\n            \"_custodianTx should be signed by custodian\");\n    //TODO: which is more efficient, checking parameters or hash?\n    require(parseData(_transferTx[5].toData(),3).\n            equal(parseData(_custodianTx[5].toData(),1)),\n            \"token_ids do not match\");\n    require(parseData(_transferTx[5].toData(),4).\n            equal(parseData(_custodianTx[5].toData(),2)),\n            \"nonces do not match\");\n  }\n\n  /*\n  /**\n   * @dev Splits a rawTxBundle received to its individual transactions.\n   * Necessary due to limitation in amount of data transferable through solidity\n   * @param  _rawTxBundle that is a concatenation of bytes _withdrawTx,\n             bytes _lastTx, bytes _custodianTx\n   * @param _txLengths lengths of transactions in rawTxBundle\n   * @param _rawTxList list of individual transactions from _rawTxBundle\n  */\n  function splitTxBundle(bytes32[] _rawTxBundle,\n                         uint256[] _txLengths,\n                         bytes[] storage _rawTxList) internal {\n    uint256 txStartPosition = 0;\n    for (uint i = 0; i < _txLengths.length; i++) {\n      _rawTxList[i] = sliceBytes32Arr(_rawTxBundle,\n                                      txStartPosition,\n                                      _txLengths[i]);\n      txStartPosition = txStartPosition.add(_txLengths[i]);\n      txStartPosition = txStartPosition + (64 - txStartPosition % 64);\n    }\n  }\n\n  /*\n  /**\n   * @dev Splits a rawTxBundle received to its individual transactions.\n   * Necessary due to limitation in amount of data transferable through solidity\n   * @param  _transferTx RLP item array representing transferTx\n   * @param _tokenId RLP item array representing corresponding custodianTx\n   * @param _rawTxBundle bytes32 _custodianTx msgHash\n  */\n  //TODO: MAKE MORE EFFICENT\n  function sliceBytes32Arr(bytes32[] _bytes32ArrBundle,\n                           uint256 _startPosition,\n                           uint256 _length) internal returns (bytes) {\n    bytes memory out;\n    uint256 i = _startPosition.div(64);\n    uint256 endPosition = _startPosition.add(_length);\n    uint256 z = endPosition.div(64);\n    for (i ; i < z; i++) {\n      out = out.concat(bytes32ToBytes(_bytes32ArrBundle[i]));\n    }\n    out = out.concat(bytes32ToBytes(_bytes32ArrBundle[z]).\n              slice(0, (endPosition % 64 / 2) - 1));\n    return out;\n  }\n\n  function resetChallenge(uint256 _tokenId) internal {\n    challengeStake[_tokenId] = 0;\n    challengeRecipient[_tokenId] = 0;\n    challengeAddressClaim[_tokenId] = 0;\n    challengeEndNonce[_tokenId] = 0;\n    challengeTime[_tokenId] = 0;\n    challengeNonce[_tokenId] = 0;\n    emit ChallengeResolved(_tokenId);\n  }\n\n  /* Util functions --------------------------------------------------*/\n\n  function parseData(bytes data, uint256 i) internal returns (bytes) {\n    if (i == 0) {\n      return data.slice(0,5);\n    } else {\n      return data.slice(4 + ((i-1) * 32), 32);\n    }\n  }\n\n  //https://ethereum.stackexchange.com/questions/40920/convert-bytes32-to-bytes\n  //TODO: Look for more efficient method\n  function bytes32ToBytes(bytes32 _data) internal pure returns (bytes) {\n    return abi.encodePacked(_data);\n  }\n\n  function bytesToBytes32(bytes b, uint offset) private pure returns (bytes32) {\n    bytes32 out;\n    for (uint i = 0; i < 32; i++) {\n      out |= bytes32(b[offset + i] & 0xFF) >> (i * 8);\n    }\n    return out;\n  }\n\n  function bytesToBytes4(bytes b, uint offset) private pure returns (bytes4) {\n    bytes4 out;\n    for (uint i = 0; i < 4; i++) {\n      out |= bytes4(b[offset + i] & 0xFF) >> (i * 8);\n    }\n    return out;\n  }\n\n  function stringToBytes( string s) internal returns (bytes memory b3){\n    b3 = bytes(s);\n    return b3;\n  }\n\n  // Nick Johnson https://ethereum.stackexchange.com/questions/4170/how-to-convert-a-uint-to-bytes-in-solidity\n  function uint256ToBytes(uint256 x) internal returns (bytes b) {\n    b = new bytes(32);\n    assembly { mstore(add(b, 32), x) }\n  }\n\n  // Tjaden Hess https://ethereum.stackexchange.com/questions/884/how-to-convert-an-address-to-bytes-in-solidity\n  function addressToBytes(address a) internal returns (bytes b) {\n    assembly {\n        let m := mload(0x40)\n        mstore(add(m, 20), xor(0x140000000000000000000000000000000000000000, a))\n        mstore(0x40, add(m, 52))\n        b := m\n    }\n  }\n\n  function ecrecovery(bytes32 hash, bytes sig) public returns (address) {\n    bytes32 r;\n    bytes32 s;\n    uint8 v;\n\n    if (sig.length != 65) {\n      return 0;\n    }\n\n    assembly {\n      r := mload(add(sig, 32))\n      s := mload(add(sig, 64))\n      v := and(mload(add(sig, 65)), 255)\n    }\n\n    // https://github.com/ethereum/go-ethereum/issues/2053\n    if (v < 27) {\n      v += 27;\n    }\n\n    if (v != 27 && v != 28) {\n      return 0;\n    }\n\n    /* prefix might be needed for geth only\n     * https://github.com/ethereum/go-ethereum/issues/3731\n     */\n    // bytes memory prefix = \"\\x19Ethereum Signed Message:\\n32\";\n    // hash = sha3(prefix, hash);\n\n    return ecrecover(hash, v, r, s);\n  }\n\n  function ecverify(bytes32 hash, bytes sig, address signer)\n  public returns (bool) {\n    return signer == ecrecovery(hash, sig);\n  }\n\n}\n\n\n",
  "sourcePath": "/home/yingtong/peaceBridge/contracts/DepositContract_flat.sol",
  "compiler": {
    "name": "solc",
    "version": "0.4.24+commit.e67f0147.Emscripten.clang"
  },
  "schemaVersion": "2.0.1",
  "updatedAt": "2019-01-19T03:55:22.117Z"
}