{
  "contractName": "DepositContract",
  "abi": [
    {
      "constant": true,
      "inputs": [
        {
          "name": "",
          "type": "uint256"
        }
      ],
      "name": "tokenIdToMinter",
      "outputs": [
        {
          "name": "",
          "type": "address"
        }
      ],
      "payable": false,
      "stateMutability": "view",
      "type": "function"
    },
    {
      "constant": true,
      "inputs": [
        {
          "name": "",
          "type": "uint256"
        }
      ],
      "name": "tokenIdToAmount",
      "outputs": [
        {
          "name": "",
          "type": "uint256"
        }
      ],
      "payable": false,
      "stateMutability": "view",
      "type": "function"
    },
    {
      "inputs": [
        {
          "name": "_custodian",
          "type": "address"
        }
      ],
      "payable": false,
      "stateMutability": "nonpayable",
      "type": "constructor"
    },
    {
      "payable": true,
      "stateMutability": "payable",
      "type": "fallback"
    },
    {
      "anonymous": false,
      "inputs": [
        {
          "indexed": true,
          "name": "depositer",
          "type": "address"
        },
        {
          "indexed": false,
          "name": "amount",
          "type": "uint256"
        },
        {
          "indexed": false,
          "name": "tokenId",
          "type": "uint256"
        },
        {
          "indexed": false,
          "name": "minter",
          "type": "address"
        }
      ],
      "name": "Deposit",
      "type": "event"
    },
    {
      "anonymous": false,
      "inputs": [
        {
          "indexed": true,
          "name": "challenger",
          "type": "address"
        },
        {
          "indexed": true,
          "name": "depositedTo",
          "type": "address"
        },
        {
          "indexed": false,
          "name": "tokenId",
          "type": "uint256"
        }
      ],
      "name": "ChallengeInitiated",
      "type": "event"
    },
    {
      "anonymous": false,
      "inputs": [
        {
          "indexed": true,
          "name": "rechallenger",
          "type": "address"
        },
        {
          "indexed": true,
          "name": "depositedTo",
          "type": "address"
        },
        {
          "indexed": false,
          "name": "tokenId",
          "type": "uint256"
        },
        {
          "indexed": false,
          "name": "finalChallengeNonce",
          "type": "uint256"
        }
      ],
      "name": "Challenge",
      "type": "event"
    },
    {
      "anonymous": false,
      "inputs": [
        {
          "indexed": false,
          "name": "tokenId",
          "type": "uint256"
        }
      ],
      "name": "ChallengeResolved",
      "type": "event"
    },
    {
      "anonymous": false,
      "inputs": [
        {
          "indexed": true,
          "name": "withdrawer",
          "type": "address"
        },
        {
          "indexed": true,
          "name": "tokenId",
          "type": "uint256"
        },
        {
          "indexed": false,
          "name": "stakedAmount",
          "type": "uint256"
        }
      ],
      "name": "Withdrawal",
      "type": "event"
    },
    {
      "anonymous": false,
      "inputs": [
        {
          "indexed": false,
          "name": "tx1",
          "type": "bytes"
        },
        {
          "indexed": false,
          "name": "tx2",
          "type": "bytes"
        },
        {
          "indexed": false,
          "name": "tx3",
          "type": "bytes"
        }
      ],
      "name": "Test",
      "type": "event"
    },
    {
      "anonymous": false,
      "inputs": [
        {
          "indexed": false,
          "name": "out",
          "type": "bytes"
        }
      ],
      "name": "Trace",
      "type": "event"
    },
    {
      "anonymous": false,
      "inputs": [
        {
          "indexed": false,
          "name": "out",
          "type": "address"
        }
      ],
      "name": "TraceAddress",
      "type": "event"
    },
    {
      "anonymous": false,
      "inputs": [
        {
          "indexed": false,
          "name": "out",
          "type": "bytes32"
        }
      ],
      "name": "Trace32",
      "type": "event"
    },
    {
      "anonymous": false,
      "inputs": [
        {
          "indexed": false,
          "name": "out",
          "type": "uint256"
        }
      ],
      "name": "TraceUint256",
      "type": "event"
    },
    {
      "constant": false,
      "inputs": [
        {
          "name": "_tokenContract",
          "type": "address"
        }
      ],
      "name": "setTokenContract",
      "outputs": [],
      "payable": false,
      "stateMutability": "nonpayable",
      "type": "function"
    },
    {
      "constant": false,
      "inputs": [
        {
          "name": "_custodianForeign",
          "type": "address"
        }
      ],
      "name": "setCustodianForeign",
      "outputs": [],
      "payable": false,
      "stateMutability": "nonpayable",
      "type": "function"
    },
    {
      "constant": false,
      "inputs": [],
      "name": "finalizeStake",
      "outputs": [],
      "payable": false,
      "stateMutability": "nonpayable",
      "type": "function"
    },
    {
      "constant": false,
      "inputs": [
        {
          "name": "_tokenId",
          "type": "uint256"
        },
        {
          "name": "_minter",
          "type": "address"
        }
      ],
      "name": "deposit",
      "outputs": [],
      "payable": true,
      "stateMutability": "payable",
      "type": "function"
    },
    {
      "constant": false,
      "inputs": [
        {
          "name": "_to",
          "type": "address"
        },
        {
          "name": "_tokenId",
          "type": "uint256"
        },
        {
          "name": "_rawTxBundle",
          "type": "bytes32[]"
        },
        {
          "name": "_txLengths",
          "type": "uint256[]"
        },
        {
          "name": "_txMsgHashes",
          "type": "bytes32[]"
        },
        {
          "name": "_declaredNonce",
          "type": "uint256"
        }
      ],
      "name": "withdraw",
      "outputs": [],
      "payable": true,
      "stateMutability": "payable",
      "type": "function"
    },
    {
      "constant": false,
      "inputs": [
        {
          "name": "_tokenId",
          "type": "uint256"
        }
      ],
      "name": "claim",
      "outputs": [],
      "payable": false,
      "stateMutability": "nonpayable",
      "type": "function"
    },
    {
      "constant": false,
      "inputs": [
        {
          "name": "_to",
          "type": "address"
        },
        {
          "name": "_tokenId",
          "type": "uint256"
        },
        {
          "name": "_rawTxBundle",
          "type": "bytes32[]"
        },
        {
          "name": "_txLengths",
          "type": "uint256[]"
        },
        {
          "name": "_txMsgHashes",
          "type": "bytes32[]"
        }
      ],
      "name": "challengeWithFutureCustody",
      "outputs": [],
      "payable": false,
      "stateMutability": "nonpayable",
      "type": "function"
    },
    {
      "constant": false,
      "inputs": [
        {
          "name": "_to",
          "type": "address"
        },
        {
          "name": "_tokenId",
          "type": "uint256"
        },
        {
          "name": "_rawTxBundle",
          "type": "bytes32[]"
        },
        {
          "name": "_txLengths",
          "type": "uint256[]"
        },
        {
          "name": "_txMsgHashes",
          "type": "bytes32[]"
        }
      ],
      "name": "initiateChallengeWithPastCustody",
      "outputs": [],
      "payable": true,
      "stateMutability": "payable",
      "type": "function"
    },
    {
      "constant": false,
      "inputs": [
        {
          "name": "_to",
          "type": "address"
        },
        {
          "name": "_tokenId",
          "type": "uint256"
        },
        {
          "name": "_rawTxBundle",
          "type": "bytes32[]"
        },
        {
          "name": "_txLengths",
          "type": "uint256[]"
        },
        {
          "name": "_txMsgHashes",
          "type": "bytes32[]"
        }
      ],
      "name": "challengeWithPastCustody",
      "outputs": [],
      "payable": false,
      "stateMutability": "nonpayable",
      "type": "function"
    },
    {
      "constant": false,
      "inputs": [
        {
          "name": "_to",
          "type": "address"
        },
        {
          "name": "_tokenId",
          "type": "uint256"
        },
        {
          "name": "_rawTxBundle",
          "type": "bytes32[]"
        },
        {
          "name": "_txLengths",
          "type": "uint256[]"
        },
        {
          "name": "_txMsgHashes",
          "type": "bytes32[]"
        }
      ],
      "name": "submitCustodianDoubleSign",
      "outputs": [],
      "payable": false,
      "stateMutability": "nonpayable",
      "type": "function"
    },
    {
      "constant": false,
      "inputs": [
        {
          "name": "hash",
          "type": "bytes32"
        },
        {
          "name": "sig",
          "type": "bytes"
        }
      ],
      "name": "ecrecovery",
      "outputs": [
        {
          "name": "",
          "type": "address"
        }
      ],
      "payable": false,
      "stateMutability": "nonpayable",
      "type": "function"
    },
    {
      "constant": false,
      "inputs": [
        {
          "name": "hash",
          "type": "bytes32"
        },
        {
          "name": "sig",
          "type": "bytes"
        },
        {
          "name": "signer",
          "type": "address"
        }
      ],
      "name": "ecverify",
      "outputs": [
        {
          "name": "",
          "type": "bool"
        }
      ],
      "payable": false,
      "stateMutability": "nonpayable",
      "type": "function"
    }
  ],
  "bytecode": "0x60806040526040805190810160405280600981526020017f7072655374616b6564000000000000000000000000000000000000000000000081525060009080519060200190620000519291906200024a565b506394bf804d7c010000000000000000000000000000000000000000000000000000000002600960006101000a81548163ffffffff02191690837c010000000000000000000000000000000000000000000000000000000090040217905550632e1a7d4d7c010000000000000000000000000000000000000000000000000000000002600960046101000a81548163ffffffff02191690837c01000000000000000000000000000000000000000000000000000000009004021790555063fe99049a7c010000000000000000000000000000000000000000000000000000000002600960086101000a81548163ffffffff02191690837c010000000000000000000000000000000000000000000000000000000090040217905550636e3c045e7c0100000000000000000000000000000000000000000000000000000000026009600c6101000a81548163ffffffff02191690837c010000000000000000000000000000000000000000000000000000000090040217905550620325aa600a55348015620001de57600080fd5b506040516020806200489a8339810180604052810190808051906020019092919050505080600260006101000a81548173ffffffffffffffffffffffffffffffffffffffff021916908373ffffffffffffffffffffffffffffffffffffffff16021790555050620002f9565b828054600181600116156101000203166002900490600052602060002090601f016020900481019282601f106200028d57805160ff1916838001178555620002be565b82800160010185558215620002be579182015b82811115620002bd578251825591602001919060010190620002a0565b5b509050620002cd9190620002d1565b5090565b620002f691905b80821115620002f2576000816000905550600101620002d8565b5090565b90565b61459180620003096000396000f3006080604052600436106100d0576000357c0100000000000000000000000000000000000000000000000000000000900463ffffffff1680632218f119146100d25780632310b3841461013f57806324241ebc14610156578063379607f51461026c57806339cdde321461029957806359c8969e146103485780635d8d58871461045b5780636d08e8f91461049c5780636e553f65146105a557806377d32e94146105e557806396b6af5a1461069c578063bbcd5bbe146107b2578063d7de57c6146107f5578063fb9efcf01461090b575b005b3480156100de57600080fd5b506100fd6004803603810190808035906020019092919050505061094e565b604051808273ffffffffffffffffffffffffffffffffffffffff1673ffffffffffffffffffffffffffffffffffffffff16815260200191505060405180910390f35b34801561014b57600080fd5b50610154610981565b005b34801561016257600080fd5b5061026a600480360381019080803573ffffffffffffffffffffffffffffffffffffffff16906020019092919080359060200190929190803590602001908201803590602001908080602002602001604051908101604052809392919081815260200183836020028082843782019150505050505091929192908035906020019082018035906020019080806020026020016040519081016040528093929190818152602001838360200280828437820191505050505050919291929080359060200190820180359060200190808060200260200160405190810160405280939291908181526020018383602002808284378201915050505050509192919290505050610b23565b005b34801561027857600080fd5b5061029760048036038101908080359060200190929190505050611033565b005b3480156102a557600080fd5b5061032e6004803603810190808035600019169060200190929190803590602001908201803590602001908080601f0160208091040260200160405190810160405280939291908181526020018383808284378201915050505050509192919290803573ffffffffffffffffffffffffffffffffffffffff169060200190929190505050611352565b604051808215151515815260200191505060405180910390f35b610459600480360381019080803573ffffffffffffffffffffffffffffffffffffffff1690602001909291908035906020019092919080359060200190820180359060200190808060200260200160405190810160405280939291908181526020018383602002808284378201915050505050509192919290803590602001908201803590602001908080602002602001604051908101604052809392919081815260200183836020028082843782019150505050505091929192908035906020019082018035906020019080806020026020016040519081016040528093929190818152602001838360200280828437820191505050505050919291929080359060200190929190505050611395565b005b34801561046757600080fd5b5061048660048036038101908080359060200190929190505050611aef565b6040518082815260200191505060405180910390f35b6105a3600480360381019080803573ffffffffffffffffffffffffffffffffffffffff16906020019092919080359060200190929190803590602001908201803590602001908080602002602001604051908101604052809392919081815260200183836020028082843782019150505050505091929192908035906020019082018035906020019080806020026020016040519081016040528093929190818152602001838360200280828437820191505050505050919291929080359060200190820180359060200190808060200260200160405190810160405280939291908181526020018383602002808284378201915050505050509192919290505050611b07565b005b6105e360048036038101908080359060200190929190803573ffffffffffffffffffffffffffffffffffffffff1690602001909291905050506120fe565b005b3480156105f157600080fd5b5061065a6004803603810190808035600019169060200190929190803590602001908201803590602001908080601f016020809104026020016040519081016040528093929190818152602001838380828437820191505050505050919291929050505061222b565b604051808273ffffffffffffffffffffffffffffffffffffffff1673ffffffffffffffffffffffffffffffffffffffff16815260200191505060405180910390f35b3480156106a857600080fd5b506107b0600480360381019080803573ffffffffffffffffffffffffffffffffffffffff16906020019092919080359060200190929190803590602001908201803590602001908080602002602001604051908101604052809392919081815260200183836020028082843782019150505050505091929192908035906020019082018035906020019080806020026020016040519081016040528093929190818152602001838360200280828437820191505050505050919291929080359060200190820180359060200190808060200260200160405190810160405280939291908181526020018383602002808284378201915050505050509192919290505050612323565b005b3480156107be57600080fd5b506107f3600480360381019080803573ffffffffffffffffffffffffffffffffffffffff16906020019092919050505061294d565b005b34801561080157600080fd5b50610909600480360381019080803573ffffffffffffffffffffffffffffffffffffffff16906020019092919080359060200190929190803590602001908201803590602001908080602002602001604051908101604052809392919081815260200183836020028082843782019150505050505091929192908035906020019082018035906020019080806020026020016040519081016040528093929190818152602001838360200280828437820191505050505050919291929080359060200190820180359060200190808060200260200160405190810160405280939291908181526020018383602002808284378201915050505050509192919290505050612aa1565b005b34801561091757600080fd5b5061094c600480360381019080803573ffffffffffffffffffffffffffffffffffffffff169060200190929190505050612f0f565b005b60086020528060005260406000206000915054906101000a900473ffffffffffffffffffffffffffffffffffffffff1681565b3373ffffffffffffffffffffffffffffffffffffffff16600260009054906101000a900473ffffffffffffffffffffffffffffffffffffffff1673ffffffffffffffffffffffffffffffffffffffff161415156109dd57600080fd5b60405180807f7072655374616b65640000000000000000000000000000000000000000000000815250600901905060405180910390206000191660006040518082805460018160011615610100020316600290048015610a745780601f10610a52576101008083540402835291820191610a74565b820191906000526020600020905b815481529060010190602001808311610a60575b5050915050604051809103902060001916141515610a9157600080fd5b3073ffffffffffffffffffffffffffffffffffffffff16316004819055503073ffffffffffffffffffffffffffffffffffffffff163160058190555060006006819055506040805190810160405280600681526020017f7374616b6564000000000000000000000000000000000000000000000000000081525060009080519060200190610b209291906143eb565b50565b60006060806000600b60008981526020019081526020016000205414151515610b4b57600080fd5b42600b600089815260200190815260200160002054111515610b6c57600080fd5b60006010600089815260200190815260200160002054111515610b8e57600080fd5b610b99868685613063565b610c5b610c56846000815481101515610bae57fe5b906000526020600020018054600181600116156101000203166002900480601f016020809104026020016040519081016040528092919081815260200182805460018160011615610100020316600290048015610c4c5780601f10610c2157610100808354040283529160200191610c4c565b820191906000526020600020905b815481529060010190602001808311610c2f57829003601f168201915b505050505061311a565b613175565b9150610d1f610d1a846001815481101515610c7257fe5b906000526020600020018054600181600116156101000203166002900480601f016020809104026020016040519081016040528092919081815260200182805460018160011615610100020316600290048015610d105780601f10610ce557610100808354040283529160200191610d10565b820191906000526020600020905b815481529060010190602001808311610cf357829003601f168201915b505050505061311a565b613175565b9050610d448282866001815181101515610d3557fe5b90602001906020020151613232565b610d82600c610d74610d6d856005815181101515610d5e57fe5b90602001906020020151613924565b6001613992565b6139e390919063ffffffff16565b73ffffffffffffffffffffffffffffffffffffffff16600c600089815260200190815260200160002060009054906101000a900473ffffffffffffffffffffffffffffffffffffffff1673ffffffffffffffffffffffffffffffffffffffff16141515610e7d576040517f08c379a00000000000000000000000000000000000000000000000000000000081526004018080602001828103825260358152602001807f746f6b656e206e6565647320746f206265207472616e7366657265642066726f81526020017f6d206c6173742070726f76656e20637573746f6479000000000000000000000081525060400191505060405180910390fd5b610ebb6000610ead610ea6856005815181101515610e9757fe5b90602001906020020151613924565b6003613992565b613a1b90919063ffffffff16565b87141515610f57576040517f08c379a00000000000000000000000000000000000000000000000000000000081526004018080602001828103825260228152602001807f6e6565647320746f20726566657220746f207468652073616d6520746f6b656e81526020017f496400000000000000000000000000000000000000000000000000000000000081525060400191505060405180910390fd5b8773ffffffffffffffffffffffffffffffffffffffff166108fc600e60008a8152602001908152602001600020549081150290604051600060405180830381858888f1935050505050610fa987613a44565b8773ffffffffffffffffffffffffffffffffffffffff163373ffffffffffffffffffffffffffffffffffffffff167f8088a25426f6cf86aeb3c86607e9f059cdcf86a1ca4cb1be8514c1e6f82fa09189601060008c815260200190815260200160002054604051808381526020018281526020019250505060405180910390a35050505050505050565b6000600b600083815260200190815260200160002054141515156110e5576040517f08c379a00000000000000000000000000000000000000000000000000000000081526004018080602001828103825260288152602001807f746865206368616c6c656e676520706572696f6420686173206e6f742073746181526020017f727465642079657400000000000000000000000000000000000000000000000081525060400191505060405180910390fd5b42600b600083815260200190815260200160002054101515611195576040517f08c379a00000000000000000000000000000000000000000000000000000000081526004018080602001828103825260268152602001807f746865206368616c6c656e676520706572696f6420686173206e6f7420656e6481526020017f656420796574000000000000000000000000000000000000000000000000000081525060400191505060405180910390fd5b600f600082815260200190815260200160002054601060008381526020019081526020016000205414806111dc575060006010600083815260200190815260200160002054145b151561129c576040517f08c379a00000000000000000000000000000000000000000000000000000000081526004018080602001828103825260528152602001807f61206368616c6c656e676520686173207374617274656420616e64207468652081526020017f6368616c6c656e676520726573706f6e736520686173206e6f74206265656e2081526020017f70726f76656e20746f20656e644e6f6e6365000000000000000000000000000081525060600191505060405180910390fd5b600d600082815260200190815260200160002060009054906101000a900473ffffffffffffffffffffffffffffffffffffffff1673ffffffffffffffffffffffffffffffffffffffff166108fc600e6000848152602001908152602001600020546007600085815260200190815260200160002054019081150290604051600060405180830381858888f19350505050506000600760008381526020019081526020016000208190555061134f81613a44565b50565b600061135e848461222b565b73ffffffffffffffffffffffffffffffffffffffff168273ffffffffffffffffffffffffffffffffffffffff161490509392505050565b6000606080606060006113c5866113b73a600a54613b8890919063ffffffff16565b613b8890919063ffffffff16565b34101515156113d357600080fd5b6113de898987613063565b6114a061149b8660008154811015156113f357fe5b906000526020600020018054600181600116156101000203166002900480601f0160208091040260200160405190810160405280929190818152602001828054600181600116156101000203166002900480156114915780601f1061146657610100808354040283529160200191611491565b820191906000526020600020905b81548152906001019060200180831161147457829003601f168201915b505050505061311a565b613175565b935061156461155f8660018154811015156114b757fe5b906000526020600020018054600181600116156101000203166002900480601f0160208091040260200160405190810160405280929190818152602001828054600181600116156101000203166002900480156115555780601f1061152a57610100808354040283529160200191611555565b820191906000526020600020905b81548152906001019060200180831161153857829003601f168201915b505050505061311a565b613175565b925061162861162386600281548110151561157b57fe5b906000526020600020018054600181600116156101000203166002900480601f0160208091040260200160405190810160405280929190818152602001828054600181600116156101000203166002900480156116195780601f106115ee57610100808354040283529160200191611619565b820191906000526020600020905b8154815290600101906020018083116115fc57829003601f168201915b505050505061311a565b613175565b915061164d838389600281518110151561163e57fe5b90602001906020020151613232565b61168b600c61167d61167686600581518110151561166757fe5b90602001906020020151613924565b6002613992565b6139e390919063ffffffff16565b9050600160009054906101000a900473ffffffffffffffffffffffffffffffffffffffff1673ffffffffffffffffffffffffffffffffffffffff166116e78560038151811015156116d857fe5b90602001906020020151613bbb565b73ffffffffffffffffffffffffffffffffffffffff1614151561170957600080fd5b600187600081518110151561171a57fe5b9060200190602002015161174586600681518110151561173657fe5b90602001906020020151613c02565b61176687600781518110151561175757fe5b90602001906020020151613c55565b61178788600881518110151561177857fe5b90602001906020020151613c55565b604051600081526020016040526040518085600019166000191681526020018460ff1660ff1681526020018360001916600019168152602001826000191660001916815260200194505050505060206040516020810390808403906000865af11580156117f8573d6000803e3d6000fd5b5050506020604051035173ffffffffffffffffffffffffffffffffffffffff168173ffffffffffffffffffffffffffffffffffffffff161415156118ca576040517f08c379a000000000000000000000000000000000000000000000000000000000815260040180806020018281038252602c8152602001807f5769746864726177616c5478206e6f74207369676e6564206279206c6173745481526020017f782072656365697069656e74000000000000000000000000000000000000000081525060400191505060405180910390fd5b85600161190b60006118fd6118f68860058151811015156118e757fe5b90602001906020020151613924565b6004613992565b613a1b90919063ffffffff16565b01141515611981576040517f08c379a00000000000000000000000000000000000000000000000000000000081526004018080602001828103825260138152602001807f6e6f6e63657320646f206e6f74206d617463680000000000000000000000000081525060200191505060405180910390fd5b6000600b60008c8152602001908152602001600020541415156119a357600080fd5b6102584201600b60008c81526020019081526020016000208190555085600f60008c81526020019081526020016000208190555080600c60008c815260200190815260200160002060006101000a81548173ffffffffffffffffffffffffffffffffffffffff021916908373ffffffffffffffffffffffffffffffffffffffff1602179055508a600d60008c815260200190815260200160002060006101000a81548173ffffffffffffffffffffffffffffffffffffffff021916908373ffffffffffffffffffffffffffffffffffffffff16021790555034600e60008c815260200190815260200160002081905550898b73ffffffffffffffffffffffffffffffffffffffff167fdf273cb619d95419a9cd0ec88123a0538c85064229baa6363788f743fff90deb346040518082815260200191505060405180910390a35050505050505050505050565b60076020528060005260406000206000915090505481565b60006060806000600b60008981526020019081526020016000205414151515611b2f57600080fd5b42600b600089815260200190815260200160002054111515611b5057600080fd5b611b9d6005611b8f600f60008b815260200190815260200160002054611b813a600a54613b8890919063ffffffff16565b613b8890919063ffffffff16565b613c6a90919063ffffffff16565b3410151515611bab57600080fd5b611bb6868685613063565b611c78611c73846000815481101515611bcb57fe5b906000526020600020018054600181600116156101000203166002900480601f016020809104026020016040519081016040528092919081815260200182805460018160011615610100020316600290048015611c695780601f10611c3e57610100808354040283529160200191611c69565b820191906000526020600020905b815481529060010190602001808311611c4c57829003601f168201915b505050505061311a565b613175565b9150611d3c611d37846001815481101515611c8f57fe5b906000526020600020018054600181600116156101000203166002900480601f016020809104026020016040519081016040528092919081815260200182805460018160011615610100020316600290048015611d2d5780601f10611d0257610100808354040283529160200191611d2d565b820191906000526020600020905b815481529060010190602001808311611d1057829003601f168201915b505050505061311a565b613175565b9050611d618282866001815181101515611d5257fe5b90602001906020020151613232565b611d9f6000611d91611d8a856005815181101515611d7b57fe5b90602001906020020151613924565b6003613992565b613a1b90919063ffffffff16565b87141515611e3b576040517f08c379a00000000000000000000000000000000000000000000000000000000081526004018080602001828103825260228152602001807f6e6565647320746f20726566657220746f207468652073616d6520746f6b656e81526020017f496400000000000000000000000000000000000000000000000000000000000081525060400191505060405180910390fd5b611e79600c611e6b611e64856005815181101515611e5557fe5b90602001906020020151613924565b6001613992565b6139e390919063ffffffff16565b73ffffffffffffffffffffffffffffffffffffffff166008600089815260200190815260200160002060009054906101000a900473ffffffffffffffffffffffffffffffffffffffff1673ffffffffffffffffffffffffffffffffffffffff16141515611f74576040517f08c379a00000000000000000000000000000000000000000000000000000000081526004018080602001828103825260358152602001807f746f6b656e206e6565647320746f206265207472616e7366657265642066726f81526020017f6d206c6173742070726f76656e20637573746f6479000000000000000000000081525060400191505060405180910390fd5b611fb2600c611fa4611f9d856005815181101515611f8e57fe5b90602001906020020151613924565b6002613992565b6139e390919063ffffffff16565b6008600089815260200190815260200160002060006101000a81548173ffffffffffffffffffffffffffffffffffffffff021916908373ffffffffffffffffffffffffffffffffffffffff16021790555034600e600089815260200190815260200160002060008282540192505081905550876011600089815260200190815260200160002060006101000a81548173ffffffffffffffffffffffffffffffffffffffff021916908373ffffffffffffffffffffffffffffffffffffffff160217905550600160106000898152602001908152602001600020819055508773ffffffffffffffffffffffffffffffffffffffff163373ffffffffffffffffffffffffffffffffffffffff167f5331871e026683c9fc9f966209853fdbd75ee7b21e9b4880849a76970c60f1d4896040518082815260200191505060405180910390a35050505050505050565b34600660008282540192505081905550612134346007600085815260200190815260200160002054613c8590919063ffffffff16565b6007600084815260200190815260200160002081905550806008600084815260200190815260200160002060006101000a81548173ffffffffffffffffffffffffffffffffffffffff021916908373ffffffffffffffffffffffffffffffffffffffff1602179055503373ffffffffffffffffffffffffffffffffffffffff167f02d7e648dd130fc184d383e55bb126ac4c9c60e8f94bf05acdf557ba2d540b47348484604051808481526020018381526020018273ffffffffffffffffffffffffffffffffffffffff1673ffffffffffffffffffffffffffffffffffffffff168152602001935050505060405180910390a25050565b60008060008060418551141515612245576000935061231a565b602085015192506040850151915060ff6041860151169050601b8160ff16101561227057601b810190505b601b8160ff16141580156122885750601c8160ff1614155b15612296576000935061231a565b600186828585604051600081526020016040526040518085600019166000191681526020018460ff1660ff1681526020018360001916600019168152602001826000191660001916815260200194505050505060206040516020810390808403906000865af115801561230d573d6000803e3d6000fd5b5050506020604051035193505b50505092915050565b6000606080606080612336888887613063565b6123f86123f386600081548110151561234b57fe5b906000526020600020018054600181600116156101000203166002900480601f0160208091040260200160405190810160405280929190818152602001828054600181600116156101000203166002900480156123e95780601f106123be576101008083540402835291602001916123e9565b820191906000526020600020905b8154815290600101906020018083116123cc57829003601f168201915b505050505061311a565b613175565b93506124bc6124b786600181548110151561240f57fe5b906000526020600020018054600181600116156101000203166002900480601f0160208091040260200160405190810160405280929190818152602001828054600181600116156101000203166002900480156124ad5780601f10612482576101008083540402835291602001916124ad565b820191906000526020600020905b81548152906001019060200180831161249057829003601f168201915b505050505061311a565b613175565b925061258061257b8660028154811015156124d357fe5b906000526020600020018054600181600116156101000203166002900480601f0160208091040260200160405190810160405280929190818152602001828054600181600116156101000203166002900480156125715780601f1061254657610100808354040283529160200191612571565b820191906000526020600020905b81548152906001019060200180831161255457829003601f168201915b505050505061311a565b613175565b915061264461263f86600381548110151561259757fe5b906000526020600020018054600181600116156101000203166002900480601f0160208091040260200160405190810160405280929190818152602001828054600181600116156101000203166002900480156126355780601f1061260a57610100808354040283529160200191612635565b820191906000526020600020905b81548152906001019060200180831161261857829003601f168201915b505050505061311a565b613175565b9050612669848488600181518110151561265a57fe5b90602001906020020151613232565b61268c828288600381518110151561267d57fe5b90602001906020020151613232565b6126ca60006126bc6126b58760058151811015156126a657fe5b90602001906020020151613924565b6003613992565b613a1b90919063ffffffff16565b89141515612766576040517f08c379a00000000000000000000000000000000000000000000000000000000081526004018080602001828103825260228152602001807f6e6565647320746f20726566657220746f207468652073616d6520746f6b656e81526020017f496400000000000000000000000000000000000000000000000000000000000081525060400191505060405180910390fd5b6127a4600061279661278f85600581518110151561278057fe5b90602001906020020151613924565b6003613992565b613a1b90919063ffffffff16565b89141515612840576040517f08c379a00000000000000000000000000000000000000000000000000000000081526004018080602001828103825260228152602001807f6e6565647320746f20726566657220746f207468652073616d6520746f6b656e81526020017f496400000000000000000000000000000000000000000000000000000000000081525060400191505060405180910390fd5b61287e600061287061286987600581518110151561285a57fe5b90602001906020020151613924565b6004613992565b613a1b90919063ffffffff16565b6128bc60006128ae6128a786600581518110151561289857fe5b90602001906020020151613924565b6004613992565b613a1b90919063ffffffff16565b141515612931576040517f08c379a00000000000000000000000000000000000000000000000000000000081526004018080602001828103825260208152602001807f6e6565647320746f20726566657220746f207468652073616d65206e6f6e636581525060200191505060405180910390fd5b6000600481905550600060058190555050505050505050505050565b3373ffffffffffffffffffffffffffffffffffffffff16600260009054906101000a900473ffffffffffffffffffffffffffffffffffffffff1673ffffffffffffffffffffffffffffffffffffffff161415156129a957600080fd5b60405180807f7072655374616b65640000000000000000000000000000000000000000000000815250600901905060405180910390206000191660006040518082805460018160011615610100020316600290048015612a405780601f10612a1e576101008083540402835291820191612a40565b820191906000526020600020905b815481529060010190602001808311612a2c575b5050915050604051809103902060001916141515612a5d57600080fd5b80600160006101000a81548173ffffffffffffffffffffffffffffffffffffffff021916908373ffffffffffffffffffffffffffffffffffffffff16021790555050565b60006060806000600b60008981526020019081526020016000205414151515612ac957600080fd5b42600b600089815260200190815260200160002054111515612aea57600080fd5b612af5868685613063565b612bb7612bb2846000815481101515612b0a57fe5b906000526020600020018054600181600116156101000203166002900480601f016020809104026020016040519081016040528092919081815260200182805460018160011615610100020316600290048015612ba85780601f10612b7d57610100808354040283529160200191612ba8565b820191906000526020600020905b815481529060010190602001808311612b8b57829003601f168201915b505050505061311a565b613175565b9150612c7b612c76846001815481101515612bce57fe5b906000526020600020018054600181600116156101000203166002900480601f016020809104026020016040519081016040528092919081815260200182805460018160011615610100020316600290048015612c6c5780601f10612c4157610100808354040283529160200191612c6c565b820191906000526020600020905b815481529060010190602001808311612c4f57829003601f168201915b505050505061311a565b613175565b9050612ca08282866001815181101515612c9157fe5b90602001906020020151613232565b612cde600c612cd0612cc9856005815181101515612cba57fe5b90602001906020020151613924565b6001613992565b6139e390919063ffffffff16565b73ffffffffffffffffffffffffffffffffffffffff16600c600089815260200190815260200160002060009054906101000a900473ffffffffffffffffffffffffffffffffffffffff1673ffffffffffffffffffffffffffffffffffffffff16141515612dd9576040517f08c379a00000000000000000000000000000000000000000000000000000000081526004018080602001828103825260358152602001807f746f6b656e206e6565647320746f206265207472616e7366657265642066726f81526020017f6d206c6173742070726f76656e20637573746f6479000000000000000000000081525060400191505060405180910390fd5b612e176000612e09612e02856005815181101515612df357fe5b90602001906020020151613924565b6003613992565b613a1b90919063ffffffff16565b87141515612eb3576040517f08c379a00000000000000000000000000000000000000000000000000000000081526004018080602001828103825260228152602001807f6e6565647320746f20726566657220746f207468652073616d6520746f6b656e81526020017f496400000000000000000000000000000000000000000000000000000000000081525060400191505060405180910390fd5b8773ffffffffffffffffffffffffffffffffffffffff166108fc600e60008a8152602001908152602001600020549081150290604051600060405180830381858888f1935050505050612f0587613a44565b5050505050505050565b3373ffffffffffffffffffffffffffffffffffffffff16600260009054906101000a900473ffffffffffffffffffffffffffffffffffffffff1673ffffffffffffffffffffffffffffffffffffffff16141515612f6b57600080fd5b60405180807f7072655374616b656400000000000000000000000000000000000000000000008152506009019050604051809103902060001916600060405180828054600181600116156101000203166002900480156130025780601f10612fe0576101008083540402835291820191613002565b820191906000526020600020905b815481529060010190602001808311612fee575b505091505060405180910390206000191614151561301f57600080fd5b80600360006101000a81548173ffffffffffffffffffffffffffffffffffffffff021916908373ffffffffffffffffffffffffffffffffffffffff16021790555050565b60008060009150600090505b83518110156131135761309a8583868481518110151561308b57fe5b90602001906020020151613ca3565b83828154811015156130a857fe5b9060005260206000200190805190602001906130c592919061446b565b506130f084828151811015156130d757fe5b9060200190602002015183613c8590919063ffffffff16565b91506040828115156130fe57fe5b0660400382019150808060010191505061306f565b5050505050565b6131226144eb565b600080835191506000821415613150576040805190810160405280600081526020016000815250925061316e565b60208401905060408051908101604052808281526020018381525092505b5050919050565b60606000613181614505565b600061318c85613da8565b151561319757600080fd5b6131a085613dda565b9250826040519080825280602002602001820160405280156131dc57816020015b6131c9614526565b8152602001906001900390816131c15790505b5093506131e885613e54565b91505b6131f482613e9c565b1561322a5761320282613ec6565b848281518110151561321057fe5b9060200190602002018190525080806001019150506131eb565b505050919050565b600160009054906101000a900473ffffffffffffffffffffffffffffffffffffffff1673ffffffffffffffffffffffffffffffffffffffff1661328c84600381518110151561327d57fe5b90602001906020020151613bbb565b73ffffffffffffffffffffffffffffffffffffffff161415156132ae57600080fd5b600160009054906101000a900473ffffffffffffffffffffffffffffffffffffffff1673ffffffffffffffffffffffffffffffffffffffff166133088360038151811015156132f957fe5b90602001906020020151613bbb565b73ffffffffffffffffffffffffffffffffffffffff1614151561332a57600080fd5b600960089054906101000a90047c0100000000000000000000000000000000000000000000000000000000027bffffffffffffffffffffffffffffffffffffffffffffffffffffffff19166133aa6133a361339c86600581518110151561338d57fe5b90602001906020020151613924565b6000613992565b6000613f22565b7bffffffffffffffffffffffffffffffffffffffffffffffffffffffff1916141515613464576040517f08c379a00000000000000000000000000000000000000000000000000000000081526004018080602001828103825260288152602001807f5f7472616e736665725478206973206e6f74207472616e7366657246726f6d2081526020017f66756e6374696f6e00000000000000000000000000000000000000000000000081525060400191505060405180910390fd5b6009600c9054906101000a90047c0100000000000000000000000000000000000000000000000000000000027bffffffffffffffffffffffffffffffffffffffffffffffffffffffff19166134e46134dd6134d68560058151811015156134c757fe5b90602001906020020151613924565b6000613992565b6000613f22565b7bffffffffffffffffffffffffffffffffffffffffffffffffffffffff191614151561359e576040517f08c379a00000000000000000000000000000000000000000000000000000000081526004018080602001828103825260258152602001807f5f637573746f6469616e5478206973206e6f7420637573746f6469616e41707081526020017f726f76616c00000000000000000000000000000000000000000000000000000081525060400191505060405180910390fd5b6001816135c28460068151811015156135b357fe5b90602001906020020151613c02565b6135e38560078151811015156135d457fe5b90602001906020020151613c55565b6136048660088151811015156135f557fe5b90602001906020020151613c55565b604051600081526020016040526040518085600019166000191681526020018460ff1660ff1681526020018360001916600019168152602001826000191660001916815260200194505050505060206040516020810390808403906000865af1158015613675573d6000803e3d6000fd5b5050506020604051035173ffffffffffffffffffffffffffffffffffffffff16600360009054906101000a900473ffffffffffffffffffffffffffffffffffffffff1673ffffffffffffffffffffffffffffffffffffffff16141515613769576040517f08c379a000000000000000000000000000000000000000000000000000000000815260040180806020018281038252602a8152602001807f5f637573746f6469616e54782073686f756c64206265207369676e656420627981526020017f20637573746f6469616e0000000000000000000000000000000000000000000081525060400191505060405180910390fd5b6137d061379761379084600581518110151561378157fe5b90602001906020020151613924565b6001613992565b6137c26137bb8660058151811015156137ac57fe5b90602001906020020151613924565b6003613992565b61401b90919063ffffffff16565b1515613844576040517f08c379a00000000000000000000000000000000000000000000000000000000081526004018080602001828103825260168152602001807f746f6b656e5f69647320646f206e6f74206d617463680000000000000000000081525060200191505060405180910390fd5b6138ab61387261386b84600581518110151561385c57fe5b90602001906020020151613924565b6002613992565b61389d61389686600581518110151561388757fe5b90602001906020020151613924565b6004613992565b61401b90919063ffffffff16565b151561391f576040517f08c379a00000000000000000000000000000000000000000000000000000000081526004018080602001828103825260138152602001807f6e6f6e63657320646f206e6f74206d617463680000000000000000000000000081525060200191505060405180910390fd5b505050565b60606000806139328461408a565b151561393d57600080fd5b613946846140bb565b91509150806040519080825280601f01601f19166020018201604052801561397d5781602001602082028038833980820191505090505b50925061398b82848361413c565b5050919050565b606060008214156139bb576139b4600060058561417d9092919063ffffffff16565b90506139dd565b6139da6020600184030260040160208561417d9092919063ffffffff16565b90505b92915050565b600080601483018451101515156139f957600080fd5b6c01000000000000000000000000836020860101510490508091505092915050565b60008060208301845110151515613a3157600080fd5b8260208501015190508091505092915050565b6000600e6000838152602001908152602001600020819055506000600d600083815260200190815260200160002060006101000a81548173ffffffffffffffffffffffffffffffffffffffff021916908373ffffffffffffffffffffffffffffffffffffffff1602179055506000600c600083815260200190815260200160002060006101000a81548173ffffffffffffffffffffffffffffffffffffffff021916908373ffffffffffffffffffffffffffffffffffffffff1602179055506000600f6000838152602001908152602001600020819055506000600b600083815260200190815260200160002081905550600060106000838152602001908152602001600020819055507f7874ca11ed47a2bbe287f114874e02e047a1261400f57712590c8f364b126501816040518082815260200191505060405180910390a150565b60008082840290506000841480613ba95750828482811515613ba657fe5b04145b1515613bb157fe5b8091505092915050565b6000806000613bc98461408a565b1515613bd457600080fd5b613bdd846140bb565b91509150601481141515613bf057600080fd5b600c6101000a82510492505050919050565b6000806000613c108461408a565b1515613c1b57600080fd5b613c24846140bb565b915091506020811180613c375750600081145b15613c4157600080fd5b806020036101000a82510492505050919050565b6000613c6082613c02565b6001029050919050565b6000808284811515613c7857fe5b0490508091505092915050565b6000808284019050838110151515613c9957fe5b8091505092915050565b6060806000806000613cbf604088613c6a90919063ffffffff16565b9250613cd48688613c8590919063ffffffff16565b9150613cea604083613c6a90919063ffffffff16565b90505b80831015613d3657613d27613d188985815181101515613d0957fe5b9060200190602002015161420a565b8561423b90919063ffffffff16565b93508280600101935050613ced565b613d98613d89600060016002604087811515613d4e57fe5b06811515613d5857fe5b0403613d7a8c86815181101515613d6b57fe5b9060200190602002015161420a565b61417d9092919063ffffffff16565b8561423b90919063ffffffff16565b9350839450505050509392505050565b600080600083602001511415613dc15760009150613dd4565b8260000151905060c0815160001a101591505b50919050565b600080600080600080613dec87613da8565b1515613dfb5760009550613e4a565b86600001519350835160001a9450613e12876142c5565b840192506001876020015185010391505b8183111515613e4657613e3583614351565b830192508080600101915050613e23565b8095505b5050505050919050565b613e5c614505565b6000613e6783613da8565b1515613e7257600080fd5b613e7b836142c5565b83600001510190508282600001819052508082602001818152505050919050565b6000613ea66144eb565b826000015190508060200151816000015101836020015110915050919050565b613ece6144eb565b600080613eda84613e9c565b15613f165783602001519150613eef82614351565b90508183600001818152505080836020018181525050808201846020018181525050613f1b565b600080fd5b5050919050565b60008060008090505b6004811015614010576008810260ff7f01000000000000000000000000000000000000000000000000000000000000000286838701815181101515613f6c57fe5b9060200101517f010000000000000000000000000000000000000000000000000000000000000090047f010000000000000000000000000000000000000000000000000000000000000002167effffffffffffffffffffffffffffffffffffffffffffffffffffffffffffff19167bffffffffffffffffffffffffffffffffffffffffffffffffffffffff19169060020a9004821791508080600101915050613f2b565b819250505092915050565b6000806001905083518351811460018114614039576000925061407e565b600160208701838101602088015b60028483851001141561407957805183511415156140685760009650600093505b602083019250602081019050614047565b505050505b50508091505092915050565b6000806000836020015114156140a357600091506140b5565b8260000151905060c0815160001a1091505b50919050565b60008060008060006140cc8661408a565b15156140d757600080fd5b85600001519150815160001a925060808310156140fa5781945060019350614134565b60b88310156141185760018660200151039350600182019450614133565b60b78303905080600187602001510303935060018183010194505b5b505050915091565b60006020601f83010484602085015b82841461416a576020840280830151818301526001850194505061414b565b6000865160200187015250505050505050565b60608082840185511015151561419257600080fd5b8215600081146141ad576040519150602082016040526141fe565b6040519150601f8416801560200281840101858101878315602002848b0101015b818310156141eb57805183526020830192506020810190506141ce565b50868552601f19601f8301166040525050505b50809150509392505050565b6060816040516020018082600019166000191681526020019150506040516020818303038152906040529050919050565b6060806040519050835180825260208201818101602087015b818310156142715780518352602083019250602081019050614254565b50855192508351830184528091508282019050602086015b818310156142a65780518352602083019250602081019050614289565b50601f19601f8851850115830101166040525050508091505092915050565b600080600080846020015114156142df576000925061434a565b83600001519050805160001a915060808210156142ff576000925061434a565b60b882108061431b575060c0821015801561431a575060f882105b5b15614329576001925061434a565b60c082101561434057600160b7830301925061434a565b600160f783030192505b5050919050565b600080825160001a9050608081101561436d57600191506143e5565b60b8811015614384576001608082030191506143e4565b60c08110156143ae5760b78103806020036101000a600185015104808201600101935050506143e3565b60f88110156143c557600160c082030191506143e2565b60f78103806020036101000a600185015104808201600101935050505b5b5b5b50919050565b828054600181600116156101000203166002900490600052602060002090601f016020900481019282601f1061442c57805160ff191683800117855561445a565b8280016001018555821561445a579182015b8281111561445957825182559160200191906001019061443e565b5b5090506144679190614540565b5090565b828054600181600116156101000203166002900490600052602060002090601f016020900481019282601f106144ac57805160ff19168380011785556144da565b828001600101855582156144da579182015b828111156144d95782518255916020019190600101906144be565b5b5090506144e79190614540565b5090565b604080519081016040528060008152602001600081525090565b606060405190810160405280614519614526565b8152602001600081525090565b604080519081016040528060008152602001600081525090565b61456291905b8082111561455e576000816000905550600101614546565b5090565b905600a165627a7a72305820442b07b3ce4c66a13006af79ad46b307431f67fb40b62a61325dda0cd24ebf4e0029",
  "source": "pragma solidity ^0.4.24;\n\nimport \"./dependencies/SafeMath.sol\";\nimport \"./dependencies/Ownable.sol\";\nimport \"./dependencies/RLP.sol\";\nimport \"./dependencies/BytesLib.sol\";\n\ncontract DepositContract {\n  using SafeMath for uint256;\n  using RLP for RLP.RLPItem;\n  using RLP for RLP.Iterator;\n  using RLP for bytes;\n  using BytesLib for bytes;\n\n  string contractState = \"preStaked\";\n  address tokenContract;\n  address custodian;\n  address custodianForeign;\n  uint256 stakedAmount;\n  uint256 depositCap;\n  uint256 depositedAmount;\n  mapping (uint256 => uint256) public tokenIdToAmount;\n  mapping (uint256 => address) public tokenIdToMinter;\n\n  struct Transaction {\n    uint nonce;\n    uint gasPrice;\n    uint gasLimit;\n    address to;\n    uint value;\n    bytes data;\n    uint8 v;\n    bytes32 r;\n    bytes32 s;\n    address from;\n  }\n\n  function () payable {}\n\n  constructor (address _custodian) {\n    custodian = _custodian;\n  }\n\n  modifier onlyCustodian() {\n    require(custodian == msg.sender);\n    _;\n  }\n\n  modifier statePreStaked () {\n    require(keccak256(contractState) == keccak256(\"preStaked\"));\n    _;\n  }\n\n  modifier stateStaked () {\n    require(keccak256(contractState) == keccak256(\"staked\"));\n    _;\n  }\n\n  event Deposit(address indexed depositer,\n                uint256 amount,\n                uint256 tokenId,\n                address minter);\n  event ChallengeInitiated(address indexed challenger,\n                           address indexed depositedTo,\n                           uint256 tokenId);\n  event Challenge(address indexed rechallenger,\n                  address indexed depositedTo,\n                  uint256 tokenId,\n                  uint256 finalChallengeNonce);\n  event ChallengeResolved(uint256 tokenId);\n  event Withdrawal(address indexed withdrawer,\n                   uint256 indexed tokenId,\n                   uint256 stakedAmount);\n\n  bytes4 mintSignature = 0x94bf804d;\n  bytes4 withdrawSignature = 0x2e1a7d4d;\n  bytes4 transferFromSignature = 0xfe99049a;\n  bytes4 custodianApproveSignature = 0x6e3c045e;\n  uint256 gasPerChallenge = 206250;\n\n  function setTokenContract(address _tokenContract) onlyCustodian statePreStaked\n  public {\n    tokenContract = _tokenContract;\n  }\n\n\n  function setCustodianForeign(address _custodianForeign) onlyCustodian\n  statePreStaked public {\n    custodianForeign = _custodianForeign;\n  }\n\n  function finalizeStake() onlyCustodian statePreStaked public {\n    stakedAmount = address(this).balance;\n    depositCap = address(this).balance;\n    depositedAmount = 0;\n    contractState = \"staked\";\n  }\n\n  function deposit(uint256 _tokenId, address _minter) payable public {\n    depositedAmount += msg.value;\n    tokenIdToAmount[_tokenId] = tokenIdToAmount[_tokenId].add(msg.value);\n    tokenIdToMinter[_tokenId] = _minter;\n    emit Deposit(msg.sender, msg.value, _tokenId, _minter);\n  }\n\n  // tokenIdToTimestamp\n  mapping (uint256 => uint256) challengeTime;\n  // tokenIdToAddress\n  mapping (uint256 => address) challengeAddressClaim;\n  // tokenIdToAddress\n  mapping (uint256 => address) challengeRecipient;\n  //mintToStake\n  mapping (uint256 => uint256) challengeStake;\n  //mintToEndNonce/depth\n  mapping (uint256 => uint256) challengeEndNonce;\n  //tokenIdToNonce\n  mapping (uint256 => uint256) challengeNonce;\n  //tokenIdToChallengerAddress\n  mapping (uint256 => address) challenger;\n\n  //For Debugging purposes\n  event Test(bytes tx1, bytes tx2, bytes tx3);\n  event Trace(bytes out);\n  event TraceAddress(address out);\n  event Trace32(bytes32 out);\n  event TraceUint256(uint256 out);\n  /*\n  /**\n   * @dev Initiates a withdrawal process. Starts the challenge period\n   * Requires the msg sender to stake a payment (payable function)\n   // TODO: check amount to stake, discern challenge time\n   * @param _to address to send withdrawal\n   * @param _tokenId uint256 Id of token on TokenContract\n   * @param _rawTxBundle bytes32[] bundle that takes in concatenation of\n            bytes _withdrawTx, bytes _lastTx, bytes _custodianTx\n   * @param _txLengths lengths of transactions in rawTxBundle, used for\n            efficiency purposes\n   * @param _txMsgHashes msghashes of transactions in bundle\n   + @param _declaredNonce depth of chain of custody from token contract.\n            IMPORTANT TO BE HONEST\n  */\n  function withdraw(address _to,\n    uint256 _tokenId,\n    bytes32[] _rawTxBundle,\n    uint256[] _txLengths,\n    bytes32[] _txMsgHashes,\n    uint256 _declaredNonce) public payable  {\n    // TODO:  discern challenge time,\n    //check amount to stake\n    require(msg.value >= gasPerChallenge.mul(tx.gasprice).mul(_declaredNonce));\n    // splits bundle into individual rawTxs\n    bytes[] rawTxList;\n    splitTxBundle(_rawTxBundle, _txLengths, rawTxList);\n\n    //_withdrawTx withdraw() message sent by withdrawer to TokenContract\n    RLP.RLPItem[] memory withdrawTx = rawTxList[0].toRLPItem().toList();\n    // _lastTx on TokenContract transferring custody of token to withdrawer\n    RLP.RLPItem[] memory lastTx = rawTxList[1].toRLPItem().toList();\n    // _custodianTx signed version of _lastTx\n    RLP.RLPItem[] memory custodianTx = rawTxList[2].toRLPItem().toList();\n\n    checkTransferTxAndCustodianTx(lastTx, custodianTx, _txMsgHashes[2]);\n\n    address lastCustody = parseData(lastTx[5].toData(), 2).toAddress(12);\n    require(withdrawTx[3].toAddress() == tokenContract);\n    require(lastCustody == ecrecover(_txMsgHashes[0], //hash of withdrawTx\n                                     uint8(withdrawTx[6].toUint()), //v\n                                     withdrawTx[7].toBytes32(), //r\n                                     withdrawTx[8].toBytes32()), //s\n                                     \"WithdrawalTx not signed by lastTx receipient\");\n\n    //checks nonce                   \n    require(parseData(lastTx[5].toData(),4).toUint(0) + 1 == _declaredNonce,\n        \"nonces do not match\");\n    //require that a challenge period is not underway\n    require(challengeTime[_tokenId] == 0);\n    //start challenge period\n    challengeTime[_tokenId] = now + 10 minutes;\n    challengeEndNonce[_tokenId] = _declaredNonce;\n    challengeAddressClaim[_tokenId] = lastCustody;\n    challengeRecipient[_tokenId] = _to;\n    challengeStake[_tokenId] = msg.value;\n    emit Withdrawal(_to, _tokenId, msg.value);\n  }\n\n  /*\n  /**\n   * @dev For withdrawer to claims honest withdrawal\n   * @param _tokenId uint256 Id of token on TokenContract\n  */\n  function claim(uint256 _tokenId) public {\n    require(challengeTime[_tokenId] != 0,\n            \"the challenge period has not started yet\");\n    require(challengeTime[_tokenId] < now,\n            \"the challenge period has not ended yet\");\n    // challengeNonce represents the requirement for the next tx\n    require(challengeNonce[_tokenId] == challengeEndNonce[_tokenId] ||\n                                        challengeNonce[_tokenId] == 0,\n            \"a challenge has started and the challenge response has not been proven to endNonce\");\n    challengeRecipient[_tokenId].send((tokenIdToAmount[_tokenId] ) +\n                                       challengeStake[_tokenId]);\n    tokenIdToAmount[_tokenId] = 0;\n    resetChallenge(_tokenId);\n  }\n\n  // /*\n  // /**\n  //  * @dev For challenger to claim stake on fradulent withdraw\n  //    (challengeWithPastCustody())\n  //  * @param _tokenId uint256 Id of token on TokenContract\n  // */\n  // function claimStake(uint256 _tokenId) public {\n  //   require(challengeTime[_tokenId] != 0);\n  //   require(challengeTime[_tokenId] < now);\n  //   require(challengeNonce[_tokenId] != challengeEndNonce[_tokenId] &&\n  //                                       challengeNonce[_tokenId] != 0,\n  //           \"challenge not initated/withdrawal is honest\");\n\n  //   challengeRecipient[_tokenId].send(challengeStake[_tokenId]);\n\n  //   resetChallenge(_tokenId);\n  // }\n  \n  /*\n  /**\n   * @dev Challenges with future custody using a transaction proving transfer\n   * once future custody is proven, it ends pays the challenger\n   * @param _to address to send stake given success\n   * @param _tokenId uint256 Id of token on TokenContract\n   * @param _rawTxBundle bytes32[] bundle that takes in concatenation of\n     bytes _transactionTx, bytes _custodianTx\n   * @param _txLengths lengths of transactions in rawTxBundle, for efficiency\n   * @param _txMsgHashes msghashes of transactions in bundle\n  */\n  function challengeWithFutureCustody(address _to,\n                                      uint256 _tokenId,\n                                      bytes32[] _rawTxBundle,\n                                      uint256[] _txLengths,\n                                      bytes32[] _txMsgHashes) public {\n    require(challengeTime[_tokenId] != 0);\n    require(challengeTime[_tokenId] > now);\n\n    // splits bundle into individual rawTxs\n    bytes[] rawTxList;\n    splitTxBundle(_rawTxBundle, _txLengths, rawTxList);\n\n    RLP.RLPItem[] memory transferTx = rawTxList[0].toRLPItem().toList();\n    RLP.RLPItem[] memory custodianTx = rawTxList[1].toRLPItem().toList();\n\n    //TODO: NEED TO CHECK NONCE\n    checkTransferTxAndCustodianTx(transferTx, custodianTx, _txMsgHashes[1]);\n    require(challengeAddressClaim[_tokenId] ==\n            parseData(transferTx[5].toData(), 1).toAddress(12),\n            \"token needs to be transfered from last proven custody\");\n    require(_tokenId == parseData(transferTx[5].toData(), 3).toUint(0),\n            \"needs to refer to the same tokenId\");\n\n    _to.send(challengeStake[_tokenId]);\n    resetChallenge(_tokenId);\n  }\n\n/*\n  /**\n   * @dev Initiates a challenge with past custody using a chain of custody\n   leading to the declared nonce once challenge period ends.\n   *It should be designed such that it punishes challenging an honest withdrawal\n   and incentivises challenging a fradulent one\n   * requires challenger to stake.\n   // TODO: extend challenge period when called\n   * @param _to address to send stake given success\n   * @param _tokenId uint256 Id of token on TokenContract\n   * @param _rawTxBundle bytes32[] bundle that takes in concatenation of\n      bytes _transactionTx, bytes _custodianTx\n   * @param _txLengths lengths of transactions in rawTxBundle, for efficiency\n   * @param _txMsgHashes msghashes of transactions in bundle\n  */\n  function initiateChallengeWithPastCustody(address _to,\n                                            uint256 _tokenId,\n                                            bytes32[] _rawTxBundle,\n                                            uint256[] _txLengths,\n                                            bytes32[] _txMsgHashes)\n                                            payable public {\n    require(challengeTime[_tokenId] != 0);\n    require(challengeTime[_tokenId] > now);\n    require(msg.value >= gasPerChallenge.mul(tx.gasprice).\n                         mul(challengeEndNonce[_tokenId]).div(5));\n\n    // splits bundle into individual rawTxs\n    bytes[] rawTxList;\n    splitTxBundle(_rawTxBundle, _txLengths, rawTxList);\n\n    RLP.RLPItem[] memory transferTx = rawTxList[0].toRLPItem().toList();\n    RLP.RLPItem[] memory custodianTx = rawTxList[1].toRLPItem().toList();\n\n    checkTransferTxAndCustodianTx(transferTx, custodianTx, _txMsgHashes[1]);\n    //TODO: save on require statement by not including _tokenId in arguments\n    require(_tokenId == parseData(transferTx[5].toData(), 3).toUint(0),\n            \"needs to refer to the same tokenId\");\n    require(tokenIdToMinter[_tokenId] == parseData(transferTx[5].toData(), 1).\n            toAddress(12),\n            \"token needs to be transfered from last proven custody\");\n    //moves up root mint referecce to recipient address\n    tokenIdToMinter[_tokenId] = parseData(transferTx[5].toData(), 2).\n                                toAddress(12);\n    challengeStake[_tokenId] += msg.value;\n    challenger[_tokenId] = _to;\n    challengeNonce[_tokenId] = 1;\n    emit ChallengeInitiated(msg.sender, _to, _tokenId);\n  }\n\n  /*\n  /**\n   * @dev Add to the chain of custody leading to the declared nonce\n   * once challenge period ends claim funds through claimStake()\n   // TODO: remove loops (less efficient then single calls)\n   * @param _to address to send stake given success\n   * @param _tokenId uint256 Id of token on TokenContract\n   * @param _rawTxBundle bytes32[] bundle that takes in concatenation of\n     bytes _transactionTx, bytes _custodianTx\n   * @param _txLengths lengths of transactions in rawTxBundle, for efficiency\n   * @param _txMsgHashes msghashes of transactions in bundle\n  */\n  // TODO: rename challegne\n  function challengeWithPastCustody(address _to,\n                                    uint256 _tokenId,\n                                    bytes32[] _rawTxBundle,\n                                    uint256[] _txLengths,\n                                    bytes32[] _txMsgHashes) public {\n    require(challengeTime[_tokenId] != 0);\n    require(challengeTime[_tokenId] > now); //challenge is still open\n    require(challengeNonce[_tokenId] > 0);\n\n    // splits bundle into individual rawTxs\n    bytes[] rawTxList;\n    splitTxBundle(_rawTxBundle, _txLengths, rawTxList);\n\n    RLP.RLPItem[] memory transferTx = rawTxList[0].toRLPItem().toList();\n    RLP.RLPItem[] memory custodianTx = rawTxList[1].toRLPItem().toList();\n\n    checkTransferTxAndCustodianTx(transferTx, custodianTx, _txMsgHashes[1]);\n    require(challengeAddressClaim[_tokenId] ==\n            parseData(transferTx[5].toData(), 1).toAddress(12),\n            \"token needs to be transfered from last proven custody\");\n    require(_tokenId == parseData(transferTx[5].toData(), 3).toUint(0),\n            \"needs to refer to the same tokenId\");\n\n    _to.send(challengeStake[_tokenId]);\n    resetChallenge(_tokenId);\n    // //get rid of loops\n    // for (uint i = 0; i < _txLengths.length; i +=2) {\n    //   RLP.RLPItem[] memory transferTx = rawTxList[i].toRLPItem().toList();\n    //   RLP.RLPItem[] memory custodianTx = rawTxList[i + 1].toRLPItem().toList();\n\n    //   checkTransferTxAndCustodianTx(transferTx, custodianTx, _txMsgHashes[i+1]);\n    //   //TODO: save on require statement by not including _tokenId in arguments\n    //   require(_tokenId == parseData(transferTx[5].toData(), 3).toUint(0),\n    //           \"needs to refer to the same tokenId\");\n    //   require(tokenIdToMinter[_tokenId] == parseData(transferTx[5].toData(), 1)\n    //           .toAddress(12),\n    //           \"token needs to be transfered from last proven custody\");\n    //   require(parseData(transferTx[5].toData(),4).toUint(0) ==\n    //           challengeNonce[_tokenId],\n    //           \"nonce needs to equal required challengeNonce\");\n\n    //   //moves up root mint referecce to recipient address\n    //   tokenIdToMinter[_tokenId] = parseData(transferTx[5].toData(), 2)\n    //                               .toAddress(12);\n    //   //updates challengeNonce to next step\n    //   challengeNonce[_tokenId] += 1;\n    // }\n    emit Challenge(msg.sender, _to, _tokenId, challengeNonce[_tokenId]);\n  }\n\n  /*\n  /**\n   * @dev The existence of two tokenIds with same nonce indicates presence of\n     double signing on the part of the Custodian => should punish Custodian\n   // TODO: how much to punish custodian???\n   * @param _to address to send stake given success\n   * @param _tokenId uint256 Id of token on TokenContract\n   * @param _rawTxBundle bytes32[] concatenation of bytes _transactionTx,\n     bytes _custodianTx\n   * @param _txLengths lengths of transactions in rawTxBundle, for efficiency\n   * @param _txMsgHashes msghashes of transactions in bundle\n  */\n  function submitCustodianDoubleSign(address _to,\n                                     uint256 _tokenId,\n                                     bytes32[] _rawTxBundle,\n                                     uint256[] _txLengths,\n                                     bytes32[] _txMsgHashes) public {\n\n    bytes[] rawTxList;\n    splitTxBundle(_rawTxBundle, _txLengths, rawTxList);\n\n    RLP.RLPItem[] memory transferTx = rawTxList[0].toRLPItem().toList();\n    RLP.RLPItem[] memory custodianTx = rawTxList[1].toRLPItem().toList();\n    RLP.RLPItem[] memory transferTx2 = rawTxList[2].toRLPItem().toList();\n    RLP.RLPItem[] memory custodianTx2 = rawTxList[3].toRLPItem().toList();\n\n    checkTransferTxAndCustodianTx(transferTx, custodianTx, _txMsgHashes[1]);\n    checkTransferTxAndCustodianTx(transferTx2, custodianTx2, _txMsgHashes[3]);\n    require(_tokenId == parseData(transferTx[5].toData(), 3).toUint(0),\n            \"needs to refer to the same tokenId\");\n    require(_tokenId == parseData(transferTx2[5].toData(), 3).toUint(0),\n            \"needs to refer to the same tokenId\");\n    require(parseData(transferTx2[5].toData(), 4).toUint(0) ==\n            parseData(transferTx[5].toData(), 4).toUint(0),\n            \"needs to refer to the same nonce\");\n\n    //TODO: how much to punish custodian??? can we pay out the stake instead of\n    //just burning it, pause contract??\n    stakedAmount = 0;\n    depositCap = 0;\n  }\n\n  /*\n  /**\n   * @dev Check the validity of the transfer and custodian transaction\n   * @param  _transferTx RLP item array representing transferTx\n   * @param _tokenId RLP item array representing corresponding custodianTx\n   * @param _rawTxBundle bytes32 _custodianTx msgHash\n  */\n  function checkTransferTxAndCustodianTx(RLP.RLPItem[] _transferTx,\n                                         RLP.RLPItem[] _custodianTx,\n                                         bytes32 _custodianTxMsgHash) internal {\n    require(_transferTx[3].toAddress() == tokenContract);\n    require(_custodianTx[3].toAddress() == tokenContract);\n    require(bytesToBytes4(parseData(_transferTx[5].toData(), 0), 0) ==\n            transferFromSignature, \"_transferTx is not transferFrom function\");\n    require(bytesToBytes4(parseData(_custodianTx[5].toData(), 0), 0) ==\n            custodianApproveSignature, \"_custodianTx is not custodianApproval\");\n    require(custodianForeign == ecrecover(_custodianTxMsgHash,\n                                          uint8(_custodianTx[6].toUint()),\n                                          _custodianTx[7].toBytes32(),\n                                          _custodianTx[8].toBytes32()),\n            \"_custodianTx should be signed by custodian\");\n    //TODO: which is more efficient, checking parameters or hash?\n    require(parseData(_transferTx[5].toData(),3).\n            equal(parseData(_custodianTx[5].toData(),1)),\n            \"token_ids do not match\");\n    require(parseData(_transferTx[5].toData(),4).\n            equal(parseData(_custodianTx[5].toData(),2)),\n            \"nonces do not match\");\n  }\n\n  /*\n  /**\n   * @dev Splits a rawTxBundle received to its individual transactions.\n   * Necessary due to limitation in amount of data transferable through solidity\n   * @param  _rawTxBundle that is a concatenation of bytes _withdrawTx,\n             bytes _lastTx, bytes _custodianTx\n   * @param _txLengths lengths of transactions in rawTxBundle\n   * @param _rawTxList list of individual transactions from _rawTxBundle\n  */\n  function splitTxBundle(bytes32[] _rawTxBundle,\n                         uint256[] _txLengths,\n                         bytes[] storage _rawTxList) internal {\n    uint256 txStartPosition = 0;\n    for (uint i = 0; i < _txLengths.length; i++) {\n      _rawTxList[i] = sliceBytes32Arr(_rawTxBundle,\n                                      txStartPosition,\n                                      _txLengths[i]);\n      txStartPosition = txStartPosition.add(_txLengths[i]);\n      txStartPosition = txStartPosition + (64 - txStartPosition % 64);\n    }\n  }\n\n  /*\n  /**\n   * @dev Splits a rawTxBundle received to its individual transactions.\n   * Necessary due to limitation in amount of data transferable through solidity\n   * @param  _transferTx RLP item array representing transferTx\n   * @param _tokenId RLP item array representing corresponding custodianTx\n   * @param _rawTxBundle bytes32 _custodianTx msgHash\n  */\n  //TODO: MAKE MORE EFFICENT\n  function sliceBytes32Arr(bytes32[] _bytes32ArrBundle,\n                           uint256 _startPosition,\n                           uint256 _length) internal returns (bytes) {\n    bytes memory out;\n    uint256 i = _startPosition.div(64);\n    uint256 endPosition = _startPosition.add(_length);\n    uint256 z = endPosition.div(64);\n    for (i ; i < z; i++) {\n      out = out.concat(bytes32ToBytes(_bytes32ArrBundle[i]));\n    }\n    out = out.concat(bytes32ToBytes(_bytes32ArrBundle[z]).\n              slice(0, (endPosition % 64 / 2) - 1));\n    return out;\n  }\n\n  function resetChallenge(uint256 _tokenId) internal {\n    challengeStake[_tokenId] = 0;\n    challengeRecipient[_tokenId] = 0;\n    challengeAddressClaim[_tokenId] = 0;\n    challengeEndNonce[_tokenId] = 0;\n    challengeTime[_tokenId] = 0;\n    challengeNonce[_tokenId] = 0;\n    emit ChallengeResolved(_tokenId);\n  }\n\n  /* Util functions --------------------------------------------------*/\n\n  function parseData(bytes data, uint256 i) internal returns (bytes) {\n    if (i == 0) {\n      return data.slice(0,5);\n    } else {\n      return data.slice(4 + ((i-1) * 32), 32);\n    }\n  }\n\n  //https://ethereum.stackexchange.com/questions/40920/convert-bytes32-to-bytes\n  //TODO: Look for more efficient method\n  function bytes32ToBytes(bytes32 _data) internal pure returns (bytes) {\n    return abi.encodePacked(_data);\n  }\n\n  function bytesToBytes32(bytes b, uint offset) private pure returns (bytes32) {\n    bytes32 out;\n    for (uint i = 0; i < 32; i++) {\n      out |= bytes32(b[offset + i] & 0xFF) >> (i * 8);\n    }\n    return out;\n  }\n\n  function bytesToBytes4(bytes b, uint offset) private pure returns (bytes4) {\n    bytes4 out;\n    for (uint i = 0; i < 4; i++) {\n      out |= bytes4(b[offset + i] & 0xFF) >> (i * 8);\n    }\n    return out;\n  }\n\n  function stringToBytes( string s) internal returns (bytes memory b3){\n    b3 = bytes(s);\n    return b3;\n  }\n\n  // Nick Johnson https://ethereum.stackexchange.com/questions/4170/how-to-convert-a-uint-to-bytes-in-solidity\n  function uint256ToBytes(uint256 x) internal returns (bytes b) {\n    b = new bytes(32);\n    assembly { mstore(add(b, 32), x) }\n  }\n\n  // Tjaden Hess https://ethereum.stackexchange.com/questions/884/how-to-convert-an-address-to-bytes-in-solidity\n  function addressToBytes(address a) internal returns (bytes b) {\n    assembly {\n        let m := mload(0x40)\n        mstore(add(m, 20), xor(0x140000000000000000000000000000000000000000, a))\n        mstore(0x40, add(m, 52))\n        b := m\n    }\n  }\n\n  function ecrecovery(bytes32 hash, bytes sig) public returns (address) {\n    bytes32 r;\n    bytes32 s;\n    uint8 v;\n\n    if (sig.length != 65) {\n      return 0;\n    }\n\n    assembly {\n      r := mload(add(sig, 32))\n      s := mload(add(sig, 64))\n      v := and(mload(add(sig, 65)), 255)\n    }\n\n    // https://github.com/ethereum/go-ethereum/issues/2053\n    if (v < 27) {\n      v += 27;\n    }\n\n    if (v != 27 && v != 28) {\n      return 0;\n    }\n\n    /* prefix might be needed for geth only\n     * https://github.com/ethereum/go-ethereum/issues/3731\n     */\n    // bytes memory prefix = \"\\x19Ethereum Signed Message:\\n32\";\n    // hash = sha3(prefix, hash);\n\n    return ecrecover(hash, v, r, s);\n  }\n\n  function ecverify(bytes32 hash, bytes sig, address signer)\n  public returns (bool) {\n    return signer == ecrecovery(hash, sig);\n  }\n\n}\n",
  "sourcePath": "/home/yingtong/peacebridge/contracts/DepositContract.sol",
  "compiler": {
    "name": "solc",
    "version": "0.4.24+commit.e67f0147.Emscripten.clang"
  },
  "schemaVersion": "2.0.1",
  "updatedAt": "2019-02-25T09:02:23.728Z"
}