{
  "contractName": "DepositContractMock",
  "abi": [
    {
      "constant": true,
      "inputs": [
        {
          "name": "",
          "type": "uint256"
        }
      ],
      "name": "tokenIdToMinter",
      "outputs": [
        {
          "name": "",
          "type": "address"
        }
      ],
      "payable": false,
      "stateMutability": "view",
      "type": "function"
    },
    {
      "constant": false,
      "inputs": [],
      "name": "finalizeStake",
      "outputs": [],
      "payable": false,
      "stateMutability": "nonpayable",
      "type": "function"
    },
    {
      "constant": false,
      "inputs": [
        {
          "name": "_to",
          "type": "address"
        },
        {
          "name": "_tokenId",
          "type": "uint256"
        },
        {
          "name": "_rawTxBundle",
          "type": "bytes32[]"
        },
        {
          "name": "_txLengths",
          "type": "uint256[]"
        },
        {
          "name": "_txMsgHashes",
          "type": "bytes32[]"
        }
      ],
      "name": "challengeWithPastCustody",
      "outputs": [],
      "payable": false,
      "stateMutability": "nonpayable",
      "type": "function"
    },
    {
      "constant": false,
      "inputs": [
        {
          "name": "_tokenId",
          "type": "uint256"
        }
      ],
      "name": "claim",
      "outputs": [],
      "payable": false,
      "stateMutability": "nonpayable",
      "type": "function"
    },
    {
      "constant": false,
      "inputs": [
        {
          "name": "hash",
          "type": "bytes32"
        },
        {
          "name": "sig",
          "type": "bytes"
        },
        {
          "name": "signer",
          "type": "address"
        }
      ],
      "name": "ecverify",
      "outputs": [
        {
          "name": "",
          "type": "bool"
        }
      ],
      "payable": false,
      "stateMutability": "nonpayable",
      "type": "function"
    },
    {
      "constant": false,
      "inputs": [
        {
          "name": "_tokenId",
          "type": "uint256"
        }
      ],
      "name": "claimStake",
      "outputs": [],
      "payable": false,
      "stateMutability": "nonpayable",
      "type": "function"
    },
    {
      "constant": false,
      "inputs": [
        {
          "name": "_to",
          "type": "address"
        },
        {
          "name": "_tokenId",
          "type": "uint256"
        },
        {
          "name": "_rawTxBundle",
          "type": "bytes32[]"
        },
        {
          "name": "_txLengths",
          "type": "uint256[]"
        },
        {
          "name": "_txMsgHashes",
          "type": "bytes32[]"
        },
        {
          "name": "_declaredNonce",
          "type": "uint256"
        }
      ],
      "name": "withdraw",
      "outputs": [],
      "payable": true,
      "stateMutability": "payable",
      "type": "function"
    },
    {
      "constant": true,
      "inputs": [
        {
          "name": "",
          "type": "uint256"
        }
      ],
      "name": "tokenIdToAmount",
      "outputs": [
        {
          "name": "",
          "type": "uint256"
        }
      ],
      "payable": false,
      "stateMutability": "view",
      "type": "function"
    },
    {
      "constant": false,
      "inputs": [
        {
          "name": "_to",
          "type": "address"
        },
        {
          "name": "_tokenId",
          "type": "uint256"
        },
        {
          "name": "_rawTxBundle",
          "type": "bytes32[]"
        },
        {
          "name": "_txLengths",
          "type": "uint256[]"
        },
        {
          "name": "_txMsgHashes",
          "type": "bytes32[]"
        }
      ],
      "name": "initiateChallengeWithPastCustody",
      "outputs": [],
      "payable": true,
      "stateMutability": "payable",
      "type": "function"
    },
    {
      "constant": false,
      "inputs": [
        {
          "name": "_tokenId",
          "type": "uint256"
        },
        {
          "name": "_minter",
          "type": "address"
        }
      ],
      "name": "deposit",
      "outputs": [],
      "payable": true,
      "stateMutability": "payable",
      "type": "function"
    },
    {
      "constant": false,
      "inputs": [
        {
          "name": "hash",
          "type": "bytes32"
        },
        {
          "name": "sig",
          "type": "bytes"
        }
      ],
      "name": "ecrecovery",
      "outputs": [
        {
          "name": "",
          "type": "address"
        }
      ],
      "payable": false,
      "stateMutability": "nonpayable",
      "type": "function"
    },
    {
      "constant": false,
      "inputs": [
        {
          "name": "_to",
          "type": "address"
        },
        {
          "name": "_tokenId",
          "type": "uint256"
        },
        {
          "name": "_rawTxBundle",
          "type": "bytes32[]"
        },
        {
          "name": "_txLengths",
          "type": "uint256[]"
        },
        {
          "name": "_txMsgHashes",
          "type": "bytes32[]"
        }
      ],
      "name": "submitCustodianDoubleSign",
      "outputs": [],
      "payable": false,
      "stateMutability": "nonpayable",
      "type": "function"
    },
    {
      "constant": false,
      "inputs": [
        {
          "name": "_tokenContract",
          "type": "address"
        }
      ],
      "name": "setTokenContract",
      "outputs": [],
      "payable": false,
      "stateMutability": "nonpayable",
      "type": "function"
    },
    {
      "constant": false,
      "inputs": [
        {
          "name": "_to",
          "type": "address"
        },
        {
          "name": "_tokenId",
          "type": "uint256"
        },
        {
          "name": "_rawTxBundle",
          "type": "bytes32[]"
        },
        {
          "name": "_txLengths",
          "type": "uint256[]"
        },
        {
          "name": "_txMsgHashes",
          "type": "bytes32[]"
        }
      ],
      "name": "challengeWithFutureCustody",
      "outputs": [],
      "payable": false,
      "stateMutability": "nonpayable",
      "type": "function"
    },
    {
      "constant": false,
      "inputs": [
        {
          "name": "_custodianForeign",
          "type": "address"
        }
      ],
      "name": "setCustodianForeign",
      "outputs": [],
      "payable": false,
      "stateMutability": "nonpayable",
      "type": "function"
    },
    {
      "inputs": [
        {
          "name": "_custodian",
          "type": "address"
        }
      ],
      "payable": false,
      "stateMutability": "nonpayable",
      "type": "constructor"
    },
    {
      "payable": true,
      "stateMutability": "payable",
      "type": "fallback"
    },
    {
      "anonymous": false,
      "inputs": [
        {
          "indexed": true,
          "name": "depositer",
          "type": "address"
        },
        {
          "indexed": false,
          "name": "amount",
          "type": "uint256"
        },
        {
          "indexed": false,
          "name": "tokenId",
          "type": "uint256"
        },
        {
          "indexed": false,
          "name": "minter",
          "type": "address"
        }
      ],
      "name": "Deposit",
      "type": "event"
    },
    {
      "anonymous": false,
      "inputs": [
        {
          "indexed": true,
          "name": "challenger",
          "type": "address"
        },
        {
          "indexed": true,
          "name": "depositedTo",
          "type": "address"
        },
        {
          "indexed": false,
          "name": "tokenId",
          "type": "uint256"
        }
      ],
      "name": "ChallengeInitiated",
      "type": "event"
    },
    {
      "anonymous": false,
      "inputs": [
        {
          "indexed": true,
          "name": "rechallenger",
          "type": "address"
        },
        {
          "indexed": true,
          "name": "depositedTo",
          "type": "address"
        },
        {
          "indexed": false,
          "name": "tokenId",
          "type": "uint256"
        },
        {
          "indexed": false,
          "name": "finalChallengeNonce",
          "type": "uint256"
        }
      ],
      "name": "Challenge",
      "type": "event"
    },
    {
      "anonymous": false,
      "inputs": [
        {
          "indexed": false,
          "name": "tokenId",
          "type": "uint256"
        }
      ],
      "name": "ChallengeResolved",
      "type": "event"
    },
    {
      "anonymous": false,
      "inputs": [
        {
          "indexed": true,
          "name": "withdrawer",
          "type": "address"
        },
        {
          "indexed": true,
          "name": "tokenId",
          "type": "uint256"
        },
        {
          "indexed": false,
          "name": "stakedAmount",
          "type": "uint256"
        }
      ],
      "name": "Withdrawal",
      "type": "event"
    },
    {
      "anonymous": false,
      "inputs": [
        {
          "indexed": false,
          "name": "tx1",
          "type": "bytes"
        },
        {
          "indexed": false,
          "name": "tx2",
          "type": "bytes"
        },
        {
          "indexed": false,
          "name": "tx3",
          "type": "bytes"
        }
      ],
      "name": "Test",
      "type": "event"
    },
    {
      "anonymous": false,
      "inputs": [
        {
          "indexed": false,
          "name": "out",
          "type": "bytes"
        }
      ],
      "name": "Trace",
      "type": "event"
    },
    {
      "anonymous": false,
      "inputs": [
        {
          "indexed": false,
          "name": "out",
          "type": "address"
        }
      ],
      "name": "TraceAddress",
      "type": "event"
    },
    {
      "anonymous": false,
      "inputs": [
        {
          "indexed": false,
          "name": "out",
          "type": "bytes32"
        }
      ],
      "name": "Trace32",
      "type": "event"
    },
    {
      "anonymous": false,
      "inputs": [
        {
          "indexed": false,
          "name": "out",
          "type": "uint256"
        }
      ],
      "name": "TraceUint256",
      "type": "event"
    },
    {
      "constant": false,
      "inputs": [
        {
          "name": "_data",
          "type": "bytes"
        },
        {
          "name": "_i",
          "type": "uint256"
        }
      ],
      "name": "_parseData",
      "outputs": [],
      "payable": false,
      "stateMutability": "nonpayable",
      "type": "function"
    }
  ],
  "bytecode": "0x60806040526040805190810160405280600981526020017f7072655374616b6564000000000000000000000000000000000000000000000081525060009080519060200190620000519291906200026e565b506394bf804d7c010000000000000000000000000000000000000000000000000000000002600960006101000a81548163ffffffff02191690837c010000000000000000000000000000000000000000000000000000000090040217905550632e1a7d4d7c010000000000000000000000000000000000000000000000000000000002600960046101000a81548163ffffffff02191690837c01000000000000000000000000000000000000000000000000000000009004021790555063fe99049a7c010000000000000000000000000000000000000000000000000000000002600960086101000a81548163ffffffff02191690837c010000000000000000000000000000000000000000000000000000000090040217905550636e3c045e7c0100000000000000000000000000000000000000000000000000000000026009600c6101000a81548163ffffffff02191690837c010000000000000000000000000000000000000000000000000000000090040217905550620325aa600a55348015620001de57600080fd5b5060405160208062004c7f83398101806040528101908080519060200190929190505050600260009054906101000a900473ffffffffffffffffffffffffffffffffffffffff1680600260006101000a81548173ffffffffffffffffffffffffffffffffffffffff021916908373ffffffffffffffffffffffffffffffffffffffff16021790555050506200031d565b828054600181600116156101000203166002900490600052602060002090601f016020900481019282601f10620002b157805160ff1916838001178555620002e2565b82800160010185558215620002e2579182015b82811115620002e1578251825591602001919060010190620002c4565b5b509050620002f19190620002f5565b5090565b6200031a91905b8082111562000316576000816000905550600101620002fc565b5090565b90565b614952806200032d6000396000f3006080604052600436106100e6576000357c0100000000000000000000000000000000000000000000000000000000900463ffffffff1680632218f119146100e85780632310b3841461015557806324241ebc1461016c578063379607f51461028257806339cdde32146102af57806344c7d6ef1461035e57806359c8969e1461038b5780635d8d58871461049e5780636d08e8f9146104df5780636e553f65146105e857806377d32e94146106285780638fef56cc146106df57806396b6af5a14610752578063bbcd5bbe14610868578063d7de57c6146108ab578063fb9efcf0146109c1575b005b3480156100f457600080fd5b5061011360048036038101908080359060200190929190505050610a04565b604051808273ffffffffffffffffffffffffffffffffffffffff1673ffffffffffffffffffffffffffffffffffffffff16815260200191505060405180910390f35b34801561016157600080fd5b5061016a610a37565b005b34801561017857600080fd5b50610280600480360381019080803573ffffffffffffffffffffffffffffffffffffffff16906020019092919080359060200190929190803590602001908201803590602001908080602002602001604051908101604052809392919081815260200183836020028082843782019150505050505091929192908035906020019082018035906020019080806020026020016040519081016040528093929190818152602001838360200280828437820191505050505050919291929080359060200190820180359060200190808060200260200160405190810160405280939291908181526020018383602002808284378201915050505050509192919290505050610bd9565b005b34801561028e57600080fd5b506102ad60048036038101908080359060200190929190505050611235565b005b3480156102bb57600080fd5b506103446004803603810190808035600019169060200190929190803590602001908201803590602001908080601f0160208091040260200160405190810160405280939291908181526020018383808284378201915050505050509192919290803573ffffffffffffffffffffffffffffffffffffffff169060200190929190505050611554565b604051808215151515815260200191505060405180910390f35b34801561036a57600080fd5b5061038960048036038101908080359060200190929190505050611597565b005b61049c600480360381019080803573ffffffffffffffffffffffffffffffffffffffff1690602001909291908035906020019092919080359060200190820180359060200190808060200260200160405190810160405280939291908181526020018383602002808284378201915050505050509192919290803590602001908201803590602001908080602002602001604051908101604052809392919081815260200183836020028082843782019150505050505091929192908035906020019082018035906020019080806020026020016040519081016040528093929190818152602001838360200280828437820191505050505050919291929080359060200190929190505050611747565b005b3480156104aa57600080fd5b506104c960048036038101908080359060200190929190505050611ea1565b6040518082815260200191505060405180910390f35b6105e6600480360381019080803573ffffffffffffffffffffffffffffffffffffffff16906020019092919080359060200190929190803590602001908201803590602001908080602002602001604051908101604052809392919081815260200183836020028082843782019150505050505091929192908035906020019082018035906020019080806020026020016040519081016040528093929190818152602001838360200280828437820191505050505050919291929080359060200190820180359060200190808060200260200160405190810160405280939291908181526020018383602002808284378201915050505050509192919290505050611eb9565b005b61062660048036038101908080359060200190929190803573ffffffffffffffffffffffffffffffffffffffff1690602001909291905050506124b0565b005b34801561063457600080fd5b5061069d6004803603810190808035600019169060200190929190803590602001908201803590602001908080601f01602080910402602001604051908101604052809392919081815260200183838082843782019150505050505091929192905050506125dd565b604051808273ffffffffffffffffffffffffffffffffffffffff1673ffffffffffffffffffffffffffffffffffffffff16815260200191505060405180910390f35b3480156106eb57600080fd5b50610750600480360381019080803590602001908201803590602001908080601f0160208091040260200160405190810160405280939291908181526020018383808284378201915050505050509192919290803590602001909291905050506126d5565b005b34801561075e57600080fd5b50610866600480360381019080803573ffffffffffffffffffffffffffffffffffffffff169060200190929190803590602001909291908035906020019082018035906020019080806020026020016040519081016040528093929190818152602001838360200280828437820191505050505050919291929080359060200190820180359060200190808060200260200160405190810160405280939291908181526020018383602002808284378201915050505050509192919290803590602001908201803590602001908080602002602001604051908101604052809392919081815260200183836020028082843782019150505050505091929192905050506126e4565b005b34801561087457600080fd5b506108a9600480360381019080803573ffffffffffffffffffffffffffffffffffffffff169060200190929190505050612d0e565b005b3480156108b757600080fd5b506109bf600480360381019080803573ffffffffffffffffffffffffffffffffffffffff16906020019092919080359060200190929190803590602001908201803590602001908080602002602001604051908101604052809392919081815260200183836020028082843782019150505050505091929192908035906020019082018035906020019080806020026020016040519081016040528093929190818152602001838360200280828437820191505050505050919291929080359060200190820180359060200190808060200260200160405190810160405280939291908181526020018383602002808284378201915050505050509192919290505050612e62565b005b3480156109cd57600080fd5b50610a02600480360381019080803573ffffffffffffffffffffffffffffffffffffffff1690602001909291905050506132d0565b005b60086020528060005260406000206000915054906101000a900473ffffffffffffffffffffffffffffffffffffffff1681565b3373ffffffffffffffffffffffffffffffffffffffff16600260009054906101000a900473ffffffffffffffffffffffffffffffffffffffff1673ffffffffffffffffffffffffffffffffffffffff16141515610a9357600080fd5b60405180807f7072655374616b65640000000000000000000000000000000000000000000000815250600901905060405180910390206000191660006040518082805460018160011615610100020316600290048015610b2a5780601f10610b08576101008083540402835291820191610b2a565b820191906000526020600020905b815481529060010190602001808311610b16575b5050915050604051809103902060001916141515610b4757600080fd5b3073ffffffffffffffffffffffffffffffffffffffff16316004819055503073ffffffffffffffffffffffffffffffffffffffff163160058190555060006006819055506040805190810160405280600681526020017f7374616b6564000000000000000000000000000000000000000000000000000081525060009080519060200190610bd69291906147ac565b50565b60006060806000600b60008981526020019081526020016000205414151515610c0157600080fd5b42600b600089815260200190815260200160002054111515610c2257600080fd5b60006010600089815260200190815260200160002054111515610c4457600080fd5b610c4f868685613424565b610d11610d0c846000815481101515610c6457fe5b906000526020600020018054600181600116156101000203166002900480601f016020809104026020016040519081016040528092919081815260200182805460018160011615610100020316600290048015610d025780601f10610cd757610100808354040283529160200191610d02565b820191906000526020600020905b815481529060010190602001808311610ce557829003601f168201915b50505050506134db565b613536565b9150610dd5610dd0846001815481101515610d2857fe5b906000526020600020018054600181600116156101000203166002900480601f016020809104026020016040519081016040528092919081815260200182805460018160011615610100020316600290048015610dc65780601f10610d9b57610100808354040283529160200191610dc6565b820191906000526020600020905b815481529060010190602001808311610da957829003601f168201915b50505050506134db565b613536565b9050610dfa8282866001815181101515610deb57fe5b906020019060200201516135f3565b610e38600c610e2a610e23856005815181101515610e1457fe5b90602001906020020151613ce5565b6001613d53565b613da490919063ffffffff16565b73ffffffffffffffffffffffffffffffffffffffff166008600089815260200190815260200160002060009054906101000a900473ffffffffffffffffffffffffffffffffffffffff1673ffffffffffffffffffffffffffffffffffffffff16141515610f33576040517f08c379a00000000000000000000000000000000000000000000000000000000081526004018080602001828103825260358152602001807f746f6b656e206e6565647320746f206265207472616e7366657265642066726f81526020017f6d206c6173742070726f76656e20637573746f6479000000000000000000000081525060400191505060405180910390fd5b610f716000610f63610f5c856005815181101515610f4d57fe5b90602001906020020151613ce5565b6003613d53565b613ddc90919063ffffffff16565b8714151561100d576040517f08c379a00000000000000000000000000000000000000000000000000000000081526004018080602001828103825260228152602001807f6e6565647320746f20726566657220746f207468652073616d6520746f6b656e81526020017f496400000000000000000000000000000000000000000000000000000000000081525060400191505060405180910390fd5b601060008881526020019081526020016000205461105f600061105161104a86600581518110151561103b57fe5b90602001906020020151613ce5565b6004613d53565b613ddc90919063ffffffff16565b1415156110fa576040517f08c379a000000000000000000000000000000000000000000000000000000000815260040180806020018281038252602c8152602001807f6e6f6e6365206e6565647320746f20657175616c20726571756972656420636881526020017f616c6c656e67654e6f6e6365000000000000000000000000000000000000000081525060400191505060405180910390fd5b611138600c61112a61112385600581518110151561111457fe5b90602001906020020151613ce5565b6002613d53565b613da490919063ffffffff16565b6008600089815260200190815260200160002060006101000a81548173ffffffffffffffffffffffffffffffffffffffff021916908373ffffffffffffffffffffffffffffffffffffffff160217905550600160106000898152602001908152602001600020600082825401925050819055508773ffffffffffffffffffffffffffffffffffffffff163373ffffffffffffffffffffffffffffffffffffffff167f8088a25426f6cf86aeb3c86607e9f059cdcf86a1ca4cb1be8514c1e6f82fa09189601060008c815260200190815260200160002054604051808381526020018281526020019250505060405180910390a35050505050505050565b6000600b600083815260200190815260200160002054141515156112e7576040517f08c379a00000000000000000000000000000000000000000000000000000000081526004018080602001828103825260288152602001807f746865206368616c6c656e676520706572696f6420686173206e6f742073746181526020017f727465642079657400000000000000000000000000000000000000000000000081525060400191505060405180910390fd5b42600b600083815260200190815260200160002054101515611397576040517f08c379a00000000000000000000000000000000000000000000000000000000081526004018080602001828103825260268152602001807f746865206368616c6c656e676520706572696f6420686173206e6f7420656e6481526020017f656420796574000000000000000000000000000000000000000000000000000081525060400191505060405180910390fd5b600f600082815260200190815260200160002054601060008381526020019081526020016000205414806113de575060006010600083815260200190815260200160002054145b151561149e576040517f08c379a00000000000000000000000000000000000000000000000000000000081526004018080602001828103825260528152602001807f61206368616c6c656e676520686173207374617274656420616e64207468652081526020017f6368616c6c656e676520726573706f6e736520686173206e6f74206265656e2081526020017f70726f76656e20746f20656e644e6f6e6365000000000000000000000000000081525060600191505060405180910390fd5b600d600082815260200190815260200160002060009054906101000a900473ffffffffffffffffffffffffffffffffffffffff1673ffffffffffffffffffffffffffffffffffffffff166108fc600e6000848152602001908152602001600020546007600085815260200190815260200160002054019081150290604051600060405180830381858888f19350505050506000600760008381526020019081526020016000208190555061155181613e05565b50565b600061156084846125dd565b73ffffffffffffffffffffffffffffffffffffffff168273ffffffffffffffffffffffffffffffffffffffff161490509392505050565b6000600b600083815260200190815260200160002054141515156115ba57600080fd5b42600b6000838152602001908152602001600020541015156115db57600080fd5b600f60008281526020019081526020016000205460106000838152602001908152602001600020541415801561162557506000601060008381526020019081526020016000205414155b15156116bf576040517f08c379a000000000000000000000000000000000000000000000000000000000815260040180806020018281038252602b8152602001807f6368616c6c656e6765206e6f7420696e6974617465642f77697468647261776181526020017f6c20697320686f6e65737400000000000000000000000000000000000000000081525060400191505060405180910390fd5b600d600082815260200190815260200160002060009054906101000a900473ffffffffffffffffffffffffffffffffffffffff1673ffffffffffffffffffffffffffffffffffffffff166108fc600e6000848152602001908152602001600020549081150290604051600060405180830381858888f193505050505061174481613e05565b50565b600060608060606000611777866117693a600a54613f4990919063ffffffff16565b613f4990919063ffffffff16565b341015151561178557600080fd5b611790898987613424565b61185261184d8660008154811015156117a557fe5b906000526020600020018054600181600116156101000203166002900480601f0160208091040260200160405190810160405280929190818152602001828054600181600116156101000203166002900480156118435780601f1061181857610100808354040283529160200191611843565b820191906000526020600020905b81548152906001019060200180831161182657829003601f168201915b50505050506134db565b613536565b935061191661191186600181548110151561186957fe5b906000526020600020018054600181600116156101000203166002900480601f0160208091040260200160405190810160405280929190818152602001828054600181600116156101000203166002900480156119075780601f106118dc57610100808354040283529160200191611907565b820191906000526020600020905b8154815290600101906020018083116118ea57829003601f168201915b50505050506134db565b613536565b92506119da6119d586600281548110151561192d57fe5b906000526020600020018054600181600116156101000203166002900480601f0160208091040260200160405190810160405280929190818152602001828054600181600116156101000203166002900480156119cb5780601f106119a0576101008083540402835291602001916119cb565b820191906000526020600020905b8154815290600101906020018083116119ae57829003601f168201915b50505050506134db565b613536565b91506119ff83838960028151811015156119f057fe5b906020019060200201516135f3565b611a3d600c611a2f611a28866005815181101515611a1957fe5b90602001906020020151613ce5565b6002613d53565b613da490919063ffffffff16565b9050600160009054906101000a900473ffffffffffffffffffffffffffffffffffffffff1673ffffffffffffffffffffffffffffffffffffffff16611a99856003815181101515611a8a57fe5b90602001906020020151613f7c565b73ffffffffffffffffffffffffffffffffffffffff16141515611abb57600080fd5b6001876000815181101515611acc57fe5b90602001906020020151611af7866006815181101515611ae857fe5b90602001906020020151613fc3565b611b18876007815181101515611b0957fe5b90602001906020020151614016565b611b39886008815181101515611b2a57fe5b90602001906020020151614016565b604051600081526020016040526040518085600019166000191681526020018460ff1660ff1681526020018360001916600019168152602001826000191660001916815260200194505050505060206040516020810390808403906000865af1158015611baa573d6000803e3d6000fd5b5050506020604051035173ffffffffffffffffffffffffffffffffffffffff168173ffffffffffffffffffffffffffffffffffffffff16141515611c7c576040517f08c379a000000000000000000000000000000000000000000000000000000000815260040180806020018281038252602c8152602001807f5769746864726177616c5478206e6f74207369676e6564206279206c6173745481526020017f782072656365697069656e74000000000000000000000000000000000000000081525060400191505060405180910390fd5b856001611cbd6000611caf611ca8886005815181101515611c9957fe5b90602001906020020151613ce5565b6004613d53565b613ddc90919063ffffffff16565b01141515611d33576040517f08c379a00000000000000000000000000000000000000000000000000000000081526004018080602001828103825260138152602001807f6e6f6e63657320646f206e6f74206d617463680000000000000000000000000081525060200191505060405180910390fd5b6000600b60008c815260200190815260200160002054141515611d5557600080fd5b6102584201600b60008c81526020019081526020016000208190555085600f60008c81526020019081526020016000208190555080600c60008c815260200190815260200160002060006101000a81548173ffffffffffffffffffffffffffffffffffffffff021916908373ffffffffffffffffffffffffffffffffffffffff1602179055508a600d60008c815260200190815260200160002060006101000a81548173ffffffffffffffffffffffffffffffffffffffff021916908373ffffffffffffffffffffffffffffffffffffffff16021790555034600e60008c815260200190815260200160002081905550898b73ffffffffffffffffffffffffffffffffffffffff167fdf273cb619d95419a9cd0ec88123a0538c85064229baa6363788f743fff90deb346040518082815260200191505060405180910390a35050505050505050505050565b60076020528060005260406000206000915090505481565b60006060806000600b60008981526020019081526020016000205414151515611ee157600080fd5b42600b600089815260200190815260200160002054111515611f0257600080fd5b611f4f6005611f41600f60008b815260200190815260200160002054611f333a600a54613f4990919063ffffffff16565b613f4990919063ffffffff16565b61402b90919063ffffffff16565b3410151515611f5d57600080fd5b611f68868685613424565b61202a612025846000815481101515611f7d57fe5b906000526020600020018054600181600116156101000203166002900480601f01602080910402602001604051908101604052809291908181526020018280546001816001161561010002031660029004801561201b5780601f10611ff05761010080835404028352916020019161201b565b820191906000526020600020905b815481529060010190602001808311611ffe57829003601f168201915b50505050506134db565b613536565b91506120ee6120e984600181548110151561204157fe5b906000526020600020018054600181600116156101000203166002900480601f0160208091040260200160405190810160405280929190818152602001828054600181600116156101000203166002900480156120df5780601f106120b4576101008083540402835291602001916120df565b820191906000526020600020905b8154815290600101906020018083116120c257829003601f168201915b50505050506134db565b613536565b9050612113828286600181518110151561210457fe5b906020019060200201516135f3565b612151600061214361213c85600581518110151561212d57fe5b90602001906020020151613ce5565b6003613d53565b613ddc90919063ffffffff16565b871415156121ed576040517f08c379a00000000000000000000000000000000000000000000000000000000081526004018080602001828103825260228152602001807f6e6565647320746f20726566657220746f207468652073616d6520746f6b656e81526020017f496400000000000000000000000000000000000000000000000000000000000081525060400191505060405180910390fd5b61222b600c61221d61221685600581518110151561220757fe5b90602001906020020151613ce5565b6001613d53565b613da490919063ffffffff16565b73ffffffffffffffffffffffffffffffffffffffff166008600089815260200190815260200160002060009054906101000a900473ffffffffffffffffffffffffffffffffffffffff1673ffffffffffffffffffffffffffffffffffffffff16141515612326576040517f08c379a00000000000000000000000000000000000000000000000000000000081526004018080602001828103825260358152602001807f746f6b656e206e6565647320746f206265207472616e7366657265642066726f81526020017f6d206c6173742070726f76656e20637573746f6479000000000000000000000081525060400191505060405180910390fd5b612364600c61235661234f85600581518110151561234057fe5b90602001906020020151613ce5565b6002613d53565b613da490919063ffffffff16565b6008600089815260200190815260200160002060006101000a81548173ffffffffffffffffffffffffffffffffffffffff021916908373ffffffffffffffffffffffffffffffffffffffff16021790555034600e600089815260200190815260200160002060008282540192505081905550876011600089815260200190815260200160002060006101000a81548173ffffffffffffffffffffffffffffffffffffffff021916908373ffffffffffffffffffffffffffffffffffffffff160217905550600160106000898152602001908152602001600020819055508773ffffffffffffffffffffffffffffffffffffffff163373ffffffffffffffffffffffffffffffffffffffff167f5331871e026683c9fc9f966209853fdbd75ee7b21e9b4880849a76970c60f1d4896040518082815260200191505060405180910390a35050505050505050565b346006600082825401925050819055506124e634600760008581526020019081526020016000205461404690919063ffffffff16565b6007600084815260200190815260200160002081905550806008600084815260200190815260200160002060006101000a81548173ffffffffffffffffffffffffffffffffffffffff021916908373ffffffffffffffffffffffffffffffffffffffff1602179055503373ffffffffffffffffffffffffffffffffffffffff167f02d7e648dd130fc184d383e55bb126ac4c9c60e8f94bf05acdf557ba2d540b47348484604051808481526020018381526020018273ffffffffffffffffffffffffffffffffffffffff1673ffffffffffffffffffffffffffffffffffffffff168152602001935050505060405180910390a25050565b600080600080604185511415156125f757600093506126cc565b602085015192506040850151915060ff6041860151169050601b8160ff16101561262257601b810190505b601b8160ff161415801561263a5750601c8160ff1614155b1561264857600093506126cc565b600186828585604051600081526020016040526040518085600019166000191681526020018460ff1660ff1681526020018360001916600019168152602001826000191660001916815260200194505050505060206040516020810390808403906000865af11580156126bf573d6000803e3d6000fd5b5050506020604051035193505b50505092915050565b6126df8282613d53565b505050565b60006060806060806126f7888887613424565b6127b96127b486600081548110151561270c57fe5b906000526020600020018054600181600116156101000203166002900480601f0160208091040260200160405190810160405280929190818152602001828054600181600116156101000203166002900480156127aa5780601f1061277f576101008083540402835291602001916127aa565b820191906000526020600020905b81548152906001019060200180831161278d57829003601f168201915b50505050506134db565b613536565b935061287d6128788660018154811015156127d057fe5b906000526020600020018054600181600116156101000203166002900480601f01602080910402602001604051908101604052809291908181526020018280546001816001161561010002031660029004801561286e5780601f106128435761010080835404028352916020019161286e565b820191906000526020600020905b81548152906001019060200180831161285157829003601f168201915b50505050506134db565b613536565b925061294161293c86600281548110151561289457fe5b906000526020600020018054600181600116156101000203166002900480601f0160208091040260200160405190810160405280929190818152602001828054600181600116156101000203166002900480156129325780601f1061290757610100808354040283529160200191612932565b820191906000526020600020905b81548152906001019060200180831161291557829003601f168201915b50505050506134db565b613536565b9150612a05612a0086600381548110151561295857fe5b906000526020600020018054600181600116156101000203166002900480601f0160208091040260200160405190810160405280929190818152602001828054600181600116156101000203166002900480156129f65780601f106129cb576101008083540402835291602001916129f6565b820191906000526020600020905b8154815290600101906020018083116129d957829003601f168201915b50505050506134db565b613536565b9050612a2a8484886001815181101515612a1b57fe5b906020019060200201516135f3565b612a4d8282886003815181101515612a3e57fe5b906020019060200201516135f3565b612a8b6000612a7d612a76876005815181101515612a6757fe5b90602001906020020151613ce5565b6003613d53565b613ddc90919063ffffffff16565b89141515612b27576040517f08c379a00000000000000000000000000000000000000000000000000000000081526004018080602001828103825260228152602001807f6e6565647320746f20726566657220746f207468652073616d6520746f6b656e81526020017f496400000000000000000000000000000000000000000000000000000000000081525060400191505060405180910390fd5b612b656000612b57612b50856005815181101515612b4157fe5b90602001906020020151613ce5565b6003613d53565b613ddc90919063ffffffff16565b89141515612c01576040517f08c379a00000000000000000000000000000000000000000000000000000000081526004018080602001828103825260228152602001807f6e6565647320746f20726566657220746f207468652073616d6520746f6b656e81526020017f496400000000000000000000000000000000000000000000000000000000000081525060400191505060405180910390fd5b612c3f6000612c31612c2a876005815181101515612c1b57fe5b90602001906020020151613ce5565b6004613d53565b613ddc90919063ffffffff16565b612c7d6000612c6f612c68866005815181101515612c5957fe5b90602001906020020151613ce5565b6004613d53565b613ddc90919063ffffffff16565b141515612cf2576040517f08c379a00000000000000000000000000000000000000000000000000000000081526004018080602001828103825260208152602001807f6e6565647320746f20726566657220746f207468652073616d65206e6f6e636581525060200191505060405180910390fd5b6000600481905550600060058190555050505050505050505050565b3373ffffffffffffffffffffffffffffffffffffffff16600260009054906101000a900473ffffffffffffffffffffffffffffffffffffffff1673ffffffffffffffffffffffffffffffffffffffff16141515612d6a57600080fd5b60405180807f7072655374616b65640000000000000000000000000000000000000000000000815250600901905060405180910390206000191660006040518082805460018160011615610100020316600290048015612e015780601f10612ddf576101008083540402835291820191612e01565b820191906000526020600020905b815481529060010190602001808311612ded575b5050915050604051809103902060001916141515612e1e57600080fd5b80600160006101000a81548173ffffffffffffffffffffffffffffffffffffffff021916908373ffffffffffffffffffffffffffffffffffffffff16021790555050565b60006060806000600b60008981526020019081526020016000205414151515612e8a57600080fd5b42600b600089815260200190815260200160002054111515612eab57600080fd5b612eb6868685613424565b612f78612f73846000815481101515612ecb57fe5b906000526020600020018054600181600116156101000203166002900480601f016020809104026020016040519081016040528092919081815260200182805460018160011615610100020316600290048015612f695780601f10612f3e57610100808354040283529160200191612f69565b820191906000526020600020905b815481529060010190602001808311612f4c57829003601f168201915b50505050506134db565b613536565b915061303c613037846001815481101515612f8f57fe5b906000526020600020018054600181600116156101000203166002900480601f01602080910402602001604051908101604052809291908181526020018280546001816001161561010002031660029004801561302d5780601f106130025761010080835404028352916020019161302d565b820191906000526020600020905b81548152906001019060200180831161301057829003601f168201915b50505050506134db565b613536565b9050613061828286600181518110151561305257fe5b906020019060200201516135f3565b61309f600c61309161308a85600581518110151561307b57fe5b90602001906020020151613ce5565b6001613d53565b613da490919063ffffffff16565b73ffffffffffffffffffffffffffffffffffffffff16600c600089815260200190815260200160002060009054906101000a900473ffffffffffffffffffffffffffffffffffffffff1673ffffffffffffffffffffffffffffffffffffffff1614151561319a576040517f08c379a00000000000000000000000000000000000000000000000000000000081526004018080602001828103825260358152602001807f746f6b656e206e6565647320746f206265207472616e7366657265642066726f81526020017f6d206c6173742070726f76656e20637573746f6479000000000000000000000081525060400191505060405180910390fd5b6131d860006131ca6131c38560058151811015156131b457fe5b90602001906020020151613ce5565b6003613d53565b613ddc90919063ffffffff16565b87141515613274576040517f08c379a00000000000000000000000000000000000000000000000000000000081526004018080602001828103825260228152602001807f6e6565647320746f20726566657220746f207468652073616d6520746f6b656e81526020017f496400000000000000000000000000000000000000000000000000000000000081525060400191505060405180910390fd5b8773ffffffffffffffffffffffffffffffffffffffff166108fc600e60008a8152602001908152602001600020549081150290604051600060405180830381858888f19350505050506132c687613e05565b5050505050505050565b3373ffffffffffffffffffffffffffffffffffffffff16600260009054906101000a900473ffffffffffffffffffffffffffffffffffffffff1673ffffffffffffffffffffffffffffffffffffffff1614151561332c57600080fd5b60405180807f7072655374616b656400000000000000000000000000000000000000000000008152506009019050604051809103902060001916600060405180828054600181600116156101000203166002900480156133c35780601f106133a15761010080835404028352918201916133c3565b820191906000526020600020905b8154815290600101906020018083116133af575b50509150506040518091039020600019161415156133e057600080fd5b80600360006101000a81548173ffffffffffffffffffffffffffffffffffffffff021916908373ffffffffffffffffffffffffffffffffffffffff16021790555050565b60008060009150600090505b83518110156134d45761345b8583868481518110151561344c57fe5b90602001906020020151614064565b838281548110151561346957fe5b90600052602060002001908051906020019061348692919061482c565b506134b1848281518110151561349857fe5b906020019060200201518361404690919063ffffffff16565b91506040828115156134bf57fe5b06604003820191508080600101915050613430565b5050505050565b6134e36148ac565b600080835191506000821415613511576040805190810160405280600081526020016000815250925061352f565b60208401905060408051908101604052808281526020018381525092505b5050919050565b606060006135426148c6565b600061354d85614169565b151561355857600080fd5b6135618561419b565b92508260405190808252806020026020018201604052801561359d57816020015b61358a6148e7565b8152602001906001900390816135825790505b5093506135a985614215565b91505b6135b58261425d565b156135eb576135c382614287565b84828151811015156135d157fe5b9060200190602002018190525080806001019150506135ac565b505050919050565b600160009054906101000a900473ffffffffffffffffffffffffffffffffffffffff1673ffffffffffffffffffffffffffffffffffffffff1661364d84600381518110151561363e57fe5b90602001906020020151613f7c565b73ffffffffffffffffffffffffffffffffffffffff1614151561366f57600080fd5b600160009054906101000a900473ffffffffffffffffffffffffffffffffffffffff1673ffffffffffffffffffffffffffffffffffffffff166136c98360038151811015156136ba57fe5b90602001906020020151613f7c565b73ffffffffffffffffffffffffffffffffffffffff161415156136eb57600080fd5b600960089054906101000a90047c0100000000000000000000000000000000000000000000000000000000027bffffffffffffffffffffffffffffffffffffffffffffffffffffffff191661376b61376461375d86600581518110151561374e57fe5b90602001906020020151613ce5565b6000613d53565b60006142e3565b7bffffffffffffffffffffffffffffffffffffffffffffffffffffffff1916141515613825576040517f08c379a00000000000000000000000000000000000000000000000000000000081526004018080602001828103825260288152602001807f5f7472616e736665725478206973206e6f74207472616e7366657246726f6d2081526020017f66756e6374696f6e00000000000000000000000000000000000000000000000081525060400191505060405180910390fd5b6009600c9054906101000a90047c0100000000000000000000000000000000000000000000000000000000027bffffffffffffffffffffffffffffffffffffffffffffffffffffffff19166138a561389e61389785600581518110151561388857fe5b90602001906020020151613ce5565b6000613d53565b60006142e3565b7bffffffffffffffffffffffffffffffffffffffffffffffffffffffff191614151561395f576040517f08c379a00000000000000000000000000000000000000000000000000000000081526004018080602001828103825260258152602001807f5f637573746f6469616e5478206973206e6f7420637573746f6469616e41707081526020017f726f76616c00000000000000000000000000000000000000000000000000000081525060400191505060405180910390fd5b60018161398384600681518110151561397457fe5b90602001906020020151613fc3565b6139a485600781518110151561399557fe5b90602001906020020151614016565b6139c58660088151811015156139b657fe5b90602001906020020151614016565b604051600081526020016040526040518085600019166000191681526020018460ff1660ff1681526020018360001916600019168152602001826000191660001916815260200194505050505060206040516020810390808403906000865af1158015613a36573d6000803e3d6000fd5b5050506020604051035173ffffffffffffffffffffffffffffffffffffffff16600360009054906101000a900473ffffffffffffffffffffffffffffffffffffffff1673ffffffffffffffffffffffffffffffffffffffff16141515613b2a576040517f08c379a000000000000000000000000000000000000000000000000000000000815260040180806020018281038252602a8152602001807f5f637573746f6469616e54782073686f756c64206265207369676e656420627981526020017f20637573746f6469616e0000000000000000000000000000000000000000000081525060400191505060405180910390fd5b613b91613b58613b51846005815181101515613b4257fe5b90602001906020020151613ce5565b6001613d53565b613b83613b7c866005815181101515613b6d57fe5b90602001906020020151613ce5565b6003613d53565b6143dc90919063ffffffff16565b1515613c05576040517f08c379a00000000000000000000000000000000000000000000000000000000081526004018080602001828103825260168152602001807f746f6b656e5f69647320646f206e6f74206d617463680000000000000000000081525060200191505060405180910390fd5b613c6c613c33613c2c846005815181101515613c1d57fe5b90602001906020020151613ce5565b6002613d53565b613c5e613c57866005815181101515613c4857fe5b90602001906020020151613ce5565b6004613d53565b6143dc90919063ffffffff16565b1515613ce0576040517f08c379a00000000000000000000000000000000000000000000000000000000081526004018080602001828103825260138152602001807f6e6f6e63657320646f206e6f74206d617463680000000000000000000000000081525060200191505060405180910390fd5b505050565b6060600080613cf38461444b565b1515613cfe57600080fd5b613d078461447c565b91509150806040519080825280601f01601f191660200182016040528015613d3e5781602001602082028038833980820191505090505b509250613d4c8284836144fd565b5050919050565b60606000821415613d7c57613d75600060058561453e9092919063ffffffff16565b9050613d9e565b613d9b6020600184030260040160208561453e9092919063ffffffff16565b90505b92915050565b60008060148301845110151515613dba57600080fd5b6c01000000000000000000000000836020860101510490508091505092915050565b60008060208301845110151515613df257600080fd5b8260208501015190508091505092915050565b6000600e6000838152602001908152602001600020819055506000600d600083815260200190815260200160002060006101000a81548173ffffffffffffffffffffffffffffffffffffffff021916908373ffffffffffffffffffffffffffffffffffffffff1602179055506000600c600083815260200190815260200160002060006101000a81548173ffffffffffffffffffffffffffffffffffffffff021916908373ffffffffffffffffffffffffffffffffffffffff1602179055506000600f6000838152602001908152602001600020819055506000600b600083815260200190815260200160002081905550600060106000838152602001908152602001600020819055507f7874ca11ed47a2bbe287f114874e02e047a1261400f57712590c8f364b126501816040518082815260200191505060405180910390a150565b60008082840290506000841480613f6a5750828482811515613f6757fe5b04145b1515613f7257fe5b8091505092915050565b6000806000613f8a8461444b565b1515613f9557600080fd5b613f9e8461447c565b91509150601481141515613fb157600080fd5b600c6101000a82510492505050919050565b6000806000613fd18461444b565b1515613fdc57600080fd5b613fe58461447c565b915091506020811180613ff85750600081145b1561400257600080fd5b806020036101000a82510492505050919050565b600061402182613fc3565b6001029050919050565b600080828481151561403957fe5b0490508091505092915050565b600080828401905083811015151561405a57fe5b8091505092915050565b606080600080600061408060408861402b90919063ffffffff16565b9250614095868861404690919063ffffffff16565b91506140ab60408361402b90919063ffffffff16565b90505b808310156140f7576140e86140d989858151811015156140ca57fe5b906020019060200201516145cb565b856145fc90919063ffffffff16565b935082806001019350506140ae565b61415961414a60006001600260408781151561410f57fe5b0681151561411957fe5b040361413b8c8681518110151561412c57fe5b906020019060200201516145cb565b61453e9092919063ffffffff16565b856145fc90919063ffffffff16565b9350839450505050509392505050565b6000806000836020015114156141825760009150614195565b8260000151905060c0815160001a101591505b50919050565b6000806000806000806141ad87614169565b15156141bc576000955061420b565b86600001519350835160001a94506141d387614686565b840192506001876020015185010391505b8183111515614207576141f683614712565b8301925080806001019150506141e4565b8095505b5050505050919050565b61421d6148c6565b600061422883614169565b151561423357600080fd5b61423c83614686565b83600001510190508282600001819052508082602001818152505050919050565b60006142676148ac565b826000015190508060200151816000015101836020015110915050919050565b61428f6148ac565b60008061429b8461425d565b156142d757836020015191506142b082614712565b905081836000018181525050808360200181815250508082018460200181815250506142dc565b600080fd5b5050919050565b60008060008090505b60048110156143d1576008810260ff7f0100000000000000000000000000000000000000000000000000000000000000028683870181518110151561432d57fe5b9060200101517f010000000000000000000000000000000000000000000000000000000000000090047f010000000000000000000000000000000000000000000000000000000000000002167effffffffffffffffffffffffffffffffffffffffffffffffffffffffffffff19167bffffffffffffffffffffffffffffffffffffffffffffffffffffffff19169060020a90048217915080806001019150506142ec565b819250505092915050565b60008060019050835183518114600181146143fa576000925061443f565b600160208701838101602088015b60028483851001141561443a57805183511415156144295760009650600093505b602083019250602081019050614408565b505050505b50508091505092915050565b6000806000836020015114156144645760009150614476565b8260000151905060c0815160001a1091505b50919050565b600080600080600061448d8661444b565b151561449857600080fd5b85600001519150815160001a925060808310156144bb57819450600193506144f5565b60b88310156144d957600186602001510393506001820194506144f4565b60b78303905080600187602001510303935060018183010194505b5b505050915091565b60006020601f83010484602085015b82841461452b576020840280830151818301526001850194505061450c565b6000865160200187015250505050505050565b60608082840185511015151561455357600080fd5b82156000811461456e576040519150602082016040526145bf565b6040519150601f8416801560200281840101858101878315602002848b0101015b818310156145ac578051835260208301925060208101905061458f565b50868552601f19601f8301166040525050505b50809150509392505050565b6060816040516020018082600019166000191681526020019150506040516020818303038152906040529050919050565b6060806040519050835180825260208201818101602087015b818310156146325780518352602083019250602081019050614615565b50855192508351830184528091508282019050602086015b81831015614667578051835260208301925060208101905061464a565b50601f19601f8851850115830101166040525050508091505092915050565b600080600080846020015114156146a0576000925061470b565b83600001519050805160001a915060808210156146c0576000925061470b565b60b88210806146dc575060c082101580156146db575060f882105b5b156146ea576001925061470b565b60c082101561470157600160b7830301925061470b565b600160f783030192505b5050919050565b600080825160001a9050608081101561472e57600191506147a6565b60b8811015614745576001608082030191506147a5565b60c081101561476f5760b78103806020036101000a600185015104808201600101935050506147a4565b60f881101561478657600160c082030191506147a3565b60f78103806020036101000a600185015104808201600101935050505b5b5b5b50919050565b828054600181600116156101000203166002900490600052602060002090601f016020900481019282601f106147ed57805160ff191683800117855561481b565b8280016001018555821561481b579182015b8281111561481a5782518255916020019190600101906147ff565b5b5090506148289190614901565b5090565b828054600181600116156101000203166002900490600052602060002090601f016020900481019282601f1061486d57805160ff191683800117855561489b565b8280016001018555821561489b579182015b8281111561489a57825182559160200191906001019061487f565b5b5090506148a89190614901565b5090565b604080519081016040528060008152602001600081525090565b6060604051908101604052806148da6148e7565b8152602001600081525090565b604080519081016040528060008152602001600081525090565b61492391905b8082111561491f576000816000905550600101614907565b5090565b905600a165627a7a723058201e6ab3b84d96e6b576ac09bd5b3a4283e82d165328af698c279366e60c15f0360029",
  "source": "pragma solidity ^0.4.24;\n\nimport \"../DepositContract.sol\";\n\ncontract DepositContractMock is DepositContract {\n  constructor(address _custodian) public\n    DepositContract(custodian)\n  { }\n\n  function _parseData(bytes _data, uint256 _i) public {\n    super.parseData(_data, _i);\n  }\n\n  // function _splitTxBundle(bytes _rawTxBundle, uint256[] _txLengths, bytes[] storage _rawTxList) public {\n  //   super.splitTxBundle(_data, _i);\n  // }\n\n\n}",
  "sourcePath": "/home/yingtong/peacebridge/contracts/mocks/DepositContractMock.sol",
  "compiler": {
    "name": "solc",
    "version": "0.4.24+commit.e67f0147.Emscripten.clang"
  },
  "schemaVersion": "2.0.1",
  "updatedAt": "2019-04-05T05:42:54.591Z"
}