{
  "contractName": "DepositContractMock",
  "abi": [
    {
      "constant": true,
      "inputs": [
        {
          "name": "",
          "type": "uint256"
        }
      ],
      "name": "tokenIdToMinter",
      "outputs": [
        {
          "name": "",
          "type": "address"
        }
      ],
      "payable": false,
      "stateMutability": "view",
      "type": "function"
    },
    {
      "constant": false,
      "inputs": [],
      "name": "finalizeStake",
      "outputs": [],
      "payable": false,
      "stateMutability": "nonpayable",
      "type": "function"
    },
    {
      "constant": false,
      "inputs": [
        {
          "name": "_to",
          "type": "address"
        },
        {
          "name": "_tokenId",
          "type": "uint256"
        },
        {
          "name": "_rawTxBundle",
          "type": "bytes32[]"
        },
        {
          "name": "_txLengths",
          "type": "uint256[]"
        },
        {
          "name": "_txMsgHashes",
          "type": "bytes32[]"
        }
      ],
      "name": "challengeWithPastCustody",
      "outputs": [],
      "payable": false,
      "stateMutability": "nonpayable",
      "type": "function"
    },
    {
      "constant": false,
      "inputs": [
        {
          "name": "_tokenId",
          "type": "uint256"
        }
      ],
      "name": "claim",
      "outputs": [],
      "payable": false,
      "stateMutability": "nonpayable",
      "type": "function"
    },
    {
      "constant": false,
      "inputs": [
        {
          "name": "hash",
          "type": "bytes32"
        },
        {
          "name": "sig",
          "type": "bytes"
        },
        {
          "name": "signer",
          "type": "address"
        }
      ],
      "name": "ecverify",
      "outputs": [
        {
          "name": "",
          "type": "bool"
        }
      ],
      "payable": false,
      "stateMutability": "nonpayable",
      "type": "function"
    },
    {
      "constant": false,
      "inputs": [
        {
          "name": "_tokenId",
          "type": "uint256"
        }
      ],
      "name": "claimStake",
      "outputs": [],
      "payable": false,
      "stateMutability": "nonpayable",
      "type": "function"
    },
    {
      "constant": false,
      "inputs": [
        {
          "name": "_to",
          "type": "address"
        },
        {
          "name": "_tokenId",
          "type": "uint256"
        },
        {
          "name": "_rawTxBundle",
          "type": "bytes32[]"
        },
        {
          "name": "_txLengths",
          "type": "uint256[]"
        },
        {
          "name": "_txMsgHashes",
          "type": "bytes32[]"
        },
        {
          "name": "_declaredNonce",
          "type": "uint256"
        }
      ],
      "name": "withdraw",
      "outputs": [],
      "payable": true,
      "stateMutability": "payable",
      "type": "function"
    },
    {
      "constant": true,
      "inputs": [
        {
          "name": "",
          "type": "uint256"
        }
      ],
      "name": "tokenIdToAmount",
      "outputs": [
        {
          "name": "",
          "type": "uint256"
        }
      ],
      "payable": false,
      "stateMutability": "view",
      "type": "function"
    },
    {
      "constant": false,
      "inputs": [
        {
          "name": "_to",
          "type": "address"
        },
        {
          "name": "_tokenId",
          "type": "uint256"
        },
        {
          "name": "_rawTxBundle",
          "type": "bytes32[]"
        },
        {
          "name": "_txLengths",
          "type": "uint256[]"
        },
        {
          "name": "_txMsgHashes",
          "type": "bytes32[]"
        }
      ],
      "name": "initiateChallengeWithPastCustody",
      "outputs": [],
      "payable": true,
      "stateMutability": "payable",
      "type": "function"
    },
    {
      "constant": false,
      "inputs": [
        {
          "name": "_tokenId",
          "type": "uint256"
        },
        {
          "name": "_minter",
          "type": "address"
        }
      ],
      "name": "deposit",
      "outputs": [],
      "payable": true,
      "stateMutability": "payable",
      "type": "function"
    },
    {
      "constant": false,
      "inputs": [
        {
          "name": "hash",
          "type": "bytes32"
        },
        {
          "name": "sig",
          "type": "bytes"
        }
      ],
      "name": "ecrecovery",
      "outputs": [
        {
          "name": "",
          "type": "address"
        }
      ],
      "payable": false,
      "stateMutability": "nonpayable",
      "type": "function"
    },
    {
      "constant": true,
      "inputs": [
        {
          "name": "",
          "type": "uint256"
        }
      ],
      "name": "challengeNonce",
      "outputs": [
        {
          "name": "",
          "type": "uint256"
        }
      ],
      "payable": false,
      "stateMutability": "view",
      "type": "function"
    },
    {
      "constant": false,
      "inputs": [
        {
          "name": "_to",
          "type": "address"
        },
        {
          "name": "_tokenId",
          "type": "uint256"
        },
        {
          "name": "_rawTxBundle",
          "type": "bytes32[]"
        },
        {
          "name": "_txLengths",
          "type": "uint256[]"
        },
        {
          "name": "_txMsgHashes",
          "type": "bytes32[]"
        }
      ],
      "name": "submitCustodianDoubleSign",
      "outputs": [],
      "payable": false,
      "stateMutability": "nonpayable",
      "type": "function"
    },
    {
      "constant": true,
      "inputs": [
        {
          "name": "",
          "type": "uint256"
        }
      ],
      "name": "challengeEndNonce",
      "outputs": [
        {
          "name": "",
          "type": "uint256"
        }
      ],
      "payable": false,
      "stateMutability": "view",
      "type": "function"
    },
    {
      "constant": false,
      "inputs": [
        {
          "name": "_tokenContract",
          "type": "address"
        }
      ],
      "name": "setTokenContract",
      "outputs": [],
      "payable": false,
      "stateMutability": "nonpayable",
      "type": "function"
    },
    {
      "constant": false,
      "inputs": [
        {
          "name": "_to",
          "type": "address"
        },
        {
          "name": "_tokenId",
          "type": "uint256"
        },
        {
          "name": "_rawTxBundle",
          "type": "bytes32[]"
        },
        {
          "name": "_txLengths",
          "type": "uint256[]"
        },
        {
          "name": "_txMsgHashes",
          "type": "bytes32[]"
        }
      ],
      "name": "challengeWithFutureCustody",
      "outputs": [],
      "payable": false,
      "stateMutability": "nonpayable",
      "type": "function"
    },
    {
      "constant": false,
      "inputs": [
        {
          "name": "_custodianForeign",
          "type": "address"
        }
      ],
      "name": "setCustodianForeign",
      "outputs": [],
      "payable": false,
      "stateMutability": "nonpayable",
      "type": "function"
    },
    {
      "inputs": [
        {
          "name": "_custodian",
          "type": "address"
        }
      ],
      "payable": false,
      "stateMutability": "nonpayable",
      "type": "constructor"
    },
    {
      "payable": true,
      "stateMutability": "payable",
      "type": "fallback"
    },
    {
      "anonymous": false,
      "inputs": [
        {
          "indexed": true,
          "name": "depositer",
          "type": "address"
        },
        {
          "indexed": false,
          "name": "amount",
          "type": "uint256"
        },
        {
          "indexed": false,
          "name": "tokenId",
          "type": "uint256"
        },
        {
          "indexed": false,
          "name": "minter",
          "type": "address"
        }
      ],
      "name": "Deposit",
      "type": "event"
    },
    {
      "anonymous": false,
      "inputs": [
        {
          "indexed": true,
          "name": "challenger",
          "type": "address"
        },
        {
          "indexed": true,
          "name": "depositedTo",
          "type": "address"
        },
        {
          "indexed": false,
          "name": "tokenId",
          "type": "uint256"
        }
      ],
      "name": "ChallengeInitiated",
      "type": "event"
    },
    {
      "anonymous": false,
      "inputs": [
        {
          "indexed": true,
          "name": "rechallenger",
          "type": "address"
        },
        {
          "indexed": true,
          "name": "depositedTo",
          "type": "address"
        },
        {
          "indexed": false,
          "name": "tokenId",
          "type": "uint256"
        },
        {
          "indexed": false,
          "name": "finalChallengeNonce",
          "type": "uint256"
        }
      ],
      "name": "Challenge",
      "type": "event"
    },
    {
      "anonymous": false,
      "inputs": [
        {
          "indexed": false,
          "name": "tokenId",
          "type": "uint256"
        }
      ],
      "name": "ChallengeResolved",
      "type": "event"
    },
    {
      "anonymous": false,
      "inputs": [
        {
          "indexed": true,
          "name": "withdrawer",
          "type": "address"
        },
        {
          "indexed": true,
          "name": "tokenId",
          "type": "uint256"
        },
        {
          "indexed": false,
          "name": "stakedAmount",
          "type": "uint256"
        },
        {
          "indexed": false,
          "name": "declaredNonce",
          "type": "uint256"
        }
      ],
      "name": "Withdrawal",
      "type": "event"
    },
    {
      "anonymous": false,
      "inputs": [
        {
          "indexed": false,
          "name": "tx1",
          "type": "bytes"
        },
        {
          "indexed": false,
          "name": "tx2",
          "type": "bytes"
        },
        {
          "indexed": false,
          "name": "tx3",
          "type": "bytes"
        }
      ],
      "name": "Test",
      "type": "event"
    },
    {
      "anonymous": false,
      "inputs": [
        {
          "indexed": false,
          "name": "out",
          "type": "bytes"
        }
      ],
      "name": "Trace",
      "type": "event"
    },
    {
      "anonymous": false,
      "inputs": [
        {
          "indexed": false,
          "name": "out",
          "type": "address"
        }
      ],
      "name": "TraceAddress",
      "type": "event"
    },
    {
      "anonymous": false,
      "inputs": [
        {
          "indexed": false,
          "name": "out",
          "type": "bytes32"
        }
      ],
      "name": "Trace32",
      "type": "event"
    },
    {
      "anonymous": false,
      "inputs": [
        {
          "indexed": false,
          "name": "out",
          "type": "uint256"
        }
      ],
      "name": "TraceUint256",
      "type": "event"
    },
    {
      "constant": false,
      "inputs": [
        {
          "name": "_data",
          "type": "bytes"
        },
        {
          "name": "_i",
          "type": "uint256"
        }
      ],
      "name": "_parseData",
      "outputs": [],
      "payable": false,
      "stateMutability": "nonpayable",
      "type": "function"
    }
  ],
  "bytecode": "0x60806040526040805190810160405280600981526020017f7072655374616b6564000000000000000000000000000000000000000000000081525060009080519060200190620000519291906200026e565b506394bf804d7c010000000000000000000000000000000000000000000000000000000002600960006101000a81548163ffffffff02191690837c010000000000000000000000000000000000000000000000000000000090040217905550632e1a7d4d7c010000000000000000000000000000000000000000000000000000000002600960046101000a81548163ffffffff02191690837c01000000000000000000000000000000000000000000000000000000009004021790555063fe99049a7c010000000000000000000000000000000000000000000000000000000002600960086101000a81548163ffffffff02191690837c010000000000000000000000000000000000000000000000000000000090040217905550636e3c045e7c0100000000000000000000000000000000000000000000000000000000026009600c6101000a81548163ffffffff02191690837c010000000000000000000000000000000000000000000000000000000090040217905550620325aa600a55348015620001de57600080fd5b5060405160208062004da183398101806040528101908080519060200190929190505050600260009054906101000a900473ffffffffffffffffffffffffffffffffffffffff1680600260006101000a81548173ffffffffffffffffffffffffffffffffffffffff021916908373ffffffffffffffffffffffffffffffffffffffff16021790555050506200031d565b828054600181600116156101000203166002900490600052602060002090601f016020900481019282601f10620002b157805160ff1916838001178555620002e2565b82800160010185558215620002e2579182015b82811115620002e1578251825591602001919060010190620002c4565b5b509050620002f19190620002f5565b5090565b6200031a91905b8082111562000316576000816000905550600101620002fc565b5090565b90565b614a74806200032d6000396000f3006080604052600436106100fc576000357c0100000000000000000000000000000000000000000000000000000000900463ffffffff1680632218f119146100fe5780632310b3841461016b57806324241ebc14610182578063379607f51461029857806339cdde32146102c557806344c7d6ef1461037457806359c8969e146103a15780635d8d5887146104b45780636d08e8f9146104f55780636e553f65146105fe57806377d32e941461063e5780638fef56cc146106f557806391c0f6b61461076857806396b6af5a146107a95780639b2409cb146108bf578063bbcd5bbe14610900578063d7de57c614610943578063fb9efcf014610a59575b005b34801561010a57600080fd5b5061012960048036038101908080359060200190929190505050610a9c565b604051808273ffffffffffffffffffffffffffffffffffffffff1673ffffffffffffffffffffffffffffffffffffffff16815260200191505060405180910390f35b34801561017757600080fd5b50610180610acf565b005b34801561018e57600080fd5b50610296600480360381019080803573ffffffffffffffffffffffffffffffffffffffff16906020019092919080359060200190929190803590602001908201803590602001908080602002602001604051908101604052809392919081815260200183836020028082843782019150505050505091929192908035906020019082018035906020019080806020026020016040519081016040528093929190818152602001838360200280828437820191505050505050919291929080359060200190820180359060200190808060200260200160405190810160405280939291908181526020018383602002808284378201915050505050509192919290505050610c71565b005b3480156102a457600080fd5b506102c36004803603810190808035906020019092919050505061131f565b005b3480156102d157600080fd5b5061035a6004803603810190808035600019169060200190929190803590602001908201803590602001908080601f0160208091040260200160405190810160405280939291908181526020018383808284378201915050505050509192919290803573ffffffffffffffffffffffffffffffffffffffff16906020019092919050505061163e565b604051808215151515815260200191505060405180910390f35b34801561038057600080fd5b5061039f60048036038101908080359060200190929190505050611681565b005b6104b2600480360381019080803573ffffffffffffffffffffffffffffffffffffffff1690602001909291908035906020019092919080359060200190820180359060200190808060200260200160405190810160405280939291908181526020018383602002808284378201915050505050509192919290803590602001908201803590602001908080602002602001604051908101604052809392919081815260200183836020028082843782019150505050505091929192908035906020019082018035906020019080806020026020016040519081016040528093929190818152602001838360200280828437820191505050505050919291929080359060200190929190505050611831565b005b3480156104c057600080fd5b506104df60048036038101908080359060200190929190505050611f93565b6040518082815260200191505060405180910390f35b6105fc600480360381019080803573ffffffffffffffffffffffffffffffffffffffff16906020019092919080359060200190929190803590602001908201803590602001908080602002602001604051908101604052809392919081815260200183836020028082843782019150505050505091929192908035906020019082018035906020019080806020026020016040519081016040528093929190818152602001838360200280828437820191505050505050919291929080359060200190820180359060200190808060200260200160405190810160405280939291908181526020018383602002808284378201915050505050509192919290505050611fab565b005b61063c60048036038101908080359060200190929190803573ffffffffffffffffffffffffffffffffffffffff1690602001909291905050506125a2565b005b34801561064a57600080fd5b506106b36004803603810190808035600019169060200190929190803590602001908201803590602001908080601f01602080910402602001604051908101604052809392919081815260200183838082843782019150505050505091929192905050506126cf565b604051808273ffffffffffffffffffffffffffffffffffffffff1673ffffffffffffffffffffffffffffffffffffffff16815260200191505060405180910390f35b34801561070157600080fd5b50610766600480360381019080803590602001908201803590602001908080601f0160208091040260200160405190810160405280939291908181526020018383808284378201915050505050509192919290803590602001909291905050506127c7565b005b34801561077457600080fd5b50610793600480360381019080803590602001909291905050506127d6565b6040518082815260200191505060405180910390f35b3480156107b557600080fd5b506108bd600480360381019080803573ffffffffffffffffffffffffffffffffffffffff169060200190929190803590602001909291908035906020019082018035906020019080806020026020016040519081016040528093929190818152602001838360200280828437820191505050505050919291929080359060200190820180359060200190808060200260200160405190810160405280939291908181526020018383602002808284378201915050505050509192919290803590602001908201803590602001908080602002602001604051908101604052809392919081815260200183836020028082843782019150505050505091929192905050506127ee565b005b3480156108cb57600080fd5b506108ea60048036038101908080359060200190929190505050612e18565b6040518082815260200191505060405180910390f35b34801561090c57600080fd5b50610941600480360381019080803573ffffffffffffffffffffffffffffffffffffffff169060200190929190505050612e30565b005b34801561094f57600080fd5b50610a57600480360381019080803573ffffffffffffffffffffffffffffffffffffffff16906020019092919080359060200190929190803590602001908201803590602001908080602002602001604051908101604052809392919081815260200183836020028082843782019150505050505091929192908035906020019082018035906020019080806020026020016040519081016040528093929190818152602001838360200280828437820191505050505050919291929080359060200190820180359060200190808060200260200160405190810160405280939291908181526020018383602002808284378201915050505050509192919290505050612f84565b005b348015610a6557600080fd5b50610a9a600480360381019080803573ffffffffffffffffffffffffffffffffffffffff1690602001909291905050506133f2565b005b60086020528060005260406000206000915054906101000a900473ffffffffffffffffffffffffffffffffffffffff1681565b3373ffffffffffffffffffffffffffffffffffffffff16600260009054906101000a900473ffffffffffffffffffffffffffffffffffffffff1673ffffffffffffffffffffffffffffffffffffffff16141515610b2b57600080fd5b60405180807f7072655374616b65640000000000000000000000000000000000000000000000815250600901905060405180910390206000191660006040518082805460018160011615610100020316600290048015610bc25780601f10610ba0576101008083540402835291820191610bc2565b820191906000526020600020905b815481529060010190602001808311610bae575b5050915050604051809103902060001916141515610bdf57600080fd5b3073ffffffffffffffffffffffffffffffffffffffff16316004819055503073ffffffffffffffffffffffffffffffffffffffff163160058190555060006006819055506040805190810160405280600681526020017f7374616b6564000000000000000000000000000000000000000000000000000081525060009080519060200190610c6e9291906148ce565b50565b60006060806000600b60008981526020019081526020016000205414151515610c9957600080fd5b42600b600089815260200190815260200160002054111515610cba57600080fd5b60006010600089815260200190815260200160002054111515610cdc57600080fd5b610ce7868685613546565b610da9610da4846000815481101515610cfc57fe5b906000526020600020018054600181600116156101000203166002900480601f016020809104026020016040519081016040528092919081815260200182805460018160011615610100020316600290048015610d9a5780601f10610d6f57610100808354040283529160200191610d9a565b820191906000526020600020905b815481529060010190602001808311610d7d57829003601f168201915b50505050506135fd565b613658565b9150610e6d610e68846001815481101515610dc057fe5b906000526020600020018054600181600116156101000203166002900480601f016020809104026020016040519081016040528092919081815260200182805460018160011615610100020316600290048015610e5e5780601f10610e3357610100808354040283529160200191610e5e565b820191906000526020600020905b815481529060010190602001808311610e4157829003601f168201915b50505050506135fd565b613658565b9050610e928282866001815181101515610e8357fe5b90602001906020020151613715565b610ed0600c610ec2610ebb856005815181101515610eac57fe5b90602001906020020151613e07565b6001613e75565b613ec690919063ffffffff16565b73ffffffffffffffffffffffffffffffffffffffff166008600089815260200190815260200160002060009054906101000a900473ffffffffffffffffffffffffffffffffffffffff1673ffffffffffffffffffffffffffffffffffffffff16141515610fcb576040517f08c379a00000000000000000000000000000000000000000000000000000000081526004018080602001828103825260358152602001807f746f6b656e206e6565647320746f206265207472616e7366657265642066726f81526020017f6d206c6173742070726f76656e20637573746f6479000000000000000000000081525060400191505060405180910390fd5b6110096000610ffb610ff4856005815181101515610fe557fe5b90602001906020020151613e07565b6003613e75565b613efe90919063ffffffff16565b871415156110a5576040517f08c379a00000000000000000000000000000000000000000000000000000000081526004018080602001828103825260228152602001807f6e6565647320746f20726566657220746f207468652073616d6520746f6b656e81526020017f496400000000000000000000000000000000000000000000000000000000000081525060400191505060405180910390fd5b60106000888152602001908152602001600020546110f760006110e96110e28660058151811015156110d357fe5b90602001906020020151613e07565b6004613e75565b613efe90919063ffffffff16565b141515611192576040517f08c379a000000000000000000000000000000000000000000000000000000000815260040180806020018281038252602c8152602001807f6e6f6e6365206e6565647320746f20657175616c20726571756972656420636881526020017f616c6c656e67654e6f6e6365000000000000000000000000000000000000000081525060400191505060405180910390fd5b6111d0600c6111c26111bb8560058151811015156111ac57fe5b90602001906020020151613e07565b6002613e75565b613ec690919063ffffffff16565b6008600089815260200190815260200160002060006101000a81548173ffffffffffffffffffffffffffffffffffffffff021916908373ffffffffffffffffffffffffffffffffffffffff1602179055506001601060008981526020019081526020016000206000828254019250508190555087600d600089815260200190815260200160002060006101000a81548173ffffffffffffffffffffffffffffffffffffffff021916908373ffffffffffffffffffffffffffffffffffffffff1602179055508773ffffffffffffffffffffffffffffffffffffffff163373ffffffffffffffffffffffffffffffffffffffff167f8088a25426f6cf86aeb3c86607e9f059cdcf86a1ca4cb1be8514c1e6f82fa09189601060008c815260200190815260200160002054604051808381526020018281526020019250505060405180910390a35050505050505050565b6000600b600083815260200190815260200160002054141515156113d1576040517f08c379a00000000000000000000000000000000000000000000000000000000081526004018080602001828103825260288152602001807f746865206368616c6c656e676520706572696f6420686173206e6f742073746181526020017f727465642079657400000000000000000000000000000000000000000000000081525060400191505060405180910390fd5b42600b600083815260200190815260200160002054101515611481576040517f08c379a00000000000000000000000000000000000000000000000000000000081526004018080602001828103825260268152602001807f746865206368616c6c656e676520706572696f6420686173206e6f7420656e6481526020017f656420796574000000000000000000000000000000000000000000000000000081525060400191505060405180910390fd5b600f600082815260200190815260200160002054601060008381526020019081526020016000205414806114c8575060006010600083815260200190815260200160002054145b1515611588576040517f08c379a00000000000000000000000000000000000000000000000000000000081526004018080602001828103825260528152602001807f61206368616c6c656e676520686173207374617274656420616e64207468652081526020017f6368616c6c656e676520726573706f6e736520686173206e6f74206265656e2081526020017f70726f76656e20746f20656e644e6f6e6365000000000000000000000000000081525060600191505060405180910390fd5b600d600082815260200190815260200160002060009054906101000a900473ffffffffffffffffffffffffffffffffffffffff1673ffffffffffffffffffffffffffffffffffffffff166108fc600e6000848152602001908152602001600020546007600085815260200190815260200160002054019081150290604051600060405180830381858888f19350505050506000600760008381526020019081526020016000208190555061163b81613f27565b50565b600061164a84846126cf565b73ffffffffffffffffffffffffffffffffffffffff168273ffffffffffffffffffffffffffffffffffffffff161490509392505050565b6000600b600083815260200190815260200160002054141515156116a457600080fd5b42600b6000838152602001908152602001600020541015156116c557600080fd5b600f60008281526020019081526020016000205460106000838152602001908152602001600020541415801561170f57506000601060008381526020019081526020016000205414155b15156117a9576040517f08c379a000000000000000000000000000000000000000000000000000000000815260040180806020018281038252602b8152602001807f6368616c6c656e6765206e6f7420696e6974617465642f77697468647261776181526020017f6c20697320686f6e65737400000000000000000000000000000000000000000081525060400191505060405180910390fd5b600d600082815260200190815260200160002060009054906101000a900473ffffffffffffffffffffffffffffffffffffffff1673ffffffffffffffffffffffffffffffffffffffff166108fc600e6000848152602001908152602001600020549081150290604051600060405180830381858888f193505050505061182e81613f27565b50565b600060608060606000611861866118533a600a5461406b90919063ffffffff16565b61406b90919063ffffffff16565b341015151561186f57600080fd5b61187a898987613546565b61193c61193786600081548110151561188f57fe5b906000526020600020018054600181600116156101000203166002900480601f01602080910402602001604051908101604052809291908181526020018280546001816001161561010002031660029004801561192d5780601f106119025761010080835404028352916020019161192d565b820191906000526020600020905b81548152906001019060200180831161191057829003601f168201915b50505050506135fd565b613658565b9350611a006119fb86600181548110151561195357fe5b906000526020600020018054600181600116156101000203166002900480601f0160208091040260200160405190810160405280929190818152602001828054600181600116156101000203166002900480156119f15780601f106119c6576101008083540402835291602001916119f1565b820191906000526020600020905b8154815290600101906020018083116119d457829003601f168201915b50505050506135fd565b613658565b9250611ac4611abf866002815481101515611a1757fe5b906000526020600020018054600181600116156101000203166002900480601f016020809104026020016040519081016040528092919081815260200182805460018160011615610100020316600290048015611ab55780601f10611a8a57610100808354040283529160200191611ab5565b820191906000526020600020905b815481529060010190602001808311611a9857829003601f168201915b50505050506135fd565b613658565b9150611ae98383896002815181101515611ada57fe5b90602001906020020151613715565b611b27600c611b19611b12866005815181101515611b0357fe5b90602001906020020151613e07565b6002613e75565b613ec690919063ffffffff16565b9050600160009054906101000a900473ffffffffffffffffffffffffffffffffffffffff1673ffffffffffffffffffffffffffffffffffffffff16611b83856003815181101515611b7457fe5b9060200190602002015161409e565b73ffffffffffffffffffffffffffffffffffffffff16141515611ba557600080fd5b6001876000815181101515611bb657fe5b90602001906020020151611be1866006815181101515611bd257fe5b906020019060200201516140e5565b611c02876007815181101515611bf357fe5b90602001906020020151614138565b611c23886008815181101515611c1457fe5b90602001906020020151614138565b604051600081526020016040526040518085600019166000191681526020018460ff1660ff1681526020018360001916600019168152602001826000191660001916815260200194505050505060206040516020810390808403906000865af1158015611c94573d6000803e3d6000fd5b5050506020604051035173ffffffffffffffffffffffffffffffffffffffff168173ffffffffffffffffffffffffffffffffffffffff16141515611d66576040517f08c379a000000000000000000000000000000000000000000000000000000000815260040180806020018281038252602c8152602001807f5769746864726177616c5478206e6f74207369676e6564206279206c6173745481526020017f782072656365697069656e74000000000000000000000000000000000000000081525060400191505060405180910390fd5b856001611da76000611d99611d92886005815181101515611d8357fe5b90602001906020020151613e07565b6004613e75565b613efe90919063ffffffff16565b01141515611e1d576040517f08c379a00000000000000000000000000000000000000000000000000000000081526004018080602001828103825260138152602001807f6e6f6e63657320646f206e6f74206d617463680000000000000000000000000081525060200191505060405180910390fd5b6000600b60008c815260200190815260200160002054141515611e3f57600080fd5b6102584201600b60008c81526020019081526020016000208190555085600f60008c81526020019081526020016000208190555080600c60008c815260200190815260200160002060006101000a81548173ffffffffffffffffffffffffffffffffffffffff021916908373ffffffffffffffffffffffffffffffffffffffff1602179055508a600d60008c815260200190815260200160002060006101000a81548173ffffffffffffffffffffffffffffffffffffffff021916908373ffffffffffffffffffffffffffffffffffffffff16021790555034600e60008c815260200190815260200160002081905550898b73ffffffffffffffffffffffffffffffffffffffff167f650fdf669e93aa6c8ff3defe2da9c12b64f1548e5e1e54e803f4c1beb6466c8e3489604051808381526020018281526020019250505060405180910390a35050505050505050505050565b60076020528060005260406000206000915090505481565b60006060806000600b60008981526020019081526020016000205414151515611fd357600080fd5b42600b600089815260200190815260200160002054111515611ff457600080fd5b6120416005612033600f60008b8152602001908152602001600020546120253a600a5461406b90919063ffffffff16565b61406b90919063ffffffff16565b61414d90919063ffffffff16565b341015151561204f57600080fd5b61205a868685613546565b61211c61211784600081548110151561206f57fe5b906000526020600020018054600181600116156101000203166002900480601f01602080910402602001604051908101604052809291908181526020018280546001816001161561010002031660029004801561210d5780601f106120e25761010080835404028352916020019161210d565b820191906000526020600020905b8154815290600101906020018083116120f057829003601f168201915b50505050506135fd565b613658565b91506121e06121db84600181548110151561213357fe5b906000526020600020018054600181600116156101000203166002900480601f0160208091040260200160405190810160405280929190818152602001828054600181600116156101000203166002900480156121d15780601f106121a6576101008083540402835291602001916121d1565b820191906000526020600020905b8154815290600101906020018083116121b457829003601f168201915b50505050506135fd565b613658565b905061220582828660018151811015156121f657fe5b90602001906020020151613715565b612243600061223561222e85600581518110151561221f57fe5b90602001906020020151613e07565b6003613e75565b613efe90919063ffffffff16565b871415156122df576040517f08c379a00000000000000000000000000000000000000000000000000000000081526004018080602001828103825260228152602001807f6e6565647320746f20726566657220746f207468652073616d6520746f6b656e81526020017f496400000000000000000000000000000000000000000000000000000000000081525060400191505060405180910390fd5b61231d600c61230f6123088560058151811015156122f957fe5b90602001906020020151613e07565b6001613e75565b613ec690919063ffffffff16565b73ffffffffffffffffffffffffffffffffffffffff166008600089815260200190815260200160002060009054906101000a900473ffffffffffffffffffffffffffffffffffffffff1673ffffffffffffffffffffffffffffffffffffffff16141515612418576040517f08c379a00000000000000000000000000000000000000000000000000000000081526004018080602001828103825260358152602001807f746f6b656e206e6565647320746f206265207472616e7366657265642066726f81526020017f6d206c6173742070726f76656e20637573746f6479000000000000000000000081525060400191505060405180910390fd5b612456600c61244861244185600581518110151561243257fe5b90602001906020020151613e07565b6002613e75565b613ec690919063ffffffff16565b6008600089815260200190815260200160002060006101000a81548173ffffffffffffffffffffffffffffffffffffffff021916908373ffffffffffffffffffffffffffffffffffffffff16021790555034600e600089815260200190815260200160002060008282540192505081905550876011600089815260200190815260200160002060006101000a81548173ffffffffffffffffffffffffffffffffffffffff021916908373ffffffffffffffffffffffffffffffffffffffff160217905550600160106000898152602001908152602001600020819055508773ffffffffffffffffffffffffffffffffffffffff163373ffffffffffffffffffffffffffffffffffffffff167f5331871e026683c9fc9f966209853fdbd75ee7b21e9b4880849a76970c60f1d4896040518082815260200191505060405180910390a35050505050505050565b346006600082825401925050819055506125d834600760008581526020019081526020016000205461416890919063ffffffff16565b6007600084815260200190815260200160002081905550806008600084815260200190815260200160002060006101000a81548173ffffffffffffffffffffffffffffffffffffffff021916908373ffffffffffffffffffffffffffffffffffffffff1602179055503373ffffffffffffffffffffffffffffffffffffffff167f02d7e648dd130fc184d383e55bb126ac4c9c60e8f94bf05acdf557ba2d540b47348484604051808481526020018381526020018273ffffffffffffffffffffffffffffffffffffffff1673ffffffffffffffffffffffffffffffffffffffff168152602001935050505060405180910390a25050565b600080600080604185511415156126e957600093506127be565b602085015192506040850151915060ff6041860151169050601b8160ff16101561271457601b810190505b601b8160ff161415801561272c5750601c8160ff1614155b1561273a57600093506127be565b600186828585604051600081526020016040526040518085600019166000191681526020018460ff1660ff1681526020018360001916600019168152602001826000191660001916815260200194505050505060206040516020810390808403906000865af11580156127b1573d6000803e3d6000fd5b5050506020604051035193505b50505092915050565b6127d18282613e75565b505050565b60106020528060005260406000206000915090505481565b6000606080606080612801888887613546565b6128c36128be86600081548110151561281657fe5b906000526020600020018054600181600116156101000203166002900480601f0160208091040260200160405190810160405280929190818152602001828054600181600116156101000203166002900480156128b45780601f10612889576101008083540402835291602001916128b4565b820191906000526020600020905b81548152906001019060200180831161289757829003601f168201915b50505050506135fd565b613658565b93506129876129828660018154811015156128da57fe5b906000526020600020018054600181600116156101000203166002900480601f0160208091040260200160405190810160405280929190818152602001828054600181600116156101000203166002900480156129785780601f1061294d57610100808354040283529160200191612978565b820191906000526020600020905b81548152906001019060200180831161295b57829003601f168201915b50505050506135fd565b613658565b9250612a4b612a4686600281548110151561299e57fe5b906000526020600020018054600181600116156101000203166002900480601f016020809104026020016040519081016040528092919081815260200182805460018160011615610100020316600290048015612a3c5780601f10612a1157610100808354040283529160200191612a3c565b820191906000526020600020905b815481529060010190602001808311612a1f57829003601f168201915b50505050506135fd565b613658565b9150612b0f612b0a866003815481101515612a6257fe5b906000526020600020018054600181600116156101000203166002900480601f016020809104026020016040519081016040528092919081815260200182805460018160011615610100020316600290048015612b005780601f10612ad557610100808354040283529160200191612b00565b820191906000526020600020905b815481529060010190602001808311612ae357829003601f168201915b50505050506135fd565b613658565b9050612b348484886001815181101515612b2557fe5b90602001906020020151613715565b612b578282886003815181101515612b4857fe5b90602001906020020151613715565b612b956000612b87612b80876005815181101515612b7157fe5b90602001906020020151613e07565b6003613e75565b613efe90919063ffffffff16565b89141515612c31576040517f08c379a00000000000000000000000000000000000000000000000000000000081526004018080602001828103825260228152602001807f6e6565647320746f20726566657220746f207468652073616d6520746f6b656e81526020017f496400000000000000000000000000000000000000000000000000000000000081525060400191505060405180910390fd5b612c6f6000612c61612c5a856005815181101515612c4b57fe5b90602001906020020151613e07565b6003613e75565b613efe90919063ffffffff16565b89141515612d0b576040517f08c379a00000000000000000000000000000000000000000000000000000000081526004018080602001828103825260228152602001807f6e6565647320746f20726566657220746f207468652073616d6520746f6b656e81526020017f496400000000000000000000000000000000000000000000000000000000000081525060400191505060405180910390fd5b612d496000612d3b612d34876005815181101515612d2557fe5b90602001906020020151613e07565b6004613e75565b613efe90919063ffffffff16565b612d876000612d79612d72866005815181101515612d6357fe5b90602001906020020151613e07565b6004613e75565b613efe90919063ffffffff16565b141515612dfc576040517f08c379a00000000000000000000000000000000000000000000000000000000081526004018080602001828103825260208152602001807f6e6565647320746f20726566657220746f207468652073616d65206e6f6e636581525060200191505060405180910390fd5b6000600481905550600060058190555050505050505050505050565b600f6020528060005260406000206000915090505481565b3373ffffffffffffffffffffffffffffffffffffffff16600260009054906101000a900473ffffffffffffffffffffffffffffffffffffffff1673ffffffffffffffffffffffffffffffffffffffff16141515612e8c57600080fd5b60405180807f7072655374616b65640000000000000000000000000000000000000000000000815250600901905060405180910390206000191660006040518082805460018160011615610100020316600290048015612f235780601f10612f01576101008083540402835291820191612f23565b820191906000526020600020905b815481529060010190602001808311612f0f575b5050915050604051809103902060001916141515612f4057600080fd5b80600160006101000a81548173ffffffffffffffffffffffffffffffffffffffff021916908373ffffffffffffffffffffffffffffffffffffffff16021790555050565b60006060806000600b60008981526020019081526020016000205414151515612fac57600080fd5b42600b600089815260200190815260200160002054111515612fcd57600080fd5b612fd8868685613546565b61309a613095846000815481101515612fed57fe5b906000526020600020018054600181600116156101000203166002900480601f01602080910402602001604051908101604052809291908181526020018280546001816001161561010002031660029004801561308b5780601f106130605761010080835404028352916020019161308b565b820191906000526020600020905b81548152906001019060200180831161306e57829003601f168201915b50505050506135fd565b613658565b915061315e6131598460018154811015156130b157fe5b906000526020600020018054600181600116156101000203166002900480601f01602080910402602001604051908101604052809291908181526020018280546001816001161561010002031660029004801561314f5780601f106131245761010080835404028352916020019161314f565b820191906000526020600020905b81548152906001019060200180831161313257829003601f168201915b50505050506135fd565b613658565b9050613183828286600181518110151561317457fe5b90602001906020020151613715565b6131c1600c6131b36131ac85600581518110151561319d57fe5b90602001906020020151613e07565b6001613e75565b613ec690919063ffffffff16565b73ffffffffffffffffffffffffffffffffffffffff16600c600089815260200190815260200160002060009054906101000a900473ffffffffffffffffffffffffffffffffffffffff1673ffffffffffffffffffffffffffffffffffffffff161415156132bc576040517f08c379a00000000000000000000000000000000000000000000000000000000081526004018080602001828103825260358152602001807f746f6b656e206e6565647320746f206265207472616e7366657265642066726f81526020017f6d206c6173742070726f76656e20637573746f6479000000000000000000000081525060400191505060405180910390fd5b6132fa60006132ec6132e58560058151811015156132d657fe5b90602001906020020151613e07565b6003613e75565b613efe90919063ffffffff16565b87141515613396576040517f08c379a00000000000000000000000000000000000000000000000000000000081526004018080602001828103825260228152602001807f6e6565647320746f20726566657220746f207468652073616d6520746f6b656e81526020017f496400000000000000000000000000000000000000000000000000000000000081525060400191505060405180910390fd5b8773ffffffffffffffffffffffffffffffffffffffff166108fc600e60008a8152602001908152602001600020549081150290604051600060405180830381858888f19350505050506133e887613f27565b5050505050505050565b3373ffffffffffffffffffffffffffffffffffffffff16600260009054906101000a900473ffffffffffffffffffffffffffffffffffffffff1673ffffffffffffffffffffffffffffffffffffffff1614151561344e57600080fd5b60405180807f7072655374616b656400000000000000000000000000000000000000000000008152506009019050604051809103902060001916600060405180828054600181600116156101000203166002900480156134e55780601f106134c35761010080835404028352918201916134e5565b820191906000526020600020905b8154815290600101906020018083116134d1575b505091505060405180910390206000191614151561350257600080fd5b80600360006101000a81548173ffffffffffffffffffffffffffffffffffffffff021916908373ffffffffffffffffffffffffffffffffffffffff16021790555050565b60008060009150600090505b83518110156135f65761357d8583868481518110151561356e57fe5b90602001906020020151614186565b838281548110151561358b57fe5b9060005260206000200190805190602001906135a892919061494e565b506135d384828151811015156135ba57fe5b906020019060200201518361416890919063ffffffff16565b91506040828115156135e157fe5b06604003820191508080600101915050613552565b5050505050565b6136056149ce565b6000808351915060008214156136335760408051908101604052806000815260200160008152509250613651565b60208401905060408051908101604052808281526020018381525092505b5050919050565b606060006136646149e8565b600061366f8561428b565b151561367a57600080fd5b613683856142bd565b9250826040519080825280602002602001820160405280156136bf57816020015b6136ac614a09565b8152602001906001900390816136a45790505b5093506136cb85614337565b91505b6136d78261437f565b1561370d576136e5826143a9565b84828151811015156136f357fe5b9060200190602002018190525080806001019150506136ce565b505050919050565b600160009054906101000a900473ffffffffffffffffffffffffffffffffffffffff1673ffffffffffffffffffffffffffffffffffffffff1661376f84600381518110151561376057fe5b9060200190602002015161409e565b73ffffffffffffffffffffffffffffffffffffffff1614151561379157600080fd5b600160009054906101000a900473ffffffffffffffffffffffffffffffffffffffff1673ffffffffffffffffffffffffffffffffffffffff166137eb8360038151811015156137dc57fe5b9060200190602002015161409e565b73ffffffffffffffffffffffffffffffffffffffff1614151561380d57600080fd5b600960089054906101000a90047c0100000000000000000000000000000000000000000000000000000000027bffffffffffffffffffffffffffffffffffffffffffffffffffffffff191661388d61388661387f86600581518110151561387057fe5b90602001906020020151613e07565b6000613e75565b6000614405565b7bffffffffffffffffffffffffffffffffffffffffffffffffffffffff1916141515613947576040517f08c379a00000000000000000000000000000000000000000000000000000000081526004018080602001828103825260288152602001807f5f7472616e736665725478206973206e6f74207472616e7366657246726f6d2081526020017f66756e6374696f6e00000000000000000000000000000000000000000000000081525060400191505060405180910390fd5b6009600c9054906101000a90047c0100000000000000000000000000000000000000000000000000000000027bffffffffffffffffffffffffffffffffffffffffffffffffffffffff19166139c76139c06139b98560058151811015156139aa57fe5b90602001906020020151613e07565b6000613e75565b6000614405565b7bffffffffffffffffffffffffffffffffffffffffffffffffffffffff1916141515613a81576040517f08c379a00000000000000000000000000000000000000000000000000000000081526004018080602001828103825260258152602001807f5f637573746f6469616e5478206973206e6f7420637573746f6469616e41707081526020017f726f76616c00000000000000000000000000000000000000000000000000000081525060400191505060405180910390fd5b600181613aa5846006815181101515613a9657fe5b906020019060200201516140e5565b613ac6856007815181101515613ab757fe5b90602001906020020151614138565b613ae7866008815181101515613ad857fe5b90602001906020020151614138565b604051600081526020016040526040518085600019166000191681526020018460ff1660ff1681526020018360001916600019168152602001826000191660001916815260200194505050505060206040516020810390808403906000865af1158015613b58573d6000803e3d6000fd5b5050506020604051035173ffffffffffffffffffffffffffffffffffffffff16600360009054906101000a900473ffffffffffffffffffffffffffffffffffffffff1673ffffffffffffffffffffffffffffffffffffffff16141515613c4c576040517f08c379a000000000000000000000000000000000000000000000000000000000815260040180806020018281038252602a8152602001807f5f637573746f6469616e54782073686f756c64206265207369676e656420627981526020017f20637573746f6469616e0000000000000000000000000000000000000000000081525060400191505060405180910390fd5b613cb3613c7a613c73846005815181101515613c6457fe5b90602001906020020151613e07565b6001613e75565b613ca5613c9e866005815181101515613c8f57fe5b90602001906020020151613e07565b6003613e75565b6144fe90919063ffffffff16565b1515613d27576040517f08c379a00000000000000000000000000000000000000000000000000000000081526004018080602001828103825260168152602001807f746f6b656e5f69647320646f206e6f74206d617463680000000000000000000081525060200191505060405180910390fd5b613d8e613d55613d4e846005815181101515613d3f57fe5b90602001906020020151613e07565b6002613e75565b613d80613d79866005815181101515613d6a57fe5b90602001906020020151613e07565b6004613e75565b6144fe90919063ffffffff16565b1515613e02576040517f08c379a00000000000000000000000000000000000000000000000000000000081526004018080602001828103825260138152602001807f6e6f6e63657320646f206e6f74206d617463680000000000000000000000000081525060200191505060405180910390fd5b505050565b6060600080613e158461456d565b1515613e2057600080fd5b613e298461459e565b91509150806040519080825280601f01601f191660200182016040528015613e605781602001602082028038833980820191505090505b509250613e6e82848361461f565b5050919050565b60606000821415613e9e57613e9760006005856146609092919063ffffffff16565b9050613ec0565b613ebd602060018403026004016020856146609092919063ffffffff16565b90505b92915050565b60008060148301845110151515613edc57600080fd5b6c01000000000000000000000000836020860101510490508091505092915050565b60008060208301845110151515613f1457600080fd5b8260208501015190508091505092915050565b6000600e6000838152602001908152602001600020819055506000600d600083815260200190815260200160002060006101000a81548173ffffffffffffffffffffffffffffffffffffffff021916908373ffffffffffffffffffffffffffffffffffffffff1602179055506000600c600083815260200190815260200160002060006101000a81548173ffffffffffffffffffffffffffffffffffffffff021916908373ffffffffffffffffffffffffffffffffffffffff1602179055506000600f6000838152602001908152602001600020819055506000600b600083815260200190815260200160002081905550600060106000838152602001908152602001600020819055507f7874ca11ed47a2bbe287f114874e02e047a1261400f57712590c8f364b126501816040518082815260200191505060405180910390a150565b6000808284029050600084148061408c575082848281151561408957fe5b04145b151561409457fe5b8091505092915050565b60008060006140ac8461456d565b15156140b757600080fd5b6140c08461459e565b915091506014811415156140d357600080fd5b600c6101000a82510492505050919050565b60008060006140f38461456d565b15156140fe57600080fd5b6141078461459e565b91509150602081118061411a5750600081145b1561412457600080fd5b806020036101000a82510492505050919050565b6000614143826140e5565b6001029050919050565b600080828481151561415b57fe5b0490508091505092915050565b600080828401905083811015151561417c57fe5b8091505092915050565b60608060008060006141a260408861414d90919063ffffffff16565b92506141b7868861416890919063ffffffff16565b91506141cd60408361414d90919063ffffffff16565b90505b808310156142195761420a6141fb89858151811015156141ec57fe5b906020019060200201516146ed565b8561471e90919063ffffffff16565b935082806001019350506141d0565b61427b61426c60006001600260408781151561423157fe5b0681151561423b57fe5b040361425d8c8681518110151561424e57fe5b906020019060200201516146ed565b6146609092919063ffffffff16565b8561471e90919063ffffffff16565b9350839450505050509392505050565b6000806000836020015114156142a457600091506142b7565b8260000151905060c0815160001a101591505b50919050565b6000806000806000806142cf8761428b565b15156142de576000955061432d565b86600001519350835160001a94506142f5876147a8565b840192506001876020015185010391505b81831115156143295761431883614834565b830192508080600101915050614306565b8095505b5050505050919050565b61433f6149e8565b600061434a8361428b565b151561435557600080fd5b61435e836147a8565b83600001510190508282600001819052508082602001818152505050919050565b60006143896149ce565b826000015190508060200151816000015101836020015110915050919050565b6143b16149ce565b6000806143bd8461437f565b156143f957836020015191506143d282614834565b905081836000018181525050808360200181815250508082018460200181815250506143fe565b600080fd5b5050919050565b60008060008090505b60048110156144f3576008810260ff7f0100000000000000000000000000000000000000000000000000000000000000028683870181518110151561444f57fe5b9060200101517f010000000000000000000000000000000000000000000000000000000000000090047f010000000000000000000000000000000000000000000000000000000000000002167effffffffffffffffffffffffffffffffffffffffffffffffffffffffffffff19167bffffffffffffffffffffffffffffffffffffffffffffffffffffffff19169060020a900482179150808060010191505061440e565b819250505092915050565b600080600190508351835181146001811461451c5760009250614561565b600160208701838101602088015b60028483851001141561455c578051835114151561454b5760009650600093505b60208301925060208101905061452a565b505050505b50508091505092915050565b6000806000836020015114156145865760009150614598565b8260000151905060c0815160001a1091505b50919050565b60008060008060006145af8661456d565b15156145ba57600080fd5b85600001519150815160001a925060808310156145dd5781945060019350614617565b60b88310156145fb5760018660200151039350600182019450614616565b60b78303905080600187602001510303935060018183010194505b5b505050915091565b60006020601f83010484602085015b82841461464d576020840280830151818301526001850194505061462e565b6000865160200187015250505050505050565b60608082840185511015151561467557600080fd5b821560008114614690576040519150602082016040526146e1565b6040519150601f8416801560200281840101858101878315602002848b0101015b818310156146ce57805183526020830192506020810190506146b1565b50868552601f19601f8301166040525050505b50809150509392505050565b6060816040516020018082600019166000191681526020019150506040516020818303038152906040529050919050565b6060806040519050835180825260208201818101602087015b818310156147545780518352602083019250602081019050614737565b50855192508351830184528091508282019050602086015b81831015614789578051835260208301925060208101905061476c565b50601f19601f8851850115830101166040525050508091505092915050565b600080600080846020015114156147c2576000925061482d565b83600001519050805160001a915060808210156147e2576000925061482d565b60b88210806147fe575060c082101580156147fd575060f882105b5b1561480c576001925061482d565b60c082101561482357600160b7830301925061482d565b600160f783030192505b5050919050565b600080825160001a9050608081101561485057600191506148c8565b60b8811015614867576001608082030191506148c7565b60c08110156148915760b78103806020036101000a600185015104808201600101935050506148c6565b60f88110156148a857600160c082030191506148c5565b60f78103806020036101000a600185015104808201600101935050505b5b5b5b50919050565b828054600181600116156101000203166002900490600052602060002090601f016020900481019282601f1061490f57805160ff191683800117855561493d565b8280016001018555821561493d579182015b8281111561493c578251825591602001919060010190614921565b5b50905061494a9190614a23565b5090565b828054600181600116156101000203166002900490600052602060002090601f016020900481019282601f1061498f57805160ff19168380011785556149bd565b828001600101855582156149bd579182015b828111156149bc5782518255916020019190600101906149a1565b5b5090506149ca9190614a23565b5090565b604080519081016040528060008152602001600081525090565b6060604051908101604052806149fc614a09565b8152602001600081525090565b604080519081016040528060008152602001600081525090565b614a4591905b80821115614a41576000816000905550600101614a29565b5090565b905600a165627a7a723058206b827bd02ade4369daa6a52865dd15361bb14353b9daccd9284701c7012f17560029",
  "source": "pragma solidity ^0.4.24;\n\nimport \"../DepositContract.sol\";\n\ncontract DepositContractMock is DepositContract {\n  constructor(address _custodian) public\n    DepositContract(custodian)\n  { }\n\n  function _parseData(bytes _data, uint256 _i) public {\n    super.parseData(_data, _i);\n  }\n\n  // function _splitTxBundle(bytes _rawTxBundle, uint256[] _txLengths, bytes[] storage _rawTxList) public {\n  //   super.splitTxBundle(_data, _i);\n  // }\n\n\n}",
  "sourcePath": "/home/user/peacebridge/contracts/mocks/DepositContractMock.sol",
  "compiler": {
    "name": "solc",
    "version": "0.4.24+commit.e67f0147.Emscripten.clang"
  },
  "schemaVersion": "3.0.6",
  "updatedAt": "2019-04-13T03:40:43.366Z",
  "devdoc": {
    "methods": {}
  },
  "userdoc": {
    "methods": {}
  }
}