{
  "contractName": "DepositContract",
  "abi": [
    {
      "constant": true,
      "inputs": [
        {
          "name": "",
          "type": "uint256"
        }
      ],
      "name": "tokenIdToMinter",
      "outputs": [
        {
          "name": "",
          "type": "address"
        }
      ],
      "payable": false,
      "stateMutability": "view",
      "type": "function"
    },
    {
      "constant": true,
      "inputs": [
        {
          "name": "",
          "type": "uint256"
        }
      ],
      "name": "tokenIdToAmount",
      "outputs": [
        {
          "name": "",
          "type": "uint256"
        }
      ],
      "payable": false,
      "stateMutability": "view",
      "type": "function"
    },
    {
      "inputs": [
        {
          "name": "_custodian",
          "type": "address"
        }
      ],
      "payable": false,
      "stateMutability": "nonpayable",
      "type": "constructor"
    },
    {
      "payable": true,
      "stateMutability": "payable",
      "type": "fallback"
    },
    {
      "anonymous": false,
      "inputs": [
        {
          "indexed": true,
          "name": "depositer",
          "type": "address"
        },
        {
          "indexed": false,
          "name": "amount",
          "type": "uint256"
        },
        {
          "indexed": false,
          "name": "tokenId",
          "type": "uint256"
        },
        {
          "indexed": false,
          "name": "minter",
          "type": "address"
        }
      ],
      "name": "Deposit",
      "type": "event"
    },
    {
      "anonymous": false,
      "inputs": [
        {
          "indexed": true,
          "name": "challenger",
          "type": "address"
        },
        {
          "indexed": true,
          "name": "depositedTo",
          "type": "address"
        },
        {
          "indexed": false,
          "name": "tokenId",
          "type": "uint256"
        }
      ],
      "name": "ChallengeInitiated",
      "type": "event"
    },
    {
      "anonymous": false,
      "inputs": [
        {
          "indexed": true,
          "name": "rechallenger",
          "type": "address"
        },
        {
          "indexed": true,
          "name": "depositedTo",
          "type": "address"
        },
        {
          "indexed": false,
          "name": "tokenId",
          "type": "uint256"
        },
        {
          "indexed": false,
          "name": "finalChallengeNonce",
          "type": "uint256"
        }
      ],
      "name": "Challenge",
      "type": "event"
    },
    {
      "anonymous": false,
      "inputs": [
        {
          "indexed": false,
          "name": "tokenId",
          "type": "uint256"
        }
      ],
      "name": "ChallengeResolved",
      "type": "event"
    },
    {
      "anonymous": false,
      "inputs": [
        {
          "indexed": true,
          "name": "withdrawer",
          "type": "address"
        },
        {
          "indexed": true,
          "name": "tokenId",
          "type": "uint256"
        },
        {
          "indexed": false,
          "name": "stakedAmount",
          "type": "uint256"
        }
      ],
      "name": "Withdrawal",
      "type": "event"
    },
    {
      "anonymous": false,
      "inputs": [
        {
          "indexed": false,
          "name": "tx1",
          "type": "bytes"
        },
        {
          "indexed": false,
          "name": "tx2",
          "type": "bytes"
        },
        {
          "indexed": false,
          "name": "tx3",
          "type": "bytes"
        }
      ],
      "name": "Test",
      "type": "event"
    },
    {
      "anonymous": false,
      "inputs": [
        {
          "indexed": false,
          "name": "out",
          "type": "bytes"
        }
      ],
      "name": "Trace",
      "type": "event"
    },
    {
      "anonymous": false,
      "inputs": [
        {
          "indexed": false,
          "name": "out",
          "type": "address"
        }
      ],
      "name": "TraceAddress",
      "type": "event"
    },
    {
      "anonymous": false,
      "inputs": [
        {
          "indexed": false,
          "name": "out",
          "type": "bytes32"
        }
      ],
      "name": "Trace32",
      "type": "event"
    },
    {
      "anonymous": false,
      "inputs": [
        {
          "indexed": false,
          "name": "out",
          "type": "uint256"
        }
      ],
      "name": "TraceUint256",
      "type": "event"
    },
    {
      "constant": false,
      "inputs": [
        {
          "name": "_tokenContract",
          "type": "address"
        }
      ],
      "name": "setTokenContract",
      "outputs": [],
      "payable": false,
      "stateMutability": "nonpayable",
      "type": "function"
    },
    {
      "constant": false,
      "inputs": [
        {
          "name": "_custodianForeign",
          "type": "address"
        }
      ],
      "name": "setCustodianForeign",
      "outputs": [],
      "payable": false,
      "stateMutability": "nonpayable",
      "type": "function"
    },
    {
      "constant": false,
      "inputs": [],
      "name": "finalizeStake",
      "outputs": [],
      "payable": false,
      "stateMutability": "nonpayable",
      "type": "function"
    },
    {
      "constant": false,
      "inputs": [
        {
          "name": "_tokenId",
          "type": "uint256"
        },
        {
          "name": "_minter",
          "type": "address"
        }
      ],
      "name": "deposit",
      "outputs": [],
      "payable": true,
      "stateMutability": "payable",
      "type": "function"
    },
    {
      "constant": false,
      "inputs": [
        {
          "name": "_to",
          "type": "address"
        },
        {
          "name": "_tokenId",
          "type": "uint256"
        },
        {
          "name": "_rawTxBundle",
          "type": "bytes32[]"
        },
        {
          "name": "_txLengths",
          "type": "uint256[]"
        },
        {
          "name": "_txMsgHashes",
          "type": "bytes32[]"
        },
        {
          "name": "_declaredNonce",
          "type": "uint256"
        }
      ],
      "name": "withdraw",
      "outputs": [],
      "payable": true,
      "stateMutability": "payable",
      "type": "function"
    },
    {
      "constant": false,
      "inputs": [
        {
          "name": "_tokenId",
          "type": "uint256"
        }
      ],
      "name": "claim",
      "outputs": [],
      "payable": false,
      "stateMutability": "nonpayable",
      "type": "function"
    },
    {
      "constant": false,
      "inputs": [
        {
          "name": "_to",
          "type": "address"
        },
        {
          "name": "_tokenId",
          "type": "uint256"
        },
        {
          "name": "_rawTxBundle",
          "type": "bytes32[]"
        },
        {
          "name": "_txLengths",
          "type": "uint256[]"
        },
        {
          "name": "_txMsgHashes",
          "type": "bytes32[]"
        }
      ],
      "name": "challengeWithFutureCustody",
      "outputs": [],
      "payable": false,
      "stateMutability": "nonpayable",
      "type": "function"
    },
    {
      "constant": false,
      "inputs": [
        {
          "name": "_to",
          "type": "address"
        },
        {
          "name": "_tokenId",
          "type": "uint256"
        },
        {
          "name": "_rawTxBundle",
          "type": "bytes32[]"
        },
        {
          "name": "_txLengths",
          "type": "uint256[]"
        },
        {
          "name": "_txMsgHashes",
          "type": "bytes32[]"
        }
      ],
      "name": "initiateChallengeWithPastCustody",
      "outputs": [],
      "payable": true,
      "stateMutability": "payable",
      "type": "function"
    },
    {
      "constant": false,
      "inputs": [
        {
          "name": "_to",
          "type": "address"
        },
        {
          "name": "_tokenId",
          "type": "uint256"
        },
        {
          "name": "_rawTxBundle",
          "type": "bytes32[]"
        },
        {
          "name": "_txLengths",
          "type": "uint256[]"
        },
        {
          "name": "_txMsgHashes",
          "type": "bytes32[]"
        }
      ],
      "name": "challengeWithPastCustody",
      "outputs": [],
      "payable": false,
      "stateMutability": "nonpayable",
      "type": "function"
    },
    {
      "constant": false,
      "inputs": [
        {
          "name": "_to",
          "type": "address"
        },
        {
          "name": "_tokenId",
          "type": "uint256"
        },
        {
          "name": "_rawTxBundle",
          "type": "bytes32[]"
        },
        {
          "name": "_txLengths",
          "type": "uint256[]"
        },
        {
          "name": "_txMsgHashes",
          "type": "bytes32[]"
        }
      ],
      "name": "submitCustodianDoubleSign",
      "outputs": [],
      "payable": false,
      "stateMutability": "nonpayable",
      "type": "function"
    },
    {
      "constant": false,
      "inputs": [
        {
          "name": "hash",
          "type": "bytes32"
        },
        {
          "name": "sig",
          "type": "bytes"
        }
      ],
      "name": "ecrecovery",
      "outputs": [
        {
          "name": "",
          "type": "address"
        }
      ],
      "payable": false,
      "stateMutability": "nonpayable",
      "type": "function"
    },
    {
      "constant": false,
      "inputs": [
        {
          "name": "hash",
          "type": "bytes32"
        },
        {
          "name": "sig",
          "type": "bytes"
        },
        {
          "name": "signer",
          "type": "address"
        }
      ],
      "name": "ecverify",
      "outputs": [
        {
          "name": "",
          "type": "bool"
        }
      ],
      "payable": false,
      "stateMutability": "nonpayable",
      "type": "function"
    }
  ],
  "bytecode": "0x60806040526040805190810160405280600981526020017f7072655374616b6564000000000000000000000000000000000000000000000081525060009080519060200190620000519291906200024a565b506394bf804d7c010000000000000000000000000000000000000000000000000000000002600960006101000a81548163ffffffff02191690837c010000000000000000000000000000000000000000000000000000000090040217905550632e1a7d4d7c010000000000000000000000000000000000000000000000000000000002600960046101000a81548163ffffffff02191690837c01000000000000000000000000000000000000000000000000000000009004021790555063fe99049a7c010000000000000000000000000000000000000000000000000000000002600960086101000a81548163ffffffff02191690837c010000000000000000000000000000000000000000000000000000000090040217905550636e3c045e7c0100000000000000000000000000000000000000000000000000000000026009600c6101000a81548163ffffffff02191690837c010000000000000000000000000000000000000000000000000000000090040217905550620325aa600a55348015620001de57600080fd5b50604051602080620049e68339810180604052810190808051906020019092919050505080600260006101000a81548173ffffffffffffffffffffffffffffffffffffffff021916908373ffffffffffffffffffffffffffffffffffffffff16021790555050620002f9565b828054600181600116156101000203166002900490600052602060002090601f016020900481019282601f106200028d57805160ff1916838001178555620002be565b82800160010185558215620002be579182015b82811115620002bd578251825591602001919060010190620002a0565b5b509050620002cd9190620002d1565b5090565b620002f691905b80821115620002f2576000816000905550600101620002d8565b5090565b90565b6146dd80620003096000396000f3006080604052600436106100d0576000357c0100000000000000000000000000000000000000000000000000000000900463ffffffff1680632218f119146100d25780632310b3841461013f57806324241ebc14610156578063379607f51461026c57806339cdde321461029957806359c8969e146103485780635d8d58871461045b5780636d08e8f91461049c5780636e553f65146105a557806377d32e94146105e557806396b6af5a1461069c578063bbcd5bbe146107b2578063d7de57c6146107f5578063fb9efcf01461090b575b005b3480156100de57600080fd5b506100fd6004803603810190808035906020019092919050505061094e565b604051808273ffffffffffffffffffffffffffffffffffffffff1673ffffffffffffffffffffffffffffffffffffffff16815260200191505060405180910390f35b34801561014b57600080fd5b50610154610981565b005b34801561016257600080fd5b5061026a600480360381019080803573ffffffffffffffffffffffffffffffffffffffff16906020019092919080359060200190929190803590602001908201803590602001908080602002602001604051908101604052809392919081815260200183836020028082843782019150505050505091929192908035906020019082018035906020019080806020026020016040519081016040528093929190818152602001838360200280828437820191505050505050919291929080359060200190820180359060200190808060200260200160405190810160405280939291908181526020018383602002808284378201915050505050509192919290505050610b23565b005b34801561027857600080fd5b506102976004803603810190808035906020019092919050505061117f565b005b3480156102a557600080fd5b5061032e6004803603810190808035600019169060200190929190803590602001908201803590602001908080601f0160208091040260200160405190810160405280939291908181526020018383808284378201915050505050509192919290803573ffffffffffffffffffffffffffffffffffffffff16906020019092919050505061149e565b604051808215151515815260200191505060405180910390f35b610459600480360381019080803573ffffffffffffffffffffffffffffffffffffffff16906020019092919080359060200190929190803590602001908201803590602001908080602002602001604051908101604052809392919081815260200183836020028082843782019150505050505091929192908035906020019082018035906020019080806020026020016040519081016040528093929190818152602001838360200280828437820191505050505050919291929080359060200190820180359060200190808060200260200160405190810160405280939291908181526020018383602002808284378201915050505050509192919290803590602001909291905050506114e1565b005b34801561046757600080fd5b5061048660048036038101908080359060200190929190505050611c3b565b6040518082815260200191505060405180910390f35b6105a3600480360381019080803573ffffffffffffffffffffffffffffffffffffffff16906020019092919080359060200190929190803590602001908201803590602001908080602002602001604051908101604052809392919081815260200183836020028082843782019150505050505091929192908035906020019082018035906020019080806020026020016040519081016040528093929190818152602001838360200280828437820191505050505050919291929080359060200190820180359060200190808060200260200160405190810160405280939291908181526020018383602002808284378201915050505050509192919290505050611c53565b005b6105e360048036038101908080359060200190929190803573ffffffffffffffffffffffffffffffffffffffff16906020019092919050505061224a565b005b3480156105f157600080fd5b5061065a6004803603810190808035600019169060200190929190803590602001908201803590602001908080601f0160208091040260200160405190810160405280939291908181526020018383808284378201915050505050509192919290505050612377565b604051808273ffffffffffffffffffffffffffffffffffffffff1673ffffffffffffffffffffffffffffffffffffffff16815260200191505060405180910390f35b3480156106a857600080fd5b506107b0600480360381019080803573ffffffffffffffffffffffffffffffffffffffff1690602001909291908035906020019092919080359060200190820180359060200190808060200260200160405190810160405280939291908181526020018383602002808284378201915050505050509192919290803590602001908201803590602001908080602002602001604051908101604052809392919081815260200183836020028082843782019150505050505091929192908035906020019082018035906020019080806020026020016040519081016040528093929190818152602001838360200280828437820191505050505050919291929050505061246f565b005b3480156107be57600080fd5b506107f3600480360381019080803573ffffffffffffffffffffffffffffffffffffffff169060200190929190505050612a99565b005b34801561080157600080fd5b50610909600480360381019080803573ffffffffffffffffffffffffffffffffffffffff16906020019092919080359060200190929190803590602001908201803590602001908080602002602001604051908101604052809392919081815260200183836020028082843782019150505050505091929192908035906020019082018035906020019080806020026020016040519081016040528093929190818152602001838360200280828437820191505050505050919291929080359060200190820180359060200190808060200260200160405190810160405280939291908181526020018383602002808284378201915050505050509192919290505050612bed565b005b34801561091757600080fd5b5061094c600480360381019080803573ffffffffffffffffffffffffffffffffffffffff16906020019092919050505061305b565b005b60086020528060005260406000206000915054906101000a900473ffffffffffffffffffffffffffffffffffffffff1681565b3373ffffffffffffffffffffffffffffffffffffffff16600260009054906101000a900473ffffffffffffffffffffffffffffffffffffffff1673ffffffffffffffffffffffffffffffffffffffff161415156109dd57600080fd5b60405180807f7072655374616b65640000000000000000000000000000000000000000000000815250600901905060405180910390206000191660006040518082805460018160011615610100020316600290048015610a745780601f10610a52576101008083540402835291820191610a74565b820191906000526020600020905b815481529060010190602001808311610a60575b5050915050604051809103902060001916141515610a9157600080fd5b3073ffffffffffffffffffffffffffffffffffffffff16316004819055503073ffffffffffffffffffffffffffffffffffffffff163160058190555060006006819055506040805190810160405280600681526020017f7374616b6564000000000000000000000000000000000000000000000000000081525060009080519060200190610b20929190614537565b50565b60006060806000600b60008981526020019081526020016000205414151515610b4b57600080fd5b42600b600089815260200190815260200160002054111515610b6c57600080fd5b60006010600089815260200190815260200160002054111515610b8e57600080fd5b610b998686856131af565b610c5b610c56846000815481101515610bae57fe5b906000526020600020018054600181600116156101000203166002900480601f016020809104026020016040519081016040528092919081815260200182805460018160011615610100020316600290048015610c4c5780601f10610c2157610100808354040283529160200191610c4c565b820191906000526020600020905b815481529060010190602001808311610c2f57829003601f168201915b5050505050613266565b6132c1565b9150610d1f610d1a846001815481101515610c7257fe5b906000526020600020018054600181600116156101000203166002900480601f016020809104026020016040519081016040528092919081815260200182805460018160011615610100020316600290048015610d105780601f10610ce557610100808354040283529160200191610d10565b820191906000526020600020905b815481529060010190602001808311610cf357829003601f168201915b5050505050613266565b6132c1565b9050610d448282866001815181101515610d3557fe5b9060200190602002015161337e565b610d82600c610d74610d6d856005815181101515610d5e57fe5b90602001906020020151613a70565b6001613ade565b613b2f90919063ffffffff16565b73ffffffffffffffffffffffffffffffffffffffff166008600089815260200190815260200160002060009054906101000a900473ffffffffffffffffffffffffffffffffffffffff1673ffffffffffffffffffffffffffffffffffffffff16141515610e7d576040517f08c379a00000000000000000000000000000000000000000000000000000000081526004018080602001828103825260358152602001807f746f6b656e206e6565647320746f206265207472616e7366657265642066726f81526020017f6d206c6173742070726f76656e20637573746f6479000000000000000000000081525060400191505060405180910390fd5b610ebb6000610ead610ea6856005815181101515610e9757fe5b90602001906020020151613a70565b6003613ade565b613b6790919063ffffffff16565b87141515610f57576040517f08c379a00000000000000000000000000000000000000000000000000000000081526004018080602001828103825260228152602001807f6e6565647320746f20726566657220746f207468652073616d6520746f6b656e81526020017f496400000000000000000000000000000000000000000000000000000000000081525060400191505060405180910390fd5b6010600088815260200190815260200160002054610fa96000610f9b610f94866005815181101515610f8557fe5b90602001906020020151613a70565b6004613ade565b613b6790919063ffffffff16565b141515611044576040517f08c379a000000000000000000000000000000000000000000000000000000000815260040180806020018281038252602c8152602001807f6e6f6e6365206e6565647320746f20657175616c20726571756972656420636881526020017f616c6c656e67654e6f6e6365000000000000000000000000000000000000000081525060400191505060405180910390fd5b611082600c61107461106d85600581518110151561105e57fe5b90602001906020020151613a70565b6002613ade565b613b2f90919063ffffffff16565b6008600089815260200190815260200160002060006101000a81548173ffffffffffffffffffffffffffffffffffffffff021916908373ffffffffffffffffffffffffffffffffffffffff160217905550600160106000898152602001908152602001600020600082825401925050819055508773ffffffffffffffffffffffffffffffffffffffff163373ffffffffffffffffffffffffffffffffffffffff167f8088a25426f6cf86aeb3c86607e9f059cdcf86a1ca4cb1be8514c1e6f82fa09189601060008c815260200190815260200160002054604051808381526020018281526020019250505060405180910390a35050505050505050565b6000600b60008381526020019081526020016000205414151515611231576040517f08c379a00000000000000000000000000000000000000000000000000000000081526004018080602001828103825260288152602001807f746865206368616c6c656e676520706572696f6420686173206e6f742073746181526020017f727465642079657400000000000000000000000000000000000000000000000081525060400191505060405180910390fd5b42600b6000838152602001908152602001600020541015156112e1576040517f08c379a00000000000000000000000000000000000000000000000000000000081526004018080602001828103825260268152602001807f746865206368616c6c656e676520706572696f6420686173206e6f7420656e6481526020017f656420796574000000000000000000000000000000000000000000000000000081525060400191505060405180910390fd5b600f60008281526020019081526020016000205460106000838152602001908152602001600020541480611328575060006010600083815260200190815260200160002054145b15156113e8576040517f08c379a00000000000000000000000000000000000000000000000000000000081526004018080602001828103825260528152602001807f61206368616c6c656e676520686173207374617274656420616e64207468652081526020017f6368616c6c656e676520726573706f6e736520686173206e6f74206265656e2081526020017f70726f76656e20746f20656e644e6f6e6365000000000000000000000000000081525060600191505060405180910390fd5b600d600082815260200190815260200160002060009054906101000a900473ffffffffffffffffffffffffffffffffffffffff1673ffffffffffffffffffffffffffffffffffffffff166108fc600e6000848152602001908152602001600020546007600085815260200190815260200160002054019081150290604051600060405180830381858888f19350505050506000600760008381526020019081526020016000208190555061149b81613b90565b50565b60006114aa8484612377565b73ffffffffffffffffffffffffffffffffffffffff168273ffffffffffffffffffffffffffffffffffffffff161490509392505050565b600060608060606000611511866115033a600a54613cd490919063ffffffff16565b613cd490919063ffffffff16565b341015151561151f57600080fd5b61152a8989876131af565b6115ec6115e786600081548110151561153f57fe5b906000526020600020018054600181600116156101000203166002900480601f0160208091040260200160405190810160405280929190818152602001828054600181600116156101000203166002900480156115dd5780601f106115b2576101008083540402835291602001916115dd565b820191906000526020600020905b8154815290600101906020018083116115c057829003601f168201915b5050505050613266565b6132c1565b93506116b06116ab86600181548110151561160357fe5b906000526020600020018054600181600116156101000203166002900480601f0160208091040260200160405190810160405280929190818152602001828054600181600116156101000203166002900480156116a15780601f10611676576101008083540402835291602001916116a1565b820191906000526020600020905b81548152906001019060200180831161168457829003601f168201915b5050505050613266565b6132c1565b925061177461176f8660028154811015156116c757fe5b906000526020600020018054600181600116156101000203166002900480601f0160208091040260200160405190810160405280929190818152602001828054600181600116156101000203166002900480156117655780601f1061173a57610100808354040283529160200191611765565b820191906000526020600020905b81548152906001019060200180831161174857829003601f168201915b5050505050613266565b6132c1565b9150611799838389600281518110151561178a57fe5b9060200190602002015161337e565b6117d7600c6117c96117c28660058151811015156117b357fe5b90602001906020020151613a70565b6002613ade565b613b2f90919063ffffffff16565b9050600160009054906101000a900473ffffffffffffffffffffffffffffffffffffffff1673ffffffffffffffffffffffffffffffffffffffff1661183385600381518110151561182457fe5b90602001906020020151613d07565b73ffffffffffffffffffffffffffffffffffffffff1614151561185557600080fd5b600187600081518110151561186657fe5b9060200190602002015161189186600681518110151561188257fe5b90602001906020020151613d4e565b6118b28760078151811015156118a357fe5b90602001906020020151613da1565b6118d38860088151811015156118c457fe5b90602001906020020151613da1565b604051600081526020016040526040518085600019166000191681526020018460ff1660ff1681526020018360001916600019168152602001826000191660001916815260200194505050505060206040516020810390808403906000865af1158015611944573d6000803e3d6000fd5b5050506020604051035173ffffffffffffffffffffffffffffffffffffffff168173ffffffffffffffffffffffffffffffffffffffff16141515611a16576040517f08c379a000000000000000000000000000000000000000000000000000000000815260040180806020018281038252602c8152602001807f5769746864726177616c5478206e6f74207369676e6564206279206c6173745481526020017f782072656365697069656e74000000000000000000000000000000000000000081525060400191505060405180910390fd5b856001611a576000611a49611a42886005815181101515611a3357fe5b90602001906020020151613a70565b6004613ade565b613b6790919063ffffffff16565b01141515611acd576040517f08c379a00000000000000000000000000000000000000000000000000000000081526004018080602001828103825260138152602001807f6e6f6e63657320646f206e6f74206d617463680000000000000000000000000081525060200191505060405180910390fd5b6000600b60008c815260200190815260200160002054141515611aef57600080fd5b6102584201600b60008c81526020019081526020016000208190555085600f60008c81526020019081526020016000208190555080600c60008c815260200190815260200160002060006101000a81548173ffffffffffffffffffffffffffffffffffffffff021916908373ffffffffffffffffffffffffffffffffffffffff1602179055508a600d60008c815260200190815260200160002060006101000a81548173ffffffffffffffffffffffffffffffffffffffff021916908373ffffffffffffffffffffffffffffffffffffffff16021790555034600e60008c815260200190815260200160002081905550898b73ffffffffffffffffffffffffffffffffffffffff167fdf273cb619d95419a9cd0ec88123a0538c85064229baa6363788f743fff90deb346040518082815260200191505060405180910390a35050505050505050505050565b60076020528060005260406000206000915090505481565b60006060806000600b60008981526020019081526020016000205414151515611c7b57600080fd5b42600b600089815260200190815260200160002054111515611c9c57600080fd5b611ce96005611cdb600f60008b815260200190815260200160002054611ccd3a600a54613cd490919063ffffffff16565b613cd490919063ffffffff16565b613db690919063ffffffff16565b3410151515611cf757600080fd5b611d028686856131af565b611dc4611dbf846000815481101515611d1757fe5b906000526020600020018054600181600116156101000203166002900480601f016020809104026020016040519081016040528092919081815260200182805460018160011615610100020316600290048015611db55780601f10611d8a57610100808354040283529160200191611db5565b820191906000526020600020905b815481529060010190602001808311611d9857829003601f168201915b5050505050613266565b6132c1565b9150611e88611e83846001815481101515611ddb57fe5b906000526020600020018054600181600116156101000203166002900480601f016020809104026020016040519081016040528092919081815260200182805460018160011615610100020316600290048015611e795780601f10611e4e57610100808354040283529160200191611e79565b820191906000526020600020905b815481529060010190602001808311611e5c57829003601f168201915b5050505050613266565b6132c1565b9050611ead8282866001815181101515611e9e57fe5b9060200190602002015161337e565b611eeb6000611edd611ed6856005815181101515611ec757fe5b90602001906020020151613a70565b6003613ade565b613b6790919063ffffffff16565b87141515611f87576040517f08c379a00000000000000000000000000000000000000000000000000000000081526004018080602001828103825260228152602001807f6e6565647320746f20726566657220746f207468652073616d6520746f6b656e81526020017f496400000000000000000000000000000000000000000000000000000000000081525060400191505060405180910390fd5b611fc5600c611fb7611fb0856005815181101515611fa157fe5b90602001906020020151613a70565b6001613ade565b613b2f90919063ffffffff16565b73ffffffffffffffffffffffffffffffffffffffff166008600089815260200190815260200160002060009054906101000a900473ffffffffffffffffffffffffffffffffffffffff1673ffffffffffffffffffffffffffffffffffffffff161415156120c0576040517f08c379a00000000000000000000000000000000000000000000000000000000081526004018080602001828103825260358152602001807f746f6b656e206e6565647320746f206265207472616e7366657265642066726f81526020017f6d206c6173742070726f76656e20637573746f6479000000000000000000000081525060400191505060405180910390fd5b6120fe600c6120f06120e98560058151811015156120da57fe5b90602001906020020151613a70565b6002613ade565b613b2f90919063ffffffff16565b6008600089815260200190815260200160002060006101000a81548173ffffffffffffffffffffffffffffffffffffffff021916908373ffffffffffffffffffffffffffffffffffffffff16021790555034600e600089815260200190815260200160002060008282540192505081905550876011600089815260200190815260200160002060006101000a81548173ffffffffffffffffffffffffffffffffffffffff021916908373ffffffffffffffffffffffffffffffffffffffff160217905550600160106000898152602001908152602001600020819055508773ffffffffffffffffffffffffffffffffffffffff163373ffffffffffffffffffffffffffffffffffffffff167f5331871e026683c9fc9f966209853fdbd75ee7b21e9b4880849a76970c60f1d4896040518082815260200191505060405180910390a35050505050505050565b34600660008282540192505081905550612280346007600085815260200190815260200160002054613dd190919063ffffffff16565b6007600084815260200190815260200160002081905550806008600084815260200190815260200160002060006101000a81548173ffffffffffffffffffffffffffffffffffffffff021916908373ffffffffffffffffffffffffffffffffffffffff1602179055503373ffffffffffffffffffffffffffffffffffffffff167f02d7e648dd130fc184d383e55bb126ac4c9c60e8f94bf05acdf557ba2d540b47348484604051808481526020018381526020018273ffffffffffffffffffffffffffffffffffffffff1673ffffffffffffffffffffffffffffffffffffffff168152602001935050505060405180910390a25050565b600080600080604185511415156123915760009350612466565b602085015192506040850151915060ff6041860151169050601b8160ff1610156123bc57601b810190505b601b8160ff16141580156123d45750601c8160ff1614155b156123e25760009350612466565b600186828585604051600081526020016040526040518085600019166000191681526020018460ff1660ff1681526020018360001916600019168152602001826000191660001916815260200194505050505060206040516020810390808403906000865af1158015612459573d6000803e3d6000fd5b5050506020604051035193505b50505092915050565b60006060806060806124828888876131af565b61254461253f86600081548110151561249757fe5b906000526020600020018054600181600116156101000203166002900480601f0160208091040260200160405190810160405280929190818152602001828054600181600116156101000203166002900480156125355780601f1061250a57610100808354040283529160200191612535565b820191906000526020600020905b81548152906001019060200180831161251857829003601f168201915b5050505050613266565b6132c1565b935061260861260386600181548110151561255b57fe5b906000526020600020018054600181600116156101000203166002900480601f0160208091040260200160405190810160405280929190818152602001828054600181600116156101000203166002900480156125f95780601f106125ce576101008083540402835291602001916125f9565b820191906000526020600020905b8154815290600101906020018083116125dc57829003601f168201915b5050505050613266565b6132c1565b92506126cc6126c786600281548110151561261f57fe5b906000526020600020018054600181600116156101000203166002900480601f0160208091040260200160405190810160405280929190818152602001828054600181600116156101000203166002900480156126bd5780601f10612692576101008083540402835291602001916126bd565b820191906000526020600020905b8154815290600101906020018083116126a057829003601f168201915b5050505050613266565b6132c1565b915061279061278b8660038154811015156126e357fe5b906000526020600020018054600181600116156101000203166002900480601f0160208091040260200160405190810160405280929190818152602001828054600181600116156101000203166002900480156127815780601f1061275657610100808354040283529160200191612781565b820191906000526020600020905b81548152906001019060200180831161276457829003601f168201915b5050505050613266565b6132c1565b90506127b584848860018151811015156127a657fe5b9060200190602002015161337e565b6127d882828860038151811015156127c957fe5b9060200190602002015161337e565b61281660006128086128018760058151811015156127f257fe5b90602001906020020151613a70565b6003613ade565b613b6790919063ffffffff16565b891415156128b2576040517f08c379a00000000000000000000000000000000000000000000000000000000081526004018080602001828103825260228152602001807f6e6565647320746f20726566657220746f207468652073616d6520746f6b656e81526020017f496400000000000000000000000000000000000000000000000000000000000081525060400191505060405180910390fd5b6128f060006128e26128db8560058151811015156128cc57fe5b90602001906020020151613a70565b6003613ade565b613b6790919063ffffffff16565b8914151561298c576040517f08c379a00000000000000000000000000000000000000000000000000000000081526004018080602001828103825260228152602001807f6e6565647320746f20726566657220746f207468652073616d6520746f6b656e81526020017f496400000000000000000000000000000000000000000000000000000000000081525060400191505060405180910390fd5b6129ca60006129bc6129b58760058151811015156129a657fe5b90602001906020020151613a70565b6004613ade565b613b6790919063ffffffff16565b612a0860006129fa6129f38660058151811015156129e457fe5b90602001906020020151613a70565b6004613ade565b613b6790919063ffffffff16565b141515612a7d576040517f08c379a00000000000000000000000000000000000000000000000000000000081526004018080602001828103825260208152602001807f6e6565647320746f20726566657220746f207468652073616d65206e6f6e636581525060200191505060405180910390fd5b6000600481905550600060058190555050505050505050505050565b3373ffffffffffffffffffffffffffffffffffffffff16600260009054906101000a900473ffffffffffffffffffffffffffffffffffffffff1673ffffffffffffffffffffffffffffffffffffffff16141515612af557600080fd5b60405180807f7072655374616b65640000000000000000000000000000000000000000000000815250600901905060405180910390206000191660006040518082805460018160011615610100020316600290048015612b8c5780601f10612b6a576101008083540402835291820191612b8c565b820191906000526020600020905b815481529060010190602001808311612b78575b5050915050604051809103902060001916141515612ba957600080fd5b80600160006101000a81548173ffffffffffffffffffffffffffffffffffffffff021916908373ffffffffffffffffffffffffffffffffffffffff16021790555050565b60006060806000600b60008981526020019081526020016000205414151515612c1557600080fd5b42600b600089815260200190815260200160002054111515612c3657600080fd5b612c418686856131af565b612d03612cfe846000815481101515612c5657fe5b906000526020600020018054600181600116156101000203166002900480601f016020809104026020016040519081016040528092919081815260200182805460018160011615610100020316600290048015612cf45780601f10612cc957610100808354040283529160200191612cf4565b820191906000526020600020905b815481529060010190602001808311612cd757829003601f168201915b5050505050613266565b6132c1565b9150612dc7612dc2846001815481101515612d1a57fe5b906000526020600020018054600181600116156101000203166002900480601f016020809104026020016040519081016040528092919081815260200182805460018160011615610100020316600290048015612db85780601f10612d8d57610100808354040283529160200191612db8565b820191906000526020600020905b815481529060010190602001808311612d9b57829003601f168201915b5050505050613266565b6132c1565b9050612dec8282866001815181101515612ddd57fe5b9060200190602002015161337e565b612e2a600c612e1c612e15856005815181101515612e0657fe5b90602001906020020151613a70565b6001613ade565b613b2f90919063ffffffff16565b73ffffffffffffffffffffffffffffffffffffffff16600c600089815260200190815260200160002060009054906101000a900473ffffffffffffffffffffffffffffffffffffffff1673ffffffffffffffffffffffffffffffffffffffff16141515612f25576040517f08c379a00000000000000000000000000000000000000000000000000000000081526004018080602001828103825260358152602001807f746f6b656e206e6565647320746f206265207472616e7366657265642066726f81526020017f6d206c6173742070726f76656e20637573746f6479000000000000000000000081525060400191505060405180910390fd5b612f636000612f55612f4e856005815181101515612f3f57fe5b90602001906020020151613a70565b6003613ade565b613b6790919063ffffffff16565b87141515612fff576040517f08c379a00000000000000000000000000000000000000000000000000000000081526004018080602001828103825260228152602001807f6e6565647320746f20726566657220746f207468652073616d6520746f6b656e81526020017f496400000000000000000000000000000000000000000000000000000000000081525060400191505060405180910390fd5b8773ffffffffffffffffffffffffffffffffffffffff166108fc600e60008a8152602001908152602001600020549081150290604051600060405180830381858888f193505050505061305187613b90565b5050505050505050565b3373ffffffffffffffffffffffffffffffffffffffff16600260009054906101000a900473ffffffffffffffffffffffffffffffffffffffff1673ffffffffffffffffffffffffffffffffffffffff161415156130b757600080fd5b60405180807f7072655374616b6564000000000000000000000000000000000000000000000081525060090190506040518091039020600019166000604051808280546001816001161561010002031660029004801561314e5780601f1061312c57610100808354040283529182019161314e565b820191906000526020600020905b81548152906001019060200180831161313a575b505091505060405180910390206000191614151561316b57600080fd5b80600360006101000a81548173ffffffffffffffffffffffffffffffffffffffff021916908373ffffffffffffffffffffffffffffffffffffffff16021790555050565b60008060009150600090505b835181101561325f576131e6858386848151811015156131d757fe5b90602001906020020151613def565b83828154811015156131f457fe5b9060005260206000200190805190602001906132119291906145b7565b5061323c848281518110151561322357fe5b9060200190602002015183613dd190919063ffffffff16565b915060408281151561324a57fe5b066040038201915080806001019150506131bb565b5050505050565b61326e614637565b60008083519150600082141561329c57604080519081016040528060008152602001600081525092506132ba565b60208401905060408051908101604052808281526020018381525092505b5050919050565b606060006132cd614651565b60006132d885613ef4565b15156132e357600080fd5b6132ec85613f26565b92508260405190808252806020026020018201604052801561332857816020015b613315614672565b81526020019060019003908161330d5790505b50935061333485613fa0565b91505b61334082613fe8565b156133765761334e82614012565b848281518110151561335c57fe5b906020019060200201819052508080600101915050613337565b505050919050565b600160009054906101000a900473ffffffffffffffffffffffffffffffffffffffff1673ffffffffffffffffffffffffffffffffffffffff166133d88460038151811015156133c957fe5b90602001906020020151613d07565b73ffffffffffffffffffffffffffffffffffffffff161415156133fa57600080fd5b600160009054906101000a900473ffffffffffffffffffffffffffffffffffffffff1673ffffffffffffffffffffffffffffffffffffffff1661345483600381518110151561344557fe5b90602001906020020151613d07565b73ffffffffffffffffffffffffffffffffffffffff1614151561347657600080fd5b600960089054906101000a90047c0100000000000000000000000000000000000000000000000000000000027bffffffffffffffffffffffffffffffffffffffffffffffffffffffff19166134f66134ef6134e88660058151811015156134d957fe5b90602001906020020151613a70565b6000613ade565b600061406e565b7bffffffffffffffffffffffffffffffffffffffffffffffffffffffff19161415156135b0576040517f08c379a00000000000000000000000000000000000000000000000000000000081526004018080602001828103825260288152602001807f5f7472616e736665725478206973206e6f74207472616e7366657246726f6d2081526020017f66756e6374696f6e00000000000000000000000000000000000000000000000081525060400191505060405180910390fd5b6009600c9054906101000a90047c0100000000000000000000000000000000000000000000000000000000027bffffffffffffffffffffffffffffffffffffffffffffffffffffffff191661363061362961362285600581518110151561361357fe5b90602001906020020151613a70565b6000613ade565b600061406e565b7bffffffffffffffffffffffffffffffffffffffffffffffffffffffff19161415156136ea576040517f08c379a00000000000000000000000000000000000000000000000000000000081526004018080602001828103825260258152602001807f5f637573746f6469616e5478206973206e6f7420637573746f6469616e41707081526020017f726f76616c00000000000000000000000000000000000000000000000000000081525060400191505060405180910390fd5b60018161370e8460068151811015156136ff57fe5b90602001906020020151613d4e565b61372f85600781518110151561372057fe5b90602001906020020151613da1565b61375086600881518110151561374157fe5b90602001906020020151613da1565b604051600081526020016040526040518085600019166000191681526020018460ff1660ff1681526020018360001916600019168152602001826000191660001916815260200194505050505060206040516020810390808403906000865af11580156137c1573d6000803e3d6000fd5b5050506020604051035173ffffffffffffffffffffffffffffffffffffffff16600360009054906101000a900473ffffffffffffffffffffffffffffffffffffffff1673ffffffffffffffffffffffffffffffffffffffff161415156138b5576040517f08c379a000000000000000000000000000000000000000000000000000000000815260040180806020018281038252602a8152602001807f5f637573746f6469616e54782073686f756c64206265207369676e656420627981526020017f20637573746f6469616e0000000000000000000000000000000000000000000081525060400191505060405180910390fd5b61391c6138e36138dc8460058151811015156138cd57fe5b90602001906020020151613a70565b6001613ade565b61390e6139078660058151811015156138f857fe5b90602001906020020151613a70565b6003613ade565b61416790919063ffffffff16565b1515613990576040517f08c379a00000000000000000000000000000000000000000000000000000000081526004018080602001828103825260168152602001807f746f6b656e5f69647320646f206e6f74206d617463680000000000000000000081525060200191505060405180910390fd5b6139f76139be6139b78460058151811015156139a857fe5b90602001906020020151613a70565b6002613ade565b6139e96139e28660058151811015156139d357fe5b90602001906020020151613a70565b6004613ade565b61416790919063ffffffff16565b1515613a6b576040517f08c379a00000000000000000000000000000000000000000000000000000000081526004018080602001828103825260138152602001807f6e6f6e63657320646f206e6f74206d617463680000000000000000000000000081525060200191505060405180910390fd5b505050565b6060600080613a7e846141d6565b1515613a8957600080fd5b613a9284614207565b91509150806040519080825280601f01601f191660200182016040528015613ac95781602001602082028038833980820191505090505b509250613ad7828483614288565b5050919050565b60606000821415613b0757613b0060006005856142c99092919063ffffffff16565b9050613b29565b613b26602060018403026004016020856142c99092919063ffffffff16565b90505b92915050565b60008060148301845110151515613b4557600080fd5b6c01000000000000000000000000836020860101510490508091505092915050565b60008060208301845110151515613b7d57600080fd5b8260208501015190508091505092915050565b6000600e6000838152602001908152602001600020819055506000600d600083815260200190815260200160002060006101000a81548173ffffffffffffffffffffffffffffffffffffffff021916908373ffffffffffffffffffffffffffffffffffffffff1602179055506000600c600083815260200190815260200160002060006101000a81548173ffffffffffffffffffffffffffffffffffffffff021916908373ffffffffffffffffffffffffffffffffffffffff1602179055506000600f6000838152602001908152602001600020819055506000600b600083815260200190815260200160002081905550600060106000838152602001908152602001600020819055507f7874ca11ed47a2bbe287f114874e02e047a1261400f57712590c8f364b126501816040518082815260200191505060405180910390a150565b60008082840290506000841480613cf55750828482811515613cf257fe5b04145b1515613cfd57fe5b8091505092915050565b6000806000613d15846141d6565b1515613d2057600080fd5b613d2984614207565b91509150601481141515613d3c57600080fd5b600c6101000a82510492505050919050565b6000806000613d5c846141d6565b1515613d6757600080fd5b613d7084614207565b915091506020811180613d835750600081145b15613d8d57600080fd5b806020036101000a82510492505050919050565b6000613dac82613d4e565b6001029050919050565b6000808284811515613dc457fe5b0490508091505092915050565b6000808284019050838110151515613de557fe5b8091505092915050565b6060806000806000613e0b604088613db690919063ffffffff16565b9250613e208688613dd190919063ffffffff16565b9150613e36604083613db690919063ffffffff16565b90505b80831015613e8257613e73613e648985815181101515613e5557fe5b90602001906020020151614356565b8561438790919063ffffffff16565b93508280600101935050613e39565b613ee4613ed5600060016002604087811515613e9a57fe5b06811515613ea457fe5b0403613ec68c86815181101515613eb757fe5b90602001906020020151614356565b6142c99092919063ffffffff16565b8561438790919063ffffffff16565b9350839450505050509392505050565b600080600083602001511415613f0d5760009150613f20565b8260000151905060c0815160001a101591505b50919050565b600080600080600080613f3887613ef4565b1515613f475760009550613f96565b86600001519350835160001a9450613f5e87614411565b840192506001876020015185010391505b8183111515613f9257613f818361449d565b830192508080600101915050613f6f565b8095505b5050505050919050565b613fa8614651565b6000613fb383613ef4565b1515613fbe57600080fd5b613fc783614411565b83600001510190508282600001819052508082602001818152505050919050565b6000613ff2614637565b826000015190508060200151816000015101836020015110915050919050565b61401a614637565b60008061402684613fe8565b15614062578360200151915061403b8261449d565b90508183600001818152505080836020018181525050808201846020018181525050614067565b600080fd5b5050919050565b60008060008090505b600481101561415c576008810260ff7f010000000000000000000000000000000000000000000000000000000000000002868387018151811015156140b857fe5b9060200101517f010000000000000000000000000000000000000000000000000000000000000090047f010000000000000000000000000000000000000000000000000000000000000002167effffffffffffffffffffffffffffffffffffffffffffffffffffffffffffff19167bffffffffffffffffffffffffffffffffffffffffffffffffffffffff19169060020a9004821791508080600101915050614077565b819250505092915050565b600080600190508351835181146001811461418557600092506141ca565b600160208701838101602088015b6002848385100114156141c557805183511415156141b45760009650600093505b602083019250602081019050614193565b505050505b50508091505092915050565b6000806000836020015114156141ef5760009150614201565b8260000151905060c0815160001a1091505b50919050565b6000806000806000614218866141d6565b151561422357600080fd5b85600001519150815160001a925060808310156142465781945060019350614280565b60b8831015614264576001866020015103935060018201945061427f565b60b78303905080600187602001510303935060018183010194505b5b505050915091565b60006020601f83010484602085015b8284146142b65760208402808301518183015260018501945050614297565b6000865160200187015250505050505050565b6060808284018551101515156142de57600080fd5b8215600081146142f95760405191506020820160405261434a565b6040519150601f8416801560200281840101858101878315602002848b0101015b81831015614337578051835260208301925060208101905061431a565b50868552601f19601f8301166040525050505b50809150509392505050565b6060816040516020018082600019166000191681526020019150506040516020818303038152906040529050919050565b6060806040519050835180825260208201818101602087015b818310156143bd57805183526020830192506020810190506143a0565b50855192508351830184528091508282019050602086015b818310156143f257805183526020830192506020810190506143d5565b50601f19601f8851850115830101166040525050508091505092915050565b6000806000808460200151141561442b5760009250614496565b83600001519050805160001a9150608082101561444b5760009250614496565b60b8821080614467575060c08210158015614466575060f882105b5b156144755760019250614496565b60c082101561448c57600160b78303019250614496565b600160f783030192505b5050919050565b600080825160001a905060808110156144b95760019150614531565b60b88110156144d057600160808203019150614530565b60c08110156144fa5760b78103806020036101000a6001850151048082016001019350505061452f565b60f881101561451157600160c0820301915061452e565b60f78103806020036101000a600185015104808201600101935050505b5b5b5b50919050565b828054600181600116156101000203166002900490600052602060002090601f016020900481019282601f1061457857805160ff19168380011785556145a6565b828001600101855582156145a6579182015b828111156145a557825182559160200191906001019061458a565b5b5090506145b3919061468c565b5090565b828054600181600116156101000203166002900490600052602060002090601f016020900481019282601f106145f857805160ff1916838001178555614626565b82800160010185558215614626579182015b8281111561462557825182559160200191906001019061460a565b5b509050614633919061468c565b5090565b604080519081016040528060008152602001600081525090565b606060405190810160405280614665614672565b8152602001600081525090565b604080519081016040528060008152602001600081525090565b6146ae91905b808211156146aa576000816000905550600101614692565b5090565b905600a165627a7a72305820dfd4f6397adc815d1fed57dd0ce57a5f7781fab142744575bb0401ffd57e840b0029",
  "source": "pragma solidity ^0.4.24;\n// produced by the Solididy File Flattener (c) David Appleton 2018\n// contact : dave@akomba.com\n// released under Apache 2.0 licence\n// input  /home/yingtong/peacebridge/solidityflattery/DepositContract.sol\n// flattened :  Friday, 05-Apr-19 04:53:23 UTC\ncontract Ownable {\n  address public owner;\n\n  function Ownable() {\n    owner = msg.sender;\n  }\n\n  modifier onlyOwner() {\n    if (msg.sender == owner)\n      _;\n  }\n\n  function transferOwnership(address newOwner) onlyOwner {\n    if (newOwner != address(0)) owner = newOwner;\n  }\n\n}\nlibrary RLP {\n\n uint constant DATA_SHORT_START = 0x80;\n uint constant DATA_LONG_START = 0xB8;\n uint constant LIST_SHORT_START = 0xC0;\n uint constant LIST_LONG_START = 0xF8;\n\n uint constant DATA_LONG_OFFSET = 0xB7;\n uint constant LIST_LONG_OFFSET = 0xF7;\n\n\n struct RLPItem {\n     uint _unsafe_memPtr;    // Pointer to the RLP-encoded bytes.\n     uint _unsafe_length;    // Number of bytes. This is the full length of the string.\n }\n\n struct Iterator {\n     RLPItem _unsafe_item;   // Item that's being iterated over.\n     uint _unsafe_nextPtr;   // Position of the next item in the list.\n }\n\n /* Iterator */\n\n function next(Iterator memory self) internal constant returns (RLPItem memory subItem) {\n     if(hasNext(self)) {\n         var ptr = self._unsafe_nextPtr;\n         var itemLength = _itemLength(ptr);\n         subItem._unsafe_memPtr = ptr;\n         subItem._unsafe_length = itemLength;\n         self._unsafe_nextPtr = ptr + itemLength;\n     }\n     else\n         revert();\n }\n\n function next(Iterator memory self, bool strict) internal constant returns (RLPItem memory subItem) {\n     subItem = next(self);\n     if(strict && !_validate(subItem))\n         revert();\n     return;\n }\n\n function hasNext(Iterator memory self) internal constant returns (bool) {\n     var item = self._unsafe_item;\n     return self._unsafe_nextPtr < item._unsafe_memPtr + item._unsafe_length;\n }\n\n /* RLPItem */\n\n /// @dev Creates an RLPItem from an array of RLP encoded bytes.\n /// @param self The RLP encoded bytes.\n /// @return An RLPItem\n function toRLPItem(bytes memory self) internal constant returns (RLPItem memory) {\n     uint len = self.length;\n     if (len == 0) {\n         return RLPItem(0, 0);\n     }\n     uint memPtr;\n     assembly {\n         memPtr := add(self, 0x20)\n     }\n     return RLPItem(memPtr, len);\n }\n\n /// @dev Creates an RLPItem from an array of RLP encoded bytes.\n /// @param self The RLP encoded bytes.\n /// @param strict Will revert if the data is not RLP encoded.\n /// @return An RLPItem\n function toRLPItem(bytes memory self, bool strict) internal constant returns (RLPItem memory) {\n     var item = toRLPItem(self);\n     if(strict) {\n         uint len = self.length;\n         if(_payloadOffset(item) > len)\n             revert();\n         if(_itemLength(item._unsafe_memPtr) != len)\n             revert();\n         if(!_validate(item))\n             revert();\n     }\n     return item;\n }\n\n /// @dev Check if the RLP item is null.\n /// @param self The RLP item.\n /// @return 'true' if the item is null.\n function isNull(RLPItem memory self) internal pure returns (bool ret) {\n     return self._unsafe_length == 0;\n }\n\n /// @dev Check if the RLP item is a list.\n /// @param self The RLP item.\n /// @return 'true' if the item is a list.\n function isList(RLPItem memory self) internal pure returns (bool ret) {\n     if (self._unsafe_length == 0)\n         return false;\n     uint memPtr = self._unsafe_memPtr;\n     assembly {\n         ret := iszero(lt(byte(0, mload(memPtr)), 0xC0))\n     }\n }\n\n /// @dev Check if the RLP item is data.\n /// @param self The RLP item.\n /// @return 'true' if the item is data.\n function isData(RLPItem memory self) internal pure returns (bool ret) {\n     if (self._unsafe_length == 0)\n         return false;\n     uint memPtr = self._unsafe_memPtr;\n     assembly {\n         ret := lt(byte(0, mload(memPtr)), 0xC0)\n     }\n }\n\n /// @dev Check if the RLP item is empty (string or list).\n /// @param self The RLP item.\n /// @return 'true' if the item is null.\n function isEmpty(RLPItem memory self) internal pure returns (bool ret) {\n     if (isNull(self)) {\n         return false;\n     }\n     uint b0;\n     uint memPtr = self._unsafe_memPtr;\n     assembly {\n         b0 := byte(0, mload(memPtr))\n     }\n     return (b0 == DATA_SHORT_START || b0 == LIST_SHORT_START);\n }\n\n /// @dev Get the number of items in an RLP encoded list.\n /// @param self The RLP item.\n /// @return The number of items.\n function items(RLPItem memory self) internal constant returns (uint) {\n     if (!isList(self))\n         return 0;\n     uint b0;\n     uint memPtr = self._unsafe_memPtr;\n     assembly {\n         b0 := byte(0, mload(memPtr))\n     }\n     uint pos = memPtr + _payloadOffset(self);\n     uint last = memPtr + self._unsafe_length - 1;\n     uint itms;\n     while (pos <= last) {\n         pos += _itemLength(pos);\n         itms++;\n     }\n     return itms;\n }\n\n /// @dev Create an iterator.\n /// @param self The RLP item.\n /// @return An 'Iterator' over the item.\n function iterator(RLPItem memory self) internal constant returns (Iterator memory it) {\n     if (!isList(self))\n         revert();\n     uint ptr = self._unsafe_memPtr + _payloadOffset(self);\n     it._unsafe_item = self;\n     it._unsafe_nextPtr = ptr;\n }\n\n /// @dev Return the RLP encoded bytes.\n /// @param self The RLPItem.\n /// @return The bytes.\n function toBytes(RLPItem memory self) internal constant returns (bytes memory bts) {\n     var len = self._unsafe_length;\n     if (len == 0)\n         return;\n     bts = new bytes(len);\n     _copyToBytes(self._unsafe_memPtr, bts, len);\n }\n\n /// @dev Decode an RLPItem into bytes. This will not work if the\n /// RLPItem is a list.\n /// @param self The RLPItem.\n /// @return The decoded string.\n function toData(RLPItem memory self) internal constant returns (bytes memory bts) {\n     if(!isData(self))\n         revert();\n     var (rStartPos, len) = _decode(self);\n     bts = new bytes(len);\n     _copyToBytes(rStartPos, bts, len);\n }\n\n /// @dev Get the list of sub-items from an RLP encoded list.\n /// Warning: This is inefficient, as it requires that the list is read twice.\n /// @param self The RLP item.\n /// @return Array of RLPItems.\n function toList(RLPItem memory self) internal constant returns (RLPItem[] memory list) {\n     if(!isList(self))\n         revert();\n     var numItems = items(self);\n     list = new RLPItem[](numItems);\n     var it = iterator(self);\n     uint idx;\n     while(hasNext(it)) {\n         list[idx] = next(it);\n         idx++;\n     }\n }\n\n /// @dev Decode an RLPItem into an ascii string. This will not work if the\n /// RLPItem is a list.\n /// @param self The RLPItem.\n /// @return The decoded string.\n function toAscii(RLPItem memory self) internal constant returns (string memory str) {\n     if(!isData(self))\n         revert();\n     var (rStartPos, len) = _decode(self);\n     bytes memory bts = new bytes(len);\n     _copyToBytes(rStartPos, bts, len);\n     str = string(bts);\n }\n\n /// @dev Decode an RLPItem into a uint. This will not work if the\n /// RLPItem is a list.\n /// @param self The RLPItem.\n /// @return The decoded string.\n function toUint(RLPItem memory self) internal constant returns (uint data) {\n     if(!isData(self))\n         revert();\n     var (rStartPos, len) = _decode(self);\n     if (len > 32 || len == 0)\n         revert();\n     assembly {\n         data := div(mload(rStartPos), exp(256, sub(32, len)))\n     }\n }\n\n /// @dev Decode an RLPItem into a boolean. This will not work if the\n /// RLPItem is a list.\n /// @param self The RLPItem.\n /// @return The decoded string.\n function toBool(RLPItem memory self) internal constant returns (bool data) {\n     if(!isData(self))\n         revert();\n     var (rStartPos, len) = _decode(self);\n     if (len != 1)\n         revert();\n     uint temp;\n     assembly {\n         temp := byte(0, mload(rStartPos))\n     }\n     if (temp > 1)\n         revert();\n     return temp == 1 ? true : false;\n }\n\n /// @dev Decode an RLPItem into a byte. This will not work if the\n /// RLPItem is a list.\n /// @param self The RLPItem.\n /// @return The decoded string.\n function toByte(RLPItem memory self) internal constant returns (byte data) {\n     if(!isData(self))\n         revert();\n     var (rStartPos, len) = _decode(self);\n     if (len != 1)\n         revert();\n     uint temp;\n     assembly {\n         temp := byte(0, mload(rStartPos))\n     }\n     return byte(temp);\n }\n\n /// @dev Decode an RLPItem into an int. This will not work if the\n /// RLPItem is a list.\n /// @param self The RLPItem.\n /// @return The decoded string.\n function toInt(RLPItem memory self) internal constant returns (int data) {\n     return int(toUint(self));\n }\n\n /// @dev Decode an RLPItem into a bytes32. This will not work if the\n /// RLPItem is a list.\n /// @param self The RLPItem.\n /// @return The decoded string.\n function toBytes32(RLPItem memory self) internal constant returns (bytes32 data) {\n     return bytes32(toUint(self));\n }\n\n /// @dev Decode an RLPItem into an address. This will not work if the\n /// RLPItem is a list.\n /// @param self The RLPItem.\n /// @return The decoded string.\n function toAddress(RLPItem memory self) internal constant returns (address data) {\n     if(!isData(self))\n         revert();\n     var (rStartPos, len) = _decode(self);\n     if (len != 20)\n         revert();\n     assembly {\n         data := div(mload(rStartPos), exp(256, 12))\n     }\n }\n\n // Get the payload offset.\n function _payloadOffset(RLPItem memory self) private constant returns (uint) {\n     if(self._unsafe_length == 0)\n         return 0;\n     uint b0;\n     uint memPtr = self._unsafe_memPtr;\n     assembly {\n         b0 := byte(0, mload(memPtr))\n     }\n     if(b0 < DATA_SHORT_START)\n         return 0;\n     if(b0 < DATA_LONG_START || (b0 >= LIST_SHORT_START && b0 < LIST_LONG_START))\n         return 1;\n     if(b0 < LIST_SHORT_START)\n         return b0 - DATA_LONG_OFFSET + 1;\n     return b0 - LIST_LONG_OFFSET + 1;\n }\n\n // Get the full length of an RLP item.\n function _itemLength(uint memPtr) private constant returns (uint len) {\n     uint b0;\n     assembly {\n         b0 := byte(0, mload(memPtr))\n     }\n     if (b0 < DATA_SHORT_START)\n         len = 1;\n     else if (b0 < DATA_LONG_START)\n         len = b0 - DATA_SHORT_START + 1;\n     else if (b0 < LIST_SHORT_START) {\n         assembly {\n             let bLen := sub(b0, 0xB7) // bytes length (DATA_LONG_OFFSET)\n             let dLen := div(mload(add(memPtr, 1)), exp(256, sub(32, bLen))) // data length\n             len := add(1, add(bLen, dLen)) // total length\n         }\n     }\n     else if (b0 < LIST_LONG_START)\n         len = b0 - LIST_SHORT_START + 1;\n     else {\n         assembly {\n             let bLen := sub(b0, 0xF7) // bytes length (LIST_LONG_OFFSET)\n             let dLen := div(mload(add(memPtr, 1)), exp(256, sub(32, bLen))) // data length\n             len := add(1, add(bLen, dLen)) // total length\n         }\n     }\n }\n\n // Get start position and length of the data.\n function _decode(RLPItem memory self) private constant returns (uint memPtr, uint len) {\n     if(!isData(self))\n         revert();\n     uint b0;\n     uint start = self._unsafe_memPtr;\n     assembly {\n         b0 := byte(0, mload(start))\n     }\n     if (b0 < DATA_SHORT_START) {\n         memPtr = start;\n         len = 1;\n         return;\n     }\n     if (b0 < DATA_LONG_START) {\n         len = self._unsafe_length - 1;\n         memPtr = start + 1;\n     } else {\n         uint bLen;\n         assembly {\n             bLen := sub(b0, 0xB7) // DATA_LONG_OFFSET\n         }\n         len = self._unsafe_length - 1 - bLen;\n         memPtr = start + bLen + 1;\n     }\n     return;\n }\n\n // Assumes that enough memory has been allocated to store in target.\n function _copyToBytes(uint btsPtr, bytes memory tgt, uint btsLen) private constant {\n     // Exploiting the fact that 'tgt' was the last thing to be allocated,\n     // we can write entire words, and just overwrite any excess.\n     assembly {\n         {\n                 let i := 0 // Start at arr + 0x20\n                 let words := div(add(btsLen, 31), 32)\n                 let rOffset := btsPtr\n                 let wOffset := add(tgt, 0x20)\n             tag_loop:\n                 jumpi(end, eq(i, words))\n                 {\n                     let offset := mul(i, 0x20)\n                     mstore(add(wOffset, offset), mload(add(rOffset, offset)))\n                     i := add(i, 1)\n                 }\n                 jump(tag_loop)\n             end:\n                 mstore(add(tgt, add(0x20, mload(tgt))), 0)\n         }\n     }\n }\n\n     // Check that an RLP item is valid.\n     function _validate(RLPItem memory self) private constant returns (bool ret) {\n         // Check that RLP is well-formed.\n         uint b0;\n         uint b1;\n         uint memPtr = self._unsafe_memPtr;\n         assembly {\n             b0 := byte(0, mload(memPtr))\n             b1 := byte(1, mload(memPtr))\n         }\n         if(b0 == DATA_SHORT_START + 1 && b1 < DATA_SHORT_START)\n             return false;\n         return true;\n     }\n}\n\nlibrary BytesLib {\n    function concat(bytes memory _preBytes, bytes memory _postBytes) internal pure returns (bytes) {\n        bytes memory tempBytes;\n\n        assembly {\n            // Get a location of some free memory and store it in tempBytes as\n            // Solidity does for memory variables.\n            tempBytes := mload(0x40)\n\n            // Store the length of the first bytes array at the beginning of\n            // the memory for tempBytes.\n            let length := mload(_preBytes)\n            mstore(tempBytes, length)\n\n            // Maintain a memory counter for the current write location in the\n            // temp bytes array by adding the 32 bytes for the array length to\n            // the starting location.\n            let mc := add(tempBytes, 0x20)\n            // Stop copying when the memory counter reaches the length of the\n            // first bytes array.\n            let end := add(mc, length)\n\n            for {\n                // Initialize a copy counter to the start of the _preBytes data,\n                // 32 bytes into its memory.\n                let cc := add(_preBytes, 0x20)\n            } lt(mc, end) {\n                // Increase both counters by 32 bytes each iteration.\n                mc := add(mc, 0x20)\n                cc := add(cc, 0x20)\n            } {\n                // Write the _preBytes data into the tempBytes memory 32 bytes\n                // at a time.\n                mstore(mc, mload(cc))\n            }\n\n            // Add the length of _postBytes to the current length of tempBytes\n            // and store it as the new length in the first 32 bytes of the\n            // tempBytes memory.\n            length := mload(_postBytes)\n            mstore(tempBytes, add(length, mload(tempBytes)))\n\n            // Move the memory counter back from a multiple of 0x20 to the\n            // actual end of the _preBytes data.\n            mc := end\n            // Stop copying when the memory counter reaches the new combined\n            // length of the arrays.\n            end := add(mc, length)\n\n            for {\n                let cc := add(_postBytes, 0x20)\n            } lt(mc, end) {\n                mc := add(mc, 0x20)\n                cc := add(cc, 0x20)\n            } {\n                mstore(mc, mload(cc))\n            }\n\n            // Update the free-memory pointer by padding our last write location\n            // to 32 bytes: add 31 bytes to the end of tempBytes to move to the\n            // next 32 byte block, then round down to the nearest multiple of\n            // 32. If the sum of the length of the two arrays is zero then add \n            // one before rounding down to leave a blank 32 bytes (the length block with 0).\n            mstore(0x40, and(\n              add(add(end, iszero(add(length, mload(_preBytes)))), 31),\n              not(31) // Round down to the nearest 32 bytes.\n            ))\n        }\n\n        return tempBytes;\n    }\n\n    function concatStorage(bytes storage _preBytes, bytes memory _postBytes) internal {\n        assembly {\n            // Read the first 32 bytes of _preBytes storage, which is the length\n            // of the array. (We don't need to use the offset into the slot\n            // because arrays use the entire slot.)\n            let fslot := sload(_preBytes_slot)\n            // Arrays of 31 bytes or less have an even value in their slot,\n            // while longer arrays have an odd value. The actual length is\n            // the slot divided by two for odd values, and the lowest order\n            // byte divided by two for even values.\n            // If the slot is even, bitwise and the slot with 255 and divide by\n            // two to get the length. If the slot is odd, bitwise and the slot\n            // with -1 and divide by two.\n            let slength := div(and(fslot, sub(mul(0x100, iszero(and(fslot, 1))), 1)), 2)\n            let mlength := mload(_postBytes)\n            let newlength := add(slength, mlength)\n            // slength can contain both the length and contents of the array\n            // if length < 32 bytes so let's prepare for that\n            // v. http://solidity.readthedocs.io/en/latest/miscellaneous.html#layout-of-state-variables-in-storage\n            switch add(lt(slength, 32), lt(newlength, 32))\n            case 2 {\n                // Since the new array still fits in the slot, we just need to\n                // update the contents of the slot.\n                // uint256(bytes_storage) = uint256(bytes_storage) + uint256(bytes_memory) + new_length\n                sstore(\n                    _preBytes_slot,\n                    // all the modifications to the slot are inside this\n                    // next block\n                    add(\n                        // we can just add to the slot contents because the\n                        // bytes we want to change are the LSBs\n                        fslot,\n                        add(\n                            mul(\n                                div(\n                                    // load the bytes from memory\n                                    mload(add(_postBytes, 0x20)),\n                                    // zero all bytes to the right\n                                    exp(0x100, sub(32, mlength))\n                                ),\n                                // and now shift left the number of bytes to\n                                // leave space for the length in the slot\n                                exp(0x100, sub(32, newlength))\n                            ),\n                            // increase length by the double of the memory\n                            // bytes length\n                            mul(mlength, 2)\n                        )\n                    )\n                )\n            }\n            case 1 {\n                // The stored value fits in the slot, but the combined value\n                // will exceed it.\n                // get the keccak hash to get the contents of the array\n                mstore(0x0, _preBytes_slot)\n                let sc := add(keccak256(0x0, 0x20), div(slength, 32))\n\n                // save new length\n                sstore(_preBytes_slot, add(mul(newlength, 2), 1))\n\n                // The contents of the _postBytes array start 32 bytes into\n                // the structure. Our first read should obtain the `submod`\n                // bytes that can fit into the unused space in the last word\n                // of the stored array. To get this, we read 32 bytes starting\n                // from `submod`, so the data we read overlaps with the array\n                // contents by `submod` bytes. Masking the lowest-order\n                // `submod` bytes allows us to add that value directly to the\n                // stored value.\n\n                let submod := sub(32, slength)\n                let mc := add(_postBytes, submod)\n                let end := add(_postBytes, mlength)\n                let mask := sub(exp(0x100, submod), 1)\n\n                sstore(\n                    sc,\n                    add(\n                        and(\n                            fslot,\n                            0xffffffffffffffffffffffffffffffffffffffffffffffffffffffffffffff00\n                        ),\n                        and(mload(mc), mask)\n                    )\n                )\n\n                for {\n                    mc := add(mc, 0x20)\n                    sc := add(sc, 1)\n                } lt(mc, end) {\n                    sc := add(sc, 1)\n                    mc := add(mc, 0x20)\n                } {\n                    sstore(sc, mload(mc))\n                }\n\n                mask := exp(0x100, sub(mc, end))\n\n                sstore(sc, mul(div(mload(mc), mask), mask))\n            }\n            default {\n                // get the keccak hash to get the contents of the array\n                mstore(0x0, _preBytes_slot)\n                // Start copying to the last used word of the stored array.\n                let sc := add(keccak256(0x0, 0x20), div(slength, 32))\n\n                // save new length\n                sstore(_preBytes_slot, add(mul(newlength, 2), 1))\n\n                // Copy over the first `submod` bytes of the new data as in\n                // case 1 above.\n                let slengthmod := mod(slength, 32)\n                let mlengthmod := mod(mlength, 32)\n                let submod := sub(32, slengthmod)\n                let mc := add(_postBytes, submod)\n                let end := add(_postBytes, mlength)\n                let mask := sub(exp(0x100, submod), 1)\n\n                sstore(sc, add(sload(sc), and(mload(mc), mask)))\n                \n                for { \n                    sc := add(sc, 1)\n                    mc := add(mc, 0x20)\n                } lt(mc, end) {\n                    sc := add(sc, 1)\n                    mc := add(mc, 0x20)\n                } {\n                    sstore(sc, mload(mc))\n                }\n\n                mask := exp(0x100, sub(mc, end))\n\n                sstore(sc, mul(div(mload(mc), mask), mask))\n            }\n        }\n    }\n\n    function slice(bytes _bytes, uint _start, uint _length) internal  pure returns (bytes) {\n        require(_bytes.length >= (_start + _length));\n\n        bytes memory tempBytes;\n\n        assembly {\n            switch iszero(_length)\n            case 0 {\n                // Get a location of some free memory and store it in tempBytes as\n                // Solidity does for memory variables.\n                tempBytes := mload(0x40)\n\n                // The first word of the slice result is potentially a partial\n                // word read from the original array. To read it, we calculate\n                // the length of that partial word and start copying that many\n                // bytes into the array. The first word we copy will start with\n                // data we don't care about, but the last `lengthmod` bytes will\n                // land at the beginning of the contents of the new array. When\n                // we're done copying, we overwrite the full first word with\n                // the actual length of the slice.\n                let lengthmod := and(_length, 31)\n\n                // The multiplication in the next line is necessary\n                // because when slicing multiples of 32 bytes (lengthmod == 0)\n                // the following copy loop was copying the origin's length\n                // and then ending prematurely not copying everything it should.\n                let mc := add(add(tempBytes, lengthmod), mul(0x20, iszero(lengthmod)))\n                let end := add(mc, _length)\n\n                for {\n                    // The multiplication in the next line has the same exact purpose\n                    // as the one above.\n                    let cc := add(add(add(_bytes, lengthmod), mul(0x20, iszero(lengthmod))), _start)\n                } lt(mc, end) {\n                    mc := add(mc, 0x20)\n                    cc := add(cc, 0x20)\n                } {\n                    mstore(mc, mload(cc))\n                }\n\n                mstore(tempBytes, _length)\n\n                //update free-memory pointer\n                //allocating the array padded to 32 bytes like the compiler does now\n                mstore(0x40, and(add(mc, 31), not(31)))\n            }\n            //if we want a zero-length slice let's just return a zero-length array\n            default {\n                tempBytes := mload(0x40)\n\n                mstore(0x40, add(tempBytes, 0x20))\n            }\n        }\n\n        return tempBytes;\n    }\n\n    function toAddress(bytes _bytes, uint _start) internal  pure returns (address) {\n        require(_bytes.length >= (_start + 20));\n        address tempAddress;\n\n        assembly {\n            tempAddress := div(mload(add(add(_bytes, 0x20), _start)), 0x1000000000000000000000000)\n        }\n\n        return tempAddress;\n    }\n\n    function toUint(bytes _bytes, uint _start) internal  pure returns (uint256) {\n        require(_bytes.length >= (_start + 32));\n        uint256 tempUint;\n\n        assembly {\n            tempUint := mload(add(add(_bytes, 0x20), _start))\n        }\n\n        return tempUint;\n    }\n\n    function equal(bytes memory _preBytes, bytes memory _postBytes) internal pure returns (bool) {\n        bool success = true;\n\n        assembly {\n            let length := mload(_preBytes)\n\n            // if lengths don't match the arrays are not equal\n            switch eq(length, mload(_postBytes))\n            case 1 {\n                // cb is a circuit breaker in the for loop since there's\n                //  no said feature for inline assembly loops\n                // cb = 1 - don't breaker\n                // cb = 0 - break\n                let cb := 1\n\n                let mc := add(_preBytes, 0x20)\n                let end := add(mc, length)\n\n                for {\n                    let cc := add(_postBytes, 0x20)\n                // the next line is the loop condition:\n                // while(uint(mc < end) + cb == 2)\n                } eq(add(lt(mc, end), cb), 2) {\n                    mc := add(mc, 0x20)\n                    cc := add(cc, 0x20)\n                } {\n                    // if any of these checks fails then arrays are not equal\n                    if iszero(eq(mload(mc), mload(cc))) {\n                        // unsuccess:\n                        success := 0\n                        cb := 0\n                    }\n                }\n            }\n            default {\n                // unsuccess:\n                success := 0\n            }\n        }\n\n        return success;\n    }\n\n    function equalStorage(bytes storage _preBytes, bytes memory _postBytes) internal view returns (bool) {\n        bool success = true;\n\n        assembly {\n            // we know _preBytes_offset is 0\n            let fslot := sload(_preBytes_slot)\n            // Decode the length of the stored array like in concatStorage().\n            let slength := div(and(fslot, sub(mul(0x100, iszero(and(fslot, 1))), 1)), 2)\n            let mlength := mload(_postBytes)\n\n            // if lengths don't match the arrays are not equal\n            switch eq(slength, mlength)\n            case 1 {\n                // slength can contain both the length and contents of the array\n                // if length < 32 bytes so let's prepare for that\n                // v. http://solidity.readthedocs.io/en/latest/miscellaneous.html#layout-of-state-variables-in-storage\n                if iszero(iszero(slength)) {\n                    switch lt(slength, 32)\n                    case 1 {\n                        // blank the last byte which is the length\n                        fslot := mul(div(fslot, 0x100), 0x100)\n\n                        if iszero(eq(fslot, mload(add(_postBytes, 0x20)))) {\n                            // unsuccess:\n                            success := 0\n                        }\n                    }\n                    default {\n                        // cb is a circuit breaker in the for loop since there's\n                        //  no said feature for inline assembly loops\n                        // cb = 1 - don't breaker\n                        // cb = 0 - break\n                        let cb := 1\n\n                        // get the keccak hash to get the contents of the array\n                        mstore(0x0, _preBytes_slot)\n                        let sc := keccak256(0x0, 0x20)\n\n                        let mc := add(_postBytes, 0x20)\n                        let end := add(mc, mlength)\n\n                        // the next line is the loop condition:\n                        // while(uint(mc < end) + cb == 2)\n                        for {} eq(add(lt(mc, end), cb), 2) {\n                            sc := add(sc, 1)\n                            mc := add(mc, 0x20)\n                        } {\n                            if iszero(eq(sload(sc), mload(mc))) {\n                                // unsuccess:\n                                success := 0\n                                cb := 0\n                            }\n                        }\n                    }\n                }\n            }\n            default {\n                // unsuccess:\n                success := 0\n            }\n        }\n\n        return success;\n    }\n}\nlibrary SafeMath {\n  function mul(uint256 a, uint256 b) internal pure returns (uint256) {\n    uint256 c = a * b;\n    assert(a == 0 || c / a == b);\n    return c;\n  }\n\n  function div(uint256 a, uint256 b) internal pure returns (uint256) {\n    // assert(b > 0); // Solidity automatically throws when dividing by 0\n    uint256 c = a / b;\n    // assert(a == b * c + a % b); // There is no case in which this doesn't hold\n    return c;\n  }\n\n  function sub(uint256 a, uint256 b) internal pure returns (uint256) {\n    assert(b <= a);\n    return a - b;\n  }\n  \n  function add(uint256 a, uint256 b) internal pure returns (uint256) {\n    uint256 c = a + b;\n    assert(c >= a);\n    return c;\n  }\n}\n\ncontract DepositContract {\n  using SafeMath for uint256;\n  using RLP for RLP.RLPItem;\n  using RLP for RLP.Iterator;\n  using RLP for bytes;\n  using BytesLib for bytes;\n\n  string contractState = \"preStaked\";\n  address tokenContract;\n  address custodian;\n  address custodianForeign;\n  uint256 stakedAmount;\n  uint256 depositCap;\n  uint256 depositedAmount;\n  mapping (uint256 => uint256) public tokenIdToAmount;\n  mapping (uint256 => address) public tokenIdToMinter;\n\n  struct Transaction {\n    uint nonce;\n    uint gasPrice;\n    uint gasLimit;\n    address to;\n    uint value;\n    bytes data;\n    uint8 v;\n    bytes32 r;\n    bytes32 s;\n    address from;\n  }\n\n  function () payable {}\n\n  constructor (address _custodian) {\n    custodian = _custodian;\n  }\n\n  modifier onlyCustodian() {\n    require(custodian == msg.sender);\n    _;\n  }\n\n  modifier statePreStaked () {\n    require(keccak256(contractState) == keccak256(\"preStaked\"));\n    _;\n  }\n\n  modifier stateStaked () {\n    require(keccak256(contractState) == keccak256(\"staked\"));\n    _;\n  }\n\n  event Deposit(address indexed depositer,\n                uint256 amount,\n                uint256 tokenId,\n                address minter);\n  event ChallengeInitiated(address indexed challenger,\n                           address indexed depositedTo,\n                           uint256 tokenId);\n  event Challenge(address indexed rechallenger,\n                  address indexed depositedTo,\n                  uint256 tokenId,\n                  uint256 finalChallengeNonce);\n  event ChallengeResolved(uint256 tokenId);\n  event Withdrawal(address indexed withdrawer,\n                   uint256 indexed tokenId,\n                   uint256 stakedAmount);\n\n  bytes4 mintSignature = 0x94bf804d;\n  bytes4 withdrawSignature = 0x2e1a7d4d;\n  bytes4 transferFromSignature = 0xfe99049a;\n  bytes4 custodianApproveSignature = 0x6e3c045e;\n  uint256 gasPerChallenge = 206250;\n\n  function setTokenContract(address _tokenContract) onlyCustodian statePreStaked\n  public {\n    tokenContract = _tokenContract;\n  }\n\n\n  function setCustodianForeign(address _custodianForeign) onlyCustodian\n  statePreStaked public {\n    custodianForeign = _custodianForeign;\n  }\n\n  function finalizeStake() onlyCustodian statePreStaked public {\n    stakedAmount = address(this).balance;\n    depositCap = address(this).balance;\n    depositedAmount = 0;\n    contractState = \"staked\";\n  }\n\n  function deposit(uint256 _tokenId, address _minter) payable public {\n    depositedAmount += msg.value;\n    tokenIdToAmount[_tokenId] = tokenIdToAmount[_tokenId].add(msg.value);\n    tokenIdToMinter[_tokenId] = _minter;\n    emit Deposit(msg.sender, msg.value, _tokenId, _minter);\n  }\n\n  // tokenIdToTimestamp\n  mapping (uint256 => uint256) challengeTime;\n  // tokenIdToAddress\n  mapping (uint256 => address) challengeAddressClaim;\n  // tokenIdToAddress\n  mapping (uint256 => address) challengeRecipient;\n  //mintToStake\n  mapping (uint256 => uint256) challengeStake;\n  //mintToEndNonce/depth\n  mapping (uint256 => uint256) challengeEndNonce;\n  //tokenIdToNonce\n  mapping (uint256 => uint256) challengeNonce;\n  //tokenIdToChallengerAddress\n  mapping (uint256 => address) challenger;\n\n  //For Debugging purposes\n  event Test(bytes tx1, bytes tx2, bytes tx3);\n  event Trace(bytes out);\n  event TraceAddress(address out);\n  event Trace32(bytes32 out);\n  event TraceUint256(uint256 out);\n  /*\n  /**\n   * @dev Initiates a withdrawal process. Starts the challenge period\n   * Requires the msg sender to stake a payment (payable function)\n   // TODO: check amount to stake, discern challenge time\n   * @param _to address to send withdrawal\n   * @param _tokenId uint256 Id of token on TokenContract\n   * @param _rawTxBundle bytes32[] bundle that takes in concatenation of\n            bytes _withdrawTx, bytes _lastTx, bytes _custodianTx\n   * @param _txLengths lengths of transactions in rawTxBundle, used for\n            efficiency purposes\n   * @param _txMsgHashes msghashes of transactions in bundle\n   + @param _declaredNonce depth of chain of custody from token contract.\n            IMPORTANT TO BE HONEST\n  */\n  function withdraw(address _to,\n    uint256 _tokenId,\n    bytes32[] _rawTxBundle,\n    uint256[] _txLengths,\n    bytes32[] _txMsgHashes,\n    uint256 _declaredNonce) public payable  {\n    // TODO:  discern challenge time,\n    //check amount to stake\n    require(msg.value >= gasPerChallenge.mul(tx.gasprice).mul(_declaredNonce));\n    // splits bundle into individual rawTxs\n    bytes[] rawTxList;\n    splitTxBundle(_rawTxBundle, _txLengths, rawTxList);\n\n    //_withdrawTx withdraw() message sent by withdrawer to TokenContract\n    RLP.RLPItem[] memory withdrawTx = rawTxList[0].toRLPItem().toList();\n    // _lastTx on TokenContract transferring custody of token to withdrawer\n    RLP.RLPItem[] memory lastTx = rawTxList[1].toRLPItem().toList();\n    // _custodianTx signed version of _lastTx\n    RLP.RLPItem[] memory custodianTx = rawTxList[2].toRLPItem().toList();\n\n    checkTransferTxAndCustodianTx(lastTx, custodianTx, _txMsgHashes[2]);\n\n    address lastCustody = parseData(lastTx[5].toData(), 2).toAddress(12);\n    require(withdrawTx[3].toAddress() == tokenContract);\n    require(lastCustody == ecrecover(_txMsgHashes[0], //hash of withdrawTx\n                                     uint8(withdrawTx[6].toUint()), //v\n                                     withdrawTx[7].toBytes32(), //r\n                                     withdrawTx[8].toBytes32()), //s\n                                     \"WithdrawalTx not signed by lastTx receipient\");\n\n    //checks nonce                   \n    require(parseData(lastTx[5].toData(),4).toUint(0) + 1 == _declaredNonce,\n        \"nonces do not match\");\n    //require that a challenge period is not underway\n    require(challengeTime[_tokenId] == 0);\n    //start challenge period\n    challengeTime[_tokenId] = now + 10 minutes;\n    challengeEndNonce[_tokenId] = _declaredNonce;\n    challengeAddressClaim[_tokenId] = lastCustody;\n    challengeRecipient[_tokenId] = _to;\n    challengeStake[_tokenId] = msg.value;\n    emit Withdrawal(_to, _tokenId, msg.value);\n  }\n\n  /*\n  /**\n   * @dev For withdrawer to claims honest withdrawal\n   * @param _tokenId uint256 Id of token on TokenContract\n  */\n  function claim(uint256 _tokenId) public {\n    require(challengeTime[_tokenId] != 0,\n            \"the challenge period has not started yet\");\n    require(challengeTime[_tokenId] < now,\n            \"the challenge period has not ended yet\");\n    // challengeNonce represents the requirement for the next tx\n    require(challengeNonce[_tokenId] == challengeEndNonce[_tokenId] ||\n                                        challengeNonce[_tokenId] == 0,\n            \"a challenge has started and the challenge response has not been proven to endNonce\");\n    challengeRecipient[_tokenId].send((tokenIdToAmount[_tokenId] ) +\n                                       challengeStake[_tokenId]);\n    tokenIdToAmount[_tokenId] = 0;\n    resetChallenge(_tokenId);\n  }\n\n  // /*\n  // /**\n  //  * @dev For challenger to claim stake on fradulent withdraw\n  //    (challengeWithPastCustody())\n  //  * @param _tokenId uint256 Id of token on TokenContract\n  // */\n  // function claimStake(uint256 _tokenId) public {\n  //   require(challengeTime[_tokenId] != 0);\n  //   require(challengeTime[_tokenId] < now);\n  //   require(challengeNonce[_tokenId] != challengeEndNonce[_tokenId] &&\n  //                                       challengeNonce[_tokenId] != 0,\n  //           \"challenge not initated/withdrawal is honest\");\n\n  //   challengeRecipient[_tokenId].send(challengeStake[_tokenId]);\n\n  //   resetChallenge(_tokenId);\n  // }\n  \n  /*\n  /**\n   * @dev Challenges with future custody using a transaction proving transfer\n   * once future custody is proven, it ends pays the challenger\n   * @param _to address to send stake given success\n   * @param _tokenId uint256 Id of token on TokenContract\n   * @param _rawTxBundle bytes32[] bundle that takes in concatenation of\n     bytes _transactionTx, bytes _custodianTx\n   * @param _txLengths lengths of transactions in rawTxBundle, for efficiency\n   * @param _txMsgHashes msghashes of transactions in bundle\n  */\n  function challengeWithFutureCustody(address _to,\n                                      uint256 _tokenId,\n                                      bytes32[] _rawTxBundle,\n                                      uint256[] _txLengths,\n                                      bytes32[] _txMsgHashes) public {\n    require(challengeTime[_tokenId] != 0);\n    require(challengeTime[_tokenId] > now);\n\n    // splits bundle into individual rawTxs\n    bytes[] rawTxList;\n    splitTxBundle(_rawTxBundle, _txLengths, rawTxList);\n\n    RLP.RLPItem[] memory transferTx = rawTxList[0].toRLPItem().toList();\n    RLP.RLPItem[] memory custodianTx = rawTxList[1].toRLPItem().toList();\n\n    //TODO: NEED TO CHECK NONCE\n    checkTransferTxAndCustodianTx(transferTx, custodianTx, _txMsgHashes[1]);\n    require(challengeAddressClaim[_tokenId] ==\n            parseData(transferTx[5].toData(), 1).toAddress(12),\n            \"token needs to be transfered from last proven custody\");\n    require(_tokenId == parseData(transferTx[5].toData(), 3).toUint(0),\n            \"needs to refer to the same tokenId\");\n\n    _to.send(challengeStake[_tokenId]);\n    resetChallenge(_tokenId);\n  }\n\n/*\n  /**\n   * @dev Initiates a challenge with past custody using a chain of custody\n   leading to the declared nonce once challenge period ends.\n   *It should be designed such that it punishes challenging an honest withdrawal\n   and incentivises challenging a fradulent one\n   * requires challenger to stake.\n   // TODO: extend challenge period when called\n   * @param _to address to send stake given success\n   * @param _tokenId uint256 Id of token on TokenContract\n   * @param _rawTxBundle bytes32[] bundle that takes in concatenation of\n      bytes _transactionTx, bytes _custodianTx\n   * @param _txLengths lengths of transactions in rawTxBundle, for efficiency\n   * @param _txMsgHashes msghashes of transactions in bundle\n  */\n  function initiateChallengeWithPastCustody(address _to,\n                                            uint256 _tokenId,\n                                            bytes32[] _rawTxBundle,\n                                            uint256[] _txLengths,\n                                            bytes32[] _txMsgHashes)\n                                            payable public {\n    require(challengeTime[_tokenId] != 0);\n    require(challengeTime[_tokenId] > now);\n    require(msg.value >= gasPerChallenge.mul(tx.gasprice).\n                         mul(challengeEndNonce[_tokenId]).div(5));\n\n    // splits bundle into individual rawTxs\n    bytes[] rawTxList;\n    splitTxBundle(_rawTxBundle, _txLengths, rawTxList);\n\n    RLP.RLPItem[] memory transferTx = rawTxList[0].toRLPItem().toList();\n    RLP.RLPItem[] memory custodianTx = rawTxList[1].toRLPItem().toList();\n\n    checkTransferTxAndCustodianTx(transferTx, custodianTx, _txMsgHashes[1]);\n    //TODO: save on require statement by not including _tokenId in arguments\n    require(_tokenId == parseData(transferTx[5].toData(), 3).toUint(0),\n            \"needs to refer to the same tokenId\");\n    require(tokenIdToMinter[_tokenId] == parseData(transferTx[5].toData(), 1).\n            toAddress(12),\n            \"token needs to be transfered from last proven custody\");\n    //moves up root mint referecce to recipient address\n    tokenIdToMinter[_tokenId] = parseData(transferTx[5].toData(), 2).\n                                toAddress(12);\n    challengeStake[_tokenId] += msg.value;\n    challenger[_tokenId] = _to;\n    challengeNonce[_tokenId] = 1;\n    emit ChallengeInitiated(msg.sender, _to, _tokenId);\n  }\n\n  /*\n  /**\n   * @dev Add to the chain of custody leading to the declared nonce\n   * once challenge period ends claim funds through claimStake()\n   // TODO: remove loops (less efficient then single calls)\n   * @param _to address to send stake given success\n   * @param _tokenId uint256 Id of token on TokenContract\n   * @param _rawTxBundle bytes32[] bundle that takes in concatenation of\n     bytes _transactionTx, bytes _custodianTx\n   * @param _txLengths lengths of transactions in rawTxBundle, for efficiency\n   * @param _txMsgHashes msghashes of transactions in bundle\n  */\n  // TODO: rename challegne\n  function challengeWithPastCustody(address _to,\n                                    uint256 _tokenId,\n                                    bytes32[] _rawTxBundle,\n                                    uint256[] _txLengths,\n                                    bytes32[] _txMsgHashes) public {\n    require(challengeTime[_tokenId] != 0);\n    require(challengeTime[_tokenId] > now); //challenge is still open\n    require(challengeNonce[_tokenId] > 0);\n\n    // splits bundle into individual rawTxs\n    bytes[] rawTxList;\n    splitTxBundle(_rawTxBundle, _txLengths, rawTxList);\n    // //get rid of loops\n    // for (uint i = 0; i < _txLengths.length; i +=2) {\n    //   RLP.RLPItem[] memory transferTx = rawTxList[i].toRLPItem().toList();\n    //   RLP.RLPItem[] memory custodianTx = rawTxList[i + 1].toRLPItem().toList();\n    //   checkTransferTxAndCustodianTx(transferTx, custodianTx, _txMsgHashes[i+1]);\n\n    RLP.RLPItem[] memory transferTx = rawTxList[0].toRLPItem().toList();\n    RLP.RLPItem[] memory custodianTx = rawTxList[1].toRLPItem().toList();\n\n    //   //TODO: save on require statement by not including _tokenId in arguments\n    checkTransferTxAndCustodianTx(transferTx, custodianTx, _txMsgHashes[1]);\n    require(tokenIdToMinter[_tokenId] == parseData(transferTx[5].toData(), 1)\n            .toAddress(12),\n            \"token needs to be transfered from last proven custody\");\n\n    require(_tokenId == parseData(transferTx[5].toData(), 3).toUint(0),\n            \"needs to refer to the same tokenId\");\n\n    require(parseData(transferTx[5].toData(),4).toUint(0) ==\n            challengeNonce[_tokenId],\n            \"nonce needs to equal required challengeNonce\");\n\n    //moves up root mint referecce to recipient address\n    tokenIdToMinter[_tokenId] = parseData(transferTx[5].toData(), 2)\n                                .toAddress(12);\n    //updates challengeNonce to next step\n    challengeNonce[_tokenId] += 1;\n\n    // }\n    emit Challenge(msg.sender, _to, _tokenId, challengeNonce[_tokenId]);\n  }\n\n  /*\n  /**\n   * @dev The existence of two tokenIds with same nonce indicates presence of\n     double signing on the part of the Custodian => should punish Custodian\n   // TODO: how much to punish custodian???\n   * @param _to address to send stake given success\n   * @param _tokenId uint256 Id of token on TokenContract\n   * @param _rawTxBundle bytes32[] concatenation of bytes _transactionTx,\n     bytes _custodianTx\n   * @param _txLengths lengths of transactions in rawTxBundle, for efficiency\n   * @param _txMsgHashes msghashes of transactions in bundle\n  */\n  function submitCustodianDoubleSign(address _to,\n                                     uint256 _tokenId,\n                                     bytes32[] _rawTxBundle,\n                                     uint256[] _txLengths,\n                                     bytes32[] _txMsgHashes) public {\n\n    bytes[] rawTxList;\n    splitTxBundle(_rawTxBundle, _txLengths, rawTxList);\n\n    RLP.RLPItem[] memory transferTx = rawTxList[0].toRLPItem().toList();\n    RLP.RLPItem[] memory custodianTx = rawTxList[1].toRLPItem().toList();\n    RLP.RLPItem[] memory transferTx2 = rawTxList[2].toRLPItem().toList();\n    RLP.RLPItem[] memory custodianTx2 = rawTxList[3].toRLPItem().toList();\n\n    checkTransferTxAndCustodianTx(transferTx, custodianTx, _txMsgHashes[1]);\n    checkTransferTxAndCustodianTx(transferTx2, custodianTx2, _txMsgHashes[3]);\n    require(_tokenId == parseData(transferTx[5].toData(), 3).toUint(0),\n            \"needs to refer to the same tokenId\");\n    require(_tokenId == parseData(transferTx2[5].toData(), 3).toUint(0),\n            \"needs to refer to the same tokenId\");\n    require(parseData(transferTx2[5].toData(), 4).toUint(0) ==\n            parseData(transferTx[5].toData(), 4).toUint(0),\n            \"needs to refer to the same nonce\");\n\n    //TODO: how much to punish custodian??? can we pay out the stake instead of\n    //just burning it, pause contract??\n    stakedAmount = 0;\n    depositCap = 0;\n  }\n\n  /*\n  /**\n   * @dev Check the validity of the transfer and custodian transaction\n   * @param  _transferTx RLP item array representing transferTx\n   * @param _tokenId RLP item array representing corresponding custodianTx\n   * @param _rawTxBundle bytes32 _custodianTx msgHash\n  */\n  function checkTransferTxAndCustodianTx(RLP.RLPItem[] _transferTx,\n                                         RLP.RLPItem[] _custodianTx,\n                                         bytes32 _custodianTxMsgHash) internal {\n    require(_transferTx[3].toAddress() == tokenContract);\n    require(_custodianTx[3].toAddress() == tokenContract);\n    require(bytesToBytes4(parseData(_transferTx[5].toData(), 0), 0) ==\n            transferFromSignature, \"_transferTx is not transferFrom function\");\n    require(bytesToBytes4(parseData(_custodianTx[5].toData(), 0), 0) ==\n            custodianApproveSignature, \"_custodianTx is not custodianApproval\");\n    require(custodianForeign == ecrecover(_custodianTxMsgHash,\n                                          uint8(_custodianTx[6].toUint()),\n                                          _custodianTx[7].toBytes32(),\n                                          _custodianTx[8].toBytes32()),\n            \"_custodianTx should be signed by custodian\");\n    //TODO: which is more efficient, checking parameters or hash?\n    require(parseData(_transferTx[5].toData(),3).\n            equal(parseData(_custodianTx[5].toData(),1)),\n            \"token_ids do not match\");\n    require(parseData(_transferTx[5].toData(),4).\n            equal(parseData(_custodianTx[5].toData(),2)),\n            \"nonces do not match\");\n  }\n\n  /*\n  /**\n   * @dev Splits a rawTxBundle received to its individual transactions.\n   * Necessary due to limitation in amount of data transferable through solidity\n   * @param  _rawTxBundle that is a concatenation of bytes _withdrawTx,\n             bytes _lastTx, bytes _custodianTx\n   * @param _txLengths lengths of transactions in rawTxBundle\n   * @param _rawTxList list of individual transactions from _rawTxBundle\n  */\n  function splitTxBundle(bytes32[] _rawTxBundle,\n                         uint256[] _txLengths,\n                         bytes[] storage _rawTxList) internal {\n    uint256 txStartPosition = 0;\n    for (uint i = 0; i < _txLengths.length; i++) {\n      _rawTxList[i] = sliceBytes32Arr(_rawTxBundle,\n                                      txStartPosition,\n                                      _txLengths[i]);\n      txStartPosition = txStartPosition.add(_txLengths[i]);\n      txStartPosition = txStartPosition + (64 - txStartPosition % 64);\n    }\n  }\n\n  /*\n  /**\n   * @dev Splits a rawTxBundle received to its individual transactions.\n   * Necessary due to limitation in amount of data transferable through solidity\n   * @param  _transferTx RLP item array representing transferTx\n   * @param _tokenId RLP item array representing corresponding custodianTx\n   * @param _rawTxBundle bytes32 _custodianTx msgHash\n  */\n  //TODO: MAKE MORE EFFICENT\n  function sliceBytes32Arr(bytes32[] _bytes32ArrBundle,\n                           uint256 _startPosition,\n                           uint256 _length) internal returns (bytes) {\n    bytes memory out;\n    uint256 i = _startPosition.div(64);\n    uint256 endPosition = _startPosition.add(_length);\n    uint256 z = endPosition.div(64);\n    for (i ; i < z; i++) {\n      out = out.concat(bytes32ToBytes(_bytes32ArrBundle[i]));\n    }\n    out = out.concat(bytes32ToBytes(_bytes32ArrBundle[z]).\n              slice(0, (endPosition % 64 / 2) - 1));\n    return out;\n  }\n\n  function resetChallenge(uint256 _tokenId) internal {\n    challengeStake[_tokenId] = 0;\n    challengeRecipient[_tokenId] = 0;\n    challengeAddressClaim[_tokenId] = 0;\n    challengeEndNonce[_tokenId] = 0;\n    challengeTime[_tokenId] = 0;\n    challengeNonce[_tokenId] = 0;\n    emit ChallengeResolved(_tokenId);\n  }\n\n  /* Util functions --------------------------------------------------*/\n\n  function parseData(bytes data, uint256 i) internal returns (bytes) {\n    if (i == 0) {\n      return data.slice(0,5);\n    } else {\n      return data.slice(4 + ((i-1) * 32), 32);\n    }\n  }\n\n  //https://ethereum.stackexchange.com/questions/40920/convert-bytes32-to-bytes\n  //TODO: Look for more efficient method\n  function bytes32ToBytes(bytes32 _data) internal pure returns (bytes) {\n    return abi.encodePacked(_data);\n  }\n\n  function bytesToBytes32(bytes b, uint offset) private pure returns (bytes32) {\n    bytes32 out;\n    for (uint i = 0; i < 32; i++) {\n      out |= bytes32(b[offset + i] & 0xFF) >> (i * 8);\n    }\n    return out;\n  }\n\n  function bytesToBytes4(bytes b, uint offset) private pure returns (bytes4) {\n    bytes4 out;\n    for (uint i = 0; i < 4; i++) {\n      out |= bytes4(b[offset + i] & 0xFF) >> (i * 8);\n    }\n    return out;\n  }\n\n  function stringToBytes( string s) internal returns (bytes memory b3){\n    b3 = bytes(s);\n    return b3;\n  }\n\n  // Nick Johnson https://ethereum.stackexchange.com/questions/4170/how-to-convert-a-uint-to-bytes-in-solidity\n  function uint256ToBytes(uint256 x) internal returns (bytes b) {\n    b = new bytes(32);\n    assembly { mstore(add(b, 32), x) }\n  }\n\n  // Tjaden Hess https://ethereum.stackexchange.com/questions/884/how-to-convert-an-address-to-bytes-in-solidity\n  function addressToBytes(address a) internal returns (bytes b) {\n    assembly {\n        let m := mload(0x40)\n        mstore(add(m, 20), xor(0x140000000000000000000000000000000000000000, a))\n        mstore(0x40, add(m, 52))\n        b := m\n    }\n  }\n\n  function ecrecovery(bytes32 hash, bytes sig) public returns (address) {\n    bytes32 r;\n    bytes32 s;\n    uint8 v;\n\n    if (sig.length != 65) {\n      return 0;\n    }\n\n    assembly {\n      r := mload(add(sig, 32))\n      s := mload(add(sig, 64))\n      v := and(mload(add(sig, 65)), 255)\n    }\n\n    // https://github.com/ethereum/go-ethereum/issues/2053\n    if (v < 27) {\n      v += 27;\n    }\n\n    if (v != 27 && v != 28) {\n      return 0;\n    }\n\n    /* prefix might be needed for geth only\n     * https://github.com/ethereum/go-ethereum/issues/3731\n     */\n    // bytes memory prefix = \"\\x19Ethereum Signed Message:\\n32\";\n    // hash = sha3(prefix, hash);\n\n    return ecrecover(hash, v, r, s);\n  }\n\n  function ecverify(bytes32 hash, bytes sig, address signer)\n  public returns (bool) {\n    return signer == ecrecovery(hash, sig);\n  }\n\n}\n\n",
  "sourcePath": "/home/yingtong/peacebridge/contracts/DepositContract_flat.sol",
  "compiler": {
    "name": "solc",
    "version": "0.4.24+commit.e67f0147.Emscripten.clang"
  },
  "schemaVersion": "2.0.1",
  "updatedAt": "2019-04-05T05:24:34.964Z"
}