{
  "contractName": "DepositContractMock",
  "abi": [
    {
      "constant": true,
      "inputs": [
        {
          "name": "",
          "type": "uint256"
        }
      ],
      "name": "tokenIdToMinter",
      "outputs": [
        {
          "name": "",
          "type": "address"
        }
      ],
      "payable": false,
      "stateMutability": "view",
      "type": "function"
    },
    {
      "constant": false,
      "inputs": [],
      "name": "finalizeStake",
      "outputs": [],
      "payable": false,
      "stateMutability": "nonpayable",
      "type": "function"
    },
    {
      "constant": false,
      "inputs": [
        {
          "name": "_to",
          "type": "address"
        },
        {
          "name": "_tokenId",
          "type": "uint256"
        },
        {
          "name": "_rawTxBundle",
          "type": "bytes32[]"
        },
        {
          "name": "_txLengths",
          "type": "uint256[]"
        },
        {
          "name": "_txMsgHashes",
          "type": "bytes32[]"
        }
      ],
      "name": "challengeWithPastCustody",
      "outputs": [],
      "payable": false,
      "stateMutability": "nonpayable",
      "type": "function"
    },
    {
      "constant": false,
      "inputs": [
        {
          "name": "_tokenId",
          "type": "uint256"
        }
      ],
      "name": "claim",
      "outputs": [],
      "payable": false,
      "stateMutability": "nonpayable",
      "type": "function"
    },
    {
      "constant": false,
      "inputs": [
        {
          "name": "hash",
          "type": "bytes32"
        },
        {
          "name": "sig",
          "type": "bytes"
        },
        {
          "name": "signer",
          "type": "address"
        }
      ],
      "name": "ecverify",
      "outputs": [
        {
          "name": "",
          "type": "bool"
        }
      ],
      "payable": false,
      "stateMutability": "nonpayable",
      "type": "function"
    },
    {
      "constant": false,
      "inputs": [
        {
          "name": "_tokenId",
          "type": "uint256"
        }
      ],
      "name": "claimStake",
      "outputs": [],
      "payable": false,
      "stateMutability": "nonpayable",
      "type": "function"
    },
    {
      "constant": false,
      "inputs": [
        {
          "name": "_to",
          "type": "address"
        },
        {
          "name": "_tokenId",
          "type": "uint256"
        },
        {
          "name": "_rawTxBundle",
          "type": "bytes32[]"
        },
        {
          "name": "_txLengths",
          "type": "uint256[]"
        },
        {
          "name": "_txMsgHashes",
          "type": "bytes32[]"
        },
        {
          "name": "_declaredNonce",
          "type": "uint256"
        }
      ],
      "name": "withdraw",
      "outputs": [],
      "payable": true,
      "stateMutability": "payable",
      "type": "function"
    },
    {
      "constant": true,
      "inputs": [
        {
          "name": "",
          "type": "uint256"
        }
      ],
      "name": "tokenIdToAmount",
      "outputs": [
        {
          "name": "",
          "type": "uint256"
        }
      ],
      "payable": false,
      "stateMutability": "view",
      "type": "function"
    },
    {
      "constant": false,
      "inputs": [
        {
          "name": "_to",
          "type": "address"
        },
        {
          "name": "_tokenId",
          "type": "uint256"
        },
        {
          "name": "_rawTxBundle",
          "type": "bytes32[]"
        },
        {
          "name": "_txLengths",
          "type": "uint256[]"
        },
        {
          "name": "_txMsgHashes",
          "type": "bytes32[]"
        }
      ],
      "name": "initiateChallengeWithPastCustody",
      "outputs": [],
      "payable": true,
      "stateMutability": "payable",
      "type": "function"
    },
    {
      "constant": false,
      "inputs": [
        {
          "name": "_tokenId",
          "type": "uint256"
        },
        {
          "name": "_minter",
          "type": "address"
        }
      ],
      "name": "deposit",
      "outputs": [],
      "payable": true,
      "stateMutability": "payable",
      "type": "function"
    },
    {
      "constant": false,
      "inputs": [
        {
          "name": "hash",
          "type": "bytes32"
        },
        {
          "name": "sig",
          "type": "bytes"
        }
      ],
      "name": "ecrecovery",
      "outputs": [
        {
          "name": "",
          "type": "address"
        }
      ],
      "payable": false,
      "stateMutability": "nonpayable",
      "type": "function"
    },
    {
      "constant": false,
      "inputs": [
        {
          "name": "_to",
          "type": "address"
        },
        {
          "name": "_tokenId",
          "type": "uint256"
        },
        {
          "name": "_rawTxBundle",
          "type": "bytes32[]"
        },
        {
          "name": "_txLengths",
          "type": "uint256[]"
        },
        {
          "name": "_txMsgHashes",
          "type": "bytes32[]"
        }
      ],
      "name": "submitCustodianDoubleSign",
      "outputs": [],
      "payable": false,
      "stateMutability": "nonpayable",
      "type": "function"
    },
    {
      "constant": false,
      "inputs": [
        {
          "name": "_tokenContract",
          "type": "address"
        }
      ],
      "name": "setTokenContract",
      "outputs": [],
      "payable": false,
      "stateMutability": "nonpayable",
      "type": "function"
    },
    {
      "constant": false,
      "inputs": [
        {
          "name": "_to",
          "type": "address"
        },
        {
          "name": "_tokenId",
          "type": "uint256"
        },
        {
          "name": "_rawTxBundle",
          "type": "bytes32[]"
        },
        {
          "name": "_txLengths",
          "type": "uint256[]"
        },
        {
          "name": "_txMsgHashes",
          "type": "bytes32[]"
        }
      ],
      "name": "challengeWithFutureCustody",
      "outputs": [],
      "payable": false,
      "stateMutability": "nonpayable",
      "type": "function"
    },
    {
      "constant": false,
      "inputs": [
        {
          "name": "_custodianForeign",
          "type": "address"
        }
      ],
      "name": "setCustodianForeign",
      "outputs": [],
      "payable": false,
      "stateMutability": "nonpayable",
      "type": "function"
    },
    {
      "inputs": [
        {
          "name": "_custodian",
          "type": "address"
        }
      ],
      "payable": false,
      "stateMutability": "nonpayable",
      "type": "constructor"
    },
    {
      "payable": true,
      "stateMutability": "payable",
      "type": "fallback"
    },
    {
      "anonymous": false,
      "inputs": [
        {
          "indexed": true,
          "name": "depositer",
          "type": "address"
        },
        {
          "indexed": false,
          "name": "amount",
          "type": "uint256"
        },
        {
          "indexed": false,
          "name": "tokenId",
          "type": "uint256"
        },
        {
          "indexed": false,
          "name": "minter",
          "type": "address"
        }
      ],
      "name": "Deposit",
      "type": "event"
    },
    {
      "anonymous": false,
      "inputs": [
        {
          "indexed": true,
          "name": "challenger",
          "type": "address"
        },
        {
          "indexed": true,
          "name": "depositedTo",
          "type": "address"
        },
        {
          "indexed": false,
          "name": "tokenId",
          "type": "uint256"
        }
      ],
      "name": "ChallengeInitiated",
      "type": "event"
    },
    {
      "anonymous": false,
      "inputs": [
        {
          "indexed": true,
          "name": "rechallenger",
          "type": "address"
        },
        {
          "indexed": true,
          "name": "depositedTo",
          "type": "address"
        },
        {
          "indexed": false,
          "name": "tokenId",
          "type": "uint256"
        },
        {
          "indexed": false,
          "name": "finalChallengeNonce",
          "type": "uint256"
        }
      ],
      "name": "Challenge",
      "type": "event"
    },
    {
      "anonymous": false,
      "inputs": [
        {
          "indexed": false,
          "name": "tokenId",
          "type": "uint256"
        }
      ],
      "name": "ChallengeResolved",
      "type": "event"
    },
    {
      "anonymous": false,
      "inputs": [
        {
          "indexed": true,
          "name": "withdrawer",
          "type": "address"
        },
        {
          "indexed": true,
          "name": "tokenId",
          "type": "uint256"
        },
        {
          "indexed": false,
          "name": "stakedAmount",
          "type": "uint256"
        }
      ],
      "name": "Withdrawal",
      "type": "event"
    },
    {
      "anonymous": false,
      "inputs": [
        {
          "indexed": false,
          "name": "tx1",
          "type": "bytes"
        },
        {
          "indexed": false,
          "name": "tx2",
          "type": "bytes"
        },
        {
          "indexed": false,
          "name": "tx3",
          "type": "bytes"
        }
      ],
      "name": "Test",
      "type": "event"
    },
    {
      "anonymous": false,
      "inputs": [
        {
          "indexed": false,
          "name": "out",
          "type": "bytes"
        }
      ],
      "name": "Trace",
      "type": "event"
    },
    {
      "anonymous": false,
      "inputs": [
        {
          "indexed": false,
          "name": "out",
          "type": "address"
        }
      ],
      "name": "TraceAddress",
      "type": "event"
    },
    {
      "anonymous": false,
      "inputs": [
        {
          "indexed": false,
          "name": "out",
          "type": "bytes32"
        }
      ],
      "name": "Trace32",
      "type": "event"
    },
    {
      "anonymous": false,
      "inputs": [
        {
          "indexed": false,
          "name": "out",
          "type": "uint256"
        }
      ],
      "name": "TraceUint256",
      "type": "event"
    },
    {
      "constant": false,
      "inputs": [
        {
          "name": "_data",
          "type": "bytes"
        },
        {
          "name": "_i",
          "type": "uint256"
        }
      ],
      "name": "_parseData",
      "outputs": [],
      "payable": false,
      "stateMutability": "nonpayable",
      "type": "function"
    }
  ],
  "bytecode": "0x60806040526040805190810160405280600981526020017f7072655374616b6564000000000000000000000000000000000000000000000081525060009080519060200190620000519291906200026e565b506394bf804d7c010000000000000000000000000000000000000000000000000000000002600960006101000a81548163ffffffff02191690837c010000000000000000000000000000000000000000000000000000000090040217905550632e1a7d4d7c010000000000000000000000000000000000000000000000000000000002600960046101000a81548163ffffffff02191690837c01000000000000000000000000000000000000000000000000000000009004021790555063fe99049a7c010000000000000000000000000000000000000000000000000000000002600960086101000a81548163ffffffff02191690837c010000000000000000000000000000000000000000000000000000000090040217905550636e3c045e7c0100000000000000000000000000000000000000000000000000000000026009600c6101000a81548163ffffffff02191690837c010000000000000000000000000000000000000000000000000000000090040217905550620325aa600a55348015620001de57600080fd5b5060405160208062004c9d83398101806040528101908080519060200190929190505050600260009054906101000a900473ffffffffffffffffffffffffffffffffffffffff1680600260006101000a81548173ffffffffffffffffffffffffffffffffffffffff021916908373ffffffffffffffffffffffffffffffffffffffff16021790555050506200031d565b828054600181600116156101000203166002900490600052602060002090601f016020900481019282601f10620002b157805160ff1916838001178555620002e2565b82800160010185558215620002e2579182015b82811115620002e1578251825591602001919060010190620002c4565b5b509050620002f19190620002f5565b5090565b6200031a91905b8082111562000316576000816000905550600101620002fc565b5090565b90565b614970806200032d6000396000f3006080604052600436106100e6576000357c0100000000000000000000000000000000000000000000000000000000900463ffffffff1680632218f119146100e85780632310b3841461015557806324241ebc1461016c578063379607f51461028257806339cdde32146102af57806344c7d6ef1461035e57806359c8969e1461038b5780635d8d58871461049e5780636d08e8f9146104df5780636e553f65146105e857806377d32e94146106285780638fef56cc146106df57806396b6af5a14610752578063bbcd5bbe14610868578063d7de57c6146108ab578063fb9efcf0146109c1575b005b3480156100f457600080fd5b5061011360048036038101908080359060200190929190505050610a04565b604051808273ffffffffffffffffffffffffffffffffffffffff1673ffffffffffffffffffffffffffffffffffffffff16815260200191505060405180910390f35b34801561016157600080fd5b5061016a610a37565b005b34801561017857600080fd5b50610280600480360381019080803573ffffffffffffffffffffffffffffffffffffffff16906020019092919080359060200190929190803590602001908201803590602001908080602002602001604051908101604052809392919081815260200183836020028082843782019150505050505091929192908035906020019082018035906020019080806020026020016040519081016040528093929190818152602001838360200280828437820191505050505050919291929080359060200190820180359060200190808060200260200160405190810160405280939291908181526020018383602002808284378201915050505050509192919290505050610bd9565b005b34801561028e57600080fd5b506102ad60048036038101908080359060200190929190505050611253565b005b3480156102bb57600080fd5b506103446004803603810190808035600019169060200190929190803590602001908201803590602001908080601f0160208091040260200160405190810160405280939291908181526020018383808284378201915050505050509192919290803573ffffffffffffffffffffffffffffffffffffffff169060200190929190505050611572565b604051808215151515815260200191505060405180910390f35b34801561036a57600080fd5b50610389600480360381019080803590602001909291905050506115b5565b005b61049c600480360381019080803573ffffffffffffffffffffffffffffffffffffffff1690602001909291908035906020019092919080359060200190820180359060200190808060200260200160405190810160405280939291908181526020018383602002808284378201915050505050509192919290803590602001908201803590602001908080602002602001604051908101604052809392919081815260200183836020028082843782019150505050505091929192908035906020019082018035906020019080806020026020016040519081016040528093929190818152602001838360200280828437820191505050505050919291929080359060200190929190505050611765565b005b3480156104aa57600080fd5b506104c960048036038101908080359060200190929190505050611ebf565b6040518082815260200191505060405180910390f35b6105e6600480360381019080803573ffffffffffffffffffffffffffffffffffffffff16906020019092919080359060200190929190803590602001908201803590602001908080602002602001604051908101604052809392919081815260200183836020028082843782019150505050505091929192908035906020019082018035906020019080806020026020016040519081016040528093929190818152602001838360200280828437820191505050505050919291929080359060200190820180359060200190808060200260200160405190810160405280939291908181526020018383602002808284378201915050505050509192919290505050611ed7565b005b61062660048036038101908080359060200190929190803573ffffffffffffffffffffffffffffffffffffffff1690602001909291905050506124ce565b005b34801561063457600080fd5b5061069d6004803603810190808035600019169060200190929190803590602001908201803590602001908080601f01602080910402602001604051908101604052809392919081815260200183838082843782019150505050505091929192905050506125fb565b604051808273ffffffffffffffffffffffffffffffffffffffff1673ffffffffffffffffffffffffffffffffffffffff16815260200191505060405180910390f35b3480156106eb57600080fd5b50610750600480360381019080803590602001908201803590602001908080601f0160208091040260200160405190810160405280939291908181526020018383808284378201915050505050509192919290803590602001909291905050506126f3565b005b34801561075e57600080fd5b50610866600480360381019080803573ffffffffffffffffffffffffffffffffffffffff16906020019092919080359060200190929190803590602001908201803590602001908080602002602001604051908101604052809392919081815260200183836020028082843782019150505050505091929192908035906020019082018035906020019080806020026020016040519081016040528093929190818152602001838360200280828437820191505050505050919291929080359060200190820180359060200190808060200260200160405190810160405280939291908181526020018383602002808284378201915050505050509192919290505050612702565b005b34801561087457600080fd5b506108a9600480360381019080803573ffffffffffffffffffffffffffffffffffffffff169060200190929190505050612d2c565b005b3480156108b757600080fd5b506109bf600480360381019080803573ffffffffffffffffffffffffffffffffffffffff16906020019092919080359060200190929190803590602001908201803590602001908080602002602001604051908101604052809392919081815260200183836020028082843782019150505050505091929192908035906020019082018035906020019080806020026020016040519081016040528093929190818152602001838360200280828437820191505050505050919291929080359060200190820180359060200190808060200260200160405190810160405280939291908181526020018383602002808284378201915050505050509192919290505050612e80565b005b3480156109cd57600080fd5b50610a02600480360381019080803573ffffffffffffffffffffffffffffffffffffffff1690602001909291905050506132ee565b005b60086020528060005260406000206000915054906101000a900473ffffffffffffffffffffffffffffffffffffffff1681565b3373ffffffffffffffffffffffffffffffffffffffff16600260009054906101000a900473ffffffffffffffffffffffffffffffffffffffff1673ffffffffffffffffffffffffffffffffffffffff16141515610a9357600080fd5b60405180807f7072655374616b65640000000000000000000000000000000000000000000000815250600901905060405180910390206000191660006040518082805460018160011615610100020316600290048015610b2a5780601f10610b08576101008083540402835291820191610b2a565b820191906000526020600020905b815481529060010190602001808311610b16575b5050915050604051809103902060001916141515610b4757600080fd5b3073ffffffffffffffffffffffffffffffffffffffff16316004819055503073ffffffffffffffffffffffffffffffffffffffff163160058190555060006006819055506040805190810160405280600681526020017f7374616b6564000000000000000000000000000000000000000000000000000081525060009080519060200190610bd69291906147ca565b50565b6000806060806000600b60008a81526020019081526020016000205414151515610c0257600080fd5b42600b60008a815260200190815260200160002054111515610c2357600080fd5b6000601060008a815260200190815260200160002054111515610c4557600080fd5b610c50878786613442565b600092505b85518310156111c857610d1f610d1a8585815481101515610c7257fe5b906000526020600020018054600181600116156101000203166002900480601f016020809104026020016040519081016040528092919081815260200182805460018160011615610100020316600290048015610d105780601f10610ce557610100808354040283529160200191610d10565b820191906000526020600020905b815481529060010190602001808311610cf357829003601f168201915b50505050506134f9565b613554565b9150610de5610de08560018601815481101515610d3857fe5b906000526020600020018054600181600116156101000203166002900480601f016020809104026020016040519081016040528092919081815260200182805460018160011615610100020316600290048015610dd65780601f10610dab57610100808354040283529160200191610dd6565b820191906000526020600020905b815481529060010190602001808311610db957829003601f168201915b50505050506134f9565b613554565b9050610e0c82828760018701815181101515610dfd57fe5b90602001906020020151613611565b610e4a6000610e3c610e35856005815181101515610e2657fe5b90602001906020020151613d03565b6003613d71565b613dc290919063ffffffff16565b88141515610ee6576040517f08c379a00000000000000000000000000000000000000000000000000000000081526004018080602001828103825260228152602001807f6e6565647320746f20726566657220746f207468652073616d6520746f6b656e81526020017f496400000000000000000000000000000000000000000000000000000000000081525060400191505060405180910390fd5b610f24600c610f16610f0f856005815181101515610f0057fe5b90602001906020020151613d03565b6001613d71565b613deb90919063ffffffff16565b73ffffffffffffffffffffffffffffffffffffffff16600860008a815260200190815260200160002060009054906101000a900473ffffffffffffffffffffffffffffffffffffffff1673ffffffffffffffffffffffffffffffffffffffff1614151561101f576040517f08c379a00000000000000000000000000000000000000000000000000000000081526004018080602001828103825260358152602001807f746f6b656e206e6565647320746f206265207472616e7366657265642066726f81526020017f6d206c6173742070726f76656e20637573746f6479000000000000000000000081525060400191505060405180910390fd5b6010600089815260200190815260200160002054611071600061106361105c86600581518110151561104d57fe5b90602001906020020151613d03565b6004613d71565b613dc290919063ffffffff16565b14151561110c576040517f08c379a000000000000000000000000000000000000000000000000000000000815260040180806020018281038252602c8152602001807f6e6f6e6365206e6565647320746f20657175616c20726571756972656420636881526020017f616c6c656e67654e6f6e6365000000000000000000000000000000000000000081525060400191505060405180910390fd5b61114a600c61113c61113585600581518110151561112657fe5b90602001906020020151613d03565b6002613d71565b613deb90919063ffffffff16565b600860008a815260200190815260200160002060006101000a81548173ffffffffffffffffffffffffffffffffffffffff021916908373ffffffffffffffffffffffffffffffffffffffff1602179055506001601060008a815260200190815260200160002060008282540192505081905550600283019250610c55565b8873ffffffffffffffffffffffffffffffffffffffff163373ffffffffffffffffffffffffffffffffffffffff167f8088a25426f6cf86aeb3c86607e9f059cdcf86a1ca4cb1be8514c1e6f82fa0918a601060008d815260200190815260200160002054604051808381526020018281526020019250505060405180910390a3505050505050505050565b6000600b60008381526020019081526020016000205414151515611305576040517f08c379a00000000000000000000000000000000000000000000000000000000081526004018080602001828103825260288152602001807f746865206368616c6c656e676520706572696f6420686173206e6f742073746181526020017f727465642079657400000000000000000000000000000000000000000000000081525060400191505060405180910390fd5b42600b6000838152602001908152602001600020541015156113b5576040517f08c379a00000000000000000000000000000000000000000000000000000000081526004018080602001828103825260268152602001807f746865206368616c6c656e676520706572696f6420686173206e6f7420656e6481526020017f656420796574000000000000000000000000000000000000000000000000000081525060400191505060405180910390fd5b600f600082815260200190815260200160002054601060008381526020019081526020016000205414806113fc575060006010600083815260200190815260200160002054145b15156114bc576040517f08c379a00000000000000000000000000000000000000000000000000000000081526004018080602001828103825260598152602001807f6569746865722061206368616c6c656e67652068617320737461727465642c2081526020017f6f7220746865206368616c6c656e676520726573706f6e736520686173206e6f81526020017f74206265656e2070726f76656e20746f20656e644e6f6e63650000000000000081525060600191505060405180910390fd5b600d600082815260200190815260200160002060009054906101000a900473ffffffffffffffffffffffffffffffffffffffff1673ffffffffffffffffffffffffffffffffffffffff166108fc600e6000848152602001908152602001600020546007600085815260200190815260200160002054019081150290604051600060405180830381858888f19350505050506000600760008381526020019081526020016000208190555061156f81613e23565b50565b600061157e84846125fb565b73ffffffffffffffffffffffffffffffffffffffff168273ffffffffffffffffffffffffffffffffffffffff161490509392505050565b6000600b600083815260200190815260200160002054141515156115d857600080fd5b42600b6000838152602001908152602001600020541015156115f957600080fd5b600f60008281526020019081526020016000205460106000838152602001908152602001600020541415801561164357506000601060008381526020019081526020016000205414155b15156116dd576040517f08c379a000000000000000000000000000000000000000000000000000000000815260040180806020018281038252602b8152602001807f6368616c6c656e6765206e6f7420696e6974617465642f77697468647261776181526020017f6c20697320686f6e65737400000000000000000000000000000000000000000081525060400191505060405180910390fd5b600d600082815260200190815260200160002060009054906101000a900473ffffffffffffffffffffffffffffffffffffffff1673ffffffffffffffffffffffffffffffffffffffff166108fc600e6000848152602001908152602001600020549081150290604051600060405180830381858888f193505050505061176281613e23565b50565b600060608060606000611795866117873a600a54613f6790919063ffffffff16565b613f6790919063ffffffff16565b34101515156117a357600080fd5b6117ae898987613442565b61187061186b8660008154811015156117c357fe5b906000526020600020018054600181600116156101000203166002900480601f0160208091040260200160405190810160405280929190818152602001828054600181600116156101000203166002900480156118615780601f1061183657610100808354040283529160200191611861565b820191906000526020600020905b81548152906001019060200180831161184457829003601f168201915b50505050506134f9565b613554565b935061193461192f86600181548110151561188757fe5b906000526020600020018054600181600116156101000203166002900480601f0160208091040260200160405190810160405280929190818152602001828054600181600116156101000203166002900480156119255780601f106118fa57610100808354040283529160200191611925565b820191906000526020600020905b81548152906001019060200180831161190857829003601f168201915b50505050506134f9565b613554565b92506119f86119f386600281548110151561194b57fe5b906000526020600020018054600181600116156101000203166002900480601f0160208091040260200160405190810160405280929190818152602001828054600181600116156101000203166002900480156119e95780601f106119be576101008083540402835291602001916119e9565b820191906000526020600020905b8154815290600101906020018083116119cc57829003601f168201915b50505050506134f9565b613554565b9150611a1d8383896002815181101515611a0e57fe5b90602001906020020151613611565b611a5b600c611a4d611a46866005815181101515611a3757fe5b90602001906020020151613d03565b6002613d71565b613deb90919063ffffffff16565b9050600160009054906101000a900473ffffffffffffffffffffffffffffffffffffffff1673ffffffffffffffffffffffffffffffffffffffff16611ab7856003815181101515611aa857fe5b90602001906020020151613f9a565b73ffffffffffffffffffffffffffffffffffffffff16141515611ad957600080fd5b6001876000815181101515611aea57fe5b90602001906020020151611b15866006815181101515611b0657fe5b90602001906020020151613fe1565b611b36876007815181101515611b2757fe5b90602001906020020151614034565b611b57886008815181101515611b4857fe5b90602001906020020151614034565b604051600081526020016040526040518085600019166000191681526020018460ff1660ff1681526020018360001916600019168152602001826000191660001916815260200194505050505060206040516020810390808403906000865af1158015611bc8573d6000803e3d6000fd5b5050506020604051035173ffffffffffffffffffffffffffffffffffffffff168173ffffffffffffffffffffffffffffffffffffffff16141515611c9a576040517f08c379a000000000000000000000000000000000000000000000000000000000815260040180806020018281038252602c8152602001807f5769746864726177616c5478206e6f74207369676e6564206279206c6173745481526020017f782072656365697069656e74000000000000000000000000000000000000000081525060400191505060405180910390fd5b856001611cdb6000611ccd611cc6886005815181101515611cb757fe5b90602001906020020151613d03565b6004613d71565b613dc290919063ffffffff16565b01141515611d51576040517f08c379a00000000000000000000000000000000000000000000000000000000081526004018080602001828103825260138152602001807f6e6f6e63657320646f206e6f74206d617463680000000000000000000000000081525060200191505060405180910390fd5b6000600b60008c815260200190815260200160002054141515611d7357600080fd5b6102584201600b60008c81526020019081526020016000208190555085600f60008c81526020019081526020016000208190555080600c60008c815260200190815260200160002060006101000a81548173ffffffffffffffffffffffffffffffffffffffff021916908373ffffffffffffffffffffffffffffffffffffffff1602179055508a600d60008c815260200190815260200160002060006101000a81548173ffffffffffffffffffffffffffffffffffffffff021916908373ffffffffffffffffffffffffffffffffffffffff16021790555034600e60008c815260200190815260200160002081905550898b73ffffffffffffffffffffffffffffffffffffffff167fdf273cb619d95419a9cd0ec88123a0538c85064229baa6363788f743fff90deb346040518082815260200191505060405180910390a35050505050505050505050565b60076020528060005260406000206000915090505481565b60006060806000600b60008981526020019081526020016000205414151515611eff57600080fd5b42600b600089815260200190815260200160002054111515611f2057600080fd5b611f6d6005611f5f600f60008b815260200190815260200160002054611f513a600a54613f6790919063ffffffff16565b613f6790919063ffffffff16565b61404990919063ffffffff16565b3410151515611f7b57600080fd5b611f86868685613442565b612048612043846000815481101515611f9b57fe5b906000526020600020018054600181600116156101000203166002900480601f0160208091040260200160405190810160405280929190818152602001828054600181600116156101000203166002900480156120395780601f1061200e57610100808354040283529160200191612039565b820191906000526020600020905b81548152906001019060200180831161201c57829003601f168201915b50505050506134f9565b613554565b915061210c61210784600181548110151561205f57fe5b906000526020600020018054600181600116156101000203166002900480601f0160208091040260200160405190810160405280929190818152602001828054600181600116156101000203166002900480156120fd5780601f106120d2576101008083540402835291602001916120fd565b820191906000526020600020905b8154815290600101906020018083116120e057829003601f168201915b50505050506134f9565b613554565b9050612131828286600181518110151561212257fe5b90602001906020020151613611565b61216f600061216161215a85600581518110151561214b57fe5b90602001906020020151613d03565b6003613d71565b613dc290919063ffffffff16565b8714151561220b576040517f08c379a00000000000000000000000000000000000000000000000000000000081526004018080602001828103825260228152602001807f6e6565647320746f20726566657220746f207468652073616d6520746f6b656e81526020017f496400000000000000000000000000000000000000000000000000000000000081525060400191505060405180910390fd5b612249600c61223b61223485600581518110151561222557fe5b90602001906020020151613d03565b6001613d71565b613deb90919063ffffffff16565b73ffffffffffffffffffffffffffffffffffffffff166008600089815260200190815260200160002060009054906101000a900473ffffffffffffffffffffffffffffffffffffffff1673ffffffffffffffffffffffffffffffffffffffff16141515612344576040517f08c379a00000000000000000000000000000000000000000000000000000000081526004018080602001828103825260358152602001807f746f6b656e206e6565647320746f206265207472616e7366657265642066726f81526020017f6d206c6173742070726f76656e20637573746f6479000000000000000000000081525060400191505060405180910390fd5b612382600c61237461236d85600581518110151561235e57fe5b90602001906020020151613d03565b6002613d71565b613deb90919063ffffffff16565b6008600089815260200190815260200160002060006101000a81548173ffffffffffffffffffffffffffffffffffffffff021916908373ffffffffffffffffffffffffffffffffffffffff16021790555034600e600089815260200190815260200160002060008282540192505081905550876011600089815260200190815260200160002060006101000a81548173ffffffffffffffffffffffffffffffffffffffff021916908373ffffffffffffffffffffffffffffffffffffffff160217905550600160106000898152602001908152602001600020819055508773ffffffffffffffffffffffffffffffffffffffff163373ffffffffffffffffffffffffffffffffffffffff167f5331871e026683c9fc9f966209853fdbd75ee7b21e9b4880849a76970c60f1d4896040518082815260200191505060405180910390a35050505050505050565b3460066000828254019250508190555061250434600760008581526020019081526020016000205461406490919063ffffffff16565b6007600084815260200190815260200160002081905550806008600084815260200190815260200160002060006101000a81548173ffffffffffffffffffffffffffffffffffffffff021916908373ffffffffffffffffffffffffffffffffffffffff1602179055503373ffffffffffffffffffffffffffffffffffffffff167f02d7e648dd130fc184d383e55bb126ac4c9c60e8f94bf05acdf557ba2d540b47348484604051808481526020018381526020018273ffffffffffffffffffffffffffffffffffffffff1673ffffffffffffffffffffffffffffffffffffffff168152602001935050505060405180910390a25050565b6000806000806041855114151561261557600093506126ea565b602085015192506040850151915060ff6041860151169050601b8160ff16101561264057601b810190505b601b8160ff16141580156126585750601c8160ff1614155b1561266657600093506126ea565b600186828585604051600081526020016040526040518085600019166000191681526020018460ff1660ff1681526020018360001916600019168152602001826000191660001916815260200194505050505060206040516020810390808403906000865af11580156126dd573d6000803e3d6000fd5b5050506020604051035193505b50505092915050565b6126fd8282613d71565b505050565b6000606080606080612715888887613442565b6127d76127d286600081548110151561272a57fe5b906000526020600020018054600181600116156101000203166002900480601f0160208091040260200160405190810160405280929190818152602001828054600181600116156101000203166002900480156127c85780601f1061279d576101008083540402835291602001916127c8565b820191906000526020600020905b8154815290600101906020018083116127ab57829003601f168201915b50505050506134f9565b613554565b935061289b6128968660018154811015156127ee57fe5b906000526020600020018054600181600116156101000203166002900480601f01602080910402602001604051908101604052809291908181526020018280546001816001161561010002031660029004801561288c5780601f106128615761010080835404028352916020019161288c565b820191906000526020600020905b81548152906001019060200180831161286f57829003601f168201915b50505050506134f9565b613554565b925061295f61295a8660028154811015156128b257fe5b906000526020600020018054600181600116156101000203166002900480601f0160208091040260200160405190810160405280929190818152602001828054600181600116156101000203166002900480156129505780601f1061292557610100808354040283529160200191612950565b820191906000526020600020905b81548152906001019060200180831161293357829003601f168201915b50505050506134f9565b613554565b9150612a23612a1e86600381548110151561297657fe5b906000526020600020018054600181600116156101000203166002900480601f016020809104026020016040519081016040528092919081815260200182805460018160011615610100020316600290048015612a145780601f106129e957610100808354040283529160200191612a14565b820191906000526020600020905b8154815290600101906020018083116129f757829003601f168201915b50505050506134f9565b613554565b9050612a488484886001815181101515612a3957fe5b90602001906020020151613611565b612a6b8282886003815181101515612a5c57fe5b90602001906020020151613611565b612aa96000612a9b612a94876005815181101515612a8557fe5b90602001906020020151613d03565b6003613d71565b613dc290919063ffffffff16565b89141515612b45576040517f08c379a00000000000000000000000000000000000000000000000000000000081526004018080602001828103825260228152602001807f6e6565647320746f20726566657220746f207468652073616d6520746f6b656e81526020017f496400000000000000000000000000000000000000000000000000000000000081525060400191505060405180910390fd5b612b836000612b75612b6e856005815181101515612b5f57fe5b90602001906020020151613d03565b6003613d71565b613dc290919063ffffffff16565b89141515612c1f576040517f08c379a00000000000000000000000000000000000000000000000000000000081526004018080602001828103825260228152602001807f6e6565647320746f20726566657220746f207468652073616d6520746f6b656e81526020017f496400000000000000000000000000000000000000000000000000000000000081525060400191505060405180910390fd5b612c5d6000612c4f612c48876005815181101515612c3957fe5b90602001906020020151613d03565b6004613d71565b613dc290919063ffffffff16565b612c9b6000612c8d612c86866005815181101515612c7757fe5b90602001906020020151613d03565b6004613d71565b613dc290919063ffffffff16565b141515612d10576040517f08c379a00000000000000000000000000000000000000000000000000000000081526004018080602001828103825260208152602001807f6e6565647320746f20726566657220746f207468652073616d65206e6f6e636581525060200191505060405180910390fd5b6000600481905550600060058190555050505050505050505050565b3373ffffffffffffffffffffffffffffffffffffffff16600260009054906101000a900473ffffffffffffffffffffffffffffffffffffffff1673ffffffffffffffffffffffffffffffffffffffff16141515612d8857600080fd5b60405180807f7072655374616b65640000000000000000000000000000000000000000000000815250600901905060405180910390206000191660006040518082805460018160011615610100020316600290048015612e1f5780601f10612dfd576101008083540402835291820191612e1f565b820191906000526020600020905b815481529060010190602001808311612e0b575b5050915050604051809103902060001916141515612e3c57600080fd5b80600160006101000a81548173ffffffffffffffffffffffffffffffffffffffff021916908373ffffffffffffffffffffffffffffffffffffffff16021790555050565b60006060806000600b60008981526020019081526020016000205414151515612ea857600080fd5b42600b600089815260200190815260200160002054111515612ec957600080fd5b612ed4868685613442565b612f96612f91846000815481101515612ee957fe5b906000526020600020018054600181600116156101000203166002900480601f016020809104026020016040519081016040528092919081815260200182805460018160011615610100020316600290048015612f875780601f10612f5c57610100808354040283529160200191612f87565b820191906000526020600020905b815481529060010190602001808311612f6a57829003601f168201915b50505050506134f9565b613554565b915061305a613055846001815481101515612fad57fe5b906000526020600020018054600181600116156101000203166002900480601f01602080910402602001604051908101604052809291908181526020018280546001816001161561010002031660029004801561304b5780601f106130205761010080835404028352916020019161304b565b820191906000526020600020905b81548152906001019060200180831161302e57829003601f168201915b50505050506134f9565b613554565b905061307f828286600181518110151561307057fe5b90602001906020020151613611565b6130bd600c6130af6130a885600581518110151561309957fe5b90602001906020020151613d03565b6001613d71565b613deb90919063ffffffff16565b73ffffffffffffffffffffffffffffffffffffffff16600c600089815260200190815260200160002060009054906101000a900473ffffffffffffffffffffffffffffffffffffffff1673ffffffffffffffffffffffffffffffffffffffff161415156131b8576040517f08c379a00000000000000000000000000000000000000000000000000000000081526004018080602001828103825260358152602001807f746f6b656e206e6565647320746f206265207472616e7366657265642066726f81526020017f6d206c6173742070726f76656e20637573746f6479000000000000000000000081525060400191505060405180910390fd5b6131f660006131e86131e18560058151811015156131d257fe5b90602001906020020151613d03565b6003613d71565b613dc290919063ffffffff16565b87141515613292576040517f08c379a00000000000000000000000000000000000000000000000000000000081526004018080602001828103825260228152602001807f6e6565647320746f20726566657220746f207468652073616d6520746f6b656e81526020017f496400000000000000000000000000000000000000000000000000000000000081525060400191505060405180910390fd5b8773ffffffffffffffffffffffffffffffffffffffff166108fc600e60008a8152602001908152602001600020549081150290604051600060405180830381858888f19350505050506132e487613e23565b5050505050505050565b3373ffffffffffffffffffffffffffffffffffffffff16600260009054906101000a900473ffffffffffffffffffffffffffffffffffffffff1673ffffffffffffffffffffffffffffffffffffffff1614151561334a57600080fd5b60405180807f7072655374616b656400000000000000000000000000000000000000000000008152506009019050604051809103902060001916600060405180828054600181600116156101000203166002900480156133e15780601f106133bf5761010080835404028352918201916133e1565b820191906000526020600020905b8154815290600101906020018083116133cd575b50509150506040518091039020600019161415156133fe57600080fd5b80600360006101000a81548173ffffffffffffffffffffffffffffffffffffffff021916908373ffffffffffffffffffffffffffffffffffffffff16021790555050565b60008060009150600090505b83518110156134f2576134798583868481518110151561346a57fe5b90602001906020020151614082565b838281548110151561348757fe5b9060005260206000200190805190602001906134a492919061484a565b506134cf84828151811015156134b657fe5b906020019060200201518361406490919063ffffffff16565b91506040828115156134dd57fe5b0660400382019150808060010191505061344e565b5050505050565b6135016148ca565b60008083519150600082141561352f576040805190810160405280600081526020016000815250925061354d565b60208401905060408051908101604052808281526020018381525092505b5050919050565b606060006135606148e4565b600061356b85614187565b151561357657600080fd5b61357f856141b9565b9250826040519080825280602002602001820160405280156135bb57816020015b6135a8614905565b8152602001906001900390816135a05790505b5093506135c785614233565b91505b6135d38261427b565b15613609576135e1826142a5565b84828151811015156135ef57fe5b9060200190602002018190525080806001019150506135ca565b505050919050565b600160009054906101000a900473ffffffffffffffffffffffffffffffffffffffff1673ffffffffffffffffffffffffffffffffffffffff1661366b84600381518110151561365c57fe5b90602001906020020151613f9a565b73ffffffffffffffffffffffffffffffffffffffff1614151561368d57600080fd5b600160009054906101000a900473ffffffffffffffffffffffffffffffffffffffff1673ffffffffffffffffffffffffffffffffffffffff166136e78360038151811015156136d857fe5b90602001906020020151613f9a565b73ffffffffffffffffffffffffffffffffffffffff1614151561370957600080fd5b600960089054906101000a90047c0100000000000000000000000000000000000000000000000000000000027bffffffffffffffffffffffffffffffffffffffffffffffffffffffff191661378961378261377b86600581518110151561376c57fe5b90602001906020020151613d03565b6000613d71565b6000614301565b7bffffffffffffffffffffffffffffffffffffffffffffffffffffffff1916141515613843576040517f08c379a00000000000000000000000000000000000000000000000000000000081526004018080602001828103825260288152602001807f5f7472616e736665725478206973206e6f74207472616e7366657246726f6d2081526020017f66756e6374696f6e00000000000000000000000000000000000000000000000081525060400191505060405180910390fd5b6009600c9054906101000a90047c0100000000000000000000000000000000000000000000000000000000027bffffffffffffffffffffffffffffffffffffffffffffffffffffffff19166138c36138bc6138b58560058151811015156138a657fe5b90602001906020020151613d03565b6000613d71565b6000614301565b7bffffffffffffffffffffffffffffffffffffffffffffffffffffffff191614151561397d576040517f08c379a00000000000000000000000000000000000000000000000000000000081526004018080602001828103825260258152602001807f5f637573746f6469616e5478206973206e6f7420637573746f6469616e41707081526020017f726f76616c00000000000000000000000000000000000000000000000000000081525060400191505060405180910390fd5b6001816139a184600681518110151561399257fe5b90602001906020020151613fe1565b6139c28560078151811015156139b357fe5b90602001906020020151614034565b6139e38660088151811015156139d457fe5b90602001906020020151614034565b604051600081526020016040526040518085600019166000191681526020018460ff1660ff1681526020018360001916600019168152602001826000191660001916815260200194505050505060206040516020810390808403906000865af1158015613a54573d6000803e3d6000fd5b5050506020604051035173ffffffffffffffffffffffffffffffffffffffff16600360009054906101000a900473ffffffffffffffffffffffffffffffffffffffff1673ffffffffffffffffffffffffffffffffffffffff16141515613b48576040517f08c379a000000000000000000000000000000000000000000000000000000000815260040180806020018281038252602a8152602001807f5f637573746f6469616e54782073686f756c64206265207369676e656420627981526020017f20637573746f6469616e0000000000000000000000000000000000000000000081525060400191505060405180910390fd5b613baf613b76613b6f846005815181101515613b6057fe5b90602001906020020151613d03565b6001613d71565b613ba1613b9a866005815181101515613b8b57fe5b90602001906020020151613d03565b6003613d71565b6143fa90919063ffffffff16565b1515613c23576040517f08c379a00000000000000000000000000000000000000000000000000000000081526004018080602001828103825260168152602001807f746f6b656e5f69647320646f206e6f74206d617463680000000000000000000081525060200191505060405180910390fd5b613c8a613c51613c4a846005815181101515613c3b57fe5b90602001906020020151613d03565b6002613d71565b613c7c613c75866005815181101515613c6657fe5b90602001906020020151613d03565b6004613d71565b6143fa90919063ffffffff16565b1515613cfe576040517f08c379a00000000000000000000000000000000000000000000000000000000081526004018080602001828103825260138152602001807f6e6f6e63657320646f206e6f74206d617463680000000000000000000000000081525060200191505060405180910390fd5b505050565b6060600080613d1184614469565b1515613d1c57600080fd5b613d258461449a565b91509150806040519080825280601f01601f191660200182016040528015613d5c5781602001602082028038833980820191505090505b509250613d6a82848361451b565b5050919050565b60606000821415613d9a57613d93600060058561455c9092919063ffffffff16565b9050613dbc565b613db96020600184030260040160208561455c9092919063ffffffff16565b90505b92915050565b60008060208301845110151515613dd857600080fd5b8260208501015190508091505092915050565b60008060148301845110151515613e0157600080fd5b6c01000000000000000000000000836020860101510490508091505092915050565b6000600e6000838152602001908152602001600020819055506000600d600083815260200190815260200160002060006101000a81548173ffffffffffffffffffffffffffffffffffffffff021916908373ffffffffffffffffffffffffffffffffffffffff1602179055506000600c600083815260200190815260200160002060006101000a81548173ffffffffffffffffffffffffffffffffffffffff021916908373ffffffffffffffffffffffffffffffffffffffff1602179055506000600f6000838152602001908152602001600020819055506000600b600083815260200190815260200160002081905550600060106000838152602001908152602001600020819055507f7874ca11ed47a2bbe287f114874e02e047a1261400f57712590c8f364b126501816040518082815260200191505060405180910390a150565b60008082840290506000841480613f885750828482811515613f8557fe5b04145b1515613f9057fe5b8091505092915050565b6000806000613fa884614469565b1515613fb357600080fd5b613fbc8461449a565b91509150601481141515613fcf57600080fd5b600c6101000a82510492505050919050565b6000806000613fef84614469565b1515613ffa57600080fd5b6140038461449a565b9150915060208111806140165750600081145b1561402057600080fd5b806020036101000a82510492505050919050565b600061403f82613fe1565b6001029050919050565b600080828481151561405757fe5b0490508091505092915050565b600080828401905083811015151561407857fe5b8091505092915050565b606080600080600061409e60408861404990919063ffffffff16565b92506140b3868861406490919063ffffffff16565b91506140c960408361404990919063ffffffff16565b90505b80831015614115576141066140f789858151811015156140e857fe5b906020019060200201516145e9565b8561461a90919063ffffffff16565b935082806001019350506140cc565b61417761416860006001600260408781151561412d57fe5b0681151561413757fe5b04036141598c8681518110151561414a57fe5b906020019060200201516145e9565b61455c9092919063ffffffff16565b8561461a90919063ffffffff16565b9350839450505050509392505050565b6000806000836020015114156141a057600091506141b3565b8260000151905060c0815160001a101591505b50919050565b6000806000806000806141cb87614187565b15156141da5760009550614229565b86600001519350835160001a94506141f1876146a4565b840192506001876020015185010391505b81831115156142255761421483614730565b830192508080600101915050614202565b8095505b5050505050919050565b61423b6148e4565b600061424683614187565b151561425157600080fd5b61425a836146a4565b83600001510190508282600001819052508082602001818152505050919050565b60006142856148ca565b826000015190508060200151816000015101836020015110915050919050565b6142ad6148ca565b6000806142b98461427b565b156142f557836020015191506142ce82614730565b905081836000018181525050808360200181815250508082018460200181815250506142fa565b600080fd5b5050919050565b60008060008090505b60048110156143ef576008810260ff7f0100000000000000000000000000000000000000000000000000000000000000028683870181518110151561434b57fe5b9060200101517f010000000000000000000000000000000000000000000000000000000000000090047f010000000000000000000000000000000000000000000000000000000000000002167effffffffffffffffffffffffffffffffffffffffffffffffffffffffffffff19167bffffffffffffffffffffffffffffffffffffffffffffffffffffffff19169060020a900482179150808060010191505061430a565b819250505092915050565b6000806001905083518351811460018114614418576000925061445d565b600160208701838101602088015b60028483851001141561445857805183511415156144475760009650600093505b602083019250602081019050614426565b505050505b50508091505092915050565b6000806000836020015114156144825760009150614494565b8260000151905060c0815160001a1091505b50919050565b60008060008060006144ab86614469565b15156144b657600080fd5b85600001519150815160001a925060808310156144d95781945060019350614513565b60b88310156144f75760018660200151039350600182019450614512565b60b78303905080600187602001510303935060018183010194505b5b505050915091565b60006020601f83010484602085015b828414614549576020840280830151818301526001850194505061452a565b6000865160200187015250505050505050565b60608082840185511015151561457157600080fd5b82156000811461458c576040519150602082016040526145dd565b6040519150601f8416801560200281840101858101878315602002848b0101015b818310156145ca57805183526020830192506020810190506145ad565b50868552601f19601f8301166040525050505b50809150509392505050565b6060816040516020018082600019166000191681526020019150506040516020818303038152906040529050919050565b6060806040519050835180825260208201818101602087015b818310156146505780518352602083019250602081019050614633565b50855192508351830184528091508282019050602086015b818310156146855780518352602083019250602081019050614668565b50601f19601f8851850115830101166040525050508091505092915050565b600080600080846020015114156146be5760009250614729565b83600001519050805160001a915060808210156146de5760009250614729565b60b88210806146fa575060c082101580156146f9575060f882105b5b156147085760019250614729565b60c082101561471f57600160b78303019250614729565b600160f783030192505b5050919050565b600080825160001a9050608081101561474c57600191506147c4565b60b8811015614763576001608082030191506147c3565b60c081101561478d5760b78103806020036101000a600185015104808201600101935050506147c2565b60f88110156147a457600160c082030191506147c1565b60f78103806020036101000a600185015104808201600101935050505b5b5b5b50919050565b828054600181600116156101000203166002900490600052602060002090601f016020900481019282601f1061480b57805160ff1916838001178555614839565b82800160010185558215614839579182015b8281111561483857825182559160200191906001019061481d565b5b509050614846919061491f565b5090565b828054600181600116156101000203166002900490600052602060002090601f016020900481019282601f1061488b57805160ff19168380011785556148b9565b828001600101855582156148b9579182015b828111156148b857825182559160200191906001019061489d565b5b5090506148c6919061491f565b5090565b604080519081016040528060008152602001600081525090565b6060604051908101604052806148f8614905565b8152602001600081525090565b604080519081016040528060008152602001600081525090565b61494191905b8082111561493d576000816000905550600101614925565b5090565b905600a165627a7a7230582023c0029c6f7f5e9187953db745dd5ce84e5ca65c9547833b0c4964e8ca1cac1e0029",
  "source": "pragma solidity ^0.4.24;\n\nimport \"../DepositContract.sol\";\n\ncontract DepositContractMock is DepositContract {\n  constructor(address _custodian) public\n    DepositContract(custodian)\n  { }\n\n  function _parseData(bytes _data, uint256 _i) public {\n    super.parseData(_data, _i);\n  }\n\n  // function _splitTxBundle(bytes _rawTxBundle, uint256[] _txLengths, bytes[] storage _rawTxList) public {\n  //   super.splitTxBundle(_data, _i);\n  // }\n\n\n}",
  "sourcePath": "/home/yingtong/peaceBridge/contracts/mocks/DepositContractMock.sol",
  "compiler": {
    "name": "solc",
    "version": "0.4.24+commit.e67f0147.Emscripten.clang"
  },
  "schemaVersion": "2.0.1",
  "updatedAt": "2019-01-19T03:55:22.150Z"
}