{
  "contractName": "DepositContractMock",
  "abi": [
    {
      "constant": true,
      "inputs": [
        {
          "name": "",
          "type": "uint256"
        }
      ],
      "name": "tokenIdToMinter",
      "outputs": [
        {
          "name": "",
          "type": "address"
        }
      ],
      "payable": false,
      "stateMutability": "view",
      "type": "function"
    },
    {
      "constant": false,
      "inputs": [],
      "name": "finalizeStake",
      "outputs": [],
      "payable": false,
      "stateMutability": "nonpayable",
      "type": "function"
    },
    {
      "constant": false,
      "inputs": [
        {
          "name": "_to",
          "type": "address"
        },
        {
          "name": "_tokenId",
          "type": "uint256"
        },
        {
          "name": "_rawTxBundle",
          "type": "bytes32[]"
        },
        {
          "name": "_txLengths",
          "type": "uint256[]"
        },
        {
          "name": "_txMsgHashes",
          "type": "bytes32[]"
        }
      ],
      "name": "challengeWithPastCustody",
      "outputs": [],
      "payable": false,
      "stateMutability": "nonpayable",
      "type": "function"
    },
    {
      "constant": false,
      "inputs": [
        {
          "name": "_tokenId",
          "type": "uint256"
        }
      ],
      "name": "claim",
      "outputs": [],
      "payable": false,
      "stateMutability": "nonpayable",
      "type": "function"
    },
    {
      "constant": false,
      "inputs": [
        {
          "name": "hash",
          "type": "bytes32"
        },
        {
          "name": "sig",
          "type": "bytes"
        },
        {
          "name": "signer",
          "type": "address"
        }
      ],
      "name": "ecverify",
      "outputs": [
        {
          "name": "",
          "type": "bool"
        }
      ],
      "payable": false,
      "stateMutability": "nonpayable",
      "type": "function"
    },
    {
      "constant": false,
      "inputs": [
        {
          "name": "_to",
          "type": "address"
        },
        {
          "name": "_tokenId",
          "type": "uint256"
        },
        {
          "name": "_rawTxBundle",
          "type": "bytes32[]"
        },
        {
          "name": "_txLengths",
          "type": "uint256[]"
        },
        {
          "name": "_txMsgHashes",
          "type": "bytes32[]"
        },
        {
          "name": "_declaredNonce",
          "type": "uint256"
        }
      ],
      "name": "withdraw",
      "outputs": [],
      "payable": true,
      "stateMutability": "payable",
      "type": "function"
    },
    {
      "constant": true,
      "inputs": [
        {
          "name": "",
          "type": "uint256"
        }
      ],
      "name": "tokenIdToAmount",
      "outputs": [
        {
          "name": "",
          "type": "uint256"
        }
      ],
      "payable": false,
      "stateMutability": "view",
      "type": "function"
    },
    {
      "constant": false,
      "inputs": [
        {
          "name": "_to",
          "type": "address"
        },
        {
          "name": "_tokenId",
          "type": "uint256"
        },
        {
          "name": "_rawTxBundle",
          "type": "bytes32[]"
        },
        {
          "name": "_txLengths",
          "type": "uint256[]"
        },
        {
          "name": "_txMsgHashes",
          "type": "bytes32[]"
        }
      ],
      "name": "initiateChallengeWithPastCustody",
      "outputs": [],
      "payable": true,
      "stateMutability": "payable",
      "type": "function"
    },
    {
      "constant": false,
      "inputs": [
        {
          "name": "_tokenId",
          "type": "uint256"
        },
        {
          "name": "_minter",
          "type": "address"
        }
      ],
      "name": "deposit",
      "outputs": [],
      "payable": true,
      "stateMutability": "payable",
      "type": "function"
    },
    {
      "constant": false,
      "inputs": [
        {
          "name": "hash",
          "type": "bytes32"
        },
        {
          "name": "sig",
          "type": "bytes"
        }
      ],
      "name": "ecrecovery",
      "outputs": [
        {
          "name": "",
          "type": "address"
        }
      ],
      "payable": false,
      "stateMutability": "nonpayable",
      "type": "function"
    },
    {
      "constant": false,
      "inputs": [
        {
          "name": "_to",
          "type": "address"
        },
        {
          "name": "_tokenId",
          "type": "uint256"
        },
        {
          "name": "_rawTxBundle",
          "type": "bytes32[]"
        },
        {
          "name": "_txLengths",
          "type": "uint256[]"
        },
        {
          "name": "_txMsgHashes",
          "type": "bytes32[]"
        }
      ],
      "name": "submitCustodianDoubleSign",
      "outputs": [],
      "payable": false,
      "stateMutability": "nonpayable",
      "type": "function"
    },
    {
      "constant": false,
      "inputs": [
        {
          "name": "_tokenContract",
          "type": "address"
        }
      ],
      "name": "setTokenContract",
      "outputs": [],
      "payable": false,
      "stateMutability": "nonpayable",
      "type": "function"
    },
    {
      "constant": false,
      "inputs": [
        {
          "name": "_to",
          "type": "address"
        },
        {
          "name": "_tokenId",
          "type": "uint256"
        },
        {
          "name": "_rawTxBundle",
          "type": "bytes32[]"
        },
        {
          "name": "_txLengths",
          "type": "uint256[]"
        },
        {
          "name": "_txMsgHashes",
          "type": "bytes32[]"
        }
      ],
      "name": "challengeWithFutureCustody",
      "outputs": [],
      "payable": false,
      "stateMutability": "nonpayable",
      "type": "function"
    },
    {
      "constant": false,
      "inputs": [
        {
          "name": "_custodianForeign",
          "type": "address"
        }
      ],
      "name": "setCustodianForeign",
      "outputs": [],
      "payable": false,
      "stateMutability": "nonpayable",
      "type": "function"
    },
    {
      "inputs": [
        {
          "name": "_custodian",
          "type": "address"
        }
      ],
      "payable": false,
      "stateMutability": "nonpayable",
      "type": "constructor"
    },
    {
      "payable": true,
      "stateMutability": "payable",
      "type": "fallback"
    },
    {
      "anonymous": false,
      "inputs": [
        {
          "indexed": true,
          "name": "depositer",
          "type": "address"
        },
        {
          "indexed": false,
          "name": "amount",
          "type": "uint256"
        },
        {
          "indexed": false,
          "name": "tokenId",
          "type": "uint256"
        },
        {
          "indexed": false,
          "name": "minter",
          "type": "address"
        }
      ],
      "name": "Deposit",
      "type": "event"
    },
    {
      "anonymous": false,
      "inputs": [
        {
          "indexed": true,
          "name": "challenger",
          "type": "address"
        },
        {
          "indexed": true,
          "name": "depositedTo",
          "type": "address"
        },
        {
          "indexed": false,
          "name": "tokenId",
          "type": "uint256"
        }
      ],
      "name": "ChallengeInitiated",
      "type": "event"
    },
    {
      "anonymous": false,
      "inputs": [
        {
          "indexed": true,
          "name": "rechallenger",
          "type": "address"
        },
        {
          "indexed": true,
          "name": "depositedTo",
          "type": "address"
        },
        {
          "indexed": false,
          "name": "tokenId",
          "type": "uint256"
        },
        {
          "indexed": false,
          "name": "finalChallengeNonce",
          "type": "uint256"
        }
      ],
      "name": "Challenge",
      "type": "event"
    },
    {
      "anonymous": false,
      "inputs": [
        {
          "indexed": false,
          "name": "tokenId",
          "type": "uint256"
        }
      ],
      "name": "ChallengeResolved",
      "type": "event"
    },
    {
      "anonymous": false,
      "inputs": [
        {
          "indexed": true,
          "name": "withdrawer",
          "type": "address"
        },
        {
          "indexed": true,
          "name": "tokenId",
          "type": "uint256"
        },
        {
          "indexed": false,
          "name": "stakedAmount",
          "type": "uint256"
        }
      ],
      "name": "Withdrawal",
      "type": "event"
    },
    {
      "anonymous": false,
      "inputs": [
        {
          "indexed": false,
          "name": "tx1",
          "type": "bytes"
        },
        {
          "indexed": false,
          "name": "tx2",
          "type": "bytes"
        },
        {
          "indexed": false,
          "name": "tx3",
          "type": "bytes"
        }
      ],
      "name": "Test",
      "type": "event"
    },
    {
      "anonymous": false,
      "inputs": [
        {
          "indexed": false,
          "name": "out",
          "type": "bytes"
        }
      ],
      "name": "Trace",
      "type": "event"
    },
    {
      "anonymous": false,
      "inputs": [
        {
          "indexed": false,
          "name": "out",
          "type": "address"
        }
      ],
      "name": "TraceAddress",
      "type": "event"
    },
    {
      "anonymous": false,
      "inputs": [
        {
          "indexed": false,
          "name": "out",
          "type": "bytes32"
        }
      ],
      "name": "Trace32",
      "type": "event"
    },
    {
      "anonymous": false,
      "inputs": [
        {
          "indexed": false,
          "name": "out",
          "type": "uint256"
        }
      ],
      "name": "TraceUint256",
      "type": "event"
    },
    {
      "constant": false,
      "inputs": [
        {
          "name": "_data",
          "type": "bytes"
        },
        {
          "name": "_i",
          "type": "uint256"
        }
      ],
      "name": "_parseData",
      "outputs": [],
      "payable": false,
      "stateMutability": "nonpayable",
      "type": "function"
    }
  ],
  "bytecode": "0x60806040526040805190810160405280600981526020017f7072655374616b6564000000000000000000000000000000000000000000000081525060009080519060200190620000519291906200026e565b506394bf804d7c010000000000000000000000000000000000000000000000000000000002600960006101000a81548163ffffffff02191690837c010000000000000000000000000000000000000000000000000000000090040217905550632e1a7d4d7c010000000000000000000000000000000000000000000000000000000002600960046101000a81548163ffffffff02191690837c01000000000000000000000000000000000000000000000000000000009004021790555063fe99049a7c010000000000000000000000000000000000000000000000000000000002600960086101000a81548163ffffffff02191690837c010000000000000000000000000000000000000000000000000000000090040217905550636e3c045e7c0100000000000000000000000000000000000000000000000000000000026009600c6101000a81548163ffffffff02191690837c010000000000000000000000000000000000000000000000000000000090040217905550620325aa600a55348015620001de57600080fd5b506040516020806200494b83398101806040528101908080519060200190929190505050600260009054906101000a900473ffffffffffffffffffffffffffffffffffffffff1680600260006101000a81548173ffffffffffffffffffffffffffffffffffffffff021916908373ffffffffffffffffffffffffffffffffffffffff16021790555050506200031d565b828054600181600116156101000203166002900490600052602060002090601f016020900481019282601f10620002b157805160ff1916838001178555620002e2565b82800160010185558215620002e2579182015b82811115620002e1578251825591602001919060010190620002c4565b5b509050620002f19190620002f5565b5090565b6200031a91905b8082111562000316576000816000905550600101620002fc565b5090565b90565b61461e806200032d6000396000f3006080604052600436106100db576000357c0100000000000000000000000000000000000000000000000000000000900463ffffffff1680632218f119146100dd5780632310b3841461014a57806324241ebc14610161578063379607f51461027757806339cdde32146102a457806359c8969e146103535780635d8d5887146104665780636d08e8f9146104a75780636e553f65146105b057806377d32e94146105f05780638fef56cc146106a757806396b6af5a1461071a578063bbcd5bbe14610830578063d7de57c614610873578063fb9efcf014610989575b005b3480156100e957600080fd5b50610108600480360381019080803590602001909291905050506109cc565b604051808273ffffffffffffffffffffffffffffffffffffffff1673ffffffffffffffffffffffffffffffffffffffff16815260200191505060405180910390f35b34801561015657600080fd5b5061015f6109ff565b005b34801561016d57600080fd5b50610275600480360381019080803573ffffffffffffffffffffffffffffffffffffffff16906020019092919080359060200190929190803590602001908201803590602001908080602002602001604051908101604052809392919081815260200183836020028082843782019150505050505091929192908035906020019082018035906020019080806020026020016040519081016040528093929190818152602001838360200280828437820191505050505050919291929080359060200190820180359060200190808060200260200160405190810160405280939291908181526020018383602002808284378201915050505050509192919290505050610ba1565b005b34801561028357600080fd5b506102a2600480360381019080803590602001909291905050506110b1565b005b3480156102b057600080fd5b506103396004803603810190808035600019169060200190929190803590602001908201803590602001908080601f0160208091040260200160405190810160405280939291908181526020018383808284378201915050505050509192919290803573ffffffffffffffffffffffffffffffffffffffff1690602001909291905050506113d0565b604051808215151515815260200191505060405180910390f35b610464600480360381019080803573ffffffffffffffffffffffffffffffffffffffff1690602001909291908035906020019092919080359060200190820180359060200190808060200260200160405190810160405280939291908181526020018383602002808284378201915050505050509192919290803590602001908201803590602001908080602002602001604051908101604052809392919081815260200183836020028082843782019150505050505091929192908035906020019082018035906020019080806020026020016040519081016040528093929190818152602001838360200280828437820191505050505050919291929080359060200190929190505050611413565b005b34801561047257600080fd5b5061049160048036038101908080359060200190929190505050611b6d565b6040518082815260200191505060405180910390f35b6105ae600480360381019080803573ffffffffffffffffffffffffffffffffffffffff16906020019092919080359060200190929190803590602001908201803590602001908080602002602001604051908101604052809392919081815260200183836020028082843782019150505050505091929192908035906020019082018035906020019080806020026020016040519081016040528093929190818152602001838360200280828437820191505050505050919291929080359060200190820180359060200190808060200260200160405190810160405280939291908181526020018383602002808284378201915050505050509192919290505050611b85565b005b6105ee60048036038101908080359060200190929190803573ffffffffffffffffffffffffffffffffffffffff16906020019092919050505061217c565b005b3480156105fc57600080fd5b506106656004803603810190808035600019169060200190929190803590602001908201803590602001908080601f01602080910402602001604051908101604052809392919081815260200183838082843782019150505050505091929192905050506122a9565b604051808273ffffffffffffffffffffffffffffffffffffffff1673ffffffffffffffffffffffffffffffffffffffff16815260200191505060405180910390f35b3480156106b357600080fd5b50610718600480360381019080803590602001908201803590602001908080601f0160208091040260200160405190810160405280939291908181526020018383808284378201915050505050509192919290803590602001909291905050506123a1565b005b34801561072657600080fd5b5061082e600480360381019080803573ffffffffffffffffffffffffffffffffffffffff169060200190929190803590602001909291908035906020019082018035906020019080806020026020016040519081016040528093929190818152602001838360200280828437820191505050505050919291929080359060200190820180359060200190808060200260200160405190810160405280939291908181526020018383602002808284378201915050505050509192919290803590602001908201803590602001908080602002602001604051908101604052809392919081815260200183836020028082843782019150505050505091929192905050506123b0565b005b34801561083c57600080fd5b50610871600480360381019080803573ffffffffffffffffffffffffffffffffffffffff1690602001909291905050506129da565b005b34801561087f57600080fd5b50610987600480360381019080803573ffffffffffffffffffffffffffffffffffffffff16906020019092919080359060200190929190803590602001908201803590602001908080602002602001604051908101604052809392919081815260200183836020028082843782019150505050505091929192908035906020019082018035906020019080806020026020016040519081016040528093929190818152602001838360200280828437820191505050505050919291929080359060200190820180359060200190808060200260200160405190810160405280939291908181526020018383602002808284378201915050505050509192919290505050612b2e565b005b34801561099557600080fd5b506109ca600480360381019080803573ffffffffffffffffffffffffffffffffffffffff169060200190929190505050612f9c565b005b60086020528060005260406000206000915054906101000a900473ffffffffffffffffffffffffffffffffffffffff1681565b3373ffffffffffffffffffffffffffffffffffffffff16600260009054906101000a900473ffffffffffffffffffffffffffffffffffffffff1673ffffffffffffffffffffffffffffffffffffffff16141515610a5b57600080fd5b60405180807f7072655374616b65640000000000000000000000000000000000000000000000815250600901905060405180910390206000191660006040518082805460018160011615610100020316600290048015610af25780601f10610ad0576101008083540402835291820191610af2565b820191906000526020600020905b815481529060010190602001808311610ade575b5050915050604051809103902060001916141515610b0f57600080fd5b3073ffffffffffffffffffffffffffffffffffffffff16316004819055503073ffffffffffffffffffffffffffffffffffffffff163160058190555060006006819055506040805190810160405280600681526020017f7374616b6564000000000000000000000000000000000000000000000000000081525060009080519060200190610b9e929190614478565b50565b60006060806000600b60008981526020019081526020016000205414151515610bc957600080fd5b42600b600089815260200190815260200160002054111515610bea57600080fd5b60006010600089815260200190815260200160002054111515610c0c57600080fd5b610c178686856130f0565b610cd9610cd4846000815481101515610c2c57fe5b906000526020600020018054600181600116156101000203166002900480601f016020809104026020016040519081016040528092919081815260200182805460018160011615610100020316600290048015610cca5780601f10610c9f57610100808354040283529160200191610cca565b820191906000526020600020905b815481529060010190602001808311610cad57829003601f168201915b50505050506131a7565b613202565b9150610d9d610d98846001815481101515610cf057fe5b906000526020600020018054600181600116156101000203166002900480601f016020809104026020016040519081016040528092919081815260200182805460018160011615610100020316600290048015610d8e5780601f10610d6357610100808354040283529160200191610d8e565b820191906000526020600020905b815481529060010190602001808311610d7157829003601f168201915b50505050506131a7565b613202565b9050610dc28282866001815181101515610db357fe5b906020019060200201516132bf565b610e00600c610df2610deb856005815181101515610ddc57fe5b906020019060200201516139b1565b6001613a1f565b613a7090919063ffffffff16565b73ffffffffffffffffffffffffffffffffffffffff16600c600089815260200190815260200160002060009054906101000a900473ffffffffffffffffffffffffffffffffffffffff1673ffffffffffffffffffffffffffffffffffffffff16141515610efb576040517f08c379a00000000000000000000000000000000000000000000000000000000081526004018080602001828103825260358152602001807f746f6b656e206e6565647320746f206265207472616e7366657265642066726f81526020017f6d206c6173742070726f76656e20637573746f6479000000000000000000000081525060400191505060405180910390fd5b610f396000610f2b610f24856005815181101515610f1557fe5b906020019060200201516139b1565b6003613a1f565b613aa890919063ffffffff16565b87141515610fd5576040517f08c379a00000000000000000000000000000000000000000000000000000000081526004018080602001828103825260228152602001807f6e6565647320746f20726566657220746f207468652073616d6520746f6b656e81526020017f496400000000000000000000000000000000000000000000000000000000000081525060400191505060405180910390fd5b8773ffffffffffffffffffffffffffffffffffffffff166108fc600e60008a8152602001908152602001600020549081150290604051600060405180830381858888f193505050505061102787613ad1565b8773ffffffffffffffffffffffffffffffffffffffff163373ffffffffffffffffffffffffffffffffffffffff167f8088a25426f6cf86aeb3c86607e9f059cdcf86a1ca4cb1be8514c1e6f82fa09189601060008c815260200190815260200160002054604051808381526020018281526020019250505060405180910390a35050505050505050565b6000600b60008381526020019081526020016000205414151515611163576040517f08c379a00000000000000000000000000000000000000000000000000000000081526004018080602001828103825260288152602001807f746865206368616c6c656e676520706572696f6420686173206e6f742073746181526020017f727465642079657400000000000000000000000000000000000000000000000081525060400191505060405180910390fd5b42600b600083815260200190815260200160002054101515611213576040517f08c379a00000000000000000000000000000000000000000000000000000000081526004018080602001828103825260268152602001807f746865206368616c6c656e676520706572696f6420686173206e6f7420656e6481526020017f656420796574000000000000000000000000000000000000000000000000000081525060400191505060405180910390fd5b600f6000828152602001908152602001600020546010600083815260200190815260200160002054148061125a575060006010600083815260200190815260200160002054145b151561131a576040517f08c379a00000000000000000000000000000000000000000000000000000000081526004018080602001828103825260528152602001807f61206368616c6c656e676520686173207374617274656420616e64207468652081526020017f6368616c6c656e676520726573706f6e736520686173206e6f74206265656e2081526020017f70726f76656e20746f20656e644e6f6e6365000000000000000000000000000081525060600191505060405180910390fd5b600d600082815260200190815260200160002060009054906101000a900473ffffffffffffffffffffffffffffffffffffffff1673ffffffffffffffffffffffffffffffffffffffff166108fc600e6000848152602001908152602001600020546007600085815260200190815260200160002054019081150290604051600060405180830381858888f1935050505050600060076000838152602001908152602001600020819055506113cd81613ad1565b50565b60006113dc84846122a9565b73ffffffffffffffffffffffffffffffffffffffff168273ffffffffffffffffffffffffffffffffffffffff161490509392505050565b600060608060606000611443866114353a600a54613c1590919063ffffffff16565b613c1590919063ffffffff16565b341015151561145157600080fd5b61145c8989876130f0565b61151e61151986600081548110151561147157fe5b906000526020600020018054600181600116156101000203166002900480601f01602080910402602001604051908101604052809291908181526020018280546001816001161561010002031660029004801561150f5780601f106114e45761010080835404028352916020019161150f565b820191906000526020600020905b8154815290600101906020018083116114f257829003601f168201915b50505050506131a7565b613202565b93506115e26115dd86600181548110151561153557fe5b906000526020600020018054600181600116156101000203166002900480601f0160208091040260200160405190810160405280929190818152602001828054600181600116156101000203166002900480156115d35780601f106115a8576101008083540402835291602001916115d3565b820191906000526020600020905b8154815290600101906020018083116115b657829003601f168201915b50505050506131a7565b613202565b92506116a66116a18660028154811015156115f957fe5b906000526020600020018054600181600116156101000203166002900480601f0160208091040260200160405190810160405280929190818152602001828054600181600116156101000203166002900480156116975780601f1061166c57610100808354040283529160200191611697565b820191906000526020600020905b81548152906001019060200180831161167a57829003601f168201915b50505050506131a7565b613202565b91506116cb83838960028151811015156116bc57fe5b906020019060200201516132bf565b611709600c6116fb6116f48660058151811015156116e557fe5b906020019060200201516139b1565b6002613a1f565b613a7090919063ffffffff16565b9050600160009054906101000a900473ffffffffffffffffffffffffffffffffffffffff1673ffffffffffffffffffffffffffffffffffffffff1661176585600381518110151561175657fe5b90602001906020020151613c48565b73ffffffffffffffffffffffffffffffffffffffff1614151561178757600080fd5b600187600081518110151561179857fe5b906020019060200201516117c38660068151811015156117b457fe5b90602001906020020151613c8f565b6117e48760078151811015156117d557fe5b90602001906020020151613ce2565b6118058860088151811015156117f657fe5b90602001906020020151613ce2565b604051600081526020016040526040518085600019166000191681526020018460ff1660ff1681526020018360001916600019168152602001826000191660001916815260200194505050505060206040516020810390808403906000865af1158015611876573d6000803e3d6000fd5b5050506020604051035173ffffffffffffffffffffffffffffffffffffffff168173ffffffffffffffffffffffffffffffffffffffff16141515611948576040517f08c379a000000000000000000000000000000000000000000000000000000000815260040180806020018281038252602c8152602001807f5769746864726177616c5478206e6f74207369676e6564206279206c6173745481526020017f782072656365697069656e74000000000000000000000000000000000000000081525060400191505060405180910390fd5b856001611989600061197b61197488600581518110151561196557fe5b906020019060200201516139b1565b6004613a1f565b613aa890919063ffffffff16565b011415156119ff576040517f08c379a00000000000000000000000000000000000000000000000000000000081526004018080602001828103825260138152602001807f6e6f6e63657320646f206e6f74206d617463680000000000000000000000000081525060200191505060405180910390fd5b6000600b60008c815260200190815260200160002054141515611a2157600080fd5b6102584201600b60008c81526020019081526020016000208190555085600f60008c81526020019081526020016000208190555080600c60008c815260200190815260200160002060006101000a81548173ffffffffffffffffffffffffffffffffffffffff021916908373ffffffffffffffffffffffffffffffffffffffff1602179055508a600d60008c815260200190815260200160002060006101000a81548173ffffffffffffffffffffffffffffffffffffffff021916908373ffffffffffffffffffffffffffffffffffffffff16021790555034600e60008c815260200190815260200160002081905550898b73ffffffffffffffffffffffffffffffffffffffff167fdf273cb619d95419a9cd0ec88123a0538c85064229baa6363788f743fff90deb346040518082815260200191505060405180910390a35050505050505050505050565b60076020528060005260406000206000915090505481565b60006060806000600b60008981526020019081526020016000205414151515611bad57600080fd5b42600b600089815260200190815260200160002054111515611bce57600080fd5b611c1b6005611c0d600f60008b815260200190815260200160002054611bff3a600a54613c1590919063ffffffff16565b613c1590919063ffffffff16565b613cf790919063ffffffff16565b3410151515611c2957600080fd5b611c348686856130f0565b611cf6611cf1846000815481101515611c4957fe5b906000526020600020018054600181600116156101000203166002900480601f016020809104026020016040519081016040528092919081815260200182805460018160011615610100020316600290048015611ce75780601f10611cbc57610100808354040283529160200191611ce7565b820191906000526020600020905b815481529060010190602001808311611cca57829003601f168201915b50505050506131a7565b613202565b9150611dba611db5846001815481101515611d0d57fe5b906000526020600020018054600181600116156101000203166002900480601f016020809104026020016040519081016040528092919081815260200182805460018160011615610100020316600290048015611dab5780601f10611d8057610100808354040283529160200191611dab565b820191906000526020600020905b815481529060010190602001808311611d8e57829003601f168201915b50505050506131a7565b613202565b9050611ddf8282866001815181101515611dd057fe5b906020019060200201516132bf565b611e1d6000611e0f611e08856005815181101515611df957fe5b906020019060200201516139b1565b6003613a1f565b613aa890919063ffffffff16565b87141515611eb9576040517f08c379a00000000000000000000000000000000000000000000000000000000081526004018080602001828103825260228152602001807f6e6565647320746f20726566657220746f207468652073616d6520746f6b656e81526020017f496400000000000000000000000000000000000000000000000000000000000081525060400191505060405180910390fd5b611ef7600c611ee9611ee2856005815181101515611ed357fe5b906020019060200201516139b1565b6001613a1f565b613a7090919063ffffffff16565b73ffffffffffffffffffffffffffffffffffffffff166008600089815260200190815260200160002060009054906101000a900473ffffffffffffffffffffffffffffffffffffffff1673ffffffffffffffffffffffffffffffffffffffff16141515611ff2576040517f08c379a00000000000000000000000000000000000000000000000000000000081526004018080602001828103825260358152602001807f746f6b656e206e6565647320746f206265207472616e7366657265642066726f81526020017f6d206c6173742070726f76656e20637573746f6479000000000000000000000081525060400191505060405180910390fd5b612030600c61202261201b85600581518110151561200c57fe5b906020019060200201516139b1565b6002613a1f565b613a7090919063ffffffff16565b6008600089815260200190815260200160002060006101000a81548173ffffffffffffffffffffffffffffffffffffffff021916908373ffffffffffffffffffffffffffffffffffffffff16021790555034600e600089815260200190815260200160002060008282540192505081905550876011600089815260200190815260200160002060006101000a81548173ffffffffffffffffffffffffffffffffffffffff021916908373ffffffffffffffffffffffffffffffffffffffff160217905550600160106000898152602001908152602001600020819055508773ffffffffffffffffffffffffffffffffffffffff163373ffffffffffffffffffffffffffffffffffffffff167f5331871e026683c9fc9f966209853fdbd75ee7b21e9b4880849a76970c60f1d4896040518082815260200191505060405180910390a35050505050505050565b346006600082825401925050819055506121b2346007600085815260200190815260200160002054613d1290919063ffffffff16565b6007600084815260200190815260200160002081905550806008600084815260200190815260200160002060006101000a81548173ffffffffffffffffffffffffffffffffffffffff021916908373ffffffffffffffffffffffffffffffffffffffff1602179055503373ffffffffffffffffffffffffffffffffffffffff167f02d7e648dd130fc184d383e55bb126ac4c9c60e8f94bf05acdf557ba2d540b47348484604051808481526020018381526020018273ffffffffffffffffffffffffffffffffffffffff1673ffffffffffffffffffffffffffffffffffffffff168152602001935050505060405180910390a25050565b600080600080604185511415156122c35760009350612398565b602085015192506040850151915060ff6041860151169050601b8160ff1610156122ee57601b810190505b601b8160ff16141580156123065750601c8160ff1614155b156123145760009350612398565b600186828585604051600081526020016040526040518085600019166000191681526020018460ff1660ff1681526020018360001916600019168152602001826000191660001916815260200194505050505060206040516020810390808403906000865af115801561238b573d6000803e3d6000fd5b5050506020604051035193505b50505092915050565b6123ab8282613a1f565b505050565b60006060806060806123c38888876130f0565b6124856124808660008154811015156123d857fe5b906000526020600020018054600181600116156101000203166002900480601f0160208091040260200160405190810160405280929190818152602001828054600181600116156101000203166002900480156124765780601f1061244b57610100808354040283529160200191612476565b820191906000526020600020905b81548152906001019060200180831161245957829003601f168201915b50505050506131a7565b613202565b935061254961254486600181548110151561249c57fe5b906000526020600020018054600181600116156101000203166002900480601f01602080910402602001604051908101604052809291908181526020018280546001816001161561010002031660029004801561253a5780601f1061250f5761010080835404028352916020019161253a565b820191906000526020600020905b81548152906001019060200180831161251d57829003601f168201915b50505050506131a7565b613202565b925061260d61260886600281548110151561256057fe5b906000526020600020018054600181600116156101000203166002900480601f0160208091040260200160405190810160405280929190818152602001828054600181600116156101000203166002900480156125fe5780601f106125d3576101008083540402835291602001916125fe565b820191906000526020600020905b8154815290600101906020018083116125e157829003601f168201915b50505050506131a7565b613202565b91506126d16126cc86600381548110151561262457fe5b906000526020600020018054600181600116156101000203166002900480601f0160208091040260200160405190810160405280929190818152602001828054600181600116156101000203166002900480156126c25780601f10612697576101008083540402835291602001916126c2565b820191906000526020600020905b8154815290600101906020018083116126a557829003601f168201915b50505050506131a7565b613202565b90506126f684848860018151811015156126e757fe5b906020019060200201516132bf565b612719828288600381518110151561270a57fe5b906020019060200201516132bf565b612757600061274961274287600581518110151561273357fe5b906020019060200201516139b1565b6003613a1f565b613aa890919063ffffffff16565b891415156127f3576040517f08c379a00000000000000000000000000000000000000000000000000000000081526004018080602001828103825260228152602001807f6e6565647320746f20726566657220746f207468652073616d6520746f6b656e81526020017f496400000000000000000000000000000000000000000000000000000000000081525060400191505060405180910390fd5b612831600061282361281c85600581518110151561280d57fe5b906020019060200201516139b1565b6003613a1f565b613aa890919063ffffffff16565b891415156128cd576040517f08c379a00000000000000000000000000000000000000000000000000000000081526004018080602001828103825260228152602001807f6e6565647320746f20726566657220746f207468652073616d6520746f6b656e81526020017f496400000000000000000000000000000000000000000000000000000000000081525060400191505060405180910390fd5b61290b60006128fd6128f68760058151811015156128e757fe5b906020019060200201516139b1565b6004613a1f565b613aa890919063ffffffff16565b612949600061293b61293486600581518110151561292557fe5b906020019060200201516139b1565b6004613a1f565b613aa890919063ffffffff16565b1415156129be576040517f08c379a00000000000000000000000000000000000000000000000000000000081526004018080602001828103825260208152602001807f6e6565647320746f20726566657220746f207468652073616d65206e6f6e636581525060200191505060405180910390fd5b6000600481905550600060058190555050505050505050505050565b3373ffffffffffffffffffffffffffffffffffffffff16600260009054906101000a900473ffffffffffffffffffffffffffffffffffffffff1673ffffffffffffffffffffffffffffffffffffffff16141515612a3657600080fd5b60405180807f7072655374616b65640000000000000000000000000000000000000000000000815250600901905060405180910390206000191660006040518082805460018160011615610100020316600290048015612acd5780601f10612aab576101008083540402835291820191612acd565b820191906000526020600020905b815481529060010190602001808311612ab9575b5050915050604051809103902060001916141515612aea57600080fd5b80600160006101000a81548173ffffffffffffffffffffffffffffffffffffffff021916908373ffffffffffffffffffffffffffffffffffffffff16021790555050565b60006060806000600b60008981526020019081526020016000205414151515612b5657600080fd5b42600b600089815260200190815260200160002054111515612b7757600080fd5b612b828686856130f0565b612c44612c3f846000815481101515612b9757fe5b906000526020600020018054600181600116156101000203166002900480601f016020809104026020016040519081016040528092919081815260200182805460018160011615610100020316600290048015612c355780601f10612c0a57610100808354040283529160200191612c35565b820191906000526020600020905b815481529060010190602001808311612c1857829003601f168201915b50505050506131a7565b613202565b9150612d08612d03846001815481101515612c5b57fe5b906000526020600020018054600181600116156101000203166002900480601f016020809104026020016040519081016040528092919081815260200182805460018160011615610100020316600290048015612cf95780601f10612cce57610100808354040283529160200191612cf9565b820191906000526020600020905b815481529060010190602001808311612cdc57829003601f168201915b50505050506131a7565b613202565b9050612d2d8282866001815181101515612d1e57fe5b906020019060200201516132bf565b612d6b600c612d5d612d56856005815181101515612d4757fe5b906020019060200201516139b1565b6001613a1f565b613a7090919063ffffffff16565b73ffffffffffffffffffffffffffffffffffffffff16600c600089815260200190815260200160002060009054906101000a900473ffffffffffffffffffffffffffffffffffffffff1673ffffffffffffffffffffffffffffffffffffffff16141515612e66576040517f08c379a00000000000000000000000000000000000000000000000000000000081526004018080602001828103825260358152602001807f746f6b656e206e6565647320746f206265207472616e7366657265642066726f81526020017f6d206c6173742070726f76656e20637573746f6479000000000000000000000081525060400191505060405180910390fd5b612ea46000612e96612e8f856005815181101515612e8057fe5b906020019060200201516139b1565b6003613a1f565b613aa890919063ffffffff16565b87141515612f40576040517f08c379a00000000000000000000000000000000000000000000000000000000081526004018080602001828103825260228152602001807f6e6565647320746f20726566657220746f207468652073616d6520746f6b656e81526020017f496400000000000000000000000000000000000000000000000000000000000081525060400191505060405180910390fd5b8773ffffffffffffffffffffffffffffffffffffffff166108fc600e60008a8152602001908152602001600020549081150290604051600060405180830381858888f1935050505050612f9287613ad1565b5050505050505050565b3373ffffffffffffffffffffffffffffffffffffffff16600260009054906101000a900473ffffffffffffffffffffffffffffffffffffffff1673ffffffffffffffffffffffffffffffffffffffff16141515612ff857600080fd5b60405180807f7072655374616b6564000000000000000000000000000000000000000000000081525060090190506040518091039020600019166000604051808280546001816001161561010002031660029004801561308f5780601f1061306d57610100808354040283529182019161308f565b820191906000526020600020905b81548152906001019060200180831161307b575b50509150506040518091039020600019161415156130ac57600080fd5b80600360006101000a81548173ffffffffffffffffffffffffffffffffffffffff021916908373ffffffffffffffffffffffffffffffffffffffff16021790555050565b60008060009150600090505b83518110156131a0576131278583868481518110151561311857fe5b90602001906020020151613d30565b838281548110151561313557fe5b9060005260206000200190805190602001906131529291906144f8565b5061317d848281518110151561316457fe5b9060200190602002015183613d1290919063ffffffff16565b915060408281151561318b57fe5b066040038201915080806001019150506130fc565b5050505050565b6131af614578565b6000808351915060008214156131dd57604080519081016040528060008152602001600081525092506131fb565b60208401905060408051908101604052808281526020018381525092505b5050919050565b6060600061320e614592565b600061321985613e35565b151561322457600080fd5b61322d85613e67565b92508260405190808252806020026020018201604052801561326957816020015b6132566145b3565b81526020019060019003908161324e5790505b50935061327585613ee1565b91505b61328182613f29565b156132b75761328f82613f53565b848281518110151561329d57fe5b906020019060200201819052508080600101915050613278565b505050919050565b600160009054906101000a900473ffffffffffffffffffffffffffffffffffffffff1673ffffffffffffffffffffffffffffffffffffffff1661331984600381518110151561330a57fe5b90602001906020020151613c48565b73ffffffffffffffffffffffffffffffffffffffff1614151561333b57600080fd5b600160009054906101000a900473ffffffffffffffffffffffffffffffffffffffff1673ffffffffffffffffffffffffffffffffffffffff1661339583600381518110151561338657fe5b90602001906020020151613c48565b73ffffffffffffffffffffffffffffffffffffffff161415156133b757600080fd5b600960089054906101000a90047c0100000000000000000000000000000000000000000000000000000000027bffffffffffffffffffffffffffffffffffffffffffffffffffffffff191661343761343061342986600581518110151561341a57fe5b906020019060200201516139b1565b6000613a1f565b6000613faf565b7bffffffffffffffffffffffffffffffffffffffffffffffffffffffff19161415156134f1576040517f08c379a00000000000000000000000000000000000000000000000000000000081526004018080602001828103825260288152602001807f5f7472616e736665725478206973206e6f74207472616e7366657246726f6d2081526020017f66756e6374696f6e00000000000000000000000000000000000000000000000081525060400191505060405180910390fd5b6009600c9054906101000a90047c0100000000000000000000000000000000000000000000000000000000027bffffffffffffffffffffffffffffffffffffffffffffffffffffffff191661357161356a61356385600581518110151561355457fe5b906020019060200201516139b1565b6000613a1f565b6000613faf565b7bffffffffffffffffffffffffffffffffffffffffffffffffffffffff191614151561362b576040517f08c379a00000000000000000000000000000000000000000000000000000000081526004018080602001828103825260258152602001807f5f637573746f6469616e5478206973206e6f7420637573746f6469616e41707081526020017f726f76616c00000000000000000000000000000000000000000000000000000081525060400191505060405180910390fd5b60018161364f84600681518110151561364057fe5b90602001906020020151613c8f565b61367085600781518110151561366157fe5b90602001906020020151613ce2565b61369186600881518110151561368257fe5b90602001906020020151613ce2565b604051600081526020016040526040518085600019166000191681526020018460ff1660ff1681526020018360001916600019168152602001826000191660001916815260200194505050505060206040516020810390808403906000865af1158015613702573d6000803e3d6000fd5b5050506020604051035173ffffffffffffffffffffffffffffffffffffffff16600360009054906101000a900473ffffffffffffffffffffffffffffffffffffffff1673ffffffffffffffffffffffffffffffffffffffff161415156137f6576040517f08c379a000000000000000000000000000000000000000000000000000000000815260040180806020018281038252602a8152602001807f5f637573746f6469616e54782073686f756c64206265207369676e656420627981526020017f20637573746f6469616e0000000000000000000000000000000000000000000081525060400191505060405180910390fd5b61385d61382461381d84600581518110151561380e57fe5b906020019060200201516139b1565b6001613a1f565b61384f61384886600581518110151561383957fe5b906020019060200201516139b1565b6003613a1f565b6140a890919063ffffffff16565b15156138d1576040517f08c379a00000000000000000000000000000000000000000000000000000000081526004018080602001828103825260168152602001807f746f6b656e5f69647320646f206e6f74206d617463680000000000000000000081525060200191505060405180910390fd5b6139386138ff6138f88460058151811015156138e957fe5b906020019060200201516139b1565b6002613a1f565b61392a61392386600581518110151561391457fe5b906020019060200201516139b1565b6004613a1f565b6140a890919063ffffffff16565b15156139ac576040517f08c379a00000000000000000000000000000000000000000000000000000000081526004018080602001828103825260138152602001807f6e6f6e63657320646f206e6f74206d617463680000000000000000000000000081525060200191505060405180910390fd5b505050565b60606000806139bf84614117565b15156139ca57600080fd5b6139d384614148565b91509150806040519080825280601f01601f191660200182016040528015613a0a5781602001602082028038833980820191505090505b509250613a188284836141c9565b5050919050565b60606000821415613a4857613a41600060058561420a9092919063ffffffff16565b9050613a6a565b613a676020600184030260040160208561420a9092919063ffffffff16565b90505b92915050565b60008060148301845110151515613a8657600080fd5b6c01000000000000000000000000836020860101510490508091505092915050565b60008060208301845110151515613abe57600080fd5b8260208501015190508091505092915050565b6000600e6000838152602001908152602001600020819055506000600d600083815260200190815260200160002060006101000a81548173ffffffffffffffffffffffffffffffffffffffff021916908373ffffffffffffffffffffffffffffffffffffffff1602179055506000600c600083815260200190815260200160002060006101000a81548173ffffffffffffffffffffffffffffffffffffffff021916908373ffffffffffffffffffffffffffffffffffffffff1602179055506000600f6000838152602001908152602001600020819055506000600b600083815260200190815260200160002081905550600060106000838152602001908152602001600020819055507f7874ca11ed47a2bbe287f114874e02e047a1261400f57712590c8f364b126501816040518082815260200191505060405180910390a150565b60008082840290506000841480613c365750828482811515613c3357fe5b04145b1515613c3e57fe5b8091505092915050565b6000806000613c5684614117565b1515613c6157600080fd5b613c6a84614148565b91509150601481141515613c7d57600080fd5b600c6101000a82510492505050919050565b6000806000613c9d84614117565b1515613ca857600080fd5b613cb184614148565b915091506020811180613cc45750600081145b15613cce57600080fd5b806020036101000a82510492505050919050565b6000613ced82613c8f565b6001029050919050565b6000808284811515613d0557fe5b0490508091505092915050565b6000808284019050838110151515613d2657fe5b8091505092915050565b6060806000806000613d4c604088613cf790919063ffffffff16565b9250613d618688613d1290919063ffffffff16565b9150613d77604083613cf790919063ffffffff16565b90505b80831015613dc357613db4613da58985815181101515613d9657fe5b90602001906020020151614297565b856142c890919063ffffffff16565b93508280600101935050613d7a565b613e25613e16600060016002604087811515613ddb57fe5b06811515613de557fe5b0403613e078c86815181101515613df857fe5b90602001906020020151614297565b61420a9092919063ffffffff16565b856142c890919063ffffffff16565b9350839450505050509392505050565b600080600083602001511415613e4e5760009150613e61565b8260000151905060c0815160001a101591505b50919050565b600080600080600080613e7987613e35565b1515613e885760009550613ed7565b86600001519350835160001a9450613e9f87614352565b840192506001876020015185010391505b8183111515613ed357613ec2836143de565b830192508080600101915050613eb0565b8095505b5050505050919050565b613ee9614592565b6000613ef483613e35565b1515613eff57600080fd5b613f0883614352565b83600001510190508282600001819052508082602001818152505050919050565b6000613f33614578565b826000015190508060200151816000015101836020015110915050919050565b613f5b614578565b600080613f6784613f29565b15613fa35783602001519150613f7c826143de565b90508183600001818152505080836020018181525050808201846020018181525050613fa8565b600080fd5b5050919050565b60008060008090505b600481101561409d576008810260ff7f01000000000000000000000000000000000000000000000000000000000000000286838701815181101515613ff957fe5b9060200101517f010000000000000000000000000000000000000000000000000000000000000090047f010000000000000000000000000000000000000000000000000000000000000002167effffffffffffffffffffffffffffffffffffffffffffffffffffffffffffff19167bffffffffffffffffffffffffffffffffffffffffffffffffffffffff19169060020a9004821791508080600101915050613fb8565b819250505092915050565b60008060019050835183518114600181146140c6576000925061410b565b600160208701838101602088015b60028483851001141561410657805183511415156140f55760009650600093505b6020830192506020810190506140d4565b505050505b50508091505092915050565b6000806000836020015114156141305760009150614142565b8260000151905060c0815160001a1091505b50919050565b600080600080600061415986614117565b151561416457600080fd5b85600001519150815160001a9250608083101561418757819450600193506141c1565b60b88310156141a557600186602001510393506001820194506141c0565b60b78303905080600187602001510303935060018183010194505b5b505050915091565b60006020601f83010484602085015b8284146141f757602084028083015181830152600185019450506141d8565b6000865160200187015250505050505050565b60608082840185511015151561421f57600080fd5b82156000811461423a5760405191506020820160405261428b565b6040519150601f8416801560200281840101858101878315602002848b0101015b81831015614278578051835260208301925060208101905061425b565b50868552601f19601f8301166040525050505b50809150509392505050565b6060816040516020018082600019166000191681526020019150506040516020818303038152906040529050919050565b6060806040519050835180825260208201818101602087015b818310156142fe57805183526020830192506020810190506142e1565b50855192508351830184528091508282019050602086015b818310156143335780518352602083019250602081019050614316565b50601f19601f8851850115830101166040525050508091505092915050565b6000806000808460200151141561436c57600092506143d7565b83600001519050805160001a9150608082101561438c57600092506143d7565b60b88210806143a8575060c082101580156143a7575060f882105b5b156143b657600192506143d7565b60c08210156143cd57600160b783030192506143d7565b600160f783030192505b5050919050565b600080825160001a905060808110156143fa5760019150614472565b60b881101561441157600160808203019150614471565b60c081101561443b5760b78103806020036101000a60018501510480820160010193505050614470565b60f881101561445257600160c0820301915061446f565b60f78103806020036101000a600185015104808201600101935050505b5b5b5b50919050565b828054600181600116156101000203166002900490600052602060002090601f016020900481019282601f106144b957805160ff19168380011785556144e7565b828001600101855582156144e7579182015b828111156144e65782518255916020019190600101906144cb565b5b5090506144f491906145cd565b5090565b828054600181600116156101000203166002900490600052602060002090601f016020900481019282601f1061453957805160ff1916838001178555614567565b82800160010185558215614567579182015b8281111561456657825182559160200191906001019061454b565b5b50905061457491906145cd565b5090565b604080519081016040528060008152602001600081525090565b6060604051908101604052806145a66145b3565b8152602001600081525090565b604080519081016040528060008152602001600081525090565b6145ef91905b808211156145eb5760008160009055506001016145d3565b5090565b905600a165627a7a72305820cbfb598ac25c799d95221da5fefae231dfcca6d8c5393415d1398883b6623b840029",
  "source": "pragma solidity ^0.4.24;\n\nimport \"../DepositContract.sol\";\n\ncontract DepositContractMock is DepositContract {\n  constructor(address _custodian) public\n    DepositContract(custodian)\n  { }\n\n  function _parseData(bytes _data, uint256 _i) public {\n    super.parseData(_data, _i);\n  }\n\n  // function _splitTxBundle(bytes _rawTxBundle, uint256[] _txLengths, bytes[] storage _rawTxList) public {\n  //   super.splitTxBundle(_data, _i);\n  // }\n\n\n}",
  "sourcePath": "/home/yingtong/peacebridge/contracts/mocks/DepositContractMock.sol",
  "compiler": {
    "name": "solc",
    "version": "0.4.24+commit.e67f0147.Emscripten.clang"
  },
  "schemaVersion": "2.0.1",
  "updatedAt": "2019-03-27T11:45:22.622Z"
}