{
  "contractName": "Pausable",
  "abi": [
    {
      "constant": true,
      "inputs": [],
      "name": "stopped",
      "outputs": [
        {
          "name": "",
          "type": "bool"
        }
      ],
      "payable": false,
      "stateMutability": "view",
      "type": "function"
    },
    {
      "constant": true,
      "inputs": [],
      "name": "owner",
      "outputs": [
        {
          "name": "",
          "type": "address"
        }
      ],
      "payable": false,
      "stateMutability": "view",
      "type": "function"
    },
    {
      "constant": false,
      "inputs": [
        {
          "name": "newOwner",
          "type": "address"
        }
      ],
      "name": "transferOwnership",
      "outputs": [],
      "payable": false,
      "stateMutability": "nonpayable",
      "type": "function"
    },
    {
      "constant": false,
      "inputs": [],
      "name": "emergencyStop",
      "outputs": [],
      "payable": false,
      "stateMutability": "nonpayable",
      "type": "function"
    },
    {
      "constant": false,
      "inputs": [],
      "name": "release",
      "outputs": [],
      "payable": false,
      "stateMutability": "nonpayable",
      "type": "function"
    }
  ],
  "bytecode": "0x6080604052336000806101000a81548173ffffffffffffffffffffffffffffffffffffffff021916908373ffffffffffffffffffffffffffffffffffffffff16021790555061039d806100536000396000f30060806040526004361061006d576000357c0100000000000000000000000000000000000000000000000000000000900463ffffffff16806363a599a41461007257806375f12b211461008957806386d1a69f146100b85780638da5cb5b146100cf578063f2fde38b14610126575b600080fd5b34801561007e57600080fd5b50610087610169565b005b34801561009557600080fd5b5061009e6101dc565b604051808215151515815260200191505060405180910390f35b3480156100c457600080fd5b506100cd6101ef565b005b3480156100db57600080fd5b506100e461027c565b604051808273ffffffffffffffffffffffffffffffffffffffff1673ffffffffffffffffffffffffffffffffffffffff16815260200191505060405180910390f35b34801561013257600080fd5b50610167600480360381019080803573ffffffffffffffffffffffffffffffffffffffff1690602001909291905050506102a1565b005b6000809054906101000a900473ffffffffffffffffffffffffffffffffffffffff1673ffffffffffffffffffffffffffffffffffffffff163373ffffffffffffffffffffffffffffffffffffffff1614156101da576001600060146101000a81548160ff0219169083151502179055505b565b600060149054906101000a900460ff1681565b6000809054906101000a900473ffffffffffffffffffffffffffffffffffffffff1673ffffffffffffffffffffffffffffffffffffffff163373ffffffffffffffffffffffffffffffffffffffff16141561027a57600060149054906101000a900460ff16151561025f57600080fd5b60008060146101000a81548160ff0219169083151502179055505b565b6000809054906101000a900473ffffffffffffffffffffffffffffffffffffffff1681565b6000809054906101000a900473ffffffffffffffffffffffffffffffffffffffff1673ffffffffffffffffffffffffffffffffffffffff163373ffffffffffffffffffffffffffffffffffffffff16141561036e57600073ffffffffffffffffffffffffffffffffffffffff168173ffffffffffffffffffffffffffffffffffffffff1614151561036d57806000806101000a81548173ffffffffffffffffffffffffffffffffffffffff021916908373ffffffffffffffffffffffffffffffffffffffff1602179055505b5b505600a165627a7a72305820919d7ba09c0fc8acde3540178ed3a3c6c5962f509325879420f322d3e59abb210029",
  "source": "pragma solidity ^0.4.8;\n\n\nimport \"./Ownable.sol\";\n\n\n/*\n * Pausable\n * Abstract contract that allows children to implement an\n * emergency stop mechanism.\n */\n\ncontract Pausable is Ownable {\n  bool public stopped;\n\n  modifier stopInEmergency {\n    if (stopped) {\n      throw;\n    }\n    _;\n  }\n  \n  modifier onlyInEmergency {\n    if (!stopped) {\n      throw;\n    }\n    _;\n  }\n\n  // called by the owner on emergency, triggers stopped state\n  function emergencyStop() external onlyOwner {\n    stopped = true;\n  }\n\n  // called by the owner on end of emergency, returns to normal state\n  function release() external onlyOwner onlyInEmergency {\n    stopped = false;\n  }\n\n}",
  "sourcePath": "/home/yingtong/peaceBridge/contracts/dependencies/Pausable.sol",
  "compiler": {
    "name": "solc",
    "version": "0.4.24+commit.e67f0147.Emscripten.clang"
  },
  "schemaVersion": "2.0.1",
  "updatedAt": "2019-01-19T03:55:22.149Z"
}