{
  "contractName": "TokenContract",
  "abi": [
    {
      "constant": true,
      "inputs": [
        {
          "name": "_tokenId",
          "type": "uint256"
        }
      ],
      "name": "getApproved",
      "outputs": [
        {
          "name": "",
          "type": "address"
        }
      ],
      "payable": false,
      "stateMutability": "view",
      "type": "function"
    },
    {
      "constant": false,
      "inputs": [
        {
          "name": "_to",
          "type": "address"
        },
        {
          "name": "_tokenId",
          "type": "uint256"
        }
      ],
      "name": "approve",
      "outputs": [],
      "payable": false,
      "stateMutability": "nonpayable",
      "type": "function"
    },
    {
      "constant": true,
      "inputs": [
        {
          "name": "",
          "type": "bytes32"
        }
      ],
      "name": "custodianApproval",
      "outputs": [
        {
          "name": "",
          "type": "address"
        }
      ],
      "payable": false,
      "stateMutability": "view",
      "type": "function"
    },
    {
      "constant": true,
      "inputs": [
        {
          "name": "_tokenId",
          "type": "uint256"
        }
      ],
      "name": "exists",
      "outputs": [
        {
          "name": "",
          "type": "bool"
        }
      ],
      "payable": false,
      "stateMutability": "view",
      "type": "function"
    },
    {
      "constant": true,
      "inputs": [
        {
          "name": "_tokenId",
          "type": "uint256"
        }
      ],
      "name": "ownerOf",
      "outputs": [
        {
          "name": "",
          "type": "address"
        }
      ],
      "payable": false,
      "stateMutability": "view",
      "type": "function"
    },
    {
      "constant": true,
      "inputs": [
        {
          "name": "",
          "type": "uint256"
        }
      ],
      "name": "transferNonce",
      "outputs": [
        {
          "name": "",
          "type": "uint256"
        }
      ],
      "payable": false,
      "stateMutability": "view",
      "type": "function"
    },
    {
      "constant": true,
      "inputs": [
        {
          "name": "_owner",
          "type": "address"
        }
      ],
      "name": "balanceOf",
      "outputs": [
        {
          "name": "",
          "type": "uint256"
        }
      ],
      "payable": false,
      "stateMutability": "view",
      "type": "function"
    },
    {
      "constant": true,
      "inputs": [],
      "name": "mintNonce",
      "outputs": [
        {
          "name": "",
          "type": "uint256"
        }
      ],
      "payable": false,
      "stateMutability": "view",
      "type": "function"
    },
    {
      "constant": false,
      "inputs": [
        {
          "name": "_to",
          "type": "address"
        },
        {
          "name": "_approved",
          "type": "bool"
        }
      ],
      "name": "setApprovalForAll",
      "outputs": [],
      "payable": false,
      "stateMutability": "nonpayable",
      "type": "function"
    },
    {
      "constant": true,
      "inputs": [
        {
          "name": "_owner",
          "type": "address"
        },
        {
          "name": "_operator",
          "type": "address"
        }
      ],
      "name": "isApprovedForAll",
      "outputs": [
        {
          "name": "",
          "type": "bool"
        }
      ],
      "payable": false,
      "stateMutability": "view",
      "type": "function"
    },
    {
      "inputs": [
        {
          "name": "_custodian",
          "type": "address"
        }
      ],
      "payable": false,
      "stateMutability": "nonpayable",
      "type": "constructor"
    },
    {
      "anonymous": false,
      "inputs": [
        {
          "indexed": false,
          "name": "amount",
          "type": "uint256"
        },
        {
          "indexed": true,
          "name": "depositedTo",
          "type": "address"
        },
        {
          "indexed": false,
          "name": "mintNonce",
          "type": "uint256"
        },
        {
          "indexed": false,
          "name": "tokenId",
          "type": "uint256"
        }
      ],
      "name": "Mint",
      "type": "event"
    },
    {
      "anonymous": false,
      "inputs": [
        {
          "indexed": false,
          "name": "tokenId",
          "type": "uint256"
        }
      ],
      "name": "Withdraw",
      "type": "event"
    },
    {
      "anonymous": false,
      "inputs": [
        {
          "indexed": true,
          "name": "from",
          "type": "address"
        },
        {
          "indexed": true,
          "name": "to",
          "type": "address"
        },
        {
          "indexed": true,
          "name": "tokenId",
          "type": "uint256"
        },
        {
          "indexed": false,
          "name": "declaredNonce",
          "type": "uint256"
        },
        {
          "indexed": false,
          "name": "approvalHash",
          "type": "bytes32"
        }
      ],
      "name": "TransferRequest",
      "type": "event"
    },
    {
      "anonymous": false,
      "inputs": [
        {
          "indexed": true,
          "name": "_from",
          "type": "address"
        },
        {
          "indexed": true,
          "name": "_to",
          "type": "address"
        },
        {
          "indexed": true,
          "name": "_tokenId",
          "type": "uint256"
        }
      ],
      "name": "Transfer",
      "type": "event"
    },
    {
      "anonymous": false,
      "inputs": [
        {
          "indexed": true,
          "name": "_owner",
          "type": "address"
        },
        {
          "indexed": true,
          "name": "_approved",
          "type": "address"
        },
        {
          "indexed": true,
          "name": "_tokenId",
          "type": "uint256"
        }
      ],
      "name": "Approval",
      "type": "event"
    },
    {
      "anonymous": false,
      "inputs": [
        {
          "indexed": true,
          "name": "_owner",
          "type": "address"
        },
        {
          "indexed": true,
          "name": "_operator",
          "type": "address"
        },
        {
          "indexed": false,
          "name": "_approved",
          "type": "bool"
        }
      ],
      "name": "ApprovalForAll",
      "type": "event"
    },
    {
      "constant": false,
      "inputs": [
        {
          "name": "_depositContract",
          "type": "address"
        }
      ],
      "name": "setDepositContract",
      "outputs": [],
      "payable": false,
      "stateMutability": "nonpayable",
      "type": "function"
    },
    {
      "constant": false,
      "inputs": [
        {
          "name": "_value",
          "type": "uint256"
        },
        {
          "name": "_to",
          "type": "address"
        }
      ],
      "name": "mint",
      "outputs": [],
      "payable": false,
      "stateMutability": "nonpayable",
      "type": "function"
    },
    {
      "constant": false,
      "inputs": [
        {
          "name": "_tokenId",
          "type": "uint256"
        }
      ],
      "name": "withdraw",
      "outputs": [],
      "payable": false,
      "stateMutability": "nonpayable",
      "type": "function"
    },
    {
      "constant": false,
      "inputs": [
        {
          "name": "_from",
          "type": "address"
        },
        {
          "name": "_to",
          "type": "address"
        },
        {
          "name": "_tokenId",
          "type": "uint256"
        },
        {
          "name": "_declaredNonce",
          "type": "uint256"
        }
      ],
      "name": "transferFrom",
      "outputs": [],
      "payable": false,
      "stateMutability": "nonpayable",
      "type": "function"
    },
    {
      "constant": false,
      "inputs": [
        {
          "name": "_tokenId",
          "type": "uint256"
        },
        {
          "name": "_declaredNonce",
          "type": "uint256"
        }
      ],
      "name": "custodianApprove",
      "outputs": [],
      "payable": false,
      "stateMutability": "nonpayable",
      "type": "function"
    },
    {
      "constant": false,
      "inputs": [
        {
          "name": "_tokenId",
          "type": "uint256"
        },
        {
          "name": "_declaredNonce",
          "type": "uint256"
        }
      ],
      "name": "revertTransfer",
      "outputs": [],
      "payable": false,
      "stateMutability": "nonpayable",
      "type": "function"
    },
    {
      "constant": true,
      "inputs": [
        {
          "name": "_approvalHash",
          "type": "bytes32"
        }
      ],
      "name": "viewTransferRequest",
      "outputs": [
        {
          "name": "",
          "type": "address"
        }
      ],
      "payable": false,
      "stateMutability": "view",
      "type": "function"
    }
  ],
  "bytecode": "0x6080604052600060085534801561001557600080fd5b50604051602080611a808339810180604052810190808051906020019092919050505080600560006101000a81548173ffffffffffffffffffffffffffffffffffffffff021916908373ffffffffffffffffffffffffffffffffffffffff160217905550506119f7806100896000396000f3006080604052600436106100f1576000357c0100000000000000000000000000000000000000000000000000000000900463ffffffff168063081812fc146100f6578063095ea7b3146101635780630ec2e821146101b05780630f32037f146101f35780632e1a7d4d146102645780634174dd39146102915780634f558e79146102c85780636352211e1461030d5780636e303cad1461037a5780636e3c045e146103bb57806370a08231146103f2578063931679a21461044957806394bf804d14610474578063a0772757146104c1578063a22cb46514610532578063e985e9c514610581578063fe99049a146105fc575b600080fd5b34801561010257600080fd5b5061012160048036038101908080359060200190929190505050610673565b604051808273ffffffffffffffffffffffffffffffffffffffff1673ffffffffffffffffffffffffffffffffffffffff16815260200191505060405180910390f35b34801561016f57600080fd5b506101ae600480360381019080803573ffffffffffffffffffffffffffffffffffffffff169060200190929190803590602001909291905050506106b0565b005b3480156101bc57600080fd5b506101f1600480360381019080803573ffffffffffffffffffffffffffffffffffffffff1690602001909291905050506107f5565b005b3480156101ff57600080fd5b506102226004803603810190808035600019169060200190929190505050610895565b604051808273ffffffffffffffffffffffffffffffffffffffff1673ffffffffffffffffffffffffffffffffffffffff16815260200191505060405180910390f35b34801561027057600080fd5b5061028f600480360381019080803590602001909291905050506108c8565b005b34801561029d57600080fd5b506102c66004803603810190808035906020019092919080359060200190929190505050610902565b005b3480156102d457600080fd5b506102f360048036038101908080359060200190929190505050610a11565b604051808215151515815260200191505060405180910390f35b34801561031957600080fd5b5061033860048036038101908080359060200190929190505050610a82565b604051808273ffffffffffffffffffffffffffffffffffffffff1673ffffffffffffffffffffffffffffffffffffffff16815260200191505060405180910390f35b34801561038657600080fd5b506103a560048036038101908080359060200190929190505050610aff565b6040518082815260200191505060405180910390f35b3480156103c757600080fd5b506103f06004803603810190808035906020019092919080359060200190929190505050610b17565b005b3480156103fe57600080fd5b50610433600480360381019080803573ffffffffffffffffffffffffffffffffffffffff169060200190929190505050610cdb565b6040518082815260200191505060405180910390f35b34801561045557600080fd5b5061045e610d5f565b6040518082815260200191505060405180910390f35b34801561048057600080fd5b506104bf60048036038101908080359060200190929190803573ffffffffffffffffffffffffffffffffffffffff169060200190929190505050610d65565b005b3480156104cd57600080fd5b506104f06004803603810190808035600019169060200190929190505050610ea3565b604051808273ffffffffffffffffffffffffffffffffffffffff1673ffffffffffffffffffffffffffffffffffffffff16815260200191505060405180910390f35b34801561053e57600080fd5b5061057f600480360381019080803573ffffffffffffffffffffffffffffffffffffffff169060200190929190803515159060200190929190505050610ee8565b005b34801561058d57600080fd5b506105e2600480360381019080803573ffffffffffffffffffffffffffffffffffffffff169060200190929190803573ffffffffffffffffffffffffffffffffffffffff169060200190929190505050611024565b604051808215151515815260200191505060405180910390f35b34801561060857600080fd5b50610671600480360381019080803573ffffffffffffffffffffffffffffffffffffffff169060200190929190803573ffffffffffffffffffffffffffffffffffffffff16906020019092919080359060200190929190803590602001909291905050506110b8565b005b60006001600083815260200190815260200160002060009054906101000a900473ffffffffffffffffffffffffffffffffffffffff169050919050565b60006106bb82610a82565b90508073ffffffffffffffffffffffffffffffffffffffff168373ffffffffffffffffffffffffffffffffffffffff16141515156106f857600080fd5b8073ffffffffffffffffffffffffffffffffffffffff163373ffffffffffffffffffffffffffffffffffffffff16148061073857506107378133611024565b5b151561074357600080fd5b826001600084815260200190815260200160002060006101000a81548173ffffffffffffffffffffffffffffffffffffffff021916908373ffffffffffffffffffffffffffffffffffffffff160217905550818373ffffffffffffffffffffffffffffffffffffffff168273ffffffffffffffffffffffffffffffffffffffff167f8c5be1e5ebec7d5bd14f71427d1e84f3dd0314c0f7b2291e5b200ac8c7c3b92560405160405180910390a4505050565b3373ffffffffffffffffffffffffffffffffffffffff16600560009054906101000a900473ffffffffffffffffffffffffffffffffffffffff1673ffffffffffffffffffffffffffffffffffffffff1614151561085157600080fd5b80600460006101000a81548173ffffffffffffffffffffffffffffffffffffffff021916908373ffffffffffffffffffffffffffffffffffffffff16021790555050565b600a6020528060005260406000206000915054906101000a900473ffffffffffffffffffffffffffffffffffffffff1681565b7f5b6b431d4476a211bb7d41c20d1aab9ae2321deee0d20be3d9fc9b1093fa6e3d816040518082815260200191505060405180910390a150565b61090c33836112f2565b1515610980576040517f08c379a00000000000000000000000000000000000000000000000000000000081526004018080602001828103825260168152602001807f6e6f20617070726f76616c2f206e6f74206f776e65720000000000000000000081525060200191505060405180910390fd5b610a0d6109a661098f83611387565b61099885611387565b6113cb90919063ffffffff16565b6040518082805190602001908083835b6020831015156109db57805182526020820191506020810190506020830392506109b6565b6001836020036101000a0380198251168184511680821785525050505050509050019150506040518091039020611455565b5050565b60008060008084815260200190815260200160002060009054906101000a900473ffffffffffffffffffffffffffffffffffffffff169050600073ffffffffffffffffffffffffffffffffffffffff168173ffffffffffffffffffffffffffffffffffffffff161415915050919050565b60008060008084815260200190815260200160002060009054906101000a900473ffffffffffffffffffffffffffffffffffffffff169050600073ffffffffffffffffffffffffffffffffffffffff168173ffffffffffffffffffffffffffffffffffffffff1614151515610af657600080fd5b80915050919050565b60096020528060005260406000206000915090505481565b60008060003373ffffffffffffffffffffffffffffffffffffffff16600560009054906101000a900473ffffffffffffffffffffffffffffffffffffffff1673ffffffffffffffffffffffffffffffffffffffff16141515610b7857600080fd5b610b8185610a11565b1515610b8c57600080fd5b610baf610b9885611387565b610ba187611387565b6113cb90919063ffffffff16565b6040518082805190602001908083835b602083101515610be45780518252602082019150602081019050602083039250610bbf565b6001836020036101000a03801982511681845116808217855250505050505090500191505060405180910390209250600a6000846000191660001916815260200190815260200160002060009054906101000a900473ffffffffffffffffffffffffffffffffffffffff169150610c5a85610a82565b9050610c668186611525565b610c708286611653565b848273ffffffffffffffffffffffffffffffffffffffff168273ffffffffffffffffffffffffffffffffffffffff167fddf252ad1be2c89b69c2b068fc378daa952ba7f163c4a11628f55a4df523b3ef60405160405180910390a4610cd483611455565b5050505050565b60008073ffffffffffffffffffffffffffffffffffffffff168273ffffffffffffffffffffffffffffffffffffffff1614151515610d1857600080fd5b600260008373ffffffffffffffffffffffffffffffffffffffff1673ffffffffffffffffffffffffffffffffffffffff168152602001908152602001600020549050919050565b60085481565b60608060606000610d7586611387565b9350610d80856117ab565b9250610d8d600854611387565b9150610e1e610db783610da986886113cb90919063ffffffff16565b6113cb90919063ffffffff16565b6040518082805190602001908083835b602083101515610dec5780518252602082019150602081019050602083039250610dc7565b6001836020036101000a03801982511681845116808217855250505050505090500191505060405180910390206117dd565b9050610e2a85826117eb565b8473ffffffffffffffffffffffffffffffffffffffff167f5a3e96f397e68b20a43c25f664b628805b877334dadfcc925c6c1a3ad4340458876008548460405180848152602001838152602001828152602001935050505060405180910390a26001600860008282540192505081905550505050505050565b6000600a6000836000191660001916815260200190815260200160002060009054906101000a900473ffffffffffffffffffffffffffffffffffffffff169050919050565b3373ffffffffffffffffffffffffffffffffffffffff168273ffffffffffffffffffffffffffffffffffffffff1614151515610f2357600080fd5b80600360003373ffffffffffffffffffffffffffffffffffffffff1673ffffffffffffffffffffffffffffffffffffffff16815260200190815260200160002060008473ffffffffffffffffffffffffffffffffffffffff1673ffffffffffffffffffffffffffffffffffffffff16815260200190815260200160002060006101000a81548160ff0219169083151502179055508173ffffffffffffffffffffffffffffffffffffffff163373ffffffffffffffffffffffffffffffffffffffff167f17307eab39ab6107e8899845ad3d59bd9653f200f220920489ca2b5937696c3183604051808215151515815260200191505060405180910390a35050565b6000600360008473ffffffffffffffffffffffffffffffffffffffff1673ffffffffffffffffffffffffffffffffffffffff16815260200190815260200160002060008373ffffffffffffffffffffffffffffffffffffffff1673ffffffffffffffffffffffffffffffffffffffff16815260200190815260200160002060009054906101000a900460ff16905092915050565b60006110c433846112f2565b15156110cf57600080fd5b600073ffffffffffffffffffffffffffffffffffffffff168573ffffffffffffffffffffffffffffffffffffffff161415151561110b57600080fd5b600073ffffffffffffffffffffffffffffffffffffffff168473ffffffffffffffffffffffffffffffffffffffff161415151561114757600080fd5b60096000848152602001908152602001600020548214151561116857600080fd5b6111728584611891565b61119561117e83611387565b61118785611387565b6113cb90919063ffffffff16565b6040518082805190602001908083835b6020831015156111ca57805182526020820191506020810190506020830392506111a5565b6001836020036101000a0380198251168184511680821785525050505050509050019150506040518091039020905083600a6000836000191660001916815260200190815260200160002060006101000a81548173ffffffffffffffffffffffffffffffffffffffff021916908373ffffffffffffffffffffffffffffffffffffffff16021790555060016009600085815260200190815260200160002060008282540192505081905550828473ffffffffffffffffffffffffffffffffffffffff168673ffffffffffffffffffffffffffffffffffffffff167fa7894504d84fd9069b3dfd548908287f8c38abc421fd970663f06078f63966d385856040518083815260200182600019166000191681526020019250505060405180910390a45050505050565b6000806112fe83610a82565b90508073ffffffffffffffffffffffffffffffffffffffff168473ffffffffffffffffffffffffffffffffffffffff16148061136d57508373ffffffffffffffffffffffffffffffffffffffff1661135584610673565b73ffffffffffffffffffffffffffffffffffffffff16145b8061137e575061137d8185611024565b5b91505092915050565b606060206040519080825280601f01601f1916602001820160405280156113bd5781602001602082028038833980820191505090505b509050816020820152919050565b6060806040519050835180825260208201818101602087015b8183101561140157805183526020830192506020810190506113e4565b50855192508351830184528091508282019050602086015b818310156114365780518352602083019250602081019050611419565b50601f19601f8851850115830101166040525050508091505092915050565b600073ffffffffffffffffffffffffffffffffffffffff16600a6000836000191660001916815260200190815260200160002060009054906101000a900473ffffffffffffffffffffffffffffffffffffffff1673ffffffffffffffffffffffffffffffffffffffff16141515611522576000600a6000836000191660001916815260200190815260200160002060006101000a81548173ffffffffffffffffffffffffffffffffffffffff021916908373ffffffffffffffffffffffffffffffffffffffff1602179055505b50565b8173ffffffffffffffffffffffffffffffffffffffff1661154582610a82565b73ffffffffffffffffffffffffffffffffffffffff1614151561156757600080fd5b6115ba6001600260008573ffffffffffffffffffffffffffffffffffffffff1673ffffffffffffffffffffffffffffffffffffffff1681526020019081526020016000205461199490919063ffffffff16565b600260008473ffffffffffffffffffffffffffffffffffffffff1673ffffffffffffffffffffffffffffffffffffffff16815260200190815260200160002081905550600080600083815260200190815260200160002060006101000a81548173ffffffffffffffffffffffffffffffffffffffff021916908373ffffffffffffffffffffffffffffffffffffffff1602179055505050565b600073ffffffffffffffffffffffffffffffffffffffff1660008083815260200190815260200160002060009054906101000a900473ffffffffffffffffffffffffffffffffffffffff1673ffffffffffffffffffffffffffffffffffffffff161415156116c057600080fd5b8160008083815260200190815260200160002060006101000a81548173ffffffffffffffffffffffffffffffffffffffff021916908373ffffffffffffffffffffffffffffffffffffffff1602179055506117646001600260008573ffffffffffffffffffffffffffffffffffffffff1673ffffffffffffffffffffffffffffffffffffffff168152602001908152602001600020546119ad90919063ffffffff16565b600260008473ffffffffffffffffffffffffffffffffffffffff1673ffffffffffffffffffffffffffffffffffffffff168152602001908152602001600020819055505050565b606060405182741400000000000000000000000000000000000000001860148201526034810160405280915050919050565b600081600190049050919050565b600073ffffffffffffffffffffffffffffffffffffffff168273ffffffffffffffffffffffffffffffffffffffff161415151561182757600080fd5b6118318282611653565b808273ffffffffffffffffffffffffffffffffffffffff16600073ffffffffffffffffffffffffffffffffffffffff167fddf252ad1be2c89b69c2b068fc378daa952ba7f163c4a11628f55a4df523b3ef60405160405180910390a45050565b8173ffffffffffffffffffffffffffffffffffffffff166118b182610a82565b73ffffffffffffffffffffffffffffffffffffffff161415156118d357600080fd5b600073ffffffffffffffffffffffffffffffffffffffff166001600083815260200190815260200160002060009054906101000a900473ffffffffffffffffffffffffffffffffffffffff1673ffffffffffffffffffffffffffffffffffffffff161415156119905760006001600083815260200190815260200160002060006101000a81548173ffffffffffffffffffffffffffffffffffffffff021916908373ffffffffffffffffffffffffffffffffffffffff1602179055505b5050565b60008282111515156119a257fe5b818303905092915050565b60008082840190508381101515156119c157fe5b80915050929150505600a165627a7a72305820e705ae76b5f13382156c3815043ea83772024a2cb64fed719ab15cd9f0854f170029",
  "source": "\npragma solidity ^0.4.24;\n\nimport \"./dependencies/SafeMath.sol\";\nimport \"./dependencies/Ownable.sol\";\nimport \"./dependencies/RLP.sol\";\nimport \"./dependencies/BytesLib.sol\";\nimport \"./dependencies/ERC721Basic.sol\";\nimport \"./dependencies/ERC721BasicToken.sol\";\nimport \"./dependencies/AddressUtils.sol\";\n\ncontract TokenContract is ERC721BasicToken {\n  using SafeMath for uint256;\n  using RLP for RLP.RLPItem;\n  using RLP for RLP.Iterator;\n  using RLP for bytes;\n  using BytesLib for bytes;\n\n  address depositContract;\n  address custodian;\n  address custodianHome;\n  uint256 mintedAmount;\n  uint256 public mintNonce = 0;\n  mapping (uint256 => uint256) public transferNonce;\n  mapping (bytes32 => address) public custodianApproval;\n\n  constructor (address _custodian) {\n    custodian = _custodian;\n  }\n\n  modifier onlyCustodian() {\n    require(custodian == msg.sender);\n    _;\n  }\n\n  event Mint(uint256 amount,\n             address indexed depositedTo,\n             uint256 mintNonce,\n             uint256 tokenId);\n  event Withdraw(uint256 tokenId);\n  event TransferRequest(address indexed from,\n                        address indexed to,\n                        uint256 indexed tokenId,\n                        uint256 declaredNonce,\n                        bytes32 approvalHash);\n\n  function setDepositContract(address _depositContract) onlyCustodian public {\n    depositContract = _depositContract;\n  }\n\n  function mint(uint256 _value, address _to) public {\n    //might have to log the value, to, Z details\n    bytes memory value = uint256ToBytes(_value);\n    bytes memory to = addressToBytes(_to);\n    bytes memory Z = uint256ToBytes(mintNonce);\n    uint256 tokenId = bytes32ToUint256(keccak256(value.concat(to).concat(Z)));\n    _mint(_to, tokenId);\n    emit Mint(_value, _to, mintNonce, tokenId);\n    mintNonce += 1;\n  }\n\n  function withdraw(uint256 _tokenId) public {\n    emit Withdraw(_tokenId);\n    //USED TO ANNOUNCE A WITHDRAWL (DOESNT NECESSISTATE SUBMISSION)\n  }\n\n  /* ERC721 Related Functions --------------------------------------------------*/\n  // Mapping from token ID to approved address\n\n  /**\n   * @dev Requests transfer of ownership of a given token ID to another address\n   * Usage of this method is discouraged, use `safeTransferFrom` whenever possible\n   * Requires the msg sender to be the owner, approved, or operator\n   * @param _from current owner of the token\n   * @param _to address to receive the ownership of the given token ID\n   * @param _tokenId uint256 ID of the token to be transferred\n   * @param _declaredNonce uint256 nonce, depth of transaction\n  */\n\n  function transferFrom(\n    address _from,\n    address _to,\n    uint256 _tokenId,\n    uint256 _declaredNonce\n  )\n    public\n  {\n    require(isApprovedOrOwner(msg.sender, _tokenId));\n    require(_from != address(0));\n    require(_to != address(0));\n    require(_declaredNonce == transferNonce[_tokenId]);\n\n    clearApproval(_from, _tokenId);\n    //TODO: Double check if hash is secure, no chance of collision\n    bytes32 approvalHash = keccak256(uint256ToBytes(_tokenId)\n                           .concat(uint256ToBytes(_declaredNonce)));\n    custodianApproval[approvalHash] = _to;\n    transferNonce[_tokenId] += 1;\n    emit TransferRequest(_from, _to, _tokenId, _declaredNonce, approvalHash);\n  }\n\n  function custodianApprove(uint256 _tokenId, uint256 _declaredNonce)\n  onlyCustodian public {\n    require(exists(_tokenId));\n    bytes32 approvalHash = keccak256(uint256ToBytes(_tokenId)\n                           .concat(uint256ToBytes(_declaredNonce)));\n    address _to = custodianApproval[approvalHash];\n    address _from = ownerOf(_tokenId);\n    removeTokenFrom(_from, _tokenId);\n    addTokenTo(_to, _tokenId);\n    emit Transfer(_from, _to, _tokenId);\n    clearCustodianApproval(approvalHash);\n  }\n\n  function revertTransfer(uint256 _tokenId, uint256 _declaredNonce) public {\n    require(isApprovedOrOwner(msg.sender, _tokenId), \"no approval/ not owner\");\n    clearCustodianApproval(keccak256(uint256ToBytes(_tokenId)\n                          .concat(uint256ToBytes(_declaredNonce))));\n  }\n\n\n  /* View functions --------------------------------------------------*/\n  function viewTransferRequest(bytes32 _approvalHash) public view\n  returns(address) {\n    return custodianApproval[_approvalHash];\n  }\n\n  /* Util functions --------------------------------------------------*/\n  /**\n   * @dev Internal function to clear current custodian approval of a given token ID\n   * @param _approvalHash bytes32 ID of the token to be transferred\n   */\n  function clearCustodianApproval(bytes32 _approvalHash) internal {\n    if (custodianApproval[_approvalHash] != address(0)) {\n      custodianApproval[_approvalHash] = address(0);\n    }\n  }\n\n  function bytesToBytes32(bytes b, uint offset) private pure returns (bytes32) {\n    bytes32 out;\n    for (uint i = 0; i < 32; i++) {\n      out |= bytes32(b[offset + i] & 0xFF) >> (i * 8);\n    }\n    return out;\n  }\n\n  function stringToBytes( string s) internal returns (bytes memory b3){\n    b3 = bytes(s);\n    return b3;\n  }\n\n  // Nick Johnson https://ethereum.stackexchange.com/questions/4170/how-to-convert-a-uint-to-bytes-in-solidity\n  function uint256ToBytes(uint256 x) internal returns (bytes b) {\n    b = new bytes(32);\n    assembly { mstore(add(b, 32), x) }\n  }\n\n  // Tjaden Hess https://ethereum.stackexchange.com/questions/884/how-to-convert-an-address-to-bytes-in-solidity\n  function addressToBytes(address a) internal returns (bytes b) {\n    assembly {\n        let m := mload(0x40)\n        mstore(add(m, 20), xor(0x140000000000000000000000000000000000000000, a))\n        mstore(0x40, add(m, 52))\n        b := m\n    }\n  }\n\n  // https://ethereum.stackexchange.com/questions/6498/how-to-convert-a-uint256-type-integer-into-a-bytes32\n  function bytes32ToUint256(bytes32 n) internal returns (uint256) {\n    return uint256(n);\n  }\n\n}\n",
  "sourcePath": "/Users/tasi/Work/AkombaProjects/peaceBridge/contracts/TokenContract.sol",
  "compiler": {
    "name": "solc",
    "version": "0.4.24+commit.e67f0147.Emscripten.clang"
  },
  "schemaVersion": "2.0.1",
  "updatedAt": "2018-10-13T09:03:13.341Z"
}