{
  "contractName": "TokenContract",
  "abi": [
    {
      "constant": true,
      "inputs": [
        {
          "name": "_tokenId",
          "type": "uint256"
        }
      ],
      "name": "getApproved",
      "outputs": [
        {
          "name": "",
          "type": "address"
        }
      ],
      "payable": false,
      "stateMutability": "view",
      "type": "function"
    },
    {
      "constant": false,
      "inputs": [
        {
          "name": "_to",
          "type": "address"
        },
        {
          "name": "_tokenId",
          "type": "uint256"
        }
      ],
      "name": "approve",
      "outputs": [],
      "payable": false,
      "stateMutability": "nonpayable",
      "type": "function"
    },
    {
      "constant": true,
      "inputs": [
        {
          "name": "",
          "type": "bytes32"
        }
      ],
      "name": "custodianApproval",
      "outputs": [
        {
          "name": "",
          "type": "address"
        }
      ],
      "payable": false,
      "stateMutability": "view",
      "type": "function"
    },
    {
      "constant": true,
      "inputs": [
        {
          "name": "_tokenId",
          "type": "uint256"
        }
      ],
      "name": "exists",
      "outputs": [
        {
          "name": "",
          "type": "bool"
        }
      ],
      "payable": false,
      "stateMutability": "view",
      "type": "function"
    },
    {
      "constant": true,
      "inputs": [
        {
          "name": "_tokenId",
          "type": "uint256"
        }
      ],
      "name": "ownerOf",
      "outputs": [
        {
          "name": "",
          "type": "address"
        }
      ],
      "payable": false,
      "stateMutability": "view",
      "type": "function"
    },
    {
      "constant": true,
      "inputs": [
        {
          "name": "",
          "type": "uint256"
        }
      ],
      "name": "transferNonce",
      "outputs": [
        {
          "name": "",
          "type": "uint256"
        }
      ],
      "payable": false,
      "stateMutability": "view",
      "type": "function"
    },
    {
      "constant": true,
      "inputs": [
        {
          "name": "_owner",
          "type": "address"
        }
      ],
      "name": "balanceOf",
      "outputs": [
        {
          "name": "",
          "type": "uint256"
        }
      ],
      "payable": false,
      "stateMutability": "view",
      "type": "function"
    },
    {
      "constant": true,
      "inputs": [],
      "name": "mintNonce",
      "outputs": [
        {
          "name": "",
          "type": "uint256"
        }
      ],
      "payable": false,
      "stateMutability": "view",
      "type": "function"
    },
    {
      "constant": false,
      "inputs": [
        {
          "name": "_to",
          "type": "address"
        },
        {
          "name": "_approved",
          "type": "bool"
        }
      ],
      "name": "setApprovalForAll",
      "outputs": [],
      "payable": false,
      "stateMutability": "nonpayable",
      "type": "function"
    },
    {
      "constant": true,
      "inputs": [
        {
          "name": "_owner",
          "type": "address"
        },
        {
          "name": "_operator",
          "type": "address"
        }
      ],
      "name": "isApprovedForAll",
      "outputs": [
        {
          "name": "",
          "type": "bool"
        }
      ],
      "payable": false,
      "stateMutability": "view",
      "type": "function"
    },
    {
      "inputs": [
        {
          "name": "_custodian",
          "type": "address"
        }
      ],
      "payable": false,
      "stateMutability": "nonpayable",
      "type": "constructor"
    },
    {
      "anonymous": false,
      "inputs": [
        {
          "indexed": false,
          "name": "amount",
          "type": "uint256"
        },
        {
          "indexed": true,
          "name": "depositedTo",
          "type": "address"
        },
        {
          "indexed": false,
          "name": "mintNonce",
          "type": "uint256"
        },
        {
          "indexed": false,
          "name": "tokenId",
          "type": "uint256"
        }
      ],
      "name": "Mint",
      "type": "event"
    },
    {
      "anonymous": false,
      "inputs": [
        {
          "indexed": true,
          "name": "tokenId",
          "type": "uint256"
        },
        {
          "indexed": true,
          "name": "withdrawer",
          "type": "address"
        }
      ],
      "name": "Withdraw",
      "type": "event"
    },
    {
      "anonymous": false,
      "inputs": [
        {
          "indexed": true,
          "name": "from",
          "type": "address"
        },
        {
          "indexed": true,
          "name": "to",
          "type": "address"
        },
        {
          "indexed": true,
          "name": "tokenId",
          "type": "uint256"
        },
        {
          "indexed": false,
          "name": "declaredNonce",
          "type": "uint256"
        },
        {
          "indexed": false,
          "name": "approvalHash",
          "type": "bytes32"
        }
      ],
      "name": "TransferRequest",
      "type": "event"
    },
    {
      "anonymous": false,
      "inputs": [
        {
          "indexed": true,
          "name": "_from",
          "type": "address"
        },
        {
          "indexed": true,
          "name": "_to",
          "type": "address"
        },
        {
          "indexed": true,
          "name": "_tokenId",
          "type": "uint256"
        }
      ],
      "name": "Transfer",
      "type": "event"
    },
    {
      "anonymous": false,
      "inputs": [
        {
          "indexed": true,
          "name": "_owner",
          "type": "address"
        },
        {
          "indexed": true,
          "name": "_approved",
          "type": "address"
        },
        {
          "indexed": true,
          "name": "_tokenId",
          "type": "uint256"
        }
      ],
      "name": "Approval",
      "type": "event"
    },
    {
      "anonymous": false,
      "inputs": [
        {
          "indexed": true,
          "name": "_owner",
          "type": "address"
        },
        {
          "indexed": true,
          "name": "_operator",
          "type": "address"
        },
        {
          "indexed": false,
          "name": "_approved",
          "type": "bool"
        }
      ],
      "name": "ApprovalForAll",
      "type": "event"
    },
    {
      "constant": false,
      "inputs": [
        {
          "name": "_depositContract",
          "type": "address"
        }
      ],
      "name": "setDepositContract",
      "outputs": [],
      "payable": false,
      "stateMutability": "nonpayable",
      "type": "function"
    },
    {
      "constant": false,
      "inputs": [
        {
          "name": "_value",
          "type": "uint256"
        },
        {
          "name": "_to",
          "type": "address"
        }
      ],
      "name": "mint",
      "outputs": [],
      "payable": false,
      "stateMutability": "nonpayable",
      "type": "function"
    },
    {
      "constant": false,
      "inputs": [
        {
          "name": "_tokenId",
          "type": "uint256"
        }
      ],
      "name": "withdraw",
      "outputs": [],
      "payable": false,
      "stateMutability": "nonpayable",
      "type": "function"
    },
    {
      "constant": false,
      "inputs": [
        {
          "name": "_from",
          "type": "address"
        },
        {
          "name": "_to",
          "type": "address"
        },
        {
          "name": "_tokenId",
          "type": "uint256"
        },
        {
          "name": "_declaredNonce",
          "type": "uint256"
        }
      ],
      "name": "transferFrom",
      "outputs": [],
      "payable": false,
      "stateMutability": "nonpayable",
      "type": "function"
    },
    {
      "constant": false,
      "inputs": [
        {
          "name": "_tokenId",
          "type": "uint256"
        },
        {
          "name": "_declaredNonce",
          "type": "uint256"
        }
      ],
      "name": "custodianApprove",
      "outputs": [],
      "payable": false,
      "stateMutability": "nonpayable",
      "type": "function"
    },
    {
      "constant": false,
      "inputs": [
        {
          "name": "_tokenId",
          "type": "uint256"
        },
        {
          "name": "_declaredNonce",
          "type": "uint256"
        }
      ],
      "name": "revertTransfer",
      "outputs": [],
      "payable": false,
      "stateMutability": "nonpayable",
      "type": "function"
    },
    {
      "constant": true,
      "inputs": [
        {
          "name": "_approvalHash",
          "type": "bytes32"
        }
      ],
      "name": "viewTransferRequest",
      "outputs": [
        {
          "name": "",
          "type": "address"
        }
      ],
      "payable": false,
      "stateMutability": "view",
      "type": "function"
    }
  ],
  "bytecode": "0x6080604052600060085534801561001557600080fd5b50604051602080611a8d8339810180604052810190808051906020019092919050505080600560006101000a81548173ffffffffffffffffffffffffffffffffffffffff021916908373ffffffffffffffffffffffffffffffffffffffff16021790555050611a04806100896000396000f3006080604052600436106100f1576000357c0100000000000000000000000000000000000000000000000000000000900463ffffffff168063081812fc146100f6578063095ea7b3146101635780630ec2e821146101b05780630f32037f146101f35780632e1a7d4d146102645780634174dd39146102915780634f558e79146102c85780636352211e1461030d5780636e303cad1461037a5780636e3c045e146103bb57806370a08231146103f2578063931679a21461044957806394bf804d14610474578063a0772757146104c1578063a22cb46514610532578063e985e9c514610581578063fe99049a146105fc575b600080fd5b34801561010257600080fd5b5061012160048036038101908080359060200190929190505050610673565b604051808273ffffffffffffffffffffffffffffffffffffffff1673ffffffffffffffffffffffffffffffffffffffff16815260200191505060405180910390f35b34801561016f57600080fd5b506101ae600480360381019080803573ffffffffffffffffffffffffffffffffffffffff169060200190929190803590602001909291905050506106b0565b005b3480156101bc57600080fd5b506101f1600480360381019080803573ffffffffffffffffffffffffffffffffffffffff1690602001909291905050506107f5565b005b3480156101ff57600080fd5b506102226004803603810190808035600019169060200190929190505050610895565b604051808273ffffffffffffffffffffffffffffffffffffffff1673ffffffffffffffffffffffffffffffffffffffff16815260200191505060405180910390f35b34801561027057600080fd5b5061028f600480360381019080803590602001909291905050506108c8565b005b34801561029d57600080fd5b506102c6600480360381019080803590602001909291908035906020019092919050505061090f565b005b3480156102d457600080fd5b506102f360048036038101908080359060200190929190505050610a1e565b604051808215151515815260200191505060405180910390f35b34801561031957600080fd5b5061033860048036038101908080359060200190929190505050610a8f565b604051808273ffffffffffffffffffffffffffffffffffffffff1673ffffffffffffffffffffffffffffffffffffffff16815260200191505060405180910390f35b34801561038657600080fd5b506103a560048036038101908080359060200190929190505050610b0c565b6040518082815260200191505060405180910390f35b3480156103c757600080fd5b506103f06004803603810190808035906020019092919080359060200190929190505050610b24565b005b3480156103fe57600080fd5b50610433600480360381019080803573ffffffffffffffffffffffffffffffffffffffff169060200190929190505050610d0a565b6040518082815260200191505060405180910390f35b34801561045557600080fd5b5061045e610d8e565b6040518082815260200191505060405180910390f35b34801561048057600080fd5b506104bf60048036038101908080359060200190929190803573ffffffffffffffffffffffffffffffffffffffff169060200190929190505050610d94565b005b3480156104cd57600080fd5b506104f06004803603810190808035600019169060200190929190505050610ed2565b604051808273ffffffffffffffffffffffffffffffffffffffff1673ffffffffffffffffffffffffffffffffffffffff16815260200191505060405180910390f35b34801561053e57600080fd5b5061057f600480360381019080803573ffffffffffffffffffffffffffffffffffffffff169060200190929190803515159060200190929190505050610f17565b005b34801561058d57600080fd5b506105e2600480360381019080803573ffffffffffffffffffffffffffffffffffffffff169060200190929190803573ffffffffffffffffffffffffffffffffffffffff169060200190929190505050611053565b604051808215151515815260200191505060405180910390f35b34801561060857600080fd5b50610671600480360381019080803573ffffffffffffffffffffffffffffffffffffffff169060200190929190803573ffffffffffffffffffffffffffffffffffffffff16906020019092919080359060200190929190803590602001909291905050506110e7565b005b60006001600083815260200190815260200160002060009054906101000a900473ffffffffffffffffffffffffffffffffffffffff169050919050565b60006106bb82610a8f565b90508073ffffffffffffffffffffffffffffffffffffffff168373ffffffffffffffffffffffffffffffffffffffff16141515156106f857600080fd5b8073ffffffffffffffffffffffffffffffffffffffff163373ffffffffffffffffffffffffffffffffffffffff16148061073857506107378133611053565b5b151561074357600080fd5b826001600084815260200190815260200160002060006101000a81548173ffffffffffffffffffffffffffffffffffffffff021916908373ffffffffffffffffffffffffffffffffffffffff160217905550818373ffffffffffffffffffffffffffffffffffffffff168273ffffffffffffffffffffffffffffffffffffffff167f8c5be1e5ebec7d5bd14f71427d1e84f3dd0314c0f7b2291e5b200ac8c7c3b92560405160405180910390a4505050565b3373ffffffffffffffffffffffffffffffffffffffff16600560009054906101000a900473ffffffffffffffffffffffffffffffffffffffff1673ffffffffffffffffffffffffffffffffffffffff1614151561085157600080fd5b80600460006101000a81548173ffffffffffffffffffffffffffffffffffffffff021916908373ffffffffffffffffffffffffffffffffffffffff16021790555050565b600a6020528060005260406000206000915054906101000a900473ffffffffffffffffffffffffffffffffffffffff1681565b3373ffffffffffffffffffffffffffffffffffffffff16817f8353ffcac0876ad14e226d9783c04540bfebf13871e868157d2a391cad98e91860405160405180910390a350565b61091933836112ff565b151561098d576040517f08c379a00000000000000000000000000000000000000000000000000000000081526004018080602001828103825260168152602001807f6e6f20617070726f76616c2f206e6f74206f776e65720000000000000000000081525060200191505060405180910390fd5b610a1a6109b361099c83611394565b6109a585611394565b6113d890919063ffffffff16565b6040518082805190602001908083835b6020831015156109e857805182526020820191506020810190506020830392506109c3565b6001836020036101000a0380198251168184511680821785525050505050509050019150506040518091039020611462565b5050565b60008060008084815260200190815260200160002060009054906101000a900473ffffffffffffffffffffffffffffffffffffffff169050600073ffffffffffffffffffffffffffffffffffffffff168173ffffffffffffffffffffffffffffffffffffffff161415915050919050565b60008060008084815260200190815260200160002060009054906101000a900473ffffffffffffffffffffffffffffffffffffffff169050600073ffffffffffffffffffffffffffffffffffffffff168173ffffffffffffffffffffffffffffffffffffffff1614151515610b0357600080fd5b80915050919050565b60096020528060005260406000206000915090505481565b60008060003373ffffffffffffffffffffffffffffffffffffffff16600560009054906101000a900473ffffffffffffffffffffffffffffffffffffffff1673ffffffffffffffffffffffffffffffffffffffff16141515610b8557600080fd5b610b8e85610a1e565b1515610b9957600080fd5b60016009600087815260200190815260200160002060008282540192505081905550610bde610bc785611394565b610bd087611394565b6113d890919063ffffffff16565b6040518082805190602001908083835b602083101515610c135780518252602082019150602081019050602083039250610bee565b6001836020036101000a03801982511681845116808217855250505050505090500191505060405180910390209250600a6000846000191660001916815260200190815260200160002060009054906101000a900473ffffffffffffffffffffffffffffffffffffffff169150610c8985610a8f565b9050610c958186611532565b610c9f8286611660565b848273ffffffffffffffffffffffffffffffffffffffff168273ffffffffffffffffffffffffffffffffffffffff167fddf252ad1be2c89b69c2b068fc378daa952ba7f163c4a11628f55a4df523b3ef60405160405180910390a4610d0383611462565b5050505050565b60008073ffffffffffffffffffffffffffffffffffffffff168273ffffffffffffffffffffffffffffffffffffffff1614151515610d4757600080fd5b600260008373ffffffffffffffffffffffffffffffffffffffff1673ffffffffffffffffffffffffffffffffffffffff168152602001908152602001600020549050919050565b60085481565b60608060606000610da486611394565b9350610daf856117b8565b9250610dbc600854611394565b9150610e4d610de683610dd886886113d890919063ffffffff16565b6113d890919063ffffffff16565b6040518082805190602001908083835b602083101515610e1b5780518252602082019150602081019050602083039250610df6565b6001836020036101000a03801982511681845116808217855250505050505090500191505060405180910390206117ea565b9050610e5985826117f8565b8473ffffffffffffffffffffffffffffffffffffffff167f5a3e96f397e68b20a43c25f664b628805b877334dadfcc925c6c1a3ad4340458876008548460405180848152602001838152602001828152602001935050505060405180910390a26001600860008282540192505081905550505050505050565b6000600a6000836000191660001916815260200190815260200160002060009054906101000a900473ffffffffffffffffffffffffffffffffffffffff169050919050565b3373ffffffffffffffffffffffffffffffffffffffff168273ffffffffffffffffffffffffffffffffffffffff1614151515610f5257600080fd5b80600360003373ffffffffffffffffffffffffffffffffffffffff1673ffffffffffffffffffffffffffffffffffffffff16815260200190815260200160002060008473ffffffffffffffffffffffffffffffffffffffff1673ffffffffffffffffffffffffffffffffffffffff16815260200190815260200160002060006101000a81548160ff0219169083151502179055508173ffffffffffffffffffffffffffffffffffffffff163373ffffffffffffffffffffffffffffffffffffffff167f17307eab39ab6107e8899845ad3d59bd9653f200f220920489ca2b5937696c3183604051808215151515815260200191505060405180910390a35050565b6000600360008473ffffffffffffffffffffffffffffffffffffffff1673ffffffffffffffffffffffffffffffffffffffff16815260200190815260200160002060008373ffffffffffffffffffffffffffffffffffffffff1673ffffffffffffffffffffffffffffffffffffffff16815260200190815260200160002060009054906101000a900460ff16905092915050565b60006110f333846112ff565b15156110fe57600080fd5b600073ffffffffffffffffffffffffffffffffffffffff168573ffffffffffffffffffffffffffffffffffffffff161415151561113a57600080fd5b600073ffffffffffffffffffffffffffffffffffffffff168473ffffffffffffffffffffffffffffffffffffffff161415151561117657600080fd5b60096000848152602001908152602001600020548214151561119757600080fd5b6111a1858461189e565b6111c46111ad83611394565b6111b685611394565b6113d890919063ffffffff16565b6040518082805190602001908083835b6020831015156111f957805182526020820191506020810190506020830392506111d4565b6001836020036101000a0380198251168184511680821785525050505050509050019150506040518091039020905083600a6000836000191660001916815260200190815260200160002060006101000a81548173ffffffffffffffffffffffffffffffffffffffff021916908373ffffffffffffffffffffffffffffffffffffffff160217905550828473ffffffffffffffffffffffffffffffffffffffff168673ffffffffffffffffffffffffffffffffffffffff167fa7894504d84fd9069b3dfd548908287f8c38abc421fd970663f06078f63966d385856040518083815260200182600019166000191681526020019250505060405180910390a45050505050565b60008061130b83610a8f565b90508073ffffffffffffffffffffffffffffffffffffffff168473ffffffffffffffffffffffffffffffffffffffff16148061137a57508373ffffffffffffffffffffffffffffffffffffffff1661136284610673565b73ffffffffffffffffffffffffffffffffffffffff16145b8061138b575061138a8185611053565b5b91505092915050565b606060206040519080825280601f01601f1916602001820160405280156113ca5781602001602082028038833980820191505090505b509050816020820152919050565b6060806040519050835180825260208201818101602087015b8183101561140e57805183526020830192506020810190506113f1565b50855192508351830184528091508282019050602086015b818310156114435780518352602083019250602081019050611426565b50601f19601f8851850115830101166040525050508091505092915050565b600073ffffffffffffffffffffffffffffffffffffffff16600a6000836000191660001916815260200190815260200160002060009054906101000a900473ffffffffffffffffffffffffffffffffffffffff1673ffffffffffffffffffffffffffffffffffffffff1614151561152f576000600a6000836000191660001916815260200190815260200160002060006101000a81548173ffffffffffffffffffffffffffffffffffffffff021916908373ffffffffffffffffffffffffffffffffffffffff1602179055505b50565b8173ffffffffffffffffffffffffffffffffffffffff1661155282610a8f565b73ffffffffffffffffffffffffffffffffffffffff1614151561157457600080fd5b6115c76001600260008573ffffffffffffffffffffffffffffffffffffffff1673ffffffffffffffffffffffffffffffffffffffff168152602001908152602001600020546119a190919063ffffffff16565b600260008473ffffffffffffffffffffffffffffffffffffffff1673ffffffffffffffffffffffffffffffffffffffff16815260200190815260200160002081905550600080600083815260200190815260200160002060006101000a81548173ffffffffffffffffffffffffffffffffffffffff021916908373ffffffffffffffffffffffffffffffffffffffff1602179055505050565b600073ffffffffffffffffffffffffffffffffffffffff1660008083815260200190815260200160002060009054906101000a900473ffffffffffffffffffffffffffffffffffffffff1673ffffffffffffffffffffffffffffffffffffffff161415156116cd57600080fd5b8160008083815260200190815260200160002060006101000a81548173ffffffffffffffffffffffffffffffffffffffff021916908373ffffffffffffffffffffffffffffffffffffffff1602179055506117716001600260008573ffffffffffffffffffffffffffffffffffffffff1673ffffffffffffffffffffffffffffffffffffffff168152602001908152602001600020546119ba90919063ffffffff16565b600260008473ffffffffffffffffffffffffffffffffffffffff1673ffffffffffffffffffffffffffffffffffffffff168152602001908152602001600020819055505050565b606060405182741400000000000000000000000000000000000000001860148201526034810160405280915050919050565b600081600190049050919050565b600073ffffffffffffffffffffffffffffffffffffffff168273ffffffffffffffffffffffffffffffffffffffff161415151561183457600080fd5b61183e8282611660565b808273ffffffffffffffffffffffffffffffffffffffff16600073ffffffffffffffffffffffffffffffffffffffff167fddf252ad1be2c89b69c2b068fc378daa952ba7f163c4a11628f55a4df523b3ef60405160405180910390a45050565b8173ffffffffffffffffffffffffffffffffffffffff166118be82610a8f565b73ffffffffffffffffffffffffffffffffffffffff161415156118e057600080fd5b600073ffffffffffffffffffffffffffffffffffffffff166001600083815260200190815260200160002060009054906101000a900473ffffffffffffffffffffffffffffffffffffffff1673ffffffffffffffffffffffffffffffffffffffff1614151561199d5760006001600083815260200190815260200160002060006101000a81548173ffffffffffffffffffffffffffffffffffffffff021916908373ffffffffffffffffffffffffffffffffffffffff1602179055505b5050565b60008282111515156119af57fe5b818303905092915050565b60008082840190508381101515156119ce57fe5b80915050929150505600a165627a7a723058201d4f0e4234adcd38876543126bc4f1620a31db1bd8b4455882f995f7f7f59b9c0029",
  "source": "pragma solidity ^0.4.24;\n// produced by the Solididy File Flattener (c) David Appleton 2018\n// contact : dave@akomba.com\n// released under Apache 2.0 licence\n// input  /home/yingtong/peacebridge/contracts/TokenContract.sol\n// flattened :  Monday, 25-Feb-19 08:49:45 UTC\nlibrary BytesLib {\n    function concat(bytes memory _preBytes, bytes memory _postBytes) internal pure returns (bytes) {\n        bytes memory tempBytes;\n\n        assembly {\n            // Get a location of some free memory and store it in tempBytes as\n            // Solidity does for memory variables.\n            tempBytes := mload(0x40)\n\n            // Store the length of the first bytes array at the beginning of\n            // the memory for tempBytes.\n            let length := mload(_preBytes)\n            mstore(tempBytes, length)\n\n            // Maintain a memory counter for the current write location in the\n            // temp bytes array by adding the 32 bytes for the array length to\n            // the starting location.\n            let mc := add(tempBytes, 0x20)\n            // Stop copying when the memory counter reaches the length of the\n            // first bytes array.\n            let end := add(mc, length)\n\n            for {\n                // Initialize a copy counter to the start of the _preBytes data,\n                // 32 bytes into its memory.\n                let cc := add(_preBytes, 0x20)\n            } lt(mc, end) {\n                // Increase both counters by 32 bytes each iteration.\n                mc := add(mc, 0x20)\n                cc := add(cc, 0x20)\n            } {\n                // Write the _preBytes data into the tempBytes memory 32 bytes\n                // at a time.\n                mstore(mc, mload(cc))\n            }\n\n            // Add the length of _postBytes to the current length of tempBytes\n            // and store it as the new length in the first 32 bytes of the\n            // tempBytes memory.\n            length := mload(_postBytes)\n            mstore(tempBytes, add(length, mload(tempBytes)))\n\n            // Move the memory counter back from a multiple of 0x20 to the\n            // actual end of the _preBytes data.\n            mc := end\n            // Stop copying when the memory counter reaches the new combined\n            // length of the arrays.\n            end := add(mc, length)\n\n            for {\n                let cc := add(_postBytes, 0x20)\n            } lt(mc, end) {\n                mc := add(mc, 0x20)\n                cc := add(cc, 0x20)\n            } {\n                mstore(mc, mload(cc))\n            }\n\n            // Update the free-memory pointer by padding our last write location\n            // to 32 bytes: add 31 bytes to the end of tempBytes to move to the\n            // next 32 byte block, then round down to the nearest multiple of\n            // 32. If the sum of the length of the two arrays is zero then add \n            // one before rounding down to leave a blank 32 bytes (the length block with 0).\n            mstore(0x40, and(\n              add(add(end, iszero(add(length, mload(_preBytes)))), 31),\n              not(31) // Round down to the nearest 32 bytes.\n            ))\n        }\n\n        return tempBytes;\n    }\n\n    function concatStorage(bytes storage _preBytes, bytes memory _postBytes) internal {\n        assembly {\n            // Read the first 32 bytes of _preBytes storage, which is the length\n            // of the array. (We don't need to use the offset into the slot\n            // because arrays use the entire slot.)\n            let fslot := sload(_preBytes_slot)\n            // Arrays of 31 bytes or less have an even value in their slot,\n            // while longer arrays have an odd value. The actual length is\n            // the slot divided by two for odd values, and the lowest order\n            // byte divided by two for even values.\n            // If the slot is even, bitwise and the slot with 255 and divide by\n            // two to get the length. If the slot is odd, bitwise and the slot\n            // with -1 and divide by two.\n            let slength := div(and(fslot, sub(mul(0x100, iszero(and(fslot, 1))), 1)), 2)\n            let mlength := mload(_postBytes)\n            let newlength := add(slength, mlength)\n            // slength can contain both the length and contents of the array\n            // if length < 32 bytes so let's prepare for that\n            // v. http://solidity.readthedocs.io/en/latest/miscellaneous.html#layout-of-state-variables-in-storage\n            switch add(lt(slength, 32), lt(newlength, 32))\n            case 2 {\n                // Since the new array still fits in the slot, we just need to\n                // update the contents of the slot.\n                // uint256(bytes_storage) = uint256(bytes_storage) + uint256(bytes_memory) + new_length\n                sstore(\n                    _preBytes_slot,\n                    // all the modifications to the slot are inside this\n                    // next block\n                    add(\n                        // we can just add to the slot contents because the\n                        // bytes we want to change are the LSBs\n                        fslot,\n                        add(\n                            mul(\n                                div(\n                                    // load the bytes from memory\n                                    mload(add(_postBytes, 0x20)),\n                                    // zero all bytes to the right\n                                    exp(0x100, sub(32, mlength))\n                                ),\n                                // and now shift left the number of bytes to\n                                // leave space for the length in the slot\n                                exp(0x100, sub(32, newlength))\n                            ),\n                            // increase length by the double of the memory\n                            // bytes length\n                            mul(mlength, 2)\n                        )\n                    )\n                )\n            }\n            case 1 {\n                // The stored value fits in the slot, but the combined value\n                // will exceed it.\n                // get the keccak hash to get the contents of the array\n                mstore(0x0, _preBytes_slot)\n                let sc := add(keccak256(0x0, 0x20), div(slength, 32))\n\n                // save new length\n                sstore(_preBytes_slot, add(mul(newlength, 2), 1))\n\n                // The contents of the _postBytes array start 32 bytes into\n                // the structure. Our first read should obtain the `submod`\n                // bytes that can fit into the unused space in the last word\n                // of the stored array. To get this, we read 32 bytes starting\n                // from `submod`, so the data we read overlaps with the array\n                // contents by `submod` bytes. Masking the lowest-order\n                // `submod` bytes allows us to add that value directly to the\n                // stored value.\n\n                let submod := sub(32, slength)\n                let mc := add(_postBytes, submod)\n                let end := add(_postBytes, mlength)\n                let mask := sub(exp(0x100, submod), 1)\n\n                sstore(\n                    sc,\n                    add(\n                        and(\n                            fslot,\n                            0xffffffffffffffffffffffffffffffffffffffffffffffffffffffffffffff00\n                        ),\n                        and(mload(mc), mask)\n                    )\n                )\n\n                for {\n                    mc := add(mc, 0x20)\n                    sc := add(sc, 1)\n                } lt(mc, end) {\n                    sc := add(sc, 1)\n                    mc := add(mc, 0x20)\n                } {\n                    sstore(sc, mload(mc))\n                }\n\n                mask := exp(0x100, sub(mc, end))\n\n                sstore(sc, mul(div(mload(mc), mask), mask))\n            }\n            default {\n                // get the keccak hash to get the contents of the array\n                mstore(0x0, _preBytes_slot)\n                // Start copying to the last used word of the stored array.\n                let sc := add(keccak256(0x0, 0x20), div(slength, 32))\n\n                // save new length\n                sstore(_preBytes_slot, add(mul(newlength, 2), 1))\n\n                // Copy over the first `submod` bytes of the new data as in\n                // case 1 above.\n                let slengthmod := mod(slength, 32)\n                let mlengthmod := mod(mlength, 32)\n                let submod := sub(32, slengthmod)\n                let mc := add(_postBytes, submod)\n                let end := add(_postBytes, mlength)\n                let mask := sub(exp(0x100, submod), 1)\n\n                sstore(sc, add(sload(sc), and(mload(mc), mask)))\n                \n                for { \n                    sc := add(sc, 1)\n                    mc := add(mc, 0x20)\n                } lt(mc, end) {\n                    sc := add(sc, 1)\n                    mc := add(mc, 0x20)\n                } {\n                    sstore(sc, mload(mc))\n                }\n\n                mask := exp(0x100, sub(mc, end))\n\n                sstore(sc, mul(div(mload(mc), mask), mask))\n            }\n        }\n    }\n\n    function slice(bytes _bytes, uint _start, uint _length) internal  pure returns (bytes) {\n        require(_bytes.length >= (_start + _length));\n\n        bytes memory tempBytes;\n\n        assembly {\n            switch iszero(_length)\n            case 0 {\n                // Get a location of some free memory and store it in tempBytes as\n                // Solidity does for memory variables.\n                tempBytes := mload(0x40)\n\n                // The first word of the slice result is potentially a partial\n                // word read from the original array. To read it, we calculate\n                // the length of that partial word and start copying that many\n                // bytes into the array. The first word we copy will start with\n                // data we don't care about, but the last `lengthmod` bytes will\n                // land at the beginning of the contents of the new array. When\n                // we're done copying, we overwrite the full first word with\n                // the actual length of the slice.\n                let lengthmod := and(_length, 31)\n\n                // The multiplication in the next line is necessary\n                // because when slicing multiples of 32 bytes (lengthmod == 0)\n                // the following copy loop was copying the origin's length\n                // and then ending prematurely not copying everything it should.\n                let mc := add(add(tempBytes, lengthmod), mul(0x20, iszero(lengthmod)))\n                let end := add(mc, _length)\n\n                for {\n                    // The multiplication in the next line has the same exact purpose\n                    // as the one above.\n                    let cc := add(add(add(_bytes, lengthmod), mul(0x20, iszero(lengthmod))), _start)\n                } lt(mc, end) {\n                    mc := add(mc, 0x20)\n                    cc := add(cc, 0x20)\n                } {\n                    mstore(mc, mload(cc))\n                }\n\n                mstore(tempBytes, _length)\n\n                //update free-memory pointer\n                //allocating the array padded to 32 bytes like the compiler does now\n                mstore(0x40, and(add(mc, 31), not(31)))\n            }\n            //if we want a zero-length slice let's just return a zero-length array\n            default {\n                tempBytes := mload(0x40)\n\n                mstore(0x40, add(tempBytes, 0x20))\n            }\n        }\n\n        return tempBytes;\n    }\n\n    function toAddress(bytes _bytes, uint _start) internal  pure returns (address) {\n        require(_bytes.length >= (_start + 20));\n        address tempAddress;\n\n        assembly {\n            tempAddress := div(mload(add(add(_bytes, 0x20), _start)), 0x1000000000000000000000000)\n        }\n\n        return tempAddress;\n    }\n\n    function toUint(bytes _bytes, uint _start) internal  pure returns (uint256) {\n        require(_bytes.length >= (_start + 32));\n        uint256 tempUint;\n\n        assembly {\n            tempUint := mload(add(add(_bytes, 0x20), _start))\n        }\n\n        return tempUint;\n    }\n\n    function equal(bytes memory _preBytes, bytes memory _postBytes) internal pure returns (bool) {\n        bool success = true;\n\n        assembly {\n            let length := mload(_preBytes)\n\n            // if lengths don't match the arrays are not equal\n            switch eq(length, mload(_postBytes))\n            case 1 {\n                // cb is a circuit breaker in the for loop since there's\n                //  no said feature for inline assembly loops\n                // cb = 1 - don't breaker\n                // cb = 0 - break\n                let cb := 1\n\n                let mc := add(_preBytes, 0x20)\n                let end := add(mc, length)\n\n                for {\n                    let cc := add(_postBytes, 0x20)\n                // the next line is the loop condition:\n                // while(uint(mc < end) + cb == 2)\n                } eq(add(lt(mc, end), cb), 2) {\n                    mc := add(mc, 0x20)\n                    cc := add(cc, 0x20)\n                } {\n                    // if any of these checks fails then arrays are not equal\n                    if iszero(eq(mload(mc), mload(cc))) {\n                        // unsuccess:\n                        success := 0\n                        cb := 0\n                    }\n                }\n            }\n            default {\n                // unsuccess:\n                success := 0\n            }\n        }\n\n        return success;\n    }\n\n    function equalStorage(bytes storage _preBytes, bytes memory _postBytes) internal view returns (bool) {\n        bool success = true;\n\n        assembly {\n            // we know _preBytes_offset is 0\n            let fslot := sload(_preBytes_slot)\n            // Decode the length of the stored array like in concatStorage().\n            let slength := div(and(fslot, sub(mul(0x100, iszero(and(fslot, 1))), 1)), 2)\n            let mlength := mload(_postBytes)\n\n            // if lengths don't match the arrays are not equal\n            switch eq(slength, mlength)\n            case 1 {\n                // slength can contain both the length and contents of the array\n                // if length < 32 bytes so let's prepare for that\n                // v. http://solidity.readthedocs.io/en/latest/miscellaneous.html#layout-of-state-variables-in-storage\n                if iszero(iszero(slength)) {\n                    switch lt(slength, 32)\n                    case 1 {\n                        // blank the last byte which is the length\n                        fslot := mul(div(fslot, 0x100), 0x100)\n\n                        if iszero(eq(fslot, mload(add(_postBytes, 0x20)))) {\n                            // unsuccess:\n                            success := 0\n                        }\n                    }\n                    default {\n                        // cb is a circuit breaker in the for loop since there's\n                        //  no said feature for inline assembly loops\n                        // cb = 1 - don't breaker\n                        // cb = 0 - break\n                        let cb := 1\n\n                        // get the keccak hash to get the contents of the array\n                        mstore(0x0, _preBytes_slot)\n                        let sc := keccak256(0x0, 0x20)\n\n                        let mc := add(_postBytes, 0x20)\n                        let end := add(mc, mlength)\n\n                        // the next line is the loop condition:\n                        // while(uint(mc < end) + cb == 2)\n                        for {} eq(add(lt(mc, end), cb), 2) {\n                            sc := add(sc, 1)\n                            mc := add(mc, 0x20)\n                        } {\n                            if iszero(eq(sload(sc), mload(mc))) {\n                                // unsuccess:\n                                success := 0\n                                cb := 0\n                            }\n                        }\n                    }\n                }\n            }\n            default {\n                // unsuccess:\n                success := 0\n            }\n        }\n\n        return success;\n    }\n}\ncontract ERC721Basic {\n\n\n  event Transfer(\n    address indexed _from,\n    address indexed _to,\n    uint256 indexed _tokenId\n  );\n  event Approval(\n    address indexed _owner,\n    address indexed _approved,\n    uint256 indexed _tokenId\n  );\n  event ApprovalForAll(\n    address indexed _owner,\n    address indexed _operator,\n    bool _approved\n  );\n\n  function balanceOf(address _owner) public view returns (uint256 _balance);\n  function ownerOf(uint256 _tokenId) public view returns (address _owner);\n  function exists(uint256 _tokenId) public view returns (bool _exists);\n\n  function approve(address _to, uint256 _tokenId) public;\n  function getApproved(uint256 _tokenId)\n    public view returns (address _operator);\n\n  function setApprovalForAll(address _operator, bool _approved) public;\n  function isApprovedForAll(address _owner, address _operator)\n    public view returns (bool);\n\n  function transferFrom(address _from, address _to, uint256 _tokenId, uint256 _declaredNonce) public;\n}\nlibrary AddressUtils {\n\n  /**\n   * Returns whether the target address is a contract\n   * @dev This function will return false if invoked during the constructor of a contract,\n   * as the code is not actually created until after the constructor finishes.\n   * @param _addr address to check\n   * @return whether the target address is a contract\n   */\n  function isContract(address _addr) internal view returns (bool) {\n    uint256 size;\n    // XXX Currently there is no better way to check if there is a contract in an address\n    // than to check the size of the code at that address.\n    // See https://ethereum.stackexchange.com/a/14016/36603\n    // for more details about how this works.\n    // TODO Check this again before the Serenity release, because all addresses will be\n    // contracts then.\n    // solium-disable-next-line security/no-inline-assembly\n    assembly { size := extcodesize(_addr) }\n    return size > 0;\n  }\n\n}\nlibrary SafeMath {\n  function mul(uint256 a, uint256 b) internal pure returns (uint256) {\n    uint256 c = a * b;\n    assert(a == 0 || c / a == b);\n    return c;\n  }\n\n  function div(uint256 a, uint256 b) internal pure returns (uint256) {\n    // assert(b > 0); // Solidity automatically throws when dividing by 0\n    uint256 c = a / b;\n    // assert(a == b * c + a % b); // There is no case in which this doesn't hold\n    return c;\n  }\n\n  function sub(uint256 a, uint256 b) internal pure returns (uint256) {\n    assert(b <= a);\n    return a - b;\n  }\n  \n  function add(uint256 a, uint256 b) internal pure returns (uint256) {\n    uint256 c = a + b;\n    assert(c >= a);\n    return c;\n  }\n}\n\ncontract Ownable {\n  address public owner;\n\n  function Ownable() {\n    owner = msg.sender;\n  }\n\n  modifier onlyOwner() {\n    if (msg.sender == owner)\n      _;\n  }\n\n  function transferOwnership(address newOwner) onlyOwner {\n    if (newOwner != address(0)) owner = newOwner;\n  }\n\n}\nlibrary RLP {\n\n uint constant DATA_SHORT_START = 0x80;\n uint constant DATA_LONG_START = 0xB8;\n uint constant LIST_SHORT_START = 0xC0;\n uint constant LIST_LONG_START = 0xF8;\n\n uint constant DATA_LONG_OFFSET = 0xB7;\n uint constant LIST_LONG_OFFSET = 0xF7;\n\n\n struct RLPItem {\n     uint _unsafe_memPtr;    // Pointer to the RLP-encoded bytes.\n     uint _unsafe_length;    // Number of bytes. This is the full length of the string.\n }\n\n struct Iterator {\n     RLPItem _unsafe_item;   // Item that's being iterated over.\n     uint _unsafe_nextPtr;   // Position of the next item in the list.\n }\n\n /* Iterator */\n\n function next(Iterator memory self) internal constant returns (RLPItem memory subItem) {\n     if(hasNext(self)) {\n         var ptr = self._unsafe_nextPtr;\n         var itemLength = _itemLength(ptr);\n         subItem._unsafe_memPtr = ptr;\n         subItem._unsafe_length = itemLength;\n         self._unsafe_nextPtr = ptr + itemLength;\n     }\n     else\n         revert();\n }\n\n function next(Iterator memory self, bool strict) internal constant returns (RLPItem memory subItem) {\n     subItem = next(self);\n     if(strict && !_validate(subItem))\n         revert();\n     return;\n }\n\n function hasNext(Iterator memory self) internal constant returns (bool) {\n     var item = self._unsafe_item;\n     return self._unsafe_nextPtr < item._unsafe_memPtr + item._unsafe_length;\n }\n\n /* RLPItem */\n\n /// @dev Creates an RLPItem from an array of RLP encoded bytes.\n /// @param self The RLP encoded bytes.\n /// @return An RLPItem\n function toRLPItem(bytes memory self) internal constant returns (RLPItem memory) {\n     uint len = self.length;\n     if (len == 0) {\n         return RLPItem(0, 0);\n     }\n     uint memPtr;\n     assembly {\n         memPtr := add(self, 0x20)\n     }\n     return RLPItem(memPtr, len);\n }\n\n /// @dev Creates an RLPItem from an array of RLP encoded bytes.\n /// @param self The RLP encoded bytes.\n /// @param strict Will revert if the data is not RLP encoded.\n /// @return An RLPItem\n function toRLPItem(bytes memory self, bool strict) internal constant returns (RLPItem memory) {\n     var item = toRLPItem(self);\n     if(strict) {\n         uint len = self.length;\n         if(_payloadOffset(item) > len)\n             revert();\n         if(_itemLength(item._unsafe_memPtr) != len)\n             revert();\n         if(!_validate(item))\n             revert();\n     }\n     return item;\n }\n\n /// @dev Check if the RLP item is null.\n /// @param self The RLP item.\n /// @return 'true' if the item is null.\n function isNull(RLPItem memory self) internal pure returns (bool ret) {\n     return self._unsafe_length == 0;\n }\n\n /// @dev Check if the RLP item is a list.\n /// @param self The RLP item.\n /// @return 'true' if the item is a list.\n function isList(RLPItem memory self) internal pure returns (bool ret) {\n     if (self._unsafe_length == 0)\n         return false;\n     uint memPtr = self._unsafe_memPtr;\n     assembly {\n         ret := iszero(lt(byte(0, mload(memPtr)), 0xC0))\n     }\n }\n\n /// @dev Check if the RLP item is data.\n /// @param self The RLP item.\n /// @return 'true' if the item is data.\n function isData(RLPItem memory self) internal pure returns (bool ret) {\n     if (self._unsafe_length == 0)\n         return false;\n     uint memPtr = self._unsafe_memPtr;\n     assembly {\n         ret := lt(byte(0, mload(memPtr)), 0xC0)\n     }\n }\n\n /// @dev Check if the RLP item is empty (string or list).\n /// @param self The RLP item.\n /// @return 'true' if the item is null.\n function isEmpty(RLPItem memory self) internal pure returns (bool ret) {\n     if (isNull(self)) {\n         return false;\n     }\n     uint b0;\n     uint memPtr = self._unsafe_memPtr;\n     assembly {\n         b0 := byte(0, mload(memPtr))\n     }\n     return (b0 == DATA_SHORT_START || b0 == LIST_SHORT_START);\n }\n\n /// @dev Get the number of items in an RLP encoded list.\n /// @param self The RLP item.\n /// @return The number of items.\n function items(RLPItem memory self) internal constant returns (uint) {\n     if (!isList(self))\n         return 0;\n     uint b0;\n     uint memPtr = self._unsafe_memPtr;\n     assembly {\n         b0 := byte(0, mload(memPtr))\n     }\n     uint pos = memPtr + _payloadOffset(self);\n     uint last = memPtr + self._unsafe_length - 1;\n     uint itms;\n     while (pos <= last) {\n         pos += _itemLength(pos);\n         itms++;\n     }\n     return itms;\n }\n\n /// @dev Create an iterator.\n /// @param self The RLP item.\n /// @return An 'Iterator' over the item.\n function iterator(RLPItem memory self) internal constant returns (Iterator memory it) {\n     if (!isList(self))\n         revert();\n     uint ptr = self._unsafe_memPtr + _payloadOffset(self);\n     it._unsafe_item = self;\n     it._unsafe_nextPtr = ptr;\n }\n\n /// @dev Return the RLP encoded bytes.\n /// @param self The RLPItem.\n /// @return The bytes.\n function toBytes(RLPItem memory self) internal constant returns (bytes memory bts) {\n     var len = self._unsafe_length;\n     if (len == 0)\n         return;\n     bts = new bytes(len);\n     _copyToBytes(self._unsafe_memPtr, bts, len);\n }\n\n /// @dev Decode an RLPItem into bytes. This will not work if the\n /// RLPItem is a list.\n /// @param self The RLPItem.\n /// @return The decoded string.\n function toData(RLPItem memory self) internal constant returns (bytes memory bts) {\n     if(!isData(self))\n         revert();\n     var (rStartPos, len) = _decode(self);\n     bts = new bytes(len);\n     _copyToBytes(rStartPos, bts, len);\n }\n\n /// @dev Get the list of sub-items from an RLP encoded list.\n /// Warning: This is inefficient, as it requires that the list is read twice.\n /// @param self The RLP item.\n /// @return Array of RLPItems.\n function toList(RLPItem memory self) internal constant returns (RLPItem[] memory list) {\n     if(!isList(self))\n         revert();\n     var numItems = items(self);\n     list = new RLPItem[](numItems);\n     var it = iterator(self);\n     uint idx;\n     while(hasNext(it)) {\n         list[idx] = next(it);\n         idx++;\n     }\n }\n\n /// @dev Decode an RLPItem into an ascii string. This will not work if the\n /// RLPItem is a list.\n /// @param self The RLPItem.\n /// @return The decoded string.\n function toAscii(RLPItem memory self) internal constant returns (string memory str) {\n     if(!isData(self))\n         revert();\n     var (rStartPos, len) = _decode(self);\n     bytes memory bts = new bytes(len);\n     _copyToBytes(rStartPos, bts, len);\n     str = string(bts);\n }\n\n /// @dev Decode an RLPItem into a uint. This will not work if the\n /// RLPItem is a list.\n /// @param self The RLPItem.\n /// @return The decoded string.\n function toUint(RLPItem memory self) internal constant returns (uint data) {\n     if(!isData(self))\n         revert();\n     var (rStartPos, len) = _decode(self);\n     if (len > 32 || len == 0)\n         revert();\n     assembly {\n         data := div(mload(rStartPos), exp(256, sub(32, len)))\n     }\n }\n\n /// @dev Decode an RLPItem into a boolean. This will not work if the\n /// RLPItem is a list.\n /// @param self The RLPItem.\n /// @return The decoded string.\n function toBool(RLPItem memory self) internal constant returns (bool data) {\n     if(!isData(self))\n         revert();\n     var (rStartPos, len) = _decode(self);\n     if (len != 1)\n         revert();\n     uint temp;\n     assembly {\n         temp := byte(0, mload(rStartPos))\n     }\n     if (temp > 1)\n         revert();\n     return temp == 1 ? true : false;\n }\n\n /// @dev Decode an RLPItem into a byte. This will not work if the\n /// RLPItem is a list.\n /// @param self The RLPItem.\n /// @return The decoded string.\n function toByte(RLPItem memory self) internal constant returns (byte data) {\n     if(!isData(self))\n         revert();\n     var (rStartPos, len) = _decode(self);\n     if (len != 1)\n         revert();\n     uint temp;\n     assembly {\n         temp := byte(0, mload(rStartPos))\n     }\n     return byte(temp);\n }\n\n /// @dev Decode an RLPItem into an int. This will not work if the\n /// RLPItem is a list.\n /// @param self The RLPItem.\n /// @return The decoded string.\n function toInt(RLPItem memory self) internal constant returns (int data) {\n     return int(toUint(self));\n }\n\n /// @dev Decode an RLPItem into a bytes32. This will not work if the\n /// RLPItem is a list.\n /// @param self The RLPItem.\n /// @return The decoded string.\n function toBytes32(RLPItem memory self) internal constant returns (bytes32 data) {\n     return bytes32(toUint(self));\n }\n\n /// @dev Decode an RLPItem into an address. This will not work if the\n /// RLPItem is a list.\n /// @param self The RLPItem.\n /// @return The decoded string.\n function toAddress(RLPItem memory self) internal constant returns (address data) {\n     if(!isData(self))\n         revert();\n     var (rStartPos, len) = _decode(self);\n     if (len != 20)\n         revert();\n     assembly {\n         data := div(mload(rStartPos), exp(256, 12))\n     }\n }\n\n // Get the payload offset.\n function _payloadOffset(RLPItem memory self) private constant returns (uint) {\n     if(self._unsafe_length == 0)\n         return 0;\n     uint b0;\n     uint memPtr = self._unsafe_memPtr;\n     assembly {\n         b0 := byte(0, mload(memPtr))\n     }\n     if(b0 < DATA_SHORT_START)\n         return 0;\n     if(b0 < DATA_LONG_START || (b0 >= LIST_SHORT_START && b0 < LIST_LONG_START))\n         return 1;\n     if(b0 < LIST_SHORT_START)\n         return b0 - DATA_LONG_OFFSET + 1;\n     return b0 - LIST_LONG_OFFSET + 1;\n }\n\n // Get the full length of an RLP item.\n function _itemLength(uint memPtr) private constant returns (uint len) {\n     uint b0;\n     assembly {\n         b0 := byte(0, mload(memPtr))\n     }\n     if (b0 < DATA_SHORT_START)\n         len = 1;\n     else if (b0 < DATA_LONG_START)\n         len = b0 - DATA_SHORT_START + 1;\n     else if (b0 < LIST_SHORT_START) {\n         assembly {\n             let bLen := sub(b0, 0xB7) // bytes length (DATA_LONG_OFFSET)\n             let dLen := div(mload(add(memPtr, 1)), exp(256, sub(32, bLen))) // data length\n             len := add(1, add(bLen, dLen)) // total length\n         }\n     }\n     else if (b0 < LIST_LONG_START)\n         len = b0 - LIST_SHORT_START + 1;\n     else {\n         assembly {\n             let bLen := sub(b0, 0xF7) // bytes length (LIST_LONG_OFFSET)\n             let dLen := div(mload(add(memPtr, 1)), exp(256, sub(32, bLen))) // data length\n             len := add(1, add(bLen, dLen)) // total length\n         }\n     }\n }\n\n // Get start position and length of the data.\n function _decode(RLPItem memory self) private constant returns (uint memPtr, uint len) {\n     if(!isData(self))\n         revert();\n     uint b0;\n     uint start = self._unsafe_memPtr;\n     assembly {\n         b0 := byte(0, mload(start))\n     }\n     if (b0 < DATA_SHORT_START) {\n         memPtr = start;\n         len = 1;\n         return;\n     }\n     if (b0 < DATA_LONG_START) {\n         len = self._unsafe_length - 1;\n         memPtr = start + 1;\n     } else {\n         uint bLen;\n         assembly {\n             bLen := sub(b0, 0xB7) // DATA_LONG_OFFSET\n         }\n         len = self._unsafe_length - 1 - bLen;\n         memPtr = start + bLen + 1;\n     }\n     return;\n }\n\n // Assumes that enough memory has been allocated to store in target.\n function _copyToBytes(uint btsPtr, bytes memory tgt, uint btsLen) private constant {\n     // Exploiting the fact that 'tgt' was the last thing to be allocated,\n     // we can write entire words, and just overwrite any excess.\n     assembly {\n         {\n                 let i := 0 // Start at arr + 0x20\n                 let words := div(add(btsLen, 31), 32)\n                 let rOffset := btsPtr\n                 let wOffset := add(tgt, 0x20)\n             tag_loop:\n                 jumpi(end, eq(i, words))\n                 {\n                     let offset := mul(i, 0x20)\n                     mstore(add(wOffset, offset), mload(add(rOffset, offset)))\n                     i := add(i, 1)\n                 }\n                 jump(tag_loop)\n             end:\n                 mstore(add(tgt, add(0x20, mload(tgt))), 0)\n         }\n     }\n }\n\n     // Check that an RLP item is valid.\n     function _validate(RLPItem memory self) private constant returns (bool ret) {\n         // Check that RLP is well-formed.\n         uint b0;\n         uint b1;\n         uint memPtr = self._unsafe_memPtr;\n         assembly {\n             b0 := byte(0, mload(memPtr))\n             b1 := byte(1, mload(memPtr))\n         }\n         if(b0 == DATA_SHORT_START + 1 && b1 < DATA_SHORT_START)\n             return false;\n         return true;\n     }\n}\n\ncontract ERC721BasicToken is ERC721Basic {\n\n  using SafeMath for uint256;\n  using AddressUtils for address;\n\n  // Mapping from token ID to owner\n  mapping (uint256 => address) internal tokenOwner;\n\n  // Mapping from token ID to approved address\n  mapping (uint256 => address) internal tokenApprovals;\n\n  // Mapping from owner to number of owned token\n  mapping (address => uint256) internal ownedTokensCount;\n\n  // Mapping from owner to operator approvals\n  mapping (address => mapping (address => bool)) internal operatorApprovals;\n\n  constructor()\n    public\n  {\n\n  }\n\n  /**\n   * @dev Gets the balance of the specified address\n   * @param _owner address to query the balance of\n   * @return uint256 representing the amount owned by the passed address\n   */\n  function balanceOf(address _owner) public view returns (uint256) {\n    require(_owner != address(0));\n    return ownedTokensCount[_owner];\n  }\n\n  /**\n   * @dev Gets the owner of the specified token ID\n   * @param _tokenId uint256 ID of the token to query the owner of\n   * @return owner address currently marked as the owner of the given token ID\n   */\n  function ownerOf(uint256 _tokenId) public view returns (address) {\n    address owner = tokenOwner[_tokenId];\n    require(owner != address(0));\n    return owner;\n  }\n\n  /**\n   * @dev Returns whether the specified token exists\n   * @param _tokenId uint256 ID of the token to query the existence of\n   * @return whether the token exists\n   */\n  function exists(uint256 _tokenId) public view returns (bool) {\n    address owner = tokenOwner[_tokenId];\n    return owner != address(0);\n  }\n\n  /**\n   * @dev Approves another address to transfer the given token ID\n   * The zero address indicates there is no approved address.\n   * There can only be one approved address per token at a given time.\n   * Can only be called by the token owner or an approved operator.\n   * @param _to address to be approved for the given token ID\n   * @param _tokenId uint256 ID of the token to be approved\n   */\n  function approve(address _to, uint256 _tokenId) public {\n    address owner = ownerOf(_tokenId);\n    require(_to != owner);\n    require(msg.sender == owner || isApprovedForAll(owner, msg.sender));\n\n    tokenApprovals[_tokenId] = _to;\n    emit Approval(owner, _to, _tokenId);\n  }\n\n  /**\n   * @dev Gets the approved address for a token ID, or zero if no address set\n   * @param _tokenId uint256 ID of the token to query the approval of\n   * @return address currently approved for the given token ID\n   */\n  function getApproved(uint256 _tokenId) public view returns (address) {\n    return tokenApprovals[_tokenId];\n  }\n\n  /**\n   * @dev Sets or unsets the approval of a given operator\n   * An operator is allowed to transfer all tokens of the sender on their behalf\n   * @param _to operator address to set the approval\n   * @param _approved representing the status of the approval to be set\n   */\n  function setApprovalForAll(address _to, bool _approved) public {\n    require(_to != msg.sender);\n    operatorApprovals[msg.sender][_to] = _approved;\n    emit ApprovalForAll(msg.sender, _to, _approved);\n  }\n\n  /**\n   * @dev Tells whether an operator is approved by a given owner\n   * @param _owner owner address which you want to query the approval of\n   * @param _operator operator address which you want to query the approval of\n   * @return bool whether the given operator is approved by the given owner\n   */\n  function isApprovedForAll(\n    address _owner,\n    address _operator\n  )\n    public\n    view\n    returns (bool)\n  {\n    return operatorApprovals[_owner][_operator];\n  }\n\n  /**\n   * @dev Returns whether the given spender can transfer a given token ID\n   * @param _spender address of the spender to query\n   * @param _tokenId uint256 ID of the token to be transferred\n   * @return bool whether the msg.sender is approved for the given token ID,\n   *  is an operator of the owner, or is the owner of the token\n   */\n  function isApprovedOrOwner(\n    address _spender,\n    uint256 _tokenId\n  )\n    internal\n    view\n    returns (bool)\n  {\n    address owner = ownerOf(_tokenId);\n    // Disable solium check because of\n    // https://github.com/duaraghav8/Solium/issues/175\n    // solium-disable-next-line operator-whitespace\n    return (\n      _spender == owner ||\n      getApproved(_tokenId) == _spender ||\n      isApprovedForAll(owner, _spender)\n    );\n  }\n\n  /**\n   * @dev Internal function to mint a new token\n   * Reverts if the given token ID already exists\n   * @param _to The address that will own the minted token\n   * @param _tokenId uint256 ID of the token to be minted by the msg.sender\n   */\n  function _mint(address _to, uint256 _tokenId) internal {\n    require(_to != address(0));\n    addTokenTo(_to, _tokenId);\n    emit Transfer(address(0), _to, _tokenId);\n  }\n\n  /**\n   * @dev Internal function to burn a specific token\n   * Reverts if the token does not exist\n   * @param _tokenId uint256 ID of the token being burned by the msg.sender\n   */\n  function _burn(address _owner, uint256 _tokenId) internal {\n    clearApproval(_owner, _tokenId);\n    removeTokenFrom(_owner, _tokenId);\n    emit Transfer(_owner, address(0), _tokenId);\n  }\n\n  /**\n   * @dev Internal function to clear current approval of a given token ID\n   * Reverts if the given address is not indeed the owner of the token\n   * @param _owner owner of the token\n   * @param _tokenId uint256 ID of the token to be transferred\n   */\n  function clearApproval(address _owner, uint256 _tokenId) internal {\n    require(ownerOf(_tokenId) == _owner);\n    if (tokenApprovals[_tokenId] != address(0)) {\n      tokenApprovals[_tokenId] = address(0);\n    }\n  }\n\n  /**\n   * @dev Internal function to add a token ID to the list of a given address\n   * @param _to address representing the new owner of the given token ID\n   * @param _tokenId uint256 ID of the token to be added to the tokens list of the given address\n   */\n  function addTokenTo(address _to, uint256 _tokenId) internal {\n    require(tokenOwner[_tokenId] == address(0));\n    tokenOwner[_tokenId] = _to;\n    ownedTokensCount[_to] = ownedTokensCount[_to].add(1);\n  }\n\n  /**\n   * @dev Internal function to remove a token ID from the list of a given address\n   * @param _from address representing the previous owner of the given token ID\n   * @param _tokenId uint256 ID of the token to be removed from the tokens list of the given address\n   */\n  function removeTokenFrom(address _from, uint256 _tokenId) internal {\n    require(ownerOf(_tokenId) == _from);\n    ownedTokensCount[_from] = ownedTokensCount[_from].sub(1);\n    tokenOwner[_tokenId] = address(0);\n  }\n\n  /**\n   * @dev Internal function to invoke `onERC721Received` on a target address\n   * The call is not executed if the target address is not a contract\n   * @param _from address representing the previous owner of the given token ID\n   * @param _to target address that will receive the tokens\n   * @param _tokenId uint256 ID of the token to be transferred\n   * @param _data bytes optional data to send along with the call\n   * @return whether the call correctly returned the expected magic value\n   */\n  function checkAndCallSafeTransfer(\n    address _from,\n    address _to,\n    uint256 _tokenId,\n    bytes _data\n  )\n    internal\n    returns (bool)\n  {\n    if (!_to.isContract()) {\n      return true;\n    }\n\n  }\n}\ncontract TokenContract is ERC721BasicToken {\n  using SafeMath for uint256;\n  using RLP for RLP.RLPItem;\n  using RLP for RLP.Iterator;\n  using RLP for bytes;\n  using BytesLib for bytes;\n\n  address depositContract;\n  address custodian;\n  address custodianHome;\n  uint256 mintedAmount;\n  uint256 public mintNonce = 0;\n  mapping (uint256 => uint256) public transferNonce;\n  mapping (bytes32 => address) public custodianApproval;\n\n  constructor (address _custodian) {\n    custodian = _custodian;\n  }\n\n  modifier onlyCustodian() {\n    require(custodian == msg.sender);\n    _;\n  }\n\n  event Mint(uint256 amount,\n             address indexed depositedTo,\n             uint256 mintNonce,\n             uint256 tokenId);\n  event Withdraw(uint256 indexed tokenId,\n                 address indexed withdrawer);\n  event TransferRequest(address indexed from,\n                        address indexed to,\n                        uint256 indexed tokenId,\n                        uint256 declaredNonce,\n                        bytes32 approvalHash);\n\n  function setDepositContract(address _depositContract) onlyCustodian public {\n    depositContract = _depositContract;\n  }\n\n  function mint(uint256 _value, address _to) public {\n    //might have to log the value, to, Z details\n    bytes memory value = uint256ToBytes(_value);\n    bytes memory to = addressToBytes(_to);\n    bytes memory Z = uint256ToBytes(mintNonce);\n    uint256 tokenId = bytes32ToUint256(keccak256(value.concat(to).concat(Z)));\n    _mint(_to, tokenId);\n    emit Mint(_value, _to, mintNonce, tokenId);\n    mintNonce += 1;\n  }\n\n  function withdraw(uint256 _tokenId) public {\n    emit Withdraw(_tokenId, msg.sender);\n    //USED TO ANNOUNCE A WITHDRAWL (DOESNT NECESSISTATE SUBMISSION)\n  }\n\n  /* ERC721 Related Functions --------------------------------------------------*/\n  // Mapping from token ID to approved address\n\n  /**\n   * @dev Requests transfer of ownership of a given token ID to another address\n   * Usage of this method is discouraged, use `safeTransferFrom` whenever possible\n   * Requires the msg sender to be the owner, approved, or operator\n   * @param _from current owner of the token\n   * @param _to address to receive the ownership of the given token ID\n   * @param _tokenId uint256 ID of the token to be transferred\n   * @param _declaredNonce uint256 nonce, depth of transaction\n  */\n\n  function transferFrom(\n    address _from,\n    address _to,\n    uint256 _tokenId,\n    uint256 _declaredNonce\n  )\n    public\n  {\n    require(isApprovedOrOwner(msg.sender, _tokenId));\n    require(_from != address(0));\n    require(_to != address(0));\n    require(_declaredNonce == transferNonce[_tokenId]);\n\n    clearApproval(_from, _tokenId);\n    //TODO: Double check if hash is secure, no chance of collision\n    bytes32 approvalHash = keccak256(uint256ToBytes(_tokenId)\n                           .concat(uint256ToBytes(_declaredNonce)));\n    custodianApproval[approvalHash] = _to;\n    //TODO: increase transferNonce in custodianApprove instead?\n    // transferNonce[_tokenId] += 1;\n    emit TransferRequest(_from, _to, _tokenId, _declaredNonce, approvalHash);\n  }\n\n  function custodianApprove(uint256 _tokenId, uint256 _declaredNonce)\n  onlyCustodian public {\n    require(exists(_tokenId));\n    transferNonce[_tokenId] += 1;\n    bytes32 approvalHash = keccak256(uint256ToBytes(_tokenId)\n                           .concat(uint256ToBytes(_declaredNonce)));\n    address _to = custodianApproval[approvalHash];\n    address _from = ownerOf(_tokenId);\n    removeTokenFrom(_from, _tokenId);\n    addTokenTo(_to, _tokenId);\n    emit Transfer(_from, _to, _tokenId);\n    clearCustodianApproval(approvalHash);\n  }\n\n  function revertTransfer(uint256 _tokenId, uint256 _declaredNonce) public {\n    require(isApprovedOrOwner(msg.sender, _tokenId), \"no approval/ not owner\");\n    clearCustodianApproval(keccak256(uint256ToBytes(_tokenId)\n                          .concat(uint256ToBytes(_declaredNonce))));\n  }\n\n\n  /* View functions --------------------------------------------------*/\n  function viewTransferRequest(bytes32 _approvalHash) public view\n  returns(address) {\n    return custodianApproval[_approvalHash];\n  }\n\n  /* Util functions --------------------------------------------------*/\n  /**\n   * @dev Internal function to clear current custodian approval of a given token ID\n   * @param _approvalHash bytes32 ID of the token to be transferred\n   */\n  function clearCustodianApproval(bytes32 _approvalHash) internal {\n    if (custodianApproval[_approvalHash] != address(0)) {\n      custodianApproval[_approvalHash] = address(0);\n    }\n  }\n\n  function bytesToBytes32(bytes b, uint offset) private pure returns (bytes32) {\n    bytes32 out;\n    for (uint i = 0; i < 32; i++) {\n      out |= bytes32(b[offset + i] & 0xFF) >> (i * 8);\n    }\n    return out;\n  }\n\n  function stringToBytes( string s) internal returns (bytes memory b3){\n    b3 = bytes(s);\n    return b3;\n  }\n\n  // Nick Johnson https://ethereum.stackexchange.com/questions/4170/how-to-convert-a-uint-to-bytes-in-solidity\n  function uint256ToBytes(uint256 x) internal returns (bytes b) {\n    b = new bytes(32);\n    assembly { mstore(add(b, 32), x) }\n  }\n\n  // Tjaden Hess https://ethereum.stackexchange.com/questions/884/how-to-convert-an-address-to-bytes-in-solidity\n  function addressToBytes(address a) internal returns (bytes b) {\n    assembly {\n        let m := mload(0x40)\n        mstore(add(m, 20), xor(0x140000000000000000000000000000000000000000, a))\n        mstore(0x40, add(m, 52))\n        b := m\n    }\n  }\n\n  // https://ethereum.stackexchange.com/questions/6498/how-to-convert-a-uint256-type-integer-into-a-bytes32\n  function bytes32ToUint256(bytes32 n) internal returns (uint256) {\n    return uint256(n);\n  }\n\n}\n\n",
  "sourcePath": "/home/user/peacebridge/contracts/mocks/TokenContract_flat.sol",
  "compiler": {
    "name": "solc",
    "version": "0.4.24+commit.e67f0147.Emscripten.clang"
  },
  "schemaVersion": "3.0.6",
  "updatedAt": "2019-04-11T13:24:16.534Z",
  "devdoc": {
    "methods": {
      "approve(address,uint256)": {
        "details": "Approves another address to transfer the given token ID The zero address indicates there is no approved address. There can only be one approved address per token at a given time. Can only be called by the token owner or an approved operator.",
        "params": {
          "_to": "address to be approved for the given token ID",
          "_tokenId": "uint256 ID of the token to be approved"
        }
      },
      "balanceOf(address)": {
        "details": "Gets the balance of the specified address",
        "params": {
          "_owner": "address to query the balance of"
        },
        "return": "uint256 representing the amount owned by the passed address"
      },
      "exists(uint256)": {
        "details": "Returns whether the specified token exists",
        "params": {
          "_tokenId": "uint256 ID of the token to query the existence of"
        },
        "return": "whether the token exists"
      },
      "getApproved(uint256)": {
        "details": "Gets the approved address for a token ID, or zero if no address set",
        "params": {
          "_tokenId": "uint256 ID of the token to query the approval of"
        },
        "return": "address currently approved for the given token ID"
      },
      "isApprovedForAll(address,address)": {
        "details": "Tells whether an operator is approved by a given owner",
        "params": {
          "_operator": "operator address which you want to query the approval of",
          "_owner": "owner address which you want to query the approval of"
        },
        "return": "bool whether the given operator is approved by the given owner"
      },
      "ownerOf(uint256)": {
        "details": "Gets the owner of the specified token ID",
        "params": {
          "_tokenId": "uint256 ID of the token to query the owner of"
        },
        "return": "owner address currently marked as the owner of the given token ID"
      },
      "setApprovalForAll(address,bool)": {
        "details": "Sets or unsets the approval of a given operator An operator is allowed to transfer all tokens of the sender on their behalf",
        "params": {
          "_approved": "representing the status of the approval to be set",
          "_to": "operator address to set the approval"
        }
      },
      "transferFrom(address,address,uint256,uint256)": {
        "details": "Requests transfer of ownership of a given token ID to another address Usage of this method is discouraged, use `safeTransferFrom` whenever possible Requires the msg sender to be the owner, approved, or operator",
        "params": {
          "_declaredNonce": "uint256 nonce, depth of transaction",
          "_from": "current owner of the token",
          "_to": "address to receive the ownership of the given token ID",
          "_tokenId": "uint256 ID of the token to be transferred"
        }
      }
    }
  },
  "userdoc": {
    "methods": {}
  }
}